:020000040800F2
:1000000000800020B1020008A1020008850200085B
:10001000A1020008A1020008A102000800000000DF
:10002000000000000000000000000000A102000825
:10003000A102000800000000A1020008A1020008BF
:10004000A1020008A1020008A1020008A102000804
:10005000A1020008A1020008A1020008A1020008F4
:10006000A1020008A1020008A1020008A1020008E4
:10007000A1020008A1020008A1020008A1020008D4
:10008000A1020008A1020008A1020008A1020008C4
:10009000A1020008A1020008A1020008690B0008E3
:1000A000A1020008A1020008A1020008A1020008A4
:1000B000B9170008A1020008A1020008A102000867
:1000C000A1020008A1020008A1020008A102000884
:1000D000A1020008A1020008A1020008A102000874
:1000E000990B0008A1020008A1020008A102000863
:1000F000A1020008A1020008A1020008A102000854
:10010000000000000000000000000000A102000844
:10011000A1020008A1020008A1020008A102000833
:10012000A1020008A1020008A1020008A102000823
:10013000A1020008A1020008000000000000000069
:10014000A1020008A1020008A102000800000000AE
:10015000000000000000000000000000000000009F
:100160000000000000000000A1020008A102000839
:10017000A1020008000000000000000000000000D4
:0801800000000000A1020008CC
:10018800394AD2F8883043F47003C2F88830374BC4
:100198001A6842F001021A605968354A0A405A60E2
:1001A8001A6822F0847222F480321A601A6822F4E3
:1001B80080221A605A6822F4FE025A60DA6A22F033
:1001C8000F02DA62196B2B4A82B00A401A630022C6
:1001D8009A60009201921A6842F480321A601A6892
:1001E80002F400320192009A01320092019A1AB97F
:1001F800009AB2F5A04FF2D11A6812F4003218BF73
:1002080001220192019A012A05D0174B4FF0006292
:100218009A6002B07047184A122111605A685A60F1
:100228005A685A605A6842F480625A605A6822F4DE
:100238007C125A605A6842F4E8125A601A6842F00E
:1002480080721A601A689201FCD55A6822F003027B
:100258005A605A6842F002025A605A6802F00C0268
:10026800082AFAD1D1E700BF00ED00E000100240F3
:100278000CC07FF8CCFC00FF00200240684620F04C
:100288000701044A8D4600BF138D9BB243F4004317
:100298001385F8E700040048684620F007018D46FA
:1002A80008B5FFF7EBFF00001449154A1548521A24
:1002B800921000239A4215D1134A144ED2F888306E
:1002C800134C43F47003C2F88830D2F83432A41BBC
:1002D80043F04043C2F83432A4100025A54207D1A8
:1002E80000F0A8B850F8234041F823400133E1E773
:1002F80056F8253098470135F0E700BF0000002088
:1003080000000020583A000800ED00E0583A0008C4
:10031800603A0008F0B52DED048B3A499FED3A8A12
:10032800DFED3A8A3A4D3B4C8FB007463A4801F028
:10033800B2F83A4B00930022394B3A4903A800F02F
:1003480025FF18EE106AF0EE489A314801F0E8FEF1
:100358000028FAD095F8B030002B44D032493846FE
:1003680000F010FABB6C072B07D8DFE803F0040491
:10037800393904040404DFED258AD5ED2E7A2846A0
:10038800B8EEE79A01F0D4FE07EE900AB8EEE77AE5
:1003980003A8C9EE077A17EE902A79EEE77A17EEE6
:1003A800901A00F097FE07EE900AF4EEC88A37EE2E
:1003B800887AF1EE10FA38EE679AC8BFDFED1B7A3B
:1003C80017EE101A2046CCBF38EE278AB0EE688A9E
:1003D80001F0E2FF19EE101A204601F0DFFFB4E742
:1003E800DFED138AC9E73146204601F0D5FF3146D3
:1003F800204601F0D3FF03A800F0ACFE9FED028A6F
:10040800A3E700BF6432000800000000CDCCCC3E5A
:100418001C020020D80200206803002000002041B0
:100428006666E63FCDCCCC3E8C0200206F12033BC3
:100438003333333F00B50848C1B001F053FB14A86B
:1004480000F046F814A901A800F08AF9034802F060
:100458008BF801A8FFF75EFF0000002004020020CF
:1004680010B5054C204601F00BFA2046034A044912
:10047800BDE8104001F0F5B8000000201000002091
:1004880035180008F8B504460B4B44F8083B00261D
:10049800054637466B689E4209D254F8040B10B1E2
:1004A80003685B68984744F8047C0136F2E72846FD
:1004B80002F076FB2846F8BD9C37000810B50446C4
:1004C800FFF7E0FF2046B02101F0DEF8204610BD1E
:1004D8002DE9F043804695B002F07EFB834BC8F8C7
:1004E80000300823C8F88830C8F88C30C8F89C3029
:1004F8007F4B0122C8F89020C8F89420C8F89820AB
:1005080093E807007B4B0BAC84E8070093E80700EF
:10051800794B0EAD85E8070093E8070011AE86E831
:100528000700382001F0A8F840F2D233099340F2CE
:10053800F1430893714B0793714B0693814696E8F4
:10054800070003AF87E8070095E807008DE8070074
:10055800484694E80E0002F059FE6A4BC8F8089025
:1005680093E80700684B84E8070093E80700674BA7
:1005780085E8070093E8070086E807002C2001F0CB
:100588007BF8814696E8070087E8070095E80700AA
:100598008DE80700484694E80E0002F06DFC5C4BBD
:1005A800C8F80C9093E807005A4B84E8070093E8D2
:1005B8000700594B85E8070093E8070086E807001D
:1005C800282001F059F8814696E8070087E80700D7
:1005D80095E807008DE80700484694E80E0002F009
:1005E800C5FD4E4BC8F8109093E807004C4B84E8C3
:1005F800070093E807004B4B85E8070093E80700DE
:1006080086E80700382001F037F840F2C62309933E
:1006180040F283730893444B0793444B06938146F7
:1006280096E8070087E8070095E807008DE80700C7
:10063800484694E80E0002F0D1FB3D4BC8F81490F0
:1006480093E807003B4B84E8070093E807003A4B20
:1006580085E8070093E8070086E807002C2001F0EA
:100668000BF8814696E8070087E8070095E8070039
:100678008DE80700484694E80E0002F0FDFB2F4B7A
:10068800C8F8189093E807002D4B84E8070093E812
:1006980007002C4B85E8070093E8070086E8070069
:1006A800402000F0E9FFA323099340F20A4308938E
:1006B800254B0793254B0693814696E8070087E864
:1006C800070095E807008DE80700484694E80E0003
:1006D80002F01EFA06234046C8F81C90C8F80430F9
:1006E80002F003FB404615B0BDE8F0839C370008D4
:1006F80070370008403700084C3700087932000886
:10070800893200084C3700084C3700084C3700087D
:10071800643700084C37000858370008703700085D
:10072800583700087C3700087D320008AD320008D1
:100738007C3700087C3700087C3700087C370008C5
:100748007C37000888370008813200083D330008EC
:10075800704710B54C21044600F096FF204610BDA6
:100768000346074A10B543F8042B00F1440400225D
:1007780003F8012BA342FBD18264416410BD00BF82
:10078800B437000870B500F1380204460023A2F11E
:100798000800C51895F90460D5180133082B2E7187
:1007A800F7D184420246F1D1081F234B234A1C315A
:1007B800054655F8046FB242B8BF3246B342A8BFE7
:1007C80033468D42F5D1934231DAD31A07EE903A87
:1007D8009FED1B7AF8EEE77AC7EE276A07EE902AB4
:1007E800F8EEE77A07EEE67AF0EE477A231D194627
:1007F80050F8042F07EE102AB8EEC77AB0EE676AF1
:1008080007EE266A8542BDEEC67A17EE102A03F86F
:10081800012BEDD1606C03689B689847606C02F00F
:10082800FBF9606C02F02AFAA064002070BDDFEDCD
:10083800057AF0EE676AD9E740420F00C0BDF0FFC5
:100848000000FE42000000000E4BDB68DB4310B5E1
:10085800C3F30224C4F10403DBB299400F232341FC
:100868001340094A0B431B01111803F0F00381F8E8
:1008780000334109012300F01F0003FA00F042F899
:10088800210010BD00ED00E000E100E030B5058872
:10089800ACB2284DA84212D005F50065A8420ED08A
:1008A800B0F1804F0BD0A5F59835A84207D005F5D3
:1008B8008065A84203D005F5A435A84203D124F0E9
:1008C80070040C43A4B21C49884208D001F5806129
:1008D80088421FBF24F44074A4B21443A4B2048015
:1008E800C362BDF80C300385124B984213D003F550
:1008F800006398420FD003F5406398420BD003F58C
:100908008063984207D003F58063984203D003F5CB
:100918000063984201D100230386012343610388C1
:100928009BB243F001030380C36843F00103C36033
:1009380030BD00BF002C01400010004000230C22F5
:10094800436002608360054BB3FBF1F189B281819A
:10095800036843F001030360704700BF00A24A0424
:1009680020F01F02012300F01F0003FA00F0014BE2
:10097800D05070471404014001F0030301F0FC015A
:1009880001F1804101F5803110B58A689B000F2480
:100998009C4022EA04028A608A6898401043886072
:1009A80010BD20F01F0303F1804303F582330122B9
:1009B80000F01F0030B502FA00F01C68C243144072
:1009C8001C605D6815405D601D6805431D609D687D
:1009D80015409D60DD6803F140442A401029A4F5C4
:1009E8008234DA6006D19A6802439A60DA68104362
:1009F800D86030BD01F1804101F582310B591843AF
:100A0800085130BD2F4A536943F47F0310B5536131
:100A18002D4B03609C6824F440549C609C6844F40B
:100A280040549C601C6824F440541C601C681C6082
:100A3800DC6844F48054DC60546944F47F045461F5
:100A48009C68436024F440449C609C6844F440449F
:100A58009C601C6824F440441C601C681C60DC68B2
:100A680044F48044DC60546944F47F0454619C6815
:100A7800836024F040749C609C6844F040749C60DF
:100A88001C6824F040741C601C681C60DC6844F01E
:100A98008074DC60546944F47F0454619A68C360CC
:100AA80022F440029A609A6842F440029A601A68F6
:100AB80022F440021A601A681A60DA6842F4800266
:100AC800DA6010BD001002400008004870470000BE
:100AD800164B174A10B500241C60164B1C6093690E
:100AE80043F00103936106210220FFF745FF0C2123
:100AF8000220FFF741FF08210620FFF752FF0821D7
:100B08000C20FFF74EFF224621461720FFF79CFED8
:100B1800224621462820FFF797FE0620FFF720FFF0
:100B28000C20BDE81040FFF71BBF00BF08000020E5
:100B3800001002400C000020034B18685823434360
:100B48005A2093FBF0F0704708000020034B186808
:100B5800582343435A2093FBF0F070470C000020C1
:100B6800094B1B8A13F0C0030BD0C02B0CBF012309
:100B78004FF0FF33054A116806200B441360FFF756
:100B8800EFBE0123F6E700BF000800480800002078
:100B98000A4B1B8A13F4C0530CD0B3F5C05F0CBFCB
:100BA8004FF0FF330123064A11680C200B441360F1
:100BB800FFF7D6BE4FF0FF33F5E700BF0008004847
:100BC8000C0000204C494B6943F47F0330B54B615E
:100BD8004A4B03609A6822F440729A609A6842F419
:100BE80040729A609A8822F010021204120C9A80BD
:100BF8009A8892B29A801A6822F440721A601A6827
:100C080042F480721A604A6942F47F024A619A6823
:100C1800436022F440629A609A6842F440629A60A3
:100C28009A8822F020021204120C9A809A8892B2B2
:100C38009A801A6822F440621A601A6842F4806244
:100C48001A604A6942F47F024A614FF0904282601A
:100C5800956825F040459560956845F04045956054
:100C68009588C5F30E0595809588ADB29580156871
:100C780025F040451560156845F0804515604A69BE
:100C880042F47F024A619A68C36022F040629A6027
:100C98009A6842F040629A609A8822F400521204DC
:100CA800120C9A809A8892B29A801A6822F040624E
:100CB8001A601A6842F080621A604A6942F47F0238
:100CC8004A619A68036122F040529A609A6842F039
:100CD80040529A609A8822F480421204120C9A8038
:100CE8009A8892B29A801A6822F040521A601A685A
:100CF80042F080521A6030BD0010024000040048E3
:100D0800704700000029826814DA138D6FEA4343A4
:100D18006FEA53439BB213854942FF290B46A8BF8C
:100D2800FF2341F2BE215943FF23B1FBF3F1044BEA
:100D380099637047936943F400439361EDE700BFFB
:100D4800002C014042680029ABBF138D93699BB208
:100D580043F02003B5BF494243F020039361138554
:100D6800FF290B46A8BFFF2341F2BE215943FF23A9
:100D7800B1FBF3F1014B5963704700BF002C0140F0
:100D8800C268936823F040639360936843F04063BC
:100D98009360136823F040631360136843F00063A3
:100DA80013600369996821F040519960996841F08E
:100DB80040519960196821F040511960196841F053
:100DC80000511960516A21F470015162516A41F46D
:100DD800C00151625A6A22F070625A625A6A42F03D
:100DE800C0625A62104A936943F4006393610F4BDF
:100DF800002241F2BF211A80D96201211A851A8680
:100E080059615A639A634FF480725A6047F27002CC
:100E18009A6177221A621A8892B20A431A805A6C27
:100E280042F400425A64704700100240002C01400E
:100E3800016802690B8D9BB243F010030B85416872
:100E48000B8D9BB243F020030B8581680B8D6FEAF5
:100E580043436FEA53439BB20B85C1680B8D9BB22A
:100E680043F400530B85138D9BB243F480431385E1
:100E7800FFF786BF030F064BDA6A14BF22F47852D5
:100E880022F4F872DA62DA6A1043D862704700BF57
:100E980000100240042A30B51CDC02EB4202046B4D
:100EA80052001F25954024EA050401FA02F2224364
:100EB8000263092939DD0A398269826901EB410136
:100EC80007248C4022EA0402826182698B40134322
:100ED800836130BD092A0CDC0624053A6243456B60
:100EE8001F24944025EA040401FA02F222434263D3
:100EF800DFE70E2A4FF006040BDC0A3A6243856BE3
:100F08001F24944025EA040401FA02F22243826372
:100F1800CFE70F3A6243C56B1F24944025EA0404C7
:100F280001FA02F22243C263C3E701394269426906
:100F380001EB410138248C4022EA040242614269F3
:100F4800033103FA01F11143416130BD70B54FF42B
:100F58008870FFF78FFF194919484B69194D1A4CCA
:100F680043F080534B61FFF785FF4B694FF0A04674
:100F780043F000534B6101220023F3601146EB60FC
:100F88003046E3600223FFF785FF01221146022362
:100F98002846FFF77FFF022301220C212046FFF796
:100FA80079FFB36843F00103B360AB6843F0010312
:100FB800AB60A36843F00103A36070BD001002405A
:100FC80000220010000100500004005001380928D8
:100FD80098BF0E4B10B59BBF53F820400C4B4FF0F9
:100FE800A044195C4FF001031A4688BF012120462E
:100FF800FFF750FFA36843F00403A36023685B076F
:1010080001D400BFFAE7206C10BD00BFBC37000850
:10101800E437000870470000214A2248536943F426
:101028007F0353614FF09043996821F44021996000
:10103800996841F440219960196821F440211960A8
:10104800196841F400211960516941F47F01516127
:10105800996821F440119960996841F440119960A8
:10106800196821F440111960196841F400111960D8
:10107800596A21F0F0015962596A41F070015962C8
:10108800596A21F470615962596A41F4E061596200
:10109800936943F4804393614FF4E131FFF74EBC09
:1010A800001002400038014070470000044BDA6924
:1010B800120601D400BFFAE789B21985704700BF4C
:1010C80000380140704710B52C21044600F0DCFAC6
:1010D800204610BDD0ED036AD0ED017A90ED046A88
:1010E800D0ED074AC0ED046A07EE102A76EEA66A2C
:1010F80090ED065AC0ED027A05EE901A67EEA47AD2
:1011080037EE667A45EE857A4160C26037EE067A38
:10111800D0ED086A80ED056A47EE667A90ED0A7AA6
:1011280077EE877A90ED097AC0ED0A7AF4EEC77AFD
:10113800F1EE10FAC8BF80ED0A7AD0ED0A7AB1EE66
:10114800477AF4EEC77AF1EE10FA48BF80ED0A7AD2
:10115800806A7047002343608360C3600361436112
:101168008362704710B507EE901A07EE102A1A46E8
:10117800FFF7F0FF37EE877A029B80ED067AF1EEF3
:10118800677AC0ED077A0262436210BD07EE102A43
:101198001A46094B036010B507EE901AFFF7DAFFFD
:1011A80037EE877A029B80ED067AF1EE677AC0ED1A
:1011B800077A0262436210BDF8370008704710B51D
:1011C8004421044600F060FA204610BD014B03603C
:1011D800704700BF083800082DE9F0410446006C4C
:1011E80003689B6888469847206C0368D4215B692C
:1011F8009847206C036819215B699847206C03683D
:101208009B689847206C0368D5215B699847206CD8
:10121800036801219B699847000207B2206C0368A4
:1012280001219B6998470743206C036801219B694A
:101238009847000206B2206C036801219B69984711
:101248000643206C036801219B699847000205B298
:10125800206C036800219B6998470543206C03684C
:10126800DB683FB236B22DB29847B8F1000F08D00C
:10127800A36A3B44A362E36A3344E362236B2B44CF
:101288002363A36AE169226BE06AFB1AAD1A236142
:10129800192293FBF2F301EB4303E361236AA5618F
:1012A800301A606190FBF2F003EB40002062636A41
:1012B800206C95FBF2F503EB4505036865629B68B6
:1012C8009847206C0368D4215B699847206C0368B1
:1012D80029215B699847206C03689B689847206CB4
:1012E8000368D5215B699847206C036801219B69D5
:1012F8009847000207B2206C036801219B69984750
:101308000743206C036801219B699847000206B2D5
:10131800206C036801219B6998470643206C036889
:1013280001219B699847000205B2206C03680021DF
:101338009B6998470543206C0368DB6898473FB270
:1013480036B22DB201236760A660E56084F83C30B0
:10135800BDE8F0810021FFF73FBF406B003018BFA8
:101368000120704711F1FF3101D300BFFAE7704740
:1013780038B50446102208462164A823D42101F078
:1013880038F8002323616361A361A362E3622363E6
:10139800E3612362636242F210712046FFF7E2FFC5
:1013A8000F226363D421206C01F041F8682804BF40
:1013B800012363631022A823D421206C01F019F8BB
:1013C80038231E22D421206C01F013F800232E228A
:1013D800D421206C01F00DF800231222D421206CB6
:1013E80001F007F860232022D421206C01F001F8D5
:1013F80038231F22D421206C00F0FBFF42F2107129
:101408002046FFF7AFFF00212046FFF7E5FE002347
:10141800A3634FF47A7501212046FFF7DDFE6421AE
:101428002046FFF79FFF013DF5D14FF47A72A36A7A
:10143800E56193FBF2F32562A3626562E36A656086
:1014480093FBF2F3A560E362E560236B054893FB29
:10145800F2F3214623630A222B4600F057F984F859
:101468003C5038BD6C03002010B50446FFF7D2FD90
:10147800204610BD10B50446FFF716FE204610BDE5
:1014880038B505464C1E14F8011F19B12846FFF758
:101498000DFEF8E738BDFFF7F3BF30B585B0002380
:1014A8000A228DF80F301546B1FBF5F405FB14132D
:1014B80004A91144303301F80C3C531EDBB2214619
:1014C8002CB901AB9918FFF7DBFF05B030BD1A4600
:1014D800EAE7704710B54421044600F0D5F82046E5
:1014E80010BD00002849294B03604B6943F47F0372
:1014F80030B54B61264B83619A6822F040629A604E
:101508009A6842F040629A609A8822F40052120463
:10151800120C9A809A8892B29A801A6822F04062D5
:101528001A601A6842F080621A604A6942F47F02BF
:101538004A61184AC261156825F0030515601568E7
:1015480045F0030515604D6945F47F054D61156843
:10155800026225F00C051560156845F00C0515604C
:101568004A6942F47F024A611A68436222F0030220
:101578001A601A6842F003021A601A8D92B242F495
:1015880000521A8530BD00BF001002401C38000808
:10159800000800480004004800EB8202936BD26AFE
:1015A8009B1A23EAE3731022C3F5805393FBF2F3EB
:1015B8000A6802EB42021344042293FBF2F30B6025
:1015C800704738B5856A044615B1012D14D038BD69
:1015D8000820FFF7FBFCA0630920FFF7F7FCE06396
:1015E8000A20FFF7F3FCA2692064936943F40053CF
:1015F80093610123A36238BD0820FFF7E7FCE0628E
:101608000920FFF7E3FC20630A20FFF7DFFCA2694B
:101618006063138D9BB243F40053138504F10801F2
:1016280000222046FFF7B8FF2A46211D2046FFF773
:10163800B3FF022204F10C012046FFF7ADFFA268B8
:10164800EF2A4FF0000304DCD12A257403DD63740C
:1016580002E02374FBE765740023A362012323756A
:1016680038BD00207047FEE7014B024818607047FC
:101678001400002070030020024A13681844106008
:10168800184670471400002070470000024A13688B
:1016980018441060184670471400002070477047BF
:1016A800F7B50022154D142713464FF47A7607FB39
:1016B80002F429190132102A2B514B608E60CB603D
:1016C8000B744B74F3D10E4A13600E4A0360D3694E
:1016D80043F00103D36100224FF4347300931146A1
:1016E80063234FF08040FFF7D1F8012200211C202E
:1016F800FFF7AAF862B603B0F0BD00BF1C000020D7
:10170800180000200010024070470000F0B572B6C3
:10171800114D00244FF0FF304FF0140E2F460EFBF2
:1017280004F605EB060CAE5926B9DCF80460002E69
:1017380008BF20460134102CF1D1441C0AD0C4B291
:10174800142565437C1900267E516160A260E26021
:101758002674637462B6F0BD1C000020044814238C
:1017680003FB01010023CA608A600B74704700BF45
:101778001C00002082B072B6034B1B68019362B64E
:10178800019802B0704700BF1800002007B5024654
:10179800FFF7F0FF014401911046FFF7EBFF019BB3
:1017A800984201D200BFF7E703B05DF804FB0000E0
:1017B800F8B54FF080431A69D20714D5194F4FF680
:1017C800FE721A61002414263D4606FB0473DA688B
:1017D80052B1DA68013ADA600134102CF5D1124AB4
:1017E800136801331360F8BD9A68DA601A7CFF2A1F
:1017F8001FBF1A7C0132D2B21A7406FB04F3EA182E
:10180800527C002AE8D1EA580AB1EB58984706FBFF
:1018180004535A68002ADFD0586803689B689847C1
:10182800DAE700BF1C00002018000020704710B540
:1018380008210446FFF728FF204610BD10B5034BCA
:101848000360044600F0D4FD204610BD303800087F
:1018580010B50446FFF7F2FF20461021FFF714FFEA
:10186800204610BD10B5044621B10349FFF713FE09
:10187800204610BD0149F9E74D39000852390008E2
:101888001049114B03604B6943F47F034B610F4BC5
:1018980043609A6822F040429A609A6842F0404257
:1018A8009A609A88C2F30E029A809A8892B29A80B5
:1018B8001A6822F040421A601A6842F080421A60A0
:1018C800704700BF0010024060390008000400485B
:1018D800026821B1936943F4004393617047138D03
:1018E8006FEA43436FEA53439BB213857047D1B9FC
:1018F80003689A6822F440429A609A6842F4404227
:101908009A609A8822F080021204120C9A809A88AF
:1019180092B29A801A6822F440421A601A6842F415
:1019280080421A60704701290ED103689A6822F430
:1019380040429A609A6842F440429A601A6822F4D7
:1019480040421A601A68ECE7022913D103689A68C2
:1019580022F440429A609A6842F440429A601A68B7
:1019680022F440421A601A681A60DA6842F4804227
:10197800DA607047032910D103689A6822F440425C
:101988009A609A6842F440429A601A6822F4404287
:101998001A601A6842F40042C3E70429C2D10368F6
:1019A8001A6822F440421A601A6842F44042B8E7C2
:1019B800054A08B5536943F47F035361034B036039
:1019C8000121FFF794FF08BD001002400004004801
:1019D800D1B903689A6822F440529A609A6842F42E
:1019E80040529A609A8822F040021204120C9A809F
:1019F8009A8892B29A801A6822F440521A601A6839
:101A080042F480521A60704701290ED103689A681F
:101A180022F440529A609A6842F440529A601A68D6
:101A280022F440521A601A68ECE7022913D10368BD
:101A38009A6822F440529A609A6842F440529A6036
:101A48001A6822F440521A601A681A60DA6842F476
:101A58008052DA607047032910D103689A6822F42B
:101A680040529A609A6842F440529A601A6822F486
:101A780040521A601A6842F40052C3E70429C2D1DE
:101A880003681A6822F440521A601A6842F44052F5
:101A9800B8E70000054A08B5536943F47F0353616A
:101AA800034B03600121FFF793FF08BD00100240BC
:101AB800000400480A2310B5436004460830FFF7C5
:101AC80077FF04F10C00FFF7E5FFA268138D9BB2C6
:101AD80043F080031385E268138D9BB243F0400303
:101AE800138510BD2DE9F04105463F4C3F4FDFF807
:101AF80050810435FEF744FB01212846FFF7E8FE34
:101B08002046FFF789FA20463949FFF7C4FC3949CE
:101B18002046FFF7C0FCFFF7A7FD374906462046D9
:101B2800FFF7B9FC3146354E2046FFF7B6FC314683
:101B38002046FFF7B0FC3846FFF7B2FD2046304993
:101B4800FFF7A9FC20462F49FFF7A5FC3846C82116
:101B5800FFF71CFE2C492D4F2046FFF79CFC404602
:101B6800FFF7A8FF20462A49FFF795FC414638466B
:101B7800FFF7FEFB27492046FFF78DFC3846FFF7A5
:101B8800ECFB01462046FFF76DFE3146FFF783FC6C
:101B9800214800F067FA21492046FFF77CFC2048DD
:101BA800FEF796FF1F492046FFF775FC1E4800F018
:101BB800C1FB20461D49FFF76EFC00212846FFF7B0
:101BC80087FE1B4800F0BEFC20461A49FFF763FC5D
:101BD80020461949FFF75FFC20461849FFF75BFCD0
:101BE8000020BDE8F08100BF680300206C030020DE
:101BF800613800086D380008813800086B38000823
:101C08009F380008B0380008C7380008C001002015
:101C1800BE380008CD3800081C020020E138000852
:101C2800A0010020F8380008D80200201239000866
:101C3800040200202C3900086A3800083B390008E3
:101C4800B001002070B5044600F10C0604F1080547
:101C580030460021FFF7BCFE28460021FFF747FE6B
:101C680030460121FFF7B4FE28460021FFF73FFE6A
:101C780030460121FFF7ACFE28460121FFF737FE69
:101C88002046BDE8704000F0F9BB70B5044600F18D
:101C98000C0604F1080530460121FFF799FE284695
:101CA8000121FFF724FE30460121FFF791FE284667
:101CB8000021FFF71CFE30460021FFF789FE284669
:101CC8000121FFF714FE2046BDE8704000F0D6BBA6
:101CD8002DE9F843044600F108073846894604F11F
:101CE8000C060121FFF703FE00213046FFF770FEC6
:101CF800204600F0C3FB4FF009080025B8F10108A1
:101D080017D001213046FFF763FE204600F0B6FBEE
:101D1800A3681B8A6D001B063046EDB24FF0000128
:101D280048BF45F00105FFF753FE204600F0A6FB2B
:101D3800E4E7B9F1000F1ED041463846FFF7D7FD5A
:101D4800204600F09BFB01213046FFF741FE20466C
:101D580000F094FB00213046FFF73AFE204600F0E1
:101D68008DFB01213846FFF7C2FD204600F086FBB7
:101D78002846BDE8F8830121DFE72DE9F041044654
:101D88000D46092700F10C0600F10808013F1AD09A
:101D980000213046FFF71CFE204600F06FFB2B06A3
:101DA8004CBF012100214046FFF7A1FD204600F06D
:101DB80065FB01213046FFF70BFE6D00204600F061
:101DC8005DFBEDB2E2E739463046FFF701FE2046FB
:101DD80000F054FB01214046FFF789FD204600F042
:101DE8004DFB01213046FFF7F3FD204600F046FB8E
:101DF800A3681D8A39463046FFF7EAFDADB2204692
:101E080000F03CFB85F08000C0F3C010BDE8F08115
:101E180038B52F4D2F4C284600F0E4FA28462E4BB3
:101E280040F8083BFFF7C4FD05F10C00FFF732FE50
:101E380028462A4D2A492246FFF713FC2846FFF771
:101E480013FB2846274D28492246FFF70AFC284657
:101E5800FFF725FC2846254D25492246FFF701FCBA
:101E68002846FFF7B3F92846224D23492246FFF7B3
:101E7800F8FB2846FFF736FB2846204D2049224626
:101E8800FFF7EFFB284600F053F828461D4D1E4982
:101E98002246FFF7E6FB2846FEF7B4FD28461B4D11
:101EA8001B492246FFF7DDFB284600F023FA2846A7
:101EB800184D19492246FFF7D4FB284600F002FBCB
:101EC800224628461549BDE83840FFF7CABB00BF7F
:101ED800B0010020100000203038000868030020FE
:101EE800451800086C0300207D140008C00100207C
:101EF800111700085C010020C51100081C02002011
:101F0800DB140008A0010020291F0008D8020020C7
:101F1800D50A000804020020A92300089524000817
:101F2800704710B5BC210446FFF7AEFB204610BD34
:101F38004A4A4B4B0360536943F47F0310B553611E
:101F48004FF0904343609C6824F440349C609C6844
:101F580044F440349C609C8824F480742404240C49
:101F68009C809C88A4B29C801C6824F440341C602B
:101F78001C6844F480341C60546944F47F04546140
:101F88001C68C0F8903024F003041C601C6844F0FE
:101F980003041C60546944F47F0454611C68C0F84D
:101FA800943024F00C041C601C6844F00C041C6081
:101FB800546944F47F0454611C68C0F8983024F0D4
:101FC80030041C601C6844F030041C60546944F4FC
:101FD8007F0454611C68C0F89C3024F0C0041C6065
:101FE8001C6844F0C0041C60546944F47F045461C4
:101FF8001C68C0F8A03024F440741C601C6844F4C9
:1020080040741C60546944F47F0454611C68C0F82F
:10201800A43024F440641C601C6844F440641C60D0
:10202800546944F47F0454611C68C0F8A83024F44F
:1020380040541C601C6844F440541C60546944F4C7
:102048007F0454611A68C0F8AC3022F440421A6028
:102058001A6842F440421A6010BD00BF00100240E6
:10206800703900084268F8B5138D9BB243F4807349
:102078001385642104462948FFF788FBFEF766FFAD
:1020880064212648FFF782FB04F130063746002515
:102098002846FEF79BFF0135082D47F8040BF7D1BA
:1020A80062681E48936943F4807393616421FFF763
:1020B8006DFB00252846FEF789FF56F8043B0135DD
:1020C800C01A082DF061F5D104F1700304F19001F4
:1020D800002243F8042B9942FBD16FF0FF032361E0
:1020E8006FF0BF0363616FF07F03A3616FF03F037D
:1020F800E3614023236280236362C023A3624FF419
:102108008073E3624FF4C873A36022730023042230
:1021180021460248FFF7FAFA0020F8BD6C030020B8
:10212800037B72B60BB10022027362B61846704781
:102138004FF48070704700EB810030B50269056F7D
:1021480002FB05F471B1C36EC268062902FB0342A3
:102158002B440AD8416F40690B4400FB012292FBD3
:10216800F3F030BD62006B00F4E722442B44F6E73D
:10217800826800F17003002053F8041B8A4204DBD4
:1021880001300828F8D14FF0FF3070472DE9F047AB
:102198000025DFF86890044600F13006AA46284674
:1021A800FEF714FF56F8043BC01A09FB00F0F26969
:1021B80090FBF2F0013510F57A7054BFF063C6F861
:1021C8003CA0082DEBD12046FFF7D2FF431C014667
:1021D80011D02046FFF7AFFF01230746804684F859
:1021E800B030012384F8B130C4F8B470C4F8B880B2
:1021F8002373BDE8F0870023F1E700BF18FCFFFF59
:1022080038B5C368364D2DED048B43600369836090
:1022180004462846FEF790FCE0602846FEF796FC48
:102228006268E3689FED2F5AD4ED056ADFED2E5AF8
:102238009FED2E6A20619B1A07EE103AB8EEC77A16
:10224800A3689FED2B9A27EE057A66EEA56A47EEFE
:10225800066AC31A04F1380007EE903AF8EEE77AF6
:10226800C4ED056AB0EE667AD4ED066A67EE857A43
:1022780066EEA56A47EE866AD4ED077AC4ED066A6B
:1022880077EEC77A17EE102A17EE901AFEF722FF9C
:10229800A269D4ED087A07EE102A77EEC77A08EE1D
:1022A800900A17EE901A04F16400FEF713FF68EE27
:1022B800898A2434FDEEE87A08EE100A17EE901A9F
:1022C8002046FEF71FFD28EE098A2046FDEEC87A53
:1022D800BDEC048B17EE901ABDE83840FEF732BD0E
:1022E800A0010020CDCCCC3D6666663F0000003ED4
:1022F80000007F4373B50E4B002504464FF07E5611
:1023080040F8243BFEF75EFC2B462A4629460096F9
:1023180004F13800FEF73AFF00962B462A46294674
:1023280004F16400FEF732FF204602B070BD00BF22
:1023380084390008F7B5154F154E04464FF07E5501
:102348002430FEF775FD00952B463A46314604F1D8
:102358003800FEF707FF00952B463A46314604F150
:102368006400FEF7FFFE002500236361A361E361BB
:1023780023626560A560E56025612B46042221463D
:102388000448FFF7C3F9284603B0F0BDEC51B83D47
:10239800CDCC4C3F6C030020C1617047016270478F
:1023A80010B5084B044640F8643BFEF78BFE04F179
:1023B8003800FEF787FE04F12400FEF7A1FC204652
:1023C80010BD00BF8439000810B50446FFF7E8FFC8
:1023D80020469021FFF758F9204610BD142343608A
:1023E80070470000014B0360704700BF9839000830
:1023F80070472DE9F0411D46036804469B68164660
:102408000F469847236839465B69204698472368F2
:1024180031465B6920469847236829465A69204611
:10242800904723682046DB68BDE8F04118470368F9
:1024380070B504469B6816460D469847236829469A
:102448005B6920469847236831465B692046984770
:10245800236820469B689847236845F001015B691B
:1024680020469847236800219B692046984723689F
:102478000546DB6820469847284670BD4268002319
:10248800934202D000BF0133FAE77047704710B596
:1024980018210446FFF7F8F8204610BD037B826830
:1024A80033B100230373936943F400439361704786
:1024B80001230373138D6FEA43436FEA53439BB2BF
:1024C800138570471C4A1D4B0360536943F47F030F
:1024D80010B553611A4B43609C6824F040749C60AB
:1024E8009C6844F040749C601C6824F040741C6034
:1024F8001C681C60DC6844F08074DC60546944F437
:102508007F0454619A68836022F040429A609A6816
:1025180042F040429A609A88C2F30E029A809A88E2
:1025280092B29A801A6822F040421A601A6842F001
:1025380080421A6010BD00BF00100240BC3900087C
:10254800000400484FF0FF3310B5436100230446F0
:10255800037301464FF4FA720248FFF7D7F8206177
:1025680010BD00BF6C030020436870B504461A8A8A
:10257800D20401D500BFFAE7012363616422217CFC
:102588000F480F4DFFF7EAF80D48FFF7F3F800F58D
:10259800FA6663681B8ADB040FD40948FFF7EAF878
:1025A800B042F6D96369012BF3D13222217C284647
:1025B800FFF7D4F802236361EBE7606970BD00BFE1
:1025C8006C0300207047704710B528210446FFF7B8
:1025D8005BF8204610BD0000064A026000224260F7
:1025E8008260C260026142618261C26102624262CB
:1025F800704700BFD03900082DE9F04F8DB0189C06
:102608000A91199909908D1E614303911B991A9893
:102618000595591800EBC000079161000491014627
:10262800A51E0931069502900192A4460B910799BF
:102638008B427BD00B99019A002511440891A8463A
:10264800099905EB0C0E8E4400270A99781908445D
:1026580001990026089A093191423CD090F900B0BE
:1026680011F909AC11F9079C049A1AFB0B6690F949
:1026780001B011F908AC1AFB0B6690F902B019FB0E
:102688000B6B11F9069C065719FB06B600EB0409FB
:1026980011F905BC99F901A01BFB0A6699F902B06A
:1026A80011F904AC11F9039C1AFB0B6A10F91460B8
:1026B80011F902BC19FB06A600EB0209039A99F965
:1026C80001A01BFB0A6611F901AC99F902B010448C
:1026D8001AFB0B66BEE7169A93F900105643802240
:1026E80096FBF2F6179A02FB01614FF4806291FBA8
:1026F800F2F16FF07E029142B8BF1146069A7F2927
:1027080007F10107A8BF7F21BA420EF8011F9CD22A
:10271800059A08F101084245254491D2029A019987
:102728001144039A01910133944480E70DB0BDE848
:10273800F08F2DE9F04F93B019251F9C0F90201FA3
:1027480009901E980092219A04389A180A902098A5
:102758000D921E9A6843059092001E980B92059A56
:1027680044432A4440000890049011920D9A9342E1
:1027780000F00581119A009802440E924FF000096A
:10278800089A0292CDF80C900B9A02984A440C923F
:102798001E9A4A4406921E9A02440792049A4A4490
:1027A80000251092069A009805EB020C029A05EB98
:1027B800020E079AAF180C9A05EB0908AE1800220A
:1027C80088448C448E440F440E4401920E9A19306A
:1027D800904200F09E8098F900A010F919BC019A67
:1027E8001BFB0A2298F901A010F918BC1BFB0A224E
:1027F80098F902A010F917BC1BFB0A2298F903A04C
:1028080010F916BC1BFB0A2298F904A010F915BC94
:102818001BFB0A229CF900A010F914BC1BFB0A221E
:102828009CF901A010F913BC1BFB0A229CF902A019
:1028380010F912BC1BFB0A229CF903A010F911BC69
:102848001BFB0A229CF904A010F910BC1BFB0A22EE
:102858009EF900A010F90FBC1BFB0A229EF901A0EB
:1028680010F90EBC1BFB0A229EF902A010F90DBC40
:102878001BFB0A229EF903A010F90CBC1BFB0A22C1
:1028880010F90BBC9EF904A01BFB0A2210F90ABC24
:1028980097F900A01BFB0A2297F901A010F909BCBF
:1028A8001BFB0A2297F902A010F908BC1BFB0A229D
:1028B80097F903A010F907BC1BFB0A2297F904A09B
:1028C80010F906BC1BFB0A2296F900A010F905BCFA
:1028D8001BFB0A2296F901A010F904BC1BFB0A2273
:1028E80096F902A010F903BC1BFB0A2296F903A073
:1028F80010F902BC1BFB0A2296F904A010F901BCCE
:102908001BFB0A220192A044A444A644274426445F
:102918005CE701981C9A8026424393F9000092FBD9
:10292800F6F21D9E06FB00224FF4806092FBF0F247
:102938006FF07E008242B8BF024610980F9E28446E
:102948007F2A3044A8BF7F2282700A9A0135AA42A2
:10295800BFF428AF039ADDF8189001320392079A62
:1029680002920398099A8242BFF40EAF049A05981E
:1029780022440492009A024401330092F6E613B00E
:10298800BDE8F08F2DE9F04F8DB01746DDF86CC02B
:102998000990BCF1030F0A91189CDDF864E01A9DB8
:1029A8001D9E56D0BCF1050F61D0BCF1010F5BD163
:1029B8000EFB04F2991907920697C7F1000C0891CB
:1029C8004FF0000B08998B424ED000208046099F9B
:1029D8000BEB0001791800260B910A99DDF8189085
:1029E80087190F4400210CEB090A554508D919F934
:1029F800012B97F900A012FB0A11079A1744F2E776
:102A0800169A93F900705143802291FBF2F1179ABC
:102A180002FB07174FF4806297FBF2F76FF07E0214
:102A28009742B8BF17467F2F0B9AA8BF7F279755A5
:102A38000136B442D1D208F10108C6452044C6D2B5
:102A4800079A9344069A2A4401330692ACEB050C84
:102A5800B8E70294179C0194169C05960495CDF846
:102A68000CE00094FFF7C8FD0DB0BDE8F08F0294AC
:102A7800179C0194169C05960495CDF80CE00094DB
:102A8800FFF757FEF0E7000010B5034B036004465C
:102A9800FFF798FD204610BDE439000810B504463C
:102AA800FFF7F2FF20464021FEF7EEFD204610BD5D
:102AB8002DE9F84F04460E4692460D464FF0800920
:102AC8004FF480686FF07E07A36BA5EB060B5B45A0
:102AD8001BD9E26BA06A51460BFB020000F02CF9EF
:102AE800236B626B5843E36A90FBF9F013F90B30E0
:102AF80002FB030090FBF8F0B842B8BF38467F28C5
:102B0800A8BF7F2005F8010BDEE7BDE8F88F0000BD
:102B180030B585B0044601AD85E80E00FFF75CFDD1
:102B28002346144A43F81C2B95E8070083E807005E
:102B380008AA07CA231D83E807000BAA07CA04F1DD
:102B4800100383E807000E9BA3620F9BE362109BB0
:102B58002363119B63636268A3685A43E368534322
:102B6800E363636902465A43A36920465343A36358
:102B780005B030BDE4390008D0F88C30D0F8882092
:102B880030B55A43D0F890305A430023934205D0C9
:102B9800D0F8A840CD56E5540133F7E730BD000022
:102BA800074B10B504460360D0F8A00008B1FEF743
:102BB80075FDD4F8A40008B1FEF770FD204610BDDD
:102BC800F839000810B50446FFF7EAFF2046B0219F
:102BD800FEF75AFD204610BD0E4B03600023C0F8D7
:102BE8008830C0F88C30C0F89030C0F89430C0F805
:102BF8009830C0F89C3000F1080200F1880142F8D2
:102C0800043B8A42FBD14360C0F8A030C0F8A4302E
:102C1800704700BFF8390008F8B50025044600F1F0
:102C280008062F4663689D421FD200233068426918
:102C38000169514382694A43934204D2D4F8AC20D3
:102C4800D7540133F2E70368D4F8A8209B68D4F876
:102C5800AC109847D4F8A830D4F8AC20C4F8A82011
:102C6800C4F8AC3001350436DCE7D4F8A830D4F821
:102C7800AC20C4F8A820C4F8AC30F8BD30B5D0F802
:102C88009820D0F89430D0F8AC405343D0F89C202A
:102C980094F900105A4300231846934206D0E5568B
:102CA800A942BCBF184629460133F6E730BD70B5C6
:102CB8004468023400F1080500EB84040020A542B2
:102CC80012D055F8043B9A6859681E695143DA686E
:102CD8004A4359699B6971434B439A4238BF1A4624
:102CE800904238BF1046EAE770BDD0F8A03070B502
:102CF800054603BBD0F8A440ECB9FFF7D8FF064659
:102D0800FEF7C4FCC5F8A0003046FEF7BFFCD5F8B6
:102D1800A030C5F8A830C5F8A400C5F8AC00234613
:102D280022469E4207D0D5F8A010CA54D5F8A41060
:102D3800CA540133F5E770BD002370B5064618463E
:102D4800934205D0F556CC56013315FB0400F7E73E
:102D580070BD000010B5034B03600446FFF732FC5A
:102D6800204610BD103A000810B50446FFF7F2FFE0
:102D780020463821FEF788FC204610BD70B5154660
:102D880000F11C0204460E4607CA88B005AB83E86A
:102D98000700221D07CA02AB83E80700636B019393
:102DA800236B00932946E36AA26A3046FFF7EAFDDF
:102DB8006368A1685943636A03FB01612B46A268F3
:102DC80060685043E2684243581B824204D913F9B1
:102DD800012B01F8012BF2E708B070BD30B585B0C2
:102DE800044601AD85E80E00FFF7F6FB23460E4AC0
:102DF80043F81C2B95E8070083E8070008AA07CAD0
:102E0800231D83E807000BAA07CA04F1100383E80F
:102E180007000E9BA3620F9BE362109B2363119B29
:102E28006363204605B030BD103A000870B5013A1A
:102E38000B460025866A5C1AA64207D912F9014F8B
:102E4800002CB4BF1D701C700133F3E770BD000087
:102E580010B5034B03600446FFF7B4FB204610BDD2
:102E6800243A000810B50446FFF7F2FF20462C214B
:102E7800FEF70AFC204610BD30B585B0044601AD0A
:102E880085E80E00FFF7A8FB23460D4A43F81C2BE4
:102E980095E8070083E8070008AA07CA231D83E806
:102EA80007000BAA07CA04F1100383E80700A36808
:102EB80062685A43E36820465343A36205B030BDB5
:102EC800243A000810B5034B03600446FFF77AFB69
:102ED800204610BD383A000810B50446FFF7F2FF47
:102EE80020462821FEF7D0FB204610BD2DE9F04FE3
:102EF800C36989B00193023B0092032B00F233812E
:102F0800DFE813F004005500A100E9000369D0F8D8
:102F180014E0826903924FEA43094FEA4E0209FB23
:102F280002F202920EFB03F2019200269A0004922A
:102F38003746039A974200F016818C4632464FF086
:102F48000008F0452DD0009C009809EB020A544473
:102F5800851806940020984205F102051BD015F942
:102F680001BC15F9024CA345B8BFA346AC1A54449A
:102F78002BEAEB7B14F9014C5C45B8BF5C46059421
:102F8800069C14F910B0059C5C45B8BF5C460CF86B
:102F980000400130DFE7049808F1010802449C442E
:102FA800CFE7029A1644019A01371144C1E74569EF
:102FB80004698369079305FB04F304EB4400049355
:102FC80005EB450343438A460393002100EB400386
:102FD80005938B46079B9B4500F0C5800291574699
:102FE8004FF0000EAE4527D00022A2421CD0029E10
:102FF800DDF8048002EB42033344009E4FF0000CDE
:103008003344DE1C0696994619F9016BB445B8BFDE
:10301800B446069E4E45F7D1B8F101080344F0D1F5
:1030280007F802C00132E0E7029A059B1A440EF144
:10303800010E27440292D5E7049B9A44039B0BF1A7
:10304800010B1944C6E7026945698369039305FBC7
:1030580002F34FEA820B0693AB000BFB03F30793D3
:10306800002013018A4605930290039B02998B4224
:1030780079D0064657464FF0000EAE4523D00021C2
:1030880091421AD0009CDDF8048006EB81032344AA
:103098004FF0000C1C1D0494994619F9014BA445E6
:1030A800B8BFA446049CA145F7D1B8F101085B4418
:1030B800F0D107F801C00131E2E7059B0EF1010EDE
:1030C80017441E44D9E7029B01330293069B9A4496
:1030D800079B1844C9E7456904698369039304FB9E
:1030E80005F304EB8400059305EB850343438B4606
:1030F8000693002100EB800304930F46039BBB4219
:1031080031D08E46DC464FF00008454525D00022D8
:1031180094421CD002EB8203009EDDF804A07344A5
:10312800334402934FF000090026029B9B57013657
:103138009945B8BF9946052EF7D1029BBAF1010A05
:1031480003440293F0D10CF802900132E0E7049BAB
:1031580008F10108A4449E44D7E7059B9B44069BBD
:1031680001371944CAE709B0BDE8F08F30B585B01A
:10317800054601AC84E80E00FFF72EFA2B460A4AF2
:1031880043F81C2B94E8070083E8070008AA07CA3D
:103198002B1D83E807000BAA07CA05F1100383E873
:1031A8000700284605B030BD383A000810B5034B73
:1031B80003600446FFF706FA204610BD4C3A0008A3
:1031C80010B50446FFF7F2FF20463821FEF75CFAF7
:1031D800204610BD70B5164600F11C0204460D4687
:1031E80007CA88B005AB83E80700221D07CA02ABEF
:1031F80083E80700636B0193236B0093A26AE36A79
:1032080031462846FFF7BEFB08B070BD30B585B023
:10321800044601AD85E80E00FFF7DEF923460E4AA5
:1032280043F81C2B95E8070083E8070008AA07CA9B
:10323800231D83E807000BAA07CA04F1100383E8DB
:1032480007000E9BA3620F9BE362109B2363119BF5
:103258006363204605B030BD4C3A00080A746573B4
:10326800745F6C696E655F666F6C6C6F7765720A08
:1032780000FEF681B781F0AEB6636744516F7F3ABE
:103288004101FF0101FF01FFFF01FFFF01FFFF01F6
:10329800012AC728F1F612351F23543BD8FE3AD924
:1032A800F77F02406A0000000000000000000000F4
:1032B8000000000000FFDF03FE06C1F3FAFF03E58C
:1032C8000C05E70211200A051102FD060B07F81785
:1032D8002204250D07E341FBF716E60A00FCFA1461
:1032E80006F508F605FCFCFDD5EBFB27EDF80A050D
:1032F8000000170CE618141205EA1C0E1001F60C53
:1033080019E9FB1800EDFE06FB0102F307D2013BA9
:10331800C5FF0003F50681E40701000500E70FD1AA
:10332800B8FF10000109E90BCFF812E90DEAF30A1A
:10333800170E01EE04FFFF0101FFFFFFFF01FFFF72
:10334800FF01FFFFFFFF0101FFFFFFFFFFFFFFFF7F
:10335800FFFF01FFFFFF01010101FFFFFFFFFFFF6B
:10336800FFFF01FFFF01FFFF01FFFFFFFFFFFFFF5F
:10337800FFFFFFFFFFFF01FFFF0101FF01FF01FF4B
:103388000101FF01010101FFFF01FFFFFF01FFFF35
:10339800FF01FFFFFF01010101010101010101FF1F
:1033A800010101FFFF01FFFF010101FF0101FFFF13
:1033B8000101FFFFFF01010101FFFFFF0101FFFF05
:1033C800FF01FFFFFFFFFFFF01FF01FFFFFF01FFFD
:1033D800FF0101FFFFFFFFFF0101FFFFFF01FFFFEB
:1033E800FFFF0101FF01010101FF01FFFF0101FFD3
:1033F800FFFFFFFFFFFF01FFFFFF0101FFFF0101CB
:1034080001FF01FFFFFF01FFFF0101FFFF0101FFB6
:10341800FFFF01FFFF0101FFFF0101FFFF0101FFA6
:10342800FF0101FFFF01FFFFFF01FFFF0101FFFF98
:10343800FF01FFFFFF04FE0000040CFE05000AFE6A
:1034480002FD42030900FEFF010318FF02FE1803F4
:103458000201DFF7FAFF00FC030404000003040084
:1034680000001F2DFB040401FCFCE7ED0204EEEF55
:1034780001FF35FEFF0508FD010205FEFFFD0507FA
:10348800FFF60205060900F5F9FF0AF9FCF610FD3A
:1034980000F327F90004FEFEFD0204FEFEFB020015
:1034A800FFFC00FFFFFE000000000000FF0102001B
:1034B800FF0001000002FF01FE0000FE02FFF9FE0E
:1034C8000600DFFE04FB000301030217FE03000DE4
:1034D800FFFFFF1001FBFFFC0503040000FD0300D4
:1034E80000FCF2DDFB02020401000F2604FDFE22AF
:1034F8000201E2EC01FC0404FC000104FBFF0304EC
:10350800F7FE0509FCFC02FEFDFCFF01FCFEFF0ABC
:10351800FF00DD0EFDFC0301FEFD0001FEFE0002C2
:10352800FFFF0000000102FEFF0002FF00FF000095
:1035380000FE00000002FB03FC050503FC00FD077C
:10354800FDFEFAFDFA00FF0305FBFDF9F70401F99A
:10355800F2000609F3FCFE00FC000008FF0400046A
:103568000001031308FB0000FDFE02F9EEFB05FE57
:10357800E3FB02400DF7FB0A08FBFF0CFF00030208
:103588000504FF0900F4FA0EFDF6F90EF8FBFC0F2E
:10359800FA020408F6FDFCFFFFFDFD00FEFEFE003A
:1035A800FFFFFE00FFFFFF0400FF0003FEFF000215
:1035B800FF000000000203020100000F000109F2F1
:1035C800EE0000E5E502FCFD0203FFF706FF00FA46
:1035D8000C05070045000003FE0000FF0202000082
:1035E800FA0300F5F2FC01FD000100FE200001FFD6
:1035F80026FCFFE8EFFC00FE03FF00030AF50102CA
:103608000601040604FCFAF80DF2F5F513F6FB04BE
:103618000DF9F704FD0000FF00FCFFFE03FBFF02AD
:1036280000FC0000FF00FF000000FE0001FF000298
:1036380000FF0002FA01FF020203F8FA0502071C64
:1036480022FBFDF77C0100FF0302FDFC1102FCFEDA
:10365800FF000301EA040104000300FC02FCFFFE72
:1036680001FFFEF1C9FB00FE04FEFEFFF70100FDAD
:10367800FC0500F61E0303080703020103F6F70121
:1036880007F2F8FC030B0704010305020AE7F3F24B
:1036980008F900FCFE0403010204030100F8FC0120
:1036A80006F50000FD0100000001000000FFFF0119
:1036B80003FE000100FF00FCFFFCFEF9FBFCF8FA2A
:1036C800E6FDFF0C810302FDFCFF0000F503FEFF91
:1036D800FF00FFFFEE02FDFD0301FEFF0005FEFFF8
:1036E8000701FBF757FE0302FCFCFCFAF1FBFEFCAA
:1036F800F0FBFA00E20200030700010504FF0700DF
:1037080006FDFD0009F9FC010500070805000D0686
:1037180014F602EC26FEFF00010000000300010081
:1037280004F4FE00120000FF010000FF010101FF88
:1037380000FE010009000000080000000800000069
:10374800010000000800000008000000040000005C
:103758000400000004000000040000000200000053
:103768000200000001000000030000000300000048
:10377800040000000400000004000000080000002D
:103788000100000001000000080000000000000027
:10379800000000008D040008C5040008812B000803
:1037A800F32C000800000000000000005907000882
:1037B8005B070008000000500000005000000050A7
:1037C80000010050000100500001005000010050AD
:1037D80000040050000400500000005002030401DF
:1037E8000203040C010600000000000000000000B5
:1037F800CD100008CF1000080000000000000000F5
:10380800C5110008C71100085D130008000000007A
:1038180000000000DB140008DD140008CB150008C8
:1038280000000000000000004518000859180008B2
:10383800931C00084D1C0008BD1A0008831D0008D1
:10384800D91C0008096573745F696D755F73656ECF
:10385800736F720A00203A20000A0A0A23232323DE
:10386800230A0A0A007465726D696E616C20696EBC
:10387800697420646F6E650A006D656D20696E69F4
:103888007420646F6E652C206865617020737461A4
:103898007274206174200074696D657220696E69A4
:1038A8007420646F6E650A0064656C61792032303B
:1038B80030206D73200069326320696E697420645A
:1038C8006F6E650A00696D7520696E697420646F92
:1038D8006E65207769746820006C696E6520736571
:1038E8006E736F7220696E697420646F6E650A006A
:1038F800656E636F6465722073656E736F7220699D
:103908006E697420646F6E650A006D6F746F722043
:10391800636F6E74726F6C6C20696E697420646F6B
:103928006E650A006B657920696E697420646F6E34
:10393800650A0073797374656D20696E6974206413
:103948006F6E650A00747275650066616C73650058
:1039580000000000000000003518000837180008B3
:103968000000000000000000291F00082B1F0008AD
:10397800952100080000000000000000A9230008AD
:10398800D123000809220008000000000000000000
:1039980000000000000000006F1600086F16000805
:1039A800E52300086F1600086F16000800000000E5
:1039B800000000009524000897240008A5240008AA
:1039C8000000000000000000CD250008D1250008F7
:1039D800CF2500080000000000000000912A000820
:1039E800A52A0008B92A000800000000000000000D
:1039F800A92B0008CD2B0008812B0008F32C000808
:103A080000000000000000005D2D0008712D000876
:103A1800852D00080000000000000000592E000855
:103A28006D2E0008352E0008000000000000000080
:103A3800CD2E0008E12E0008F52E00080000000039
:103A480000000000B5310008C9310008DD31000868
:083A580069040008191E0008B2
:04000005080002B13C
:00000001FF
