:020000040800F2
:10000000008000209D01000889010008930100087C
:10001000890100088901000889010008000000002A
:10002000000000000000000000000000890100083E
:10003000890100080000000089010008890100080A
:100040008901000889010008890100088901000868
:100050008901000889010008890100088901000858
:100060008901000889010008890100088901000848
:100070008901000889010008890100088901000838
:100080008901000889010008890100088901000828
:1000900089010008890100088901000885240008F9
:1000A0008901000889010008890100088901000808
:1000B000B52A0008890100088901000889010008A3
:1000C00089010008890100088901000889010008E8
:1000D00089010008890100088901000889010008D8
:1000E000B524000889010008890100088901000879
:1000F00089010008890100088901000889010008B8
:10010000000000000000000000000000890100085D
:100110008901000889010008890100088901000897
:100120008901000889010008890100088901000887
:10013000890100088901000800000000000000009B
:1001400089010008890100088901000800000000F9
:10015000000000000000000000000000000000009F
:10016000000000000000000089010008890100086B
:1001700089010008000000000000000000000000ED
:080180000000000089010008E5
:10018800684620F007018D46FEE7684620F0070123
:100198008D46FEE71549164A1648521A9210002352
:1001A8009A4217D1144A154ED2F88830144C43F4A9
:1001B8007003C2F88830D2F83432A41B43F04043AD
:1001C800C2F83432A4100025A54209D100F01AF86B
:1001D80001F0C2B950F8234041F823400133DFE76A
:1001E80056F8253098470135EEE700BF000000209B
:1001F80000000020B848000800ED00E0B8480008FA
:10020800BC480008394AD2F8883043F47003C2F871
:100218008830374B1A6842F001021A605968354A2B
:100228000A405A601A6822F0847222F480321A60F6
:100238001A6822F480221A605A6822F4FE025A6070
:10024800DA6A22F00F02DA62196B2B4A82B00A408E
:100258001A6300229A60009201921A6842F480326E
:100268001A601A6802F400320192009A0132009270
:10027800019A1AB9009AB2F5A06FF2D11A6812F46D
:10028800003218BF01220192019A012A05D0174BAA
:100298004FF000629A6002B07047184A122111604C
:1002A8005A685A605A685A605A6842F480625A60BA
:1002B8005A6822F47C125A605A6842F4E8125A606A
:1002C8001A6842F080721A601A689201FCD55A685E
:1002D80022F003025A605A6842F002025A605A68D1
:1002E80002F00C02082AFAD1D1E700BF00ED00E0C5
:1002F800001002400CC07FF8CCFC00FF0020024038
:100308000E4BDB68DB4310B5C3F30224C4F10403CE
:10031800DBB299400F2323411340094A0B431B01C9
:10032800111803F0F00381F800334109012300F0AC
:100338001F0003FA00F042F8210010BD00ED00E0B4
:1003480000E100E030B50588ACB2244DA8420ED0DB
:1003580005F50065A8420AD0B0F1804F07D0A5F591
:100368009835A84203D005F58065A84203D124F04A
:1003780070040C43A4B21A49884208D001F5806180
:1003880088421FBF24F44074A4B21443A4B204806A
:10039800C362BDF80C300385104B98420FD003F5AB
:1003A800006398420BD003F54063984207D003F5E9
:1003B8008063984203D003F58063984201D10023FB
:1003C80003860123436103889BB243F00103038042
:1003D800C36843F00103C36030BD00BF002C014077
:1003E8000010004020F01F02012300F01F0003FA54
:1003F80000F0014BD05070471404014001F0030392
:1004080001F0FC0101F1804101F5803110B58A68E5
:100418009B000F249C4022EA04028A608A68984064
:100428001043886010BD20F01F0303F1804303F5DB
:100438008233012200F01F0030B502FA00F01C6878
:10044800C24314401C605D6815405D601D6805432B
:100458001D609D6815409D60DD6803F140442A4099
:100468001029A4F58234DA6006D19A6802439A60AA
:10047800DA681043D86030BD01F1804101F582315E
:100488000B591843085130BD704710B50C2104466C
:1004980000F0E2FF204610BD2DE9F34106461E4B51
:1004A80046F8043B044600254FF07E532A46294669
:1004B800009304F130082B46304600F0F9FF04F1B0
:1004C800E007404603F0A8FA384603F063F804F55D
:1004D800987002F0D1FE04F5C67003F03BFC0F4B98
:1004E800C4F8E4310E4B00932A463046C4F8E8516C
:1004F800C4F8EC510B4B0C4900F0C3FF0B4BC4F88C
:10050800E8513846C4F8EC31414603F06DF820460E
:1005180002B0BDE8F08100BF183F0008083F00089E
:10052800000020416666E63FCDCCCC3E6F12033B0F
:1005380010B504462DED048B2D4801F07DFF2D49A3
:1005480002460A2304F1E00003F05EF8D4F82831EB
:100558009FED297ADFED297A2948022B294B1B7C4C
:1005680018BFF0EE477A002B18BFF0EE477A94EDEB
:100578007A7AF4EEC77AF1EE10FAC4BFD4ED7B7A3A
:1005880077EE877AC4ED7A7AD0ED327A94ED7A9A5A
:10059800F8EEE78A01F0D0FC07EE900AF8EEE77A69
:1005A800201D88EEA78ADFED187A77EEC87A18EE54
:1005B800102A17EE901A00F087FF07EE900A79EEDE
:1005C800678A77EE897A114817EE901A02F054F884
:1005D80018EE901A0D4802F051F818EE101ABDECFA
:1005E800048B04F59870BDE8104002F059BE00BFB6
:1005F800A4010020A0020020CDCCCC3ECDCC4C3FA5
:10060800240200205801002000000000F002002011
:10061800F8B52DED028B1E4F1E4D044600261C48D2
:1006280002F0B2F908B17B7C63BB284601F07CFC80
:100638000028F4D095F8C0301BB12046FFF778FFAA
:10064800EDE704F5987002F061FE0021124802F00F
:1006580013F80021104802F011F8D5ED327AC4F8E9
:10066800E8612846B8EEE78A01F066FC07EE900AD2
:10067800F8EEE77A201D88EE277A17EE101A00F0B8
:1006880063FFCCE7012104F5C67003F0A9FBDCE7A2
:100698005801002024020020F00200200C4B10B565
:1006A8000446036000F5C67003F084FB04F59870F7
:1006B80002F09CFE04F1E00002F064FF04F1300057
:1006C80003F084F9201D00F0D4FE204610BD00BFC1
:1006D800183F000810B50446FFF7E0FF20464FF426
:1006E800F87100F0B9FE204610BD7047704714231A
:1006F800436070470020704700207047014B03603B
:10070800704700BF283F000870472DE9F0411D469B
:10071800036804461B6816460F46984723683946FF
:10072800DB682046984723683146DB6820469847AF
:1007380023682946DA6820469047236820465B6884
:10074800BDE8F0411847036870B504461B681646B3
:100758000D46984723682946DB6820469847236852
:100768003146DB6820469847236820461B6898472F
:10077800236845F00101DB6820469847236800217B
:100788001B6920469847236805465B6820469847BA
:10079800284670BD42680023934202D000BF01334F
:1007A800FAE7704710B5034B0360044600F0D3FD29
:1007B800204610BD443F000810B50446FFF7F2FF7D
:1007C8002046402100F048FE204610BD2DE9F84F94
:1007D80004460E4692460D464FF080094FF4806855
:1007E8006FF07E07A36BA5EB060B5B451BD9E26B8D
:1007F800A06A51460BFB020000F0A0FD236B626B60
:100808005843E36A90FBF9F013F90B3002FB03003D
:1008180090FBF8F0B842B8BF38467F28A8BF7F20C1
:1008280005F8010BDEE7BDE8F88F000030B585B0AC
:10083800044601AD85E80E0000F096FD2346144AF3
:1008480043F81C2B95E8070083E8070008AA07CAA5
:10085800231D83E807000BAA07CA04F1100383E8E5
:1008680007000E9BA3620F9BE362109B2363119BFF
:1008780063636268A3685A43E3685343E363636945
:1008880002465A43A36920465343A36305B030BDCB
:10089800443F000870B5013A0B460025866A5C1A89
:1008A800A64207D912F9014F002CB4BF1D701C7065
:1008B8000133F3E770BD000010B5034B0360044635
:1008C80000F049FD204610BD583F000810B5044609
:1008D800FFF7F2FF20462C2100F0BEFD204610BD98
:1008E80030B585B0044601AD85E80E0000F03CFD4A
:1008F80023460D4A43F81C2B95E8070083E80700B8
:1009080008AA07CA231D83E807000BAA07CA04F12F
:10091800100383E80700A36862685A43E368204627
:100928005343A36205B030BD583F00082DE9F04F8E
:100938008DB0189C0A91199909908D1E61430391F5
:100948001B991A980595591800EBC000079161008A
:1009580004910146A51E0931069502900192A4460C
:100968000B9107998B427BD00B99019A0025114472
:100978000891A846099905EB0C0E8E4400270A99A0
:100988007819084401990026089A093191423CD007
:1009980090F900B011F909AC11F9079C049A1AFBF7
:1009A8000B6690F901B011F908AC1AFB0B6690F9C7
:1009B80002B019FB0B6B11F9069C065719FB06B61A
:1009C80000EB040911F905BC99F901A01BFB0A66A3
:1009D80099F902B011F904AC11F9039C1AFB0B6ADE
:1009E80010F9146011F902BC19FB06A600EB020904
:1009F800039A99F901A01BFB0A6611F901AC99F950
:100A080002B010441AFB0B66BEE7169A93F9001061
:100A18005643802296FBF2F6179A02FB01614FF4C7
:100A2800806291FBF2F16FF07E029142B8BF1146ED
:100A3800069A7F2907F10107A8BF7F21BA420EF85D
:100A4800011F9CD2059A08F101084245254491D21C
:100A5800029A01991144039A01910133944480E761
:100A68000DB0BDE8F08F2DE9F04F93B019251F9C0C
:100A78000F90201F09901E980092219A04389A1806
:100A88000A9020980D921E9A6843059092001E982D
:100A98000B92059A44432A4440000890049011920E
:100AA8000D9A934200F00581119A009802440E9223
:100AB8004FF00009089A0292CDF80C900B9A029810
:100AC8004A440C921E9A4A4406921E9A024407927D
:100AD800049A4A4400251092069A009805EB020CE5
:100AE800029A05EB020E079AAF180C9A05EB090853
:100AF800AE18002288448C448E440F440E44019260
:100B08000E9A1930904200F09E8098F900A010F9D2
:100B180019BC019A1BFB0A2298F901A010F918BC0C
:100B28001BFB0A2298F902A010F917BC1BFB0A222A
:100B380098F903A010F916BC1BFB0A2298F904A027
:100B480010F915BC1BFB0A229CF900A010F914BC73
:100B58001BFB0A229CF901A010F913BC1BFB0A22FB
:100B68009CF902A010F912BC1BFB0A229CF903A0F5
:100B780010F911BC1BFB0A229CF904A010F910BC47
:100B88001BFB0A229EF900A010F90FBC1BFB0A22CE
:100B98009EF901A010F90EBC1BFB0A229EF902A0C7
:100BA80010F90DBC1BFB0A229EF903A010F90CBC1E
:100BB8001BFB0A2210F90BBC9EF904A01BFB0A229E
:100BC80010F90ABC97F900A01BFB0A2297F901A0AB
:100BD80010F909BC1BFB0A2297F902A010F908BCFE
:100BE8001BFB0A2297F903A010F907BC1BFB0A227A
:100BF80097F904A010F906BC1BFB0A2296F900A07D
:100C080010F905BC1BFB0A2296F901A010F904BCD7
:100C18001BFB0A2296F902A010F903BC1BFB0A224F
:100C280096F903A010F902BC1BFB0A2296F904A04E
:100C380010F901BC1BFB0A220192A044A444A6445B
:100C4800274426445CE701981C9A8026424393F97E
:100C5800000092FBF6F21D9E06FB00224FF4806016
:100C680092FBF0F26FF07E008242B8BF0246109805
:100C78000F9E28447F2A3044A8BF7F2282700A9A98
:100C88000135AA42BFF428AF039ADDF81890013263
:100C98000392079A02920398099A8242BFF40EAF10
:100CA800049A059822440492009A0244013300925F
:100CB800F6E613B0BDE8F08F2DE9F04F8DB017467A
:100CC800DDF86CC00990BCF1030F0A91189CDDF89F
:100CD80064E01A9D1D9E56D0BCF1050F61D0BCF191
:100CE800010F5BD10EFB04F2991907920697C7F121
:100CF800000C08914FF0000B08998B424ED0002051
:100D08008046099F0BEB0001791800260B910A9980
:100D1800DDF8189087190F4400210CEB090A554596
:100D280008D919F9012B97F900A012FB0A11079AA3
:100D38001744F2E7169A93F900705143802291FB09
:100D4800F2F1179A02FB07174FF4806297FBF2F74C
:100D58006FF07E029742B8BF17467F2F0B9AA8BF45
:100D68007F2797550136B442D1D208F10108C6450C
:100D78002044C6D2079A9344069A2A44013306921D
:100D8800ACEB050CB8E70294179C0194169C0596E9
:100D98000495CDF80CE00094FFF7C8FD0DB0BDE850
:100DA800F08F0294179C0194169C05960495CDF833
:100DB8000CE00094FFF757FEF0E7000010B5034B76
:100DC8000360044600F0C7FA204610BD6C3F0008D7
:100DD80010B50446FFF7F2FF2046382100F03CFB2F
:100DE800204610BD70B5154600F11C0204460E469B
:100DF80007CA88B005AB83E80700221D07CA02AB03
:100E080083E80700636B0193236B00932946E36A29
:100E1800A26A3046FFF750FF6368A1685943636AC6
:100E280003FB01612B46A26860685043E2684243B5
:100E3800581B824204D913F9012B01F8012BF2E760
:100E480008B070BD30B585B0044601AD85E80E0028
:100E580000F08AFA23460E4A43F81C2B95E807004F
:100E680083E8070008AA07CA231D83E807000BAA1E
:100E780007CA04F1100383E807000E9BA3620F9BC7
:100E8800E362109B2363119B6363204605B030BD6A
:100E98006C3F000810B5034B0360044600F05BFA92
:100EA800204610BD803F000810B50446FFF7F2FF4A
:100EB8002046282100F0D0FA204610BD2DE9F04F39
:100EC800C36989B00193023B0092032B00F233817E
:100ED800DFE813F004005500A100E9000369D0F829
:100EE80014E0826903924FEA43094FEA4E0209FB74
:100EF80002F202920EFB03F2019200269A0004927B
:100F08003746039A974200F016818C4632464FF0D6
:100F18000008F0452DD0009C009809EB020A5444C3
:100F2800851806940020984205F102051BD015F992
:100F380001BC15F9024CA345B8BFA346AC1A5444EA
:100F48002BEAEB7B14F9014C5C45B8BF5C46059471
:100F5800069C14F910B0059C5C45B8BF5C460CF8BB
:100F680000400130DFE7049808F1010802449C447E
:100F7800CFE7029A1644019A01371144C1E745693F
:100F880004698369079305FB04F304EB44000493A5
:100F980005EB450343438A460393002100EB4003D6
:100FA80005938B46079B9B4500F0C58002915746E9
:100FB8004FF0000EAE4527D00022A2421CD0029E60
:100FC800DDF8048002EB42033344009E4FF0000C2E
:100FD8003344DE1C0696994619F9016BB445B8BF2F
:100FE800B446069E4E45F7D1B8F101080344F0D146
:100FF80007F802C00132E0E7029A059B1A440EF195
:10100800010E27440292D5E7049B9A44039B0BF1F7
:10101800010B1944C6E7026945698369039305FB17
:1010280002F34FEA820B0693AB000BFB03F3079323
:10103800002013018A4605930290039B02998B4274
:1010480079D0064657464FF0000EAE4523D0002112
:1010580091421AD0009CDDF8048006EB81032344FA
:101068004FF0000C1C1D0494994619F9014BA44536
:10107800B8BFA446049CA145F7D1B8F101085B4468
:10108800F0D107F801C00131E2E7059B0EF1010E2E
:1010980017441E44D9E7029B01330293069B9A44E6
:1010A800079B1844C9E7456904698369039304FBEE
:1010B80005F304EB8400059305EB850343438B4656
:1010C8000693002100EB800304930F46039BBB4269
:1010D80031D08E46DC464FF00008454525D0002229
:1010E80094421CD002EB8203009EDDF804A07344F6
:1010F800334402934FF000090026029B9B570136A8
:101108009945B8BF9946052EF7D1029BBAF1010A55
:1011180003440293F0D10CF802900132E0E7049BFB
:1011280008F10108A4449E44D7E7059B9B44069B0D
:1011380001371944CAE709B0BDE8F08F30B585B06A
:10114800054601AC84E80E0000F00EF92B460A4A69
:1011580043F81C2B94E8070083E8070008AA07CA8D
:101168002B1D83E807000BAA07CA05F1100383E8C3
:101178000700284605B030BD803F0008D0F88C3005
:10118800D0F8882030B55A43D0F890305A4300231D
:10119800934205D0D0F8A840CD56E5540133F7E77F
:1011A80030BD0000074B10B504460360D0F8A0001E
:1011B80008B100F05BF9D4F8A40008B100F056F9C2
:1011C800204610BD943F000810B50446FFF7EAFF1B
:1011D8002046B02100F040F9204610BD0E4B0360B8
:1011E8000023C0F88830C0F88C30C0F89030C0F8C0
:1011F8009430C0F89830C0F89C3000F1080200F133
:10120800880142F8043B8A42FBD14360C0F8A03011
:10121800C0F8A430704700BF943F0008F8B5002517
:10122800044600F108062F4663689D421FD200233A
:10123800306842690169514382694A43934204D242
:10124800D4F8AC20D7540133F2E70368D4F8A820C7
:101258009B68D4F8AC109847D4F8A830D4F8AC20E0
:10126800C4F8A820C4F8AC3001350436DCE7D4F85B
:10127800A830D4F8AC20C4F8A820C4F8AC30F8BD25
:1012880030B5D0F89820D0F89430D0F8AC4053431B
:10129800D0F89C2094F900105A4300231846934232
:1012A80006D0E556A942BCBF184629460133F6E7E1
:1012B80030BD70B54468023400F1080500EB8404C1
:1012C8000020A54212D055F8043B9A6859681E6957
:1012D8005143DA684A4359699B6971434B439A42BF
:1012E80038BF1A46904238BF1046EAE770BDD0F8BA
:1012F800A03070B5054603BBD0F8A440ECB9FFF7A1
:10130800D8FF064600F0AAF8C5F8A000304600F05D
:10131800A5F8D5F8A030C5F8A830C5F8A400C5F8D8
:10132800AC00234622469E4207D0D5F8A010CA54E6
:10133800D5F8A410CA540133F5E770BD002370B581
:1013480006461846934205D0F556CC56013315FB90
:101358000400F7E770BD7047704710B528210446B0
:1013680000F07AF8204610BD064A0260002242606A
:101378008260C260026142618261C261026242624D
:10138800704700BFAC3F000810B5034B036004462C
:10139800FFF7E1FF204610BDC03F000810B5044626
:1013A800FFF7F2FF2046382100F056F8204610BD1E
:1013B80070B5164600F11C0204460D4607CA88B0EF
:1013C80005AB83E80700221D07CA02AB83E80700C4
:1013D800636B0193236B0093A26AE36A3146284644
:1013E800FFF76AFC08B070BD30B585B0044601ADA2
:1013F80085E80E00FFF7B8FF23460E4A43F81C2B7A
:1014080095E8070083E8070008AA07CA231D83E8B0
:1014180007000BAA07CA04F1100383E807000E9B14
:10142800A3620F9BE362109B2363119B63632046B7
:1014380005B030BDC03F0008014B02481860704736
:10144800000000208C030020024A13681844106032
:10145800184670470000002070470000024A1368D1
:10146800184410601846704700000020704700209C
:101478007047704710B52C210446FFF7EDFF204652
:1014880010BD07EE901A07EE102A37EE877A002172
:10149800F1EE677A0362009B41608160C16001617F
:1014A8004161816280ED067AC0ED077A4362704738
:1014B80037B5044D0560069D0095FFF7E2FF03B0C0
:1014C80030BD00BFD43F0008D0ED036AD0ED017AEB
:1014D80090ED046AD0ED074AC0ED046A07EE102AC1
:1014E80076EEA66A90ED065AC0ED027A05EE901ADD
:1014F80067EEA47A37EE667A45EE857A4160C26077
:1015080037EE067AD0ED086A80ED056A47EE667A0E
:1015180090ED0A7A77EE877A90ED097AC0ED0A7A2B
:10152800F4EEC77AF1EE10FAC8BF80ED0A7AD0ED72
:101538000A7AB1EE477AF4EEC77AF1EE10FA48BFAC
:1015480080ED0A7A806A7047002343608360C16037
:10155800016141618362704700B50B48FDB001F03D
:101568003FFC0A4800F0A6FA01F056FF6846FEF76D
:1015780093FF6846FFF74CF86846FFF78FF800209E
:101588007DB05DF804FB00BF9C0100200C02002028
:1015980010B5034B0360044601F094F8204610BDD3
:1015A800E43F000810B50446FFF7F2FF2046042187
:1015B800FFF752FF204610BD10B5044601F08AF827
:1015C800014B2360204610BDE43F000838B50546AE
:1015D8004C1E14F8011F19B1284601F0D7F8F8E796
:1015E80038BDFFF7F3BF7FB50B1E4FF000024FF079
:1015F8000A01BABF5B42012414468DF80F200E463B
:1016080004AA93FBF6F50A4406FB1533303302F8B7
:101618000C3C4A1ED2B22B4665B92CB104AB13441C
:101628002D2103F80C1C114601AB1944FFF7CEFF1E
:1016380004B070BD1146E3E730B585B000230A2237
:101648008DF80F301546B1FBF5F405FB141304A90A
:101658001144303301F80C3C531EDBB221462CB93F
:1016680001AB9918FFF7B2FF05B030BD1A46EAE79B
:10167800F8B507EE901A2DED028BF5EEC07AF1EE73
:1016880010FA0646154646BFF1EE677A2D2120214D
:10169800012300220A20AA4202D243430132FAE778
:1016A800BDEEE78A3046B8EEC87A77EEC77A07EE1D
:1016B800103AB8EE477A67EE877AFDEEE77A17EECA
:1016C800904A002CB8BF644201F060F818EE101A76
:1016D8003046FFF788FF2E21304601F057F80022E8
:1016E80001230A214B430132A342D2B2FADBAD1ADD
:1016F800EDB20027AF4205D23021304601F046F85E
:101708000137F7E7BDEC028B21463046BDE8F840CB
:10171800FFF769BF704710B518210446FFF79CFE14
:10172800204610BD4D494E4B03604B6943F4FC0302
:1017380030B54B614B4B43609A6822F440729A6013
:101748009A6842F440729A609A8822F01002120451
:10175800120C9A809A8892B29A801A6822F440727F
:101768001A601A6842F480721A604A6942F4FC02EC
:101778004A619A68836022F440629A609A6842F4E7
:1017880040629A609A8822F020021204120C9A8011
:101798009A8892B29A801A6822F440621A601A688B
:1017A80042F480621A604A6942F4FC024A614FF0CE
:1017B8009042C260956825F040459560956845F06F
:1017C800404595609588C5F30E0595809588ADB21E
:1017D8009580156825F040451560156845F08045E9
:1017E80015604A6942F4FC024A619A68036122F072
:1017F80040629A609A6842F040629A609A8822F43D
:1018080000521204120C9A809A8892B29A801A682E
:1018180022F040621A601A6842F080621A604A69CF
:1018280042F4FC024A6143619A6822F040529A608D
:101838009A6842F040529A609A8822F480421204D0
:10184800120C9A809A8892B29A801A6822F04052B2
:101858001A601A6842F080521A6030BD00100240C7
:10186800F43F0008000400480029C26814DA138D08
:101878006FEA43436FEA53439BB213854942FF29FA
:101888000B46A8BFFF2341F2BE215943FF23B1FBFA
:10189800F3F1044B99637047936943F400439361F0
:1018A800EDE700BF002C014082680029ABBF138D13
:1018B80093699BB243F02003B5BF494243F020032C
:1018C80093611385FF290B46A8BFFF2341F2BE2170
:1018D8005943FF23B1FBF3F1014B5963704700BF34
:1018E800002C01400269936823F040639360936879
:1018F80043F040639360136823F0406313601368F8
:1019080043F0006313604369996821F0405199607E
:10191800996841F040519960196821F04051196067
:10192800196841F000511960516A21F4700151623F
:10193800516A41F4C00151625A6A22F070625A62D7
:101948005A6A42F0C0625A62104A936943F40063CB
:1019580093610F4B002241F2BF211A80D962012105
:101968001A851A8659615A639A634FF480725A60CD
:1019780047F270029A6177221A621A8892B20A4371
:101988001A805A6C42F400425A64704700100240B0
:10199800002C0140416842690B8D9BB243F0100353
:1019A8000B8581680B8D9BB243F020030B85C168C2
:1019B8000B8D6FEA43436FEA53439BB20B85016972
:1019C8000B8D9BB243F400530B85138D9BB243F4EC
:1019D80080431385FFF786BF704710B5182104466A
:1019E800FFF73AFD204610BD037B826833B1002320
:1019F8000373936943F400439361704701230373AE
:101A0800138D6FEA43436FEA53439BB213857047C4
:101A18001C4A1D4B0360536943F4FC0310B5536122
:101A28001A4B43609C6824F040749C609C6844F0A6
:101A380040749C601C6824F040741C601C681C6026
:101A4800DC6844F08074DC60546944F4FC0454613C
:101A58009A68836022F040429A609A6842F0404255
:101A68009A609A88C2F30E029A809A8892B29A80F3
:101A78001A6822F040421A601A6842F080421A60DE
:101A880010BD00BF001002400440000800040048D8
:101A98004FF0FF3310B5436100230446037301463A
:101AA8004FF4FA72024800F0AFFF206110BD00BF8A
:101AB80088030020436870B504461A8AD20401D509
:101AC80000BFFAE7012363616422217C0F480F4DB0
:101AD80000F0C2FF0D4800F0CBFF00F5FA6663681E
:101AE8001B8ADB040FD4094800F0C2FFB042F6D9C4
:101AF8006369012BF3D13222217C284600F0ACFF28
:101B080002236361EBE7606970BD00BF88030020B2
:101B1800704710B504210446FFF79EFC204610BD0F
:101B2800014B0360704700BF4C4000080B0F064B89
:101B3800DA6A14BF22F4785222F4F872DA62DA6AA6
:101B48001143D962704700BF0010024030B5042B22
:101B58009DF80C401CDC03EB4303086B5B001F255E
:101B68009D4020EA050002FA03F303430B63092AA8
:101B780039DD0A3A8B698B6902EB420207209040F3
:101B880023EA00038B618B6994401C438C6130BD50
:101B9800092B0CDC0620053B43434D6B1F20984066
:101BA80025EA000002FA03F303434B63DFE70E2B39
:101BB8004FF006000BDC0A3B43438D6B1F20984017
:101BC80025EA000002FA03F303438B63CFE70F3BD8
:101BD8004343CD6B1F20984025EA000002FA03F327
:101BE8000343CB63C3E7013A4B694B6902EB4202FB
:101BF8003820904023EA00034B614B69033204FA12
:101C080002F21A434A6130BD13B5013909299DBF53
:101C18000D4B53F821400D4B4FF0A04498BF5A5C30
:101C28004FF00103009388BF01222146FFF78EFF82
:101C3800A36843F00403A36023685B0701D400BFD3
:101C4800FAE7206C02B010BD1C40000810400008E4
:101C58002DE9F743254C264F264E4FF4887105464B
:101C6800FFF764FF6369244943F080536361FFF71A
:101C78005DFF63694FF0A04843F0005363614FF084
:101C8800020900240123C8F80C401A46FC604146AA
:101C9800F460CDF80090FFF759FF01231A46394642
:101CA8002846CDF80090FFF751FF0123CDF80090AA
:101CB8000C2231462846FFF749FFD8F8083043F090
:101CC8000103C8F80830BB6843F00103BB60B36880
:101CD80043F00103B360214628460134FFF794FF1F
:101CE8000B2CF8D103B0BDE8F08300BF0010024010
:101CF8000001005000040050002200107047704797
:101D080010B524210446FFF7A7FB204610BD10B5E7
:101D1800CC210446FFF7A0FB204610BD4C4A4D4B92
:101D28000360536943F4FC0310B553614FF09043CB
:101D380043609C6824F440349C609C6844F44034BC
:101D48009C609C8824F480742404240C9C809C88C7
:101D5800A4B29C801C6824F440341C601C6844F4C1
:101D680080341C603C4C046144638465C4675469D6
:101D780044F4FC0454611C68C0F8A03024F0030447
:101D88001C601C6844F003041C60546944F4FC049F
:101D980054611C68C0F8A43024F00C041C601C6852
:101DA80044F00C041C60546944F4FC0454611C683D
:101DB800C0F8A83024F030041C601C6844F03004DB
:101DC8001C60546944F4FC0454611C68C0F8AC30CD
:101DD80024F0C0041C601C6844F0C0041C605469F2
:101DE80044F4FC0454611C68C0F8B03024F4407416
:101DF8001C601C6844F440741C60546944F4FC047E
:101E080054611C68C0F8B43024F440641C601C6839
:101E180044F440641C60546944F4FC045461C0F800
:101E2800B8301C6824F440541C601C6844F44054C6
:101E38001C60546944F4FC0454611A68C0F8BC304E
:101E480022F440421A601A6842F440421A6010BDF7
:101E5800001002406C4000085C4000084268138D86
:101E68009BB243F480732DE9F04164210446138545
:101E78002B48DFF8B08000F007FE6421284800F006
:101E880003FE04F138063746002529464046FFF789
:101E9800BBFE0135082D47F8040BF6D162682048CF
:101EA8009369204F43F480739361642100F0ECFD43
:101EB800002529463846FFF7A7FE56F8043B0135AA
:101EC800C01A082D3062F4D104F1800304F1A00196
:101ED800002243F8042B9942FBD16FF0FF036361A2
:101EE8006FF0BF03A3616FF07F03E3616FF03F03FF
:101EF8002362402363628023A362C023E3624FF41A
:101F0800807323634FF4C873A360227300230422F1
:101F18002146034800F078FD0020BDE8F08100BFAD
:101F28008803002054010020037B72B60BB1002205
:101F3800027362B6184670474FF48070704700EB22
:101F4800810030B54269D0F8805002FB05F479B1C0
:101F5800C36F0269062902FB03422B440BD8D0F851
:101F6800841080690B4400FB012292FBF3F030BD22
:101F780062006B00F3E722442B44F6E7826800F125
:101F88008003002053F8041B8A4204DB0130082830
:101F9800F8D14FF0FF3070472DE9F84F0025DFF8F2
:101FA8006CA0DFF86C90044600F13806AB46294671
:101FB8005046FFF729FE56F8043BC01A09FB00F00B
:101FC800336A90FBF3F0013510F57A7054BF7064F2
:101FD800C6F844B0082DEAD12046FFF7CFFF431CCE
:101FE800014611D02046FFF7AAFF01230746804685
:101FF80084F8C030012384F8C130C4F8C470C4F830
:10200800C8802373BDE8F88F0023F1E7540100204E
:1020180018FCFFFF704710B544210446FFF71CFA6F
:10202800204610BD014B0360704700BF8040000888
:102038002DE9F0410446006C03681B688846984700
:10204800206C0368D421DB689847206C0368192149
:10205800DB689847206C03681B689847206C036806
:10206800D521DB689847206C036801211B699847D4
:10207800000207B2206C036801211B6998470743D7
:10208800206C036801211B699847000206B2206C86
:10209800036801211B6998470643206C03680121E6
:1020A8001B699847000205B2206C036800211B6970
:1020B80098470543206C03685B683FB236B22DB27F
:1020C8009847B8F1000F08D0A36A3B44A362E36ABB
:1020D8003344E362236B2B442363A36AE169226BD5
:1020E800E06AFB1AAD1A2361192293FBF2F301EBA4
:1020F8004303E361236AA561301A606190FBF2F043
:1021080003EB40002062636A206C95FBF2F503EB59
:102118004505036865621B689847206C0368D421ED
:10212800DB689847206C03682921DB689847206C96
:1021380003681B689847206C0368D521DB689847BB
:10214800206C036801211B699847000207B2206CC4
:10215800036801211B6998470743206C0368012124
:102168001B699847000206B2206C036801211B69AD
:1021780098470643206C036801211B6998470002B1
:1021880005B2206C036800211B6998470543206C41
:1021980003685B6898473FB236B22DB20123676087
:1021A800A660E56084F83C30BDE8F0810021FFF7C7
:1021B8003FBF406B003018BF0120704711F1FF315D
:1021C80001D300BFFAE7704738B504461022084625
:1021D8002164A823D421FEF798FA002323616361C0
:1021E800A361A362E3622363E3612362636242F251
:1021F80010712046FFF7E2FF0F226363D421206CA1
:10220800FEF7A1FA682804BF012363631022A823FC
:10221800D421206CFEF779FA38231E22D421206CB1
:10222800FEF773FA00232E22D421206CFEF76DFAF4
:1022380000231222D421206CFEF767FA60232022A3
:10224800D421206CFEF761FA38231F22D421206C98
:10225800FEF75BFA42F210712046FFF7AFFF00214C
:102268002046FFF7E5FE0023A3634FF47A750121AA
:102278002046FFF7DDFE64212046FFF79FFF013D62
:10228800F5D14FF47A72A36AE56193FBF2F3256204
:10229800A3626562E36A656093FBF2F3A560E3629B
:1022A800E560236B054893FBF2F3214623630A227A
:1022B8002B4600F0A9FB84F83C5038BD8803002069
:1022C800704710B514210446FFF7C6F8204610BD24
:1022D800304A314B0360536943F4FC0310B5536132
:1022E8002E4B43609C6824F440549C609C6844F4E2
:1022F80040549C601C6824F440541C601C681C609A
:10230800DC6844F48054DC60546944F4FC0454618F
:102318009C68836024F440449C609C6844F4404476
:102328009C601C6824F440441C601C681C60DC68C9
:1023380044F48044DC60546944F4FC0454619C68AF
:10234800C36024F040749C609C6844F040749C60B6
:102358001C6824F040741C601C681C60DC6844F035
:102368008074DC60546944F4FC0454619A68036125
:1023780022F440029A609A6842F440029A601A680D
:1023880022F440021A601A681A60DA6842F480027D
:10239800DA6010BD001002409440000800080048B0
:1023A800164B174A10B500241C60164B1C60936925
:1023B80043F00103936106210220FEF71FF80C2168
:1023C8000220FEF71BF810210620FEF72CF810213A
:1023D8000C20FEF728F8224621461720FDF790FF2B
:1023E800224621462820FDF78BFF0620FDF7FAFF3D
:1023F8000C20BDE81040FDF7F5BF00BF0800002025
:10240800001002400C00002072B6044B186862B637
:1024180058234343B42093FBF0F070470800002092
:1024280072B6044B186862B658234343B42093FB32
:10243800F0F070470C00002008B50146FFF7E4FFF4
:1024480002460846FFF7ECFF0223104490FBF3F026
:1024580008BD0000034B186858234343B42093FB7E
:10246800F0F0704708000020034B186858234343D6
:10247800B42093FBF0F070470C000020094B1B8A36
:1024880013F0C0030BD0C02B0CBF01234FF0FF3358
:10249800054A116806200B441360FDF7A3BF01230A
:1024A800F6E700BF00080048080000200A4B1B8A16
:1024B80013F4C0530CD0B3F5C05F0CBF4FF0FF331B
:1024C8000123064A11680C200B441360FDF78ABFEC
:1024D8004FF0FF33F5E700BF000800480C0000206C
:1024E80038B5C368364D2DED048B436003698360AE
:1024F80004462846FFF7AEFFE0602846FFF7B4FF22
:102508006268E3689FED2F5AD4ED056ADFED2E5A15
:102518009FED2E6A20619B1A07EE103AB8EEC77A33
:10252800A3689FED2B9A27EE057A66EEA56A47EE1B
:10253800066AC31A04F13C0007EE903AF8EEE77A0F
:10254800C4ED056AB0EE667AD4ED066A67EE857A60
:1025580066EEA56A47EE866AD4ED077AC4ED066A88
:1025680077EEC77A17EE102A17EE901AFEF7ACFF2F
:10257800A269D4ED087A07EE102A77EEC77A08EE3A
:10258800900A17EE901A04F16800FEF79DFF68EEB6
:10259800898A2434FDEEE87A08EE100A17EE901ABC
:1025A8002046FFF761F928EE098A2046FDEEC87A31
:1025B800BDEC048B17EE901ABDE83840FFF774B9EC
:1025C800A4010020CDCCCC3D6666663F0000003EED
:1025D80000007F4373B50E4B002504464FF07E562E
:1025E80040F8243BFFF79EF82B462A4629460096DA
:1025F80004F13C00FEF75CFF00962B462A4629466C
:1026080004F16800FEF754FF204602B070BD00BF19
:10261800A4400008F7B5154F154E04464FF07E55F7
:102628002430FFF7B7F900952B463A46314604F1B6
:102638003C00FEF726FF00952B463A46314604F14A
:102648006800FEF71EFF002500236361A361E361B4
:1026580023626560A560E56025612B46042221465A
:10266800044800F0D1F9284603B0F0BDEC51B83D5C
:10267800CDCC4C3F88030020C16170470162704790
:10268800406970478069704710B5084B044640F8A8
:10269800683BFEF7EEFE04F13C00FEF7EAFE04F1AB
:1026A8002400FFF737F8204610BD00BFA4400008FB
:1026B80010B50446FFF7E8FF20469421FEF7CCFE4C
:1026C800204610BD704710B504210446FEF7C4FE2D
:1026D800204610BD014B0360704700BFB84000089A
:1026E800274A536943F4FC0353614FF090439868B9
:1026F80020F440209860986840F44020986018685A
:1027080020F440201860186840F4002018605069D0
:1027180040F4FC005061986820F440109860986874
:1027280040F440109860186820F440101860186849
:1027380040F400101860586A20F0F0005862586A97
:1027480040F070005862586A20F470605862586A05
:1027580040F4E0605862936943F480439361094B05
:1027680000220C205A6018609A60074AB2FBF1F107
:1027780089B299811A6842F001021A60704700BF55
:10278800001002400038014000A24A04044BDA69F4
:10279800120601D400BFFAE789B21985704700BF55
:1027A80000380140704710B544210446FEF754FE36
:1027B800204610BD2849294B03604B6943F4FC03AC
:1027C80030B54B61264B83619A6822F040629A606B
:1027D8009A6842F040629A609A8822F40052120481
:1027E800120C9A809A8892B29A801A6822F04062F3
:1027F8001A601A6842F080621A604A6942F4FC0260
:102808004A61184AC261156825F003051560156804
:1028180045F0030515604D6945F4FC054D611568E3
:10282800026225F00C051560156845F00C05156069
:102838004A6942F4FC024A611A68436222F00302C0
:102848001A601A6842F003021A601A8D92B242F4B2
:1028580000521A8530BD00BF00100240C840000871
:102868000008004800040048826938B5138D9BB2FF
:10287800002543F400538562044613854FF48073A2
:10288800C562056345638563C5630564436083600A
:10289800C3600574457401462B461422024800F0B3
:1028A800B3F82575284638BD8803002000EB82025E
:1028B800936BD26A9B1A23EAE3731022C3F5805301
:1028C80093FBF2F30A6802EB42021344042293FBDF
:1028D800F2F30B607047000038B5856A044615B1FD
:1028E800012D17D038BD08212648FFF78DF9092199
:1028F800A0632448FFF788F90A21E0632148FFF71D
:1029080083F9A2692064936943F400539361012316
:10291800A36238BD08211B48FFF776F90921E06258
:102928001848FFF771F90A2120631648FFF76CF978
:10293800A2696063138D9BB243F40053138504F1BD
:10294800080100222046FFF7B1FF2A46211D204634
:10295800FFF7ACFF022204F10C012046FFF7A6FFA7
:10296800A268BD2A4FF0000304DCB32A257403DDF6
:10297800637402E02374FBE765740023A3620123F8
:10298800237538BD54010020037D72B60BB10022B7
:10299800027562B61846704770470000F7B5002206
:1029A800154D142713464FF47A7607FB02F42919BC
:1029B8000132102A2B514B608E60CB600B744B7424
:1029C800F3D10E4A13600E4A0360D36943F0010342
:1029D800D361002264230093114640F2CF234FF0C5
:1029E8008040FDF7AFFC012200211C20FDF788FC88
:1029F80062B603B0F0BD00BF140000201000002034
:102A08000010024070470000F0B572B6114D002466
:102A18004FF0FF304FF0140E2F460EFB04F605EB77
:102A2800060CAE5926B9DCF80460002E08BF204613
:102A38000134102CF1D1441C0AD0C4B214256543CA
:102A48007C1900267E516160A260E260267463747E
:102A580062B6F0BD140000200448142303FB0101F2
:102A68000023CA608A600B74704700BF14000020FE
:102A780082B072B6034B1B68019362B6019802B02C
:102A8800704700BF1000002007B50246FFF7F0FFAF
:102A9800014401911046FFF7EBFF019B984201D2D8
:102AA80000BFF7E703B05DF804FB0000F8B54FF08E
:102AB80080431A69D20714D5194F4FF6FE721A616E
:102AC800002414263D4606FB0473DA6852B1DA681E
:102AD800013ADA600134102CF5D1124A1368013337
:102AE8001360F8BD9A68DA601A7CFF2A1FBF1A7C47
:102AF8000132D2B21A7406FB04F3EA18527C002A97
:102B0800E8D1EA580AB1EB58984706FB04535A68CB
:102B1800002ADFD0586803689B689847DAE700BF47
:102B28001400002010000020704710B5082104464A
:102B3800FEF792FC204610BD10B5034B0360044617
:102B4800FDF7E2FD204610BDDC40000810B5044644
:102B5800FFF7F2FF20461021FEF77EFC204610BD4D
:102B680010B5044621B10349FEF73BFD204610BDD0
:102B78000149F9E723420008284200081049114B8F
:102B880003604B6943F4FC034B610F4B43609A6845
:102B980022F040429A609A6842F040429A609A88CD
:102BA800C2F30E029A809A8892B29A801A6822F02A
:102BB80040421A601A6842F080421A60704700BFAB
:102BC800001002403842000800040048026821B1A1
:102BD800936943F4004393617047138D6FEA43434D
:102BE8006FEA53439BB213857047D1B903689A685B
:102BF80022F440429A609A6842F440429A609A8865
:102C080022F080021204120C9A809A8892B29A805A
:102C18001A6822F440421A601A6842F480421A6024
:102C2800704701290ED103689A6822F440429A60DD
:102C38009A6842F440429A601A6822F440421A6044
:102C48001A68ECE7022913D103689A6822F4404213
:102C58009A609A6842F440429A601A6822F44042A4
:102C68001A601A681A60DA6842F48042DA607047BB
:102C7800052910D103689A6822F440429A609A683C
:102C880042F440429A601A6822F440421A601A6874
:102C980042F40042C3E70429C2D103681A6822F447
:102CA80040421A601A6842F44042B8E7054A08B53B
:102CB800536943F4FC035361034B03600121FFF79D
:102CC80094FF08BD0010024000040048D1B9036811
:102CD8009A6822F440529A609A6842F440529A6084
:102CE8009A8822F040021204120C9A809A8892B2B2
:102CF8009A801A6822F440521A601A6842F4805284
:102D08001A60704701290ED103689A6822F440526C
:102D18009A609A6842F440529A601A6822F44052C3
:102D28001A601A68ECE7022913D103689A6822F43A
:102D380040529A609A6842F440529A601A6822F4A3
:102D480040521A601A681A60DA6842F48052DA60EF
:102D58007047052910D103689A6822F440529A6096
:102D68009A6842F440529A601A6822F440521A60F3
:102D78001A6842F40052C3E70429C2D103681A68EA
:102D880022F440521A601A6842F44052B8E7000030
:102D9800054A08B5536943F4FC035361034B0360C8
:102DA8000121FFF793FF08BD00100240000400480E
:102DB8000A2310B5436004460830FFF777FF04F193
:102DC8000C00FFF7E5FFA268138D9BB243F0800368
:102DD8001385E268138D9BB243F04003138510BD41
:102DE8002DE9F041454C464FDFF87881051D28460E
:102DF8000121FFF7EBFE20464FF4E131FFF770FCAD
:102E080020464049FEF7EDFB3F492046FEF7E9FB27
:102E1800FEF712FB3D4906462046FEF7E2FB314627
:102E28003B4E2046FEF708FC31462046FEF7D9FB0C
:102E38003846FFF7B3FD20463649FEF7D2FB204659
:102E48003549FEF7CEFB3846C821FFF71DFE33494A
:102E5800334F2046FEF7C5FB4046FFF7A9FF204643
:102E68003049FEF7BEFB41463846FFF7ADF92E491B
:102E78002046FEF7B6FB3846FFF79BF90146204689
:102E8800FFF76EFE3146FEF7ACFB2848FEF7E0FE82
:102E980027492046FEF7A5FB2648FEF7DFFF26490F
:102EA8002046FEF79EFB2548FFF7DEFC2449204616
:102EB800FEF797FB2348FFF773FA23492046FEF7EE
:102EC80090FB2248FFF7A6FB20462149FEF789FB25
:102ED80000212846FFF77AFE1E48FEF7D9FD204656
:102EE8001D49FEF77EFB20461C49FEF77AFB20466B
:102EF8001B49FEF776FB0020BDE8F0818403002023
:102F0800880300200D410008194100082D410008E0
:102F1800174100084B4100085C4100087341000854
:102F2800C80100206A4100087941000854010020C6
:102F38008D410008240200209C410008580100200F
:102F4800B3410008A4010020CE410008F00200208F
:102F5800E84100080C02002002420008164100085F
:102F680011420008B801002070B5044600F10C06B3
:102F780004F1080530460021FFF7A8FE2846002185
:102F8800FFF733FE30460121FFF7A0FE2846002157
:102F9800FFF72BFE30460121FFF798FE2846012156
:102FA800FFF723FE2046BDE87040FDF7F3BB70B580
:102FB800044600F10C0604F1080530460121FFF72C
:102FC80085FE28460121FFF710FE30460121FFF754
:102FD8007DFE28460021FFF708FE30460021FFF756
:102FE80075FE28460121FFF700FE2046BDE8704027
:102FF800FDF7D0BB2DE9F843044600F10807384631
:10300800894604F10C060121FFF7EFFD0021304647
:10301800FFF75CFE2046FDF7BDFB4FF009080025D1
:10302800B8F1010817D001213046FFF74FFE2046BE
:10303800FDF7B0FBA3681B8A6D001B063046EDB296
:103048004FF0000148BF45F00105FFF73FFE20465D
:10305800FDF7A0FBE4E7B9F1000F1ED04146384662
:10306800FFF7C3FD2046FDF795FB01213046FFF72A
:103078002DFE2046FDF78EFB00213046FFF726FE89
:103088002046FDF787FB01213846FFF7AEFD2046B5
:10309800FDF780FB2846BDE8F8830121DFE72DE92D
:1030A800F04104460D46092700F10C0600F1080816
:1030B800013F1AD000213046FFF708FE2046FDF7F1
:1030C80069FB2B064CBF012100214046FFF78DFD0F
:1030D8002046FDF75FFB01213046FFF7F7FD6D0045
:1030E8002046FDF757FBEDB2E2E739463046FFF7D9
:1030F800EDFD2046FDF74EFB01214046FFF775FD2B
:103108002046FDF747FB01213046FFF7DFFD20464B
:10311800FDF740FBA3681D8A39463046FFF7D6FD08
:10312800ADB22046FDF736FB85F08000C0F3C01035
:10313800BDE8F08138B5384D384C2846FFF71EFDFC
:103148002846374D37492246FEF791F92846FEF7BB
:1031580033FA2846344D35492246FEF788F9284681
:10316800FFF71AFC2846324D32492246FEF77FF90E
:103178002846FDF7C3FA28462F4B40F8083BFFF7CF
:1031880095FD05F10C00FFF703FE28462B4D2C4951
:103198002246FEF76CF92846FEF744FF2846294DDB
:1031A80029492246FEF763F92846FEF7B9FC284666
:1031B800264D27492246FEF75AF92846FEF7AEFD66
:1031C8002846244D24492246FEF751F92846FFF7A0
:1031D800F1FA2846214D22492246FEF748F92846A9
:1031E800FFF776F828461F4D1F492246FEF73FF99C
:1031F8002846FFF7EFF928461C4D1D492246FEF7E1
:1032080036F92846FEF704FC224628461949BDE847
:103218003840FEF72CB900BF9C01002004000020B4
:1032280084030020312B000888030020991500082A
:10323800B80100200D2A0008DC400008C801002061
:10324800412B0008540100201D2000082402002002
:10325800191B000858010020051D0008A4010020C2
:10326800AD270008F0020020C92200080C02002047
:1032780091260008E119000838B50446064B44F8C1
:10328800083B0546204600F071FA2046034900F045
:1032980093FA284638BD00BF484200083333333F0D
:1032A800416070472DE9F84381461648DFF8588099
:1032B800144E0D46FFF7DCFB054409F1080705210C
:1032C800384600F0A5FA0446A0B94046FEF72CFEA1
:1032D8000028F4D03046FFF7CBFB854202D298F89D
:1032E800C0305BB9384600F0B7FA04213046FFF722
:1032F800CBFBE2E74FF0FF30BDE8F8832046BDE89E
:10330800F88300BF8803002024020020D0ED017A52
:10331800F5EEC07AF1EE10FA38B500F108044CBFAA
:10332800AA21002105464CBF0022AA2220460523D7
:1033380000F0E2F900212846FFF7B4FF002852D038
:10334800D5ED017AF5EEC07AF1EE10FA4BBF002206
:103358006FF0A9026FF0A90100210523204600F0B3
:10336800CBF921492846FFF79DFF204600F0D0FA07
:10337800D5ED017AF5EEC07AF1EE10FA4BBF0021D7
:10338800AA21AA2200222046052300F0B5F9962199
:103398002846FFF787FF30B3D5ED017AF5EEC07AFE
:1033A800F1EE10FA47BF6FF0A902002100226FF07A
:1033B800A9010523204600F09FF90B492846FFF78D
:1033C80071FF204600F0A4FA552205231146204635
:1033D80000F092F928469621FFF764FF2046BDE8E1
:1033E800384000F095BA38BD40420F0010B5044B84
:1033F800044640F8083B00F06FF9204610BD00BFB6
:103408004842000810B50446FFF7F0FF20465C214B
:10341800FEF722F8204610BD2DE9F041C0B014A8EF
:1034280000F0FAFA14A9684600F0C8F84A4C4B4D67
:103438004B4F4C4E4C4900231A46684600F0E4F8BE
:1034480096F8C030B046002B00F0838047492046EC
:10345800FEF7C7F8D6F8C4102046FEF7C4F8294688
:103468002046FEF7BEF8002608EB06032046D3F8F0
:103478008010FEF7B8F8043629462046FEF7B1F862
:10348800202EF1D13A4E2046F169FEF7ACF82946D4
:103498002046FEF7A6F8316A2046FEF7A4F829462A
:1034A8002046FEF79EF8716A2046FEF79CF82946EA
:1034B8002046FEF796F83846FEF7A6FF0146204656
:1034C800FEF791F829462046FEF78BF83846FEF7B6
:1034D800A7FF01462046FEF786F829462046FEF754
:1034E80080F82448FFF7CCF8032201462046FEF76F
:1034F800BFF829462046FEF774F81E48FFF7C2F8C1
:10350800032201462046FEF7B3F829462046FEF777
:1035180068F800260DEB0603204693F90410FEF721
:1035280062F8013629462046FEF75BF8402EF1D1B5
:1035380012992046FEF780F829462046FEF751F8F2
:1035480020460D49FEF74DF832210C48FFF79CFA4A
:103558006FE70B497BE700BF840300205442000853
:10356800A401002024020020A002002050420008EC
:10357800C8010020F002002017410008880300203D
:1035880053420008704710B550210446FDF764FF08
:10359800204610BD0346074A43F8042B00F14401B6
:1035A800002203F8012B8B42FBD1034B8264C364D6
:1035B8004264704760420008003665C40346084A02
:1035C80010B543F8042B00F14404002203F8012B42
:1035D800A342FBD1034B8264C364416410BD00BFA6
:1035E80060420008003665C410B5031D00F14404AC
:1035F800002203F8012BA342FBD1024B8264C3646F
:10360800416410BD003665C470B50446C06C101A1C
:103618000028B8BF404283424FDCE26404F138021C
:103628000023A2F10800C51895F90460D5180133E4
:10363800082B2E71F7D184420246F1D10D1D224B81
:10364800224A2431284650F8046BB242B8BF3246A9
:10365800B342A8BF33468142F5D193422FDAD31A39
:1036680007EE903A9FED1A7AF8EEE77AC7EE276AE6
:1036780007EE902AF8EEE77A07EEE67AF0EE477A58
:10368800231D1946B5EC017AB8EEC77AB0EE676A21
:1036980007EE266A8542BDEEC67A17EE102A03F8B1
:1036A800012BEFD1606C03689B689847606CFDF74D
:1036B800B5FD606CFDF7E4FDA064002070BDDFED92
:1036C800057AF0EE676ADBE740420F00C0BDF0FF05
:1036D8000000FE42000000007047704710B510213E
:1036E8000446FDF7B9FE204610BD10B55421044626
:1036F800FDF7B2FE204610BDF8B5044616480E4642
:1037080015461F46FEF780FE3044A0601248FEF7BB
:1037180087FE002E2844E060276119DD9FED0F7AAF
:10372800DFED0F7A002DC8BFF0EE477A0D4A0E493B
:10373800C4ED077A00232262A361E1622263A362D7
:10374800C4ED0F7A2264A363E1642265A364F8BD23
:10375800DFED037AEAE700BFA40100206F12833B84
:103768006F12033C0AD7233C6F12033B10B50F4B73
:103778000F4A036000234261C361036283614262AE
:10378800C362036383624263C36303648363426403
:10379800C364002203658364064B026104464360E8
:1037A80011460523FFF7A8FF204610BD80420008F8
:1037B800704200083333333F002241600261052321
:1037C8001146FFF799BF000038B5846806480D46D2
:1037D800FEF71AFE201A0028B8BF40428542D4BF1F
:1037E8000020012038BD00BFA401002038B5C468FE
:1037F80006480D46FEF714FE201A0028B8BF4042BE
:103808008542D4BF0020012038BD00BFA40100209C
:1038180038B504460D46FFF7D7FF28B1294620469C
:10382800BDE83840FFF7E2BF38BDD0ED017A07EEBA
:10383800101AF4EEC77AF1EE10FA07D590ED027A75
:1038480077EE277AC0ED017A40687047FCDD90ED8D
:10385800037A77EEC77AF5E738B585682DED028BE0
:1038680004462848FEF7D0FD854225DD616804F14D
:103878001400FFF7DAFF94ED068A2248E568FEF7A0
:10388800CFFD85422BDD616804F13400FFF7CDFFE1
:10389800D4ED0E7A1C4817EE901AFEF7EFFE18EEDC
:1038A800101A1948FEF7E8FEBDEC028B2169204684
:1038B800BDE83840FFF7ACBF1248A568FEF7A4FD85
:1038C800854209DA616804F12400FFF7AEFF94ED40
:1038D8000A8AB1EE488AD0E79FED0C8ACDE70948FD
:1038E800E568FEF79DFD854209DA616804F1440048
:1038F800FFF79BFFD4ED127AF1EE677ACAE7DFEDA6
:10390800037AC7E7A4010020F002002000000000AD
:1039180038B52DED048B9FED2A9A2A4D0446F0EE1A
:10392800499A2846FEF7ACFE07EE900AF5EEC07AF3
:10393800F1EE10FA48BFF1EE677AF4EEC97AF1EECB
:1039480010FA20DD002104F14400FFF76EFFD4EDEA
:10395800128A002104F12400FFF767FF94ED0A8A18
:10396800F1EE688A18EE901A2846B1EE488AFEF7FA
:1039780085FE18EE101A2846FEF77EFE042112482E
:10398800FFF782F8CDE72846FEF77CFE07EE900A9F
:10399800F5EEC07AF1EE10FA48BFF1EE677AF4EE70
:1039A800E97AF1EE10FACDDC00210648FEF766FE52
:1039B800BDEC048B00210348BDE83840FEF75CBE2F
:1039C8000AD7233CF002002088030020F8B50446FB
:1039D8000B4B44F8083B0026054637466B689E4269
:1039E80009D254F8040B10B103685B68984744F88F
:1039F800047C0136F2E72846FDF7D4FB2846F8BDDB
:103A08009848000810B50446FFF7E0FF2046B021AB
:103A1800FDF722FD204610BD2DE9F047804694B001
:103A2800FDF7DCFBAA4BC8F800300123C8F890303A
:103A3800C8F89430C8F898300523C8F89C30A54BCE
:103A480093E80700A44B0BAC84E8070093E8070051
:103A5800A24B0EAD85E8070093E8070011AE4FF0C2
:103A6800080986E80700C8F88890C8F88C903820BC
:103A7800FDF7EAFCD023099340F2F9130893984B19
:103A88000793984B0693824696E8070003AF87E8AA
:103A9800070095E807008DE80700504694E80E00F7
:103AA800FDF7A2FC904BC8F808A093E807008F4BDD
:103AB80084E8070093E807008D4B85E8070093E842
:103AC800070086E807002C20FDF7BEFC824696E832
:103AD800070087E8070095E807008DE807005046CB
:103AE80094E80E00FCF7FCFE824BC8F80CA093E8A3
:103AF8000700814B84E8070093E807007F4B85E8BF
:103B0800070093E8070086E807002820FDF79CFCDB
:103B1800824696E8070087E8070095E807008DE8E1
:103B28000700504694E80E00FDF708FB744BC8F8F0
:103B380010A093E80700734B84E8070093E8070098
:103B4800714B85E8070093E8070086E807003820EE
:103B5800FDF77AFC862309934FF4E57308936B4BC2
:103B680007936B4B0693824696E8070087E80700A1
:103B780095E807008DE80700504694E80E00FDF729
:103B880061F9644BC8F814A093E80700624B84E815
:103B9800070093E80700614B85E8070093E80700F2
:103BA80086E807002C20FDF74FFC824696E80700C0
:103BB80087E8070095E807008DE80700504694E875
:103BC8000E00FCF78DFE564BC8F818A093E80700C6
:103BD800544B84E8070093E80700534B85E8070037
:103BE80093E8070086E807003820FDF72DFC6623D8
:103BF800099340F2B71308934C4B07934C4B069329
:103C0800824696E8070087E8070095E807008DE8F0
:103C18000700504694E80E00FDF714F9454BC8F824
:103C28001CA093E80700444B84E8070093E80700CA
:103C3800424B85E8070093E8070086E807002C2038
:103C4800FDF702FC824696E8070087E8070095E83A
:103C580007008DE80700504694E80E00FCF740FE88
:103C6800374BC8F820A093E80700364B84E80700D4
:103C780093E80700344B85E8070093E8070086E8D7
:103C880007004020FDF7E0FB40F2251309934FF4AD
:103C9800D47308932D4B07932D4B0693824696E8D1
:103CA800070087E8070095E807008DE807005046F9
:103CB80094E80E00FCF7BAFD4046C8F824A0C8F8FE
:103CC8000490FDF714FB404614B0BDE8F08700BF30
:103CD800984800086C480008304800083C4800082C
:103CE80088420008994200083C4800083C480008FF
:103CF8003C480008604800083C480008484800085C
:103D08006C48000848480008544800088C420008DD
:103D1800BD420008544800085448000854480008A8
:103D28006C48000854480008784800089042000889
:103D38004D4300087848000878480008784800088B
:103D48007848000878480008844800089442000829
:103D58006D44000838B50446064B44F8043B054654
:103D68002046FFF703FD20460349FFF725FD2846B7
:103D780038BD00BFB04800083333333F38B5041DA1
:103D880005232046FFF7B8FC094D05212046FFF71B
:103D98003FFD38B92046FFF75FFD04212846FEF7AE
:103DA80073FEF2E72046BDE83840FFF7B1BD00BF1B
:103DB8008803002010B5044B044640F8043BFFF785
:103DC8008BFC204610BD00BFB048000810B5044663
:103DD800FFF7F0FF20465821FDF73EFB204610BDB7
:103DE800F0B52DED048B6FF02B028FB01146054610
:103DF800FFF7C4FF582200212846FFF7BFFF4FF006
:103E08007E53009300231A46194603A8FDF750FB7A
:103E18002E4C2F4B009300222E4B2F49DFED2F8A7B
:103E28009FED2F8ADFED2F9A2F4E03A8FDF729FB70
:103E3800D4ED037AF8EEE77A03A887EEA87A274646
:103E480017EE101AFDF780FB3846FEF79DFD002897
:103E5800FAD0B4EEE98AF1EE10FA4ABFDFED237A20
:103E68009FED208A38EE278AD4ED037AF8EEE77AB8
:103E780003A887EEA87ADFED1E7A77EEC77A17EEE9
:103E8800102A17EE901AFDF71FFB07EE900A37EE7F
:103E9800889A78EE677A304617EE901AFEF7ECFBB0
:103EA80019EE101A3046FEF7E9FB124B93F8C030B2
:103EB800002BC9D0722200212846FFF75FFF03A814
:103EC800FDF7D7FA0FB0BDEC048BF0BD5801002008
:103ED80000002041CDCC4C3ECDCCCC3E0000C842A9
:103EE80000000000CDCCCC3EF00200200AD7A33C55
:103EF800CDCC0C402402002000000000000000008F
:103F0800910400089304000800000000000000006D
:103F1800A5060008DD0600080000000000000000FB
:103F2800F3060008F5060008F7060008FD06000875
:103F3800010700080000000000000000AD070008AD
:103F4800C1070008D50700080000000000000000B5
:103F5800C1080008D50800089D08000800000000F6
:103F680000000000C50D0008D90D0008ED0D00087F
:103F780000000000000000009D0E0008B10E0008BF
:103F8800C50E00080000000000000000AD11000888
:103F9800D111000885110008F71200080000000080
:103FA800000000005F130008631300086113000895
:103FB800000000000000000091130008A51300088D
:103FC800B913000800000000000000007B1400087E
:103FD8007D1400080000000000000000991500088A
:103FE800AD15000800000000000000001D170008C3
:103FF8001F1700080000000000000000E119000879
:10400800E3190008F1190008020304010203040C73
:1040180001060000000000500000005000000050A1
:104028000001005000010050000100500001005044
:104038000004005000040050000000500000000080
:1040480000000000191B00081B1B000800000000EE
:1040580000000000071D0008091D000800000000FE
:1040680000000000051D0008171D0008A11F00081A
:1040780000000000000000001D2000081F200008AC
:10408800B52100080000000000000000C922000857
:10409800CB22000800000000000000009126000864
:1040A800B9260008E924000800000000000000000C
:1040B800CD260008CF260008000000000000000000
:1040C800AD270008AF270008E1280008000000001D
:1040D80000000000B72F0008712F0008B92D000854
:1040E800A7300008FD2F0008412B0008552B0008B9
:1040F800096573745F696D755F73656E736F720AB6
:1041080000203A20000A0A0A23232323230A0A0A42
:10411800007465726D696E616C20696E69742064E3
:104128006F6E650A006D656D20696E697420646F35
:104138006E652C20686561702073746172742061EB
:1041480074200074696D657220696E697420646FEB
:104158006E650A0064656C617920323030206D73B9
:10416800200069326320696E697420646F6E650A85
:1041780000696D7520696E697420646F6E652077BB
:10418800697468200061646320696E697420646FD3
:104198006E650A006C696E652073656E736F7220B8
:1041A800696E697420646F6E650A0064697374616E
:1041B8006E63652073656E736F7220696E69742013
:1041C800646F6E650A00656E636F6465722073655F
:1041D8006E736F7220696E697420646F6E650A0071
:1041E8006D6F746F7220636F6E74726F6C6C206980
:1041F8006E697420646F6E650A006B657920696E5C
:10420800697420646F6E650A0073797374656D2034
:10421800696E697420646F6E650A00747275650052
:1042280066616C736500000000000000000000007B
:10423800312B0008332B00080000000000000000AC
:10424800F53300080D34000831200030200000004C
:1042580000000000000000008D3500088F350008C0
:104268000000000000000000E3360008E536000802
:104278000000000000000000E1360008F3360008E6
:10428800D3F59E7F637F28002C007F007F35521C6A
:1042980038892F58EF34498AE01AFAC40FDCD92E2E
:1042A80030EF4953E71B3E260E1CEA1C81DE63D91A
:1042B800036DD3FD4C27D82EEAD203041C05251321
:1042C800F81DF601050AE13221D9EB289C2230FAC3
:1042D8001AED3DFEE801E32AE0D205CC08F0EF052F
:1042E800D718CD08C3D3FB0D1F30DD3C20C953229E
:1042F800C55B0A05812BCEBC2210B80D0ED469B956
:10430800F44FC2170D03FCD5F50FFCDC033DE70B9A
:104318002ED5F010EA3D06E5FA45B4E81B0C15FD6C
:10432800310A1BF2080714FFE807E30AEA1C0D0B21
:1043380007FFDCEFEDEDECF3EBDD04FE17F9E9F335
:10434800F2F6E7E204FF1900B8FDF1B5FDFD30E330
:10435800331EE429CDE50D03F30B2BBD2001DA0B49
:10436800030006040075E9351851AFFD35DCD60A9F
:10437800CBF25007FE3919F5210100000CE20500C7
:1043880006FEF90E54AFD323DAE8FBF4E308131161
:10439800E7D10FF5E3351DF10009FA030CEAFED366
:1043A80019BC9528C8B72FE10D0012110B33631CF7
:1043B8000C3136950016A2180ACE23DA330823E505
:1043C8001E27C6FF07F6FFF10627E70F2000C3FCEC
:1043D80010E9080BFA128A2DF6962FDFDC1FEB0383
:1043E800EA01E80036D429DD12FE20FBDE2B051396
:1043F8000300FDF50081ADF3C5BB32CCF800FBE44A
:104408000B09F138901C14F5E4E223C51C3CEE00BE
:1044180035DB0600CB4287E00FD901240A0FD5F619
:10442800F8DE09031217EBF9130706FF000500C8A9
:10443800EB19983FD7D116F704FA0C03F054E30CA4
:1044480062DD1AF5F01319E3F7FA11F0120BDB3AF3
:1044580020E22BF0F618EA0630EE002B0F05DDFB04
:10446800ED1C0CFD40FC00000006D4F90406F9FB25
:10447800FF041C04EFFA00000000FDFEFDFA010035
:10448800F402F205EB00FFFE0402F4035100F00011
:104498002E00F1F33C0405FC0600EAFA18030CF4BC
:1044A800080207F4EC05000000000C08F0001101F8
:1044B800F0FC26230F040004000034F2DD0025F090
:1044C800FC000D05FD00000000F80D01E9030802DD
:1044D800F505FD02F50000000300FD00F900F9FBF9
:1044E80006F804FBFCD4F0F8FEEEFAF9F902FCF841
:1044F800FA08FCFBFCFEE5EF2CF6F1FB1BF4FBF9DC
:104508000CFF03F99E0D07FAFB0B06FBFC0908FCE0
:10451800FB0706FEF9D5FF0005E200FF06FC0000D8
:10452800000B0000FD0801FF040020FFF7000DFB51
:10453800FC00F600120000FAFCFB05FB08FE000078
:10454800FE002B04FEF900FAFA00D6ECE606E5F4C4
:104558000000F5FAFD000000080012FFE7FB00016B
:10456800F000F9F9340C06FF03F90D0109F700050D
:10457800FFFC04FFD4090207FCFEDD20ED09EC1066
:1045880004FE2306F70AF907F8090C01FCF4F7FD05
:10459800050016FCF900F3FF0BF70305FE0AF3F913
:1045A800FF0CF80702481501F4271207F50E13044B
:1045B800FDF70403F950CEFDF73EEC060725F2FFA0
:1045C8001CF207FAE00003FDF80601FDFB03FFFEFD
:1045D800FD000000FD38F203FA21F800FE08FEFF96
:1045E80004F3FEFEFF04F4000D071321E8090B0B8A
:1045F800F905F900070BFF0302FCF5E9FDF3E2F703
:1046080001FEDC110204F6FF00FE6C08F4F4500908
:1046180002031E03040508F300F304EE03F508FE85
:104628000609FEFDFA04F9FEF7F9000BF40603018A
:1046380001FC06F600FD0904F604F5FC2CFFF7FD65
:1046480000F8E0FB00F808F9F70B13FCFF0509FB7D
:1046580000F4F90DF70609FEF90C0AF5F507F8FB61
:10466800FC0DF70003EE00EDF9F3F9F900FC020088
:1046780000FE04050EC12FDBE6CA11E2F7F60B01B6
:10468800110EFD1B03F90402FFFA0203FE000102EA
:1046980000FE000304F912E5F4F70DF4F60304FF35
:1046A800FD04FE070205F806FE0A03E82E0000F6E0
:1046B80015060BFEF7F900FAF6081D530FFB112734
:1046C800000AFFFC0605FEFA0CFCC9310207DB19DB
:1046D80000FB0100050304F70BF4E61A240902089D
:1046E80008F802F105F7080200FFE4F30A0DF0FCF0
:1046F8001209F9FC190800F707F8000001FBFFFC94
:10470800000907FF1701FAFD04FAE124F30AFC1671
:10471800080002060103FEFAFFF9F30D08F5FDF59E
:10472800FE00FF0308FD0216C1F4FF10CFFE0601CC
:10473800E90202F7F0F720F343F822071CF01BFA0E
:10474800F9F815F2FEFEFA0B09FFFD0204FDFF045D
:1047580000FC010200FC020DF9FA0003FEFFFE0650
:1047680009030BF80BF400F60D05F304E405FC034C
:10477800000BEEFA08F807FB020006B8EE0501DDAB
:104788000CFFFFF01D0302FA050300E4DEFEFDFB4B
:10479800DDF5070AAC09F3FC000A0EF8EBFDF10899
:1047A800ED07F633F30A0CFEFC0A04F9FBFB01F9EA
:1047B800080BFD0C07020B05FD0BF50A0A03F903AC
:1047C800FBFDEC0003F60D0BFE07F7DE280102F3F4
:1047D800020901FD13030AFEF5000D0C0502FE0C8B
:1047E8000205FEFBFCFCF70753FEF50E41FBF50D39
:1047F80023FFF9051505FF34CBFFEB27D605F8167F
:10480800E1F9F4067FF5F7FF08F6FA0003F7FD0073
:1048180006FBFF030504FB0C1605FD0C08FFFF0251
:10482800F502000300000000080000000800000076
:10483800010000000800000008000000040000005B
:104848000400000004000000040000000400000050
:104858000400000008000000020000000200000040
:104868000100000003000000030000000400000035
:1048780004000000040000000C000000010000001B
:10488800010000000500000000000000000000001A
:10489800D53900080D3A000885110008F7120008FC
:1048A8000000000000000000BD3D0008D53D0008E4
:0448B8003D31000886
:040000050800019D51
:00000001FF
