:020000040800F2
:1000000000800020B901000889010008A90100084A
:10001000890100088901000889010008000000002A
:10002000000000000000000000000000890100083E
:10003000890100080000000089010008890100080A
:100040008901000889010008890100088901000868
:100050008901000889010008890100088901000858
:100060008901000889010008890100088901000848
:100070008901000889010008890100088901000838
:100080008901000889010008890100088901000828
:100090008901000889010008890100089D170008EE
:1000A0008901000889010008890100088901000808
:1000B000B90E0008890100088901000889010008BB
:1000C00089010008890100088901000889010008E8
:1000D00089010008890100088901000889010008D8
:1000E000CD1700088901000889010008890100086E
:1000F00089010008890100088901000889010008B8
:10010000000000000000000000000000890100085D
:100110008901000889010008890100088901000897
:100120008901000889010008890100088901000887
:10013000890100088901000800000000000000009B
:1001400089010008890100088901000800000000F9
:10015000000000000000000000000000000000009F
:10016000000000000000000089010008890100086B
:1001700089010008000000000000000000000000ED
:080180000000000089010008E5
:10018800684620F007018D46034A044900BF138DD5
:100198000B439BB21385F9E7000400480080FFFF7A
:1001A800684620F007018D4608B5FFF7E9FF000013
:1001B8001449154A1548521A921000239A4215D12B
:1001C800134A144ED2F88830134C43F47003C2F823
:1001D8008830D2F83432A41B43F04043C2F834329A
:1001E800A4100025AC4207D100F094B850F8234081
:1001F80041F823400133E1E756F8253098470135A7
:10020800F0E700BF0000002000000020F81C0008F4
:1002180000ED00E0F81C0008001D0008384AD2F87C
:10022800883043F47003C2F88830364B1A6842F0BD
:1002380001021A605968344A0A405A601A6822F062
:10024800847222F480321A601A6822F480221A60BA
:100258005A6822F4FE025A60DA6A22F00F02DA6261
:10026800196B2A4A82B00A401A6300229A600092E7
:1002780001921A6842F480321A601A6802F4003255
:100288000192009A01320092019A1AB9009AB2F5C5
:10029800A04FF2D11A6812F4003218BF012201925D
:1002A800019A012A26D11A4A122111605A685A6005
:1002B8005A685A605A6842F480625A605A6822F44E
:1002C8007C125A605A6842F4E8125A601A6842F07E
:1002D80080721A601A689201FCD55A6822F00302EB
:1002E8005A605A6842F002025A605A6802F00C02D8
:1002F800082AFAD1024B4FF000629A6002B07047A8
:1003080000ED00E0001002400CC07FF8CCFC00FFBC
:100318000020024008B5064800F056FA0A210448B1
:1003280000F06CF84FF0FF31014800F0F1F8FEE7FB
:100338000000002010B5054C204600F037F8204694
:10034800034A0449BDE8104000F0CFBF0000002078
:10035800B802002061030008704710B50821044660
:1003680000F064FC204610BD10B5034B0360044642
:1003780000F00EFC204610BD601B000810B50446B6
:10038800FFF7F2FF2046102100F050FC204610BD78
:1003980010B5044621B1034900F0D4FD204610BD34
:1003A8000149F9E7461C00084B1C00081049114B8D
:1003B80003604B6943F47F034B610F4B43609A68BA
:1003C80022F040429A609A6842F040429A609A88C5
:1003D800C2F30E029A809A8892B29A801A6822F022
:1003E80040421A601A6842F080421A60704700BFA3
:1003F800001002405C1C0008000400482DE9F04190
:1004080080460F463B483C493C4D3A4C3C4E00F038
:1004180099FD284601F040F80028FAD0D8F80420C1
:100428002969936943F40043002F93612046C8BFAC
:1004380007F1FF3700F091FD3146204600F082FDBC
:100448006969204600F089FD3146204600F07AFDB2
:10045800A969204600F081FD3146204600F072FD72
:100468002849204600F06EFD6968204600F075FDB9
:100478003146204600F066FDA968204600F06DFD73
:100488003146204600F05EFDE968204600F065FD33
:100498003146204600F056FD1A49204600F052FD2C
:1004A800E969204600F059FD3146204600F04AFD32
:1004B800296A204600F051FD3146204600F042FDF1
:1004C800696A204600F049FD3146204600F03AFDB1
:1004D8000D49204600F036FDD8F804200B48138D4E
:1004E80043F400431385C82100F0D0FC002F90D1BD
:1004F800BDE8F0816C0100207C1B00086C00002026
:100508008F1B00088D1B0008AB1B00087001002022
:100518002DE9F04180460E4628482949294D274CA7
:10052800294F00F00FFD274800F048FE284600F04C
:100538003DFE0028FAD0D8F80420936943F400431C
:100548009361002E95F8B0102046C8BF06F1FF361B
:1005580000F003FD3946204600F0F4FC95F8B11090
:10056800204600F0FAFC3946204600F0EBFCD5F8AE
:10057800B410204600F0F1FC3946204600F0E2FCB9
:10058800D5F8B810204600F0E8FC3946204600F0BF
:10059800D9FC0E49204600F0D5FCD8F804200C48B8
:1005A800138D43F400431385C82100F06FFC002E1F
:1005B800BCD10448BDE8F04100F006BE6C01002043
:1005C800911B0008B00000208F1B0008AB1B00081F
:1005D80070010020D1B903689A6822F440429A60F9
:1005E8009A6842F440429A609A8822F08002120483
:1005F800120C9A809A8892B29A801A6822F4404221
:100608001A601A6842F480421A60704701290ED1B4
:1006180003689A6822F440429A609A6842F4404219
:100628009A601A6822F440421A601A68ECE70229B4
:1006380013D103689A6822F440429A609A6842F497
:1006480040429A601A6822F440421A601A681A6096
:10065800DA6842F48042DA607047032910D10368EF
:100668009A6822F440429A609A6842F440429A603A
:100678001A6822F440421A601A6842F40042C3E73A
:100688000429C2D103681A6822F440421A601A6821
:1006980042F44042B8E70000054A08B5536943F4FC
:1006A8007F035361034B03600121FFF793FF08BDEC
:1006B8000010024000040048D1B903689A6822F487
:1006C80040529A609A6842F440529A609A8822F09E
:1006D80040021204120C9A809A8892B29A801A6880
:1006E80022F440521A601A6842F480521A60704725
:1006F80001290ED103689A6822F440529A609A68D8
:1007080042F440529A601A6822F440521A601A68F9
:10071800ECE7022913D103689A6822F440529A60E0
:100728009A6842F440529A601A6822F440521A6059
:100738001A681A60DA6842F48052DA60704703294E
:1007480010D103689A6822F440529A609A6842F479
:1007580040529A601A6822F440521A601A6842F4A9
:100768000052C3E70429C2D103681A6822F4405230
:100778001A601A6842F44052B8E70000054A08B502
:10078800536943F47F035361034B03600121FFF76F
:1007980093FF08BD00100240000400480A2310B56A
:1007A800436004460830FFF777FF04F10C00FFF7B9
:1007B800E5FFA268138D43F080031385E268138D6B
:1007C80043F04003138510BDF8B50546FFF726FD35
:1007D8006A682E4C93692E4E2E4F43F40043936162
:1007E800204600F0E7FE20462B4900F0ABFB2B49E2
:1007F800204600F0A7FB304600F0DEFA20462849E4
:1008080000F0A0FB2046274900F09CFB3046C82199
:1008180000F03CFB2449254E204600F093FB384667
:10082800FFF7BCFF2046224900F08CFB39463046D2
:1008380000F042FE1F49204600F084FB304600F0DD
:1008480026FE01462046FFF7A3FD1B4900F07AFB70
:100858001A4800F04DFC1A49204600F073FB19486D
:1008680000F064FF2046184900F06CFB2046174949
:1008780000F068FB2046164900F064FB6A68138D97
:1008880043F4004313850020F8BD00BF6C0100202D
:10089800700100205C000020A41B0008AD1B0008AC
:1008A800C11B0008D21B0008E91B00086C000020CF
:1008B800E01B0008EF1B0008AB1B0008B00000207D
:1008C800031C00084C0000201A1C0008AA1B000882
:1008D800341C000870B5044600F10C0604F1080544
:1008E80030460021FFF7E8FE28460021FFF772FE98
:1008F80030460121FFF7E0FE28460021FFF76AFE97
:1009080030460121FFF7D8FE28460121FFF762FE95
:100918002046BDE8704000F081B970B5044600F18A
:100928000C0604F1080530460121FFF7C5FE2846EC
:100938000121FFF74FFE30460121FFF7BDFE284693
:100948000021FFF747FE30460021FFF7B5FE284695
:100958000121FFF73FFE2046BDE8704000F05EB978
:100968002DE9F843044600F108084046894604F199
:100978000C070121FFF72EFE00213846FFF79CFEE9
:10098800204600F04BF90826002501213846FFF7DC
:1009980093FE204600F042F9A3681B8A6D001B06EF
:1009A8004FF000013846EDB248BF45F00105013E61
:1009B800FFF782FE204600F031F916F0FF06E4D179
:1009C800B9F1000F1ED031464046FFF703FE20461E
:1009D80000F024F901213846FFF76EFE204600F0AA
:1009E8001DF900213846FFF767FE204600F016F98A
:1009F80001214046FFF7EEFD204600F00FF928469A
:100A0800BDE8F8830121DFE72DE9F0410825044618
:100A18000E4600EB050804F10C0700213846FFF7E5
:100A28004BFE204600F0FAF833064CBF01210021A6
:100A38004046FFF7CFFD204600F0F0F80121384688
:100A4800FFF73AFE013D204600F0E8F8760015F081
:100A5800FF05F6B2DFD129463846FFF72DFE2046BE
:100A680000F0DCF801214046FFF7B4FD204600F015
:100A7800D5F801213846FFF71FFE204600F0CEF8D2
:100A8800A3681E8A29463846FFF716FEB6B22046E6
:100A980000F0C4F886F08000C0F3C010BDE8F08113
:100AA80038B5264D264C284600F06CF82846254BCC
:100AB80040F8083BFFF7F0FD05F10C00FFF75EFE7C
:100AC8002846214D2149224600F00FFC284600F017
:100AD8002DFA28461E4D1F49224600F006FC2846DE
:100AE80000F068F928461C4D1C49224600F0FDFB21
:100AF800284600F005FC2846194D1A49224600F000
:100B0800F4FB284600F09CF82846174D1749224662
:100B180000F0EBFB284600F051FA2846144D154921
:100B2800224600F0E2FB284600F09AFD22462846BD
:100B38001149BDE8384000F0D8BB00BF5C00002078
:100B4800B8020020601B00086C0100207103000837
:100B580070010020410F00086C000020290E0008D9
:100B680008000020F9120008B0000020370C000827
:100B78004C000020B50F000831170008142343600B
:100B880070470000014B0360704700BF6C1C0008F1
:100B980070472DE9F0411D46036804469B681646D8
:100BA8000F469847236839465B692046984723686B
:100BB80031465B6920469847236829465A6920468A
:100BC800904723682046DB68BDE8F0411847036872
:100BD80070B504469B6816460D4698472368294613
:100BE8005B6920469847236831465B6920469847E9
:100BF800236820469B689847236845F001015B6994
:100C080020469847236800219B6920469847236817
:100C18000546DB6820469847284670BD0023426891
:100C28009A4202D900BF0133F9E77047704770470D
:100C380010B544210446FFF7F9FF204610BD000017
:100C48002749284B03604B6943F47F0330B54B6158
:100C5800254B83619A6822F040629A609A6842F054
:100C680040629A609A8822F400521204120C9A8008
:100C78009A8892B29A801A6822F040621A601A68BA
:100C880042F080621A604A6942F47F024A61174A58
:100C9800C261156825F003051560156845F0030560
:100CA80015604D6945F47F054D611568026225F0B0
:100CB8000C051560156845F00C0515604A6942F485
:100CC8007F024A611A68436222F003021A601A68B6
:100CD80042F003021A601A8D42F400521A8530BDA0
:100CE80000100240901C000800080048000400485A
:100CF80000EB8202936BD26A9B1A23EAE3731022F9
:100D0800C3F5805393FBF2F30A6802EB42021344E3
:100D1800042293FBF2F30B60704738B5856A0446EA
:100D280015B1012D14D038BD082000F0EDFEA063E8
:100D3800092000F0E9FEE0630A2000F0E5FEA26960
:100D48002064936943F4005393610123A362EAE7A3
:100D5800082000F0D9FEE062092000F0D5FE2063EB
:100D68000A2000F0D1FEA2696063138D43F400539A
:100D780013852046002204F10801FFF7B9FF2A462F
:100D8800211DFFF7B5FF022204F10C01FFF7B0FFA8
:100D9800A268EF2A4FF0000304DCD12A257403DD92
:100DA800637402E02374FBE765740023A3620123E4
:100DB8002375B8E770470000F7B50022154D1427D2
:100DC80013464FF47A7607FB02F429190132102AE8
:100DD8002B514B608E60CB600B744B74F3D10E4A71
:100DE80013600E4A0360D36943F00103D361002204
:100DF8004FF434730093114663234FF0804000F0A2
:100E08001DFD012200211C2000F0F6FC62B603B093
:100E1800F0BD00BF780100207401002000100240DE
:100E280070470000F0B572B6114D00244FF0FF3046
:100E38004FF0140C2F460CFB04F605EB060EAE59CA
:100E480026B9DEF80460002E08BF20460134102CB5
:100E5800F1D1441C0AD0C4B2142565437C1900267C
:100E68007E516160A260E2602674637462B6F0BD70
:100E78007801002082B072B6034B1B68019362B6FA
:100E8800019802B0704700BF7401002007B5024600
:100E9800FFF7F0FF014401911046FFF7EBFF019BBC
:100EA800984201D200BFF7E703B05DF804FB0000E9
:100EB800F8B54FF080431A69D20714D5194F4FF689
:100EC800FE721A61002414263D4606FB0473DA6894
:100ED80052B1DA68013ADA600134102CF5D1124ABD
:100EE800136801331360F8BD9A68DA601A7CFF2A28
:100EF8001FBF1A7C0132D2B21A7406FB04F3EA1837
:100F0800527C002AE8D1EA580AB1EB58984706FB08
:100F180004535A68002ADFD0586803689B689847CA
:100F2800DAE700BF780100207401002010B50446FC
:100F380000F03EFB204610BD10B5044600F082FBD1
:100F4800204610BD38B505464C1E14F8011F19B1CE
:100F5800284600F079FBF8E738BD7FB50B1E4FF047
:100F680000024FF00A01BABF5B42012414468DF813
:100F78000F200E4604AA93FBF6F50A4406FB153328
:100F8800303302F80C3C4A1ED2B22B4665B92CB15C
:100F980004AB13442D2103F80C1C114601AB194472
:100FA800FFF7D0FF04B070BD1146E3E7704710B5F6
:100FB800BC210446FFF73AFE204610BD4A4A4B4B77
:100FC8000360536943F47F0310B553614FF09043B6
:100FD80043609C6824F440349C609C6844F440342A
:100FE8009C609C8824F480742404240C9C809C8835
:100FF800A4B29C801C6824F440341C601C6844F42F
:1010080080341C60546944F47F0454611C68C0F83F
:10101800903024F003041C601C6844F003041C6036
:10102800546944F47F0454611C68C0F8943024F077
:101038000C041C601C6844F00C041C60546944F4E3
:101048007F0454611C68C0F8983024F030041C6098
:101058001C6844F030041C60546944F47F045461F3
:101068001C68C0F89C3024F0C0041C601C6844F064
:10107800C0041C60546944F47F0454611C68C0F8BF
:10108800A03024F440741C601C6844F440741C6054
:10109800546944F47F0454611C68C0F8A43024F4F3
:1010A80040641C601C6844F440641C60546944F447
:1010B8007F0454611C68C0F8A83024F440541C60B4
:1010C8001C6844F440541C60546944F47F0454611F
:1010D8001A68C0F8AC3022F440421A601A6842F428
:1010E80040421A6010BD00BF00100240A41C000856
:1010F8004268F8B5138D43F4807313856421044660
:101108002948FFF7C3FE00F0BFFC64212648FFF71B
:10111800BDFE04F1300637460025284600F0F4FCF1
:101128000135082D47F8040BF7D162681E4893690A
:1011380043F4807393616421FFF7A8FE00252846D5
:1011480000F0E2FC56F8043B0135C01A082DF061A6
:10115800F5D16FF0FF026FF0BF03C4E904236FF00D
:101168007F016FF03F03C4E9061340208023C4E9E0
:101178000803C0264FF480730025C4E90A634FF4BE
:10118800C873A360C4E91C55C4E91E55C4E92055B9
:10119800C4E9225525732B46042221460248FFF74D
:1011A80041FE2846F8BD00BF70010020037B72B6DF
:1011B8000BB10022027362B6184670474268936901
:1011C80043F48073936170474268138D43F48073CE
:1011D8001385704700EB810030B50269056F02FB8B
:1011E80005F471B1C36EC268062902FB03422B44A1
:1011F8000AD8416F40690B4400FB012292FBF3F0CF
:1012080030BD62006B00F4E722442B44F6E78268A5
:1012180000F18C03072053F80419914202DC10F105
:10122800FF30F8D27047826800F17003002053F84D
:10123800041B914204DC01300828F8D14FF0FF303C
:1012480070472DE9F84F0025044600F130064FF4A9
:101258007A7AAB46284600F057FC56F8043BC01A89
:101268000AFB00F0F26990FBF2F00135D0F57A70D4
:1012780054BFF063C6F83CB0082DEBD12046FFF709
:10128800C6FF05462046FFF7CEFF6A1C06462AD051
:10129800431C28D02B1A002BB8BF5B42012B15DC4E
:1012A80005440221204695FBF1F1FFF793FF4FF02B
:1012B800010907468046012384F8B030012384F8E9
:1012C800B190C4E92D782373BDE8F88F29462046EC
:1012D800FFF780FF314607462046FFF77BFF4FF0B8
:1012E80002098046E7E70023E6E700207047FEE7AB
:1012F800704710B544210446FFF798FC204610BDFE
:10130800014B0360704700BFB81C00082DE9F0418D
:101318000446006C03689B6888469847206C0368FD
:10132800D4215B699847206C036819215B69984749
:10133800206C03689B689847206C0368D5215B691B
:101348009847206C036801219B699847000207B2FF
:10135800206C036801219B6998470743206C036848
:1013680001219B699847000206B2206C036801219D
:101378009B6998470643206C036801219B6998473D
:10138800000205B2206C036800219B699847054359
:10139800206C0368DB683FB236B22DB29847B8F1CB
:1013A800000F08D0A36A3B44A362E36A3344E362B4
:1013B800236B2B442363A36AE169226BE06AFB1A5F
:1013C800AD1A2361192293FBF2F301EB4303E361A6
:1013D800236AA561301A606190FBF2F003EB4000CC
:1013E8002062636A206C95FBF2F503EB4505036800
:1013F80065629B689847206C0368D4215B699847AD
:10140800206C036829215B699847206C03689B68F6
:101418009847206C0368D5215B699847206C03685E
:1014280001219B699847000207B2206C03680121DB
:101438009B6998470743206C036801219B6998477B
:10144800000206B2206C036801219B699847064395
:10145800206C036801219B699847000205B2206C43
:10146800036800219B6998470543206C0368DB6883
:1014780098473FB236B22DB20123C4E90176E56040
:1014880084F83C30BDE8F0810021FFF73FBF406B96
:10149800003018BF0120704790F83C3072B613B185
:1014A800002280F83C2062B61846704711F1FF31DF
:1014B80001D300BFFAE7704738B504461022084642
:1014C8002164A823D421FFF764FB0023C4E9043373
:1014D800A361C4E90A332363C4E90733636242F2B0
:1014E80010712046FFF7E2FF0F226363D421206CBE
:1014F800FFF76DFB682804BF012363631022A8234C
:10150800D421206CFFF745FB38231E22D421206C00
:10151800FFF73FFB00232E22D421206CFFF739FB75
:1015280000231222D421206CFFF733FB60232022F2
:10153800D421206CFFF72DFB38231F22D421206CE7
:10154800FFF727FB42F210712046FFF7AFFF00219B
:10155800FFF7DCFE0023A3634FF47A7501212046D0
:10156800FFF7D4FE64212046FFF7A0FF013DF5D127
:101578004FF47A72A36A656293FBF2F3C4E90755E4
:10158800A362C4E90155E36AE56093FBF2F32146DF
:10159800E3620648236B93FBF2F30A2223632B468C
:1015A800FFF740FC84F83C5038BD00BF70010020B4
:1015B80070470000214A2248536943F47F0353616E
:1015C8004FF09043996821F440219960996841F45B
:1015D80040219960196821F440211960196841F483
:1015E80000211960516941F47F015161996821F422
:1015F80040119960996841F440119960196821F483
:1016080040111960196841F400111960596A21F0F4
:10161800F0015962596A41F070015962596A21F41E
:1016280070615962596A41F4E0615962936943F4FF
:10163800804393614FF4E13100F056B90010024045
:101648000038014070470000044BDA69120601D4E3
:1016580000BFFAE789B21985704700BF003801401A
:101668002F4A536943F47F0310B553612D4B036030
:101678009C6824F440549C609C6844F440549C60EA
:101688001C6824F440541C601C681C60DC6844F42A
:101698008054DC60546944F47F0454619C6843605E
:1016A80024F440449C609C6844F440449C601C685A
:1016B80024F440441C601C681C60DC6844F48044CA
:1016C800DC60546944F47F0454619C68836024F0AE
:1016D80040749C609C6844F040749C601C6824F0D2
:1016E80040741C601C681C60DC6844F08074DC601A
:1016F800546944F47F0454619A68C36022F4400238
:101708009A609A6842F440029A601A6822F4400289
:101718001A601A681A60DA6842F48002DA6010BD4A
:10172800001002400008004870470000164B174A96
:1017380010B500241C60164B1C60936943F001032C
:1017480093610621022000F0EDF80C21022000F040
:10175800E9F80821062000F0FAF808210C2000F02A
:10176800F6F822462146172000F046F82246214680
:10177800282000F041F8062000F0C8F80C20BDE849
:10178800104000F0C3B800BFBC02002000100240A7
:10179800C0020020094B1B8A13F0C0030BD0C02BDA
:1017A8000CBF01214FF0FF31054A136806200B4496
:1017B800136000F0ABB80121F6E700BF000800484D
:1017C800BC0200200A4B1B8A13F4C0530CD0B3F59B
:1017D800C05F0CBF4FF0FF310121064A13680C208F
:1017E8000B44136000F092B84FF0FF31F5E700BFEB
:1017F80000080048C002002010B50E4BDB68DB4330
:10180800C3F30224C4F10403DBB299400F2323413C
:101818001340094A0B431B01111803F0F00381F828
:1018280000334109012300F01F0003FA00F042F8D9
:10183800210010BD00ED00E000E100E030B50588B2
:10184800ACB2274DA84212D005F50065A8420ED0CB
:10185800B0F1804F0BD0A5F59835A84207D005F513
:101868008065A84203D005F5A435A84203D124F029
:1018780070040C43A4B21B49884208D001F580616A
:1018880088421FBF24F44074A4B21443A4B2048055
:10189800C362BDF80C300385114B984213D003F591
:1018A800006398420FD003F5406398420BD003F5CC
:1018B8008063984207D003F58063984203D003F50C
:1018C8000063984201D10023038601234361038802
:1018D80043F001030380C36843F00103C36030BDD4
:1018E800002C01400010004000230C2243600260DD
:1018F8008360054BB3FBF1F189B28181036843F042
:1019080001030360704700BF00A24A0420F01F02D1
:10191800012300F01F0003FA00F0014BD05070477C
:101928001404014001F0030301F0FC0101F18041BE
:1019380001F5803110B58A689B000F249C4022EA8B
:1019480004028A608A6898401043886010BD20F0BD
:101958001F0303F1804303F58233012200F01F00C7
:1019680030B502FA00F01C68C24314401C605D6880
:1019780015405D601D6805431D609D6815409D60AC
:10198800DD6803F140442A401029A4F58234DA6066
:1019980006D19A6802439A60DA681043D86030BD6D
:1019A80001F1804101F582310B5918430851F6E7DE
:1019B800030F064BDA6A14BF22F4785222F4F87245
:1019C800DA62DA6A1043D862704700BF001002403A
:1019D800042A30B51CD802EB4202046B52001F25C2
:1019E800954024EA050401FA02F222430263092918
:1019F80039D90A398269826901EB410107248C408F
:101A080022EA0402826182698B401343836130BDFC
:101A1800092A0CD80624053A6243456B1F249440D2
:101A280025EA040401FA02F222434263DFE70E2AA0
:101A38004FF006040BD80A3A6243856B1F24944082
:101A480025EA040401FA02F222438263CFE70F3A3F
:101A58006243C56B1F24944025EA040401FA02F28C
:101A68002243C263C3E701394269426901EB41017C
:101A780038248C4022EA040242614269033103FAA5
:101A880001F111434161C2E770B54FF48870FFF767
:101A98008FFF194919484B69194D1A4C43F0805367
:101AA8004B61FFF785FF4B694FF0A04643F00053A9
:101AB8004B6101220023F3601146EB603046E3607E
:101AC8000223FFF785FF0122114602232846FFF76C
:101AD8007FFF022301220C212046FFF779FFB3681C
:101AE80043F00103B360AB6843F00103AB60A36844
:101AF80043F00103A36070BD0010024000220010F3
:101B080000010050000400500138092898BF0E4B0E
:101B180010B59BBF53F820400C4B4FF0A044195C04
:101B28004FF001031A4688BF01212046FFF750FFF6
:101B3800A36843F00403A36023685B0701D400BFD4
:101B4800FAE7206C10BD00BFC41C0008EC1C00089C
:101B58000000000000000000710300088503000871
:101B680023090008DD080008A5070008110A000875
:101B780069090008096573745F696D755F73656E3F
:101B8800736F720A00203A20000A746573745F6CE0
:101B9800696E655F73656E736F720A002323232372
:101BA800230A0A0A007465726D696E616C20696E99
:101BB800697420646F6E650A0074696D65722069C6
:101BC8006E697420646F6E650A0064656C617920C3
:101BD800323030206D73200069326320696E697479
:101BE80020646F6E650A00696D7520696E697420DE
:101BF800646F6E65207769746820006C696E652073
:101C080073656E736F7220696E697420646F6E6598
:101C18000A00656E636F6465722073656E736F7218
:101C280020696E697420646F6E650A007379737435
:101C3800656D20696E697420646F6E650A00747240
:101C480075650066616C73650000000000000000A7
:101C580000000000610300086303000800000000A2
:101C6800000000000000000000000000F71200085B
:101C7800F7120008850B0008F7120008F712000891
:101C88000000000000000000370C0008390C0008B4
:101C9800230D00080000000000000000B50F000838
:101CA800B70F00084B1200080000000000000000F9
:101CB800F9120008FB1200089114000800000050F7
:101CC80000000050000000500001005000010050CA
:101CD80000010050000100500004005000040050B2
:101CE80000000050020304010203040C0106000076
:081CF8003D030008A90A0008E1
:04000005080001B935
:00000001FF
