:020000040800F2
:1000000000800020B901000889010008A90100084A
:10001000890100088901000889010008000000002A
:10002000000000000000000000000000890100083E
:10003000890100080000000089010008890100080A
:100040008901000889010008890100088901000868
:100050008901000889010008890100088901000858
:100060008901000889010008890100088901000848
:100070008901000889010008890100088901000838
:100080008901000889010008890100088901000828
:100090008901000889010008890100081D10000875
:1000A0008901000889010008890100088901000808
:1000B000A90B0008890100088901000889010008CE
:1000C00089010008890100088901000889010008E8
:1000D00089010008890100088901000889010008D8
:1000E0004D100008890100088901000889010008F5
:1000F00089010008890100088901000889010008B8
:10010000000000000000000000000000890100085D
:100110008901000889010008890100088901000897
:100120008901000889010008890100088901000887
:10013000890100088901000800000000000000009B
:1001400089010008890100088901000800000000F9
:10015000000000000000000000000000000000009F
:10016000000000000000000089010008890100086B
:1001700089010008000000000000000000000000ED
:080180000000000089010008E5
:10018800684620F007018D46034A044900BF138DD5
:100198000B439BB21385F9E7000400480080FFFF7A
:1001A800684620F007018D4608B5FFF7E9FF000013
:1001B8001449154A1548521A921000239A4215D12B
:1001C800134A144ED2F88830134C43F47003C2F823
:1001D8008830D2F83432A41B43F04043C2F834329A
:1001E800A4100025AC4207D100F094B850F8234081
:1001F80041F823400133E1E756F8253098470135A7
:10020800F0E700BF00000020000000209C1200085A
:1002180000ED00E09C120008A4120008384AD2F849
:10022800883043F47003C2F88830364B1A6842F0BD
:1002380001021A605968344A0A405A601A6822F062
:10024800847222F480321A601A6822F480221A60BA
:100258005A6822F4FE025A60DA6A22F00F02DA6261
:10026800196B2A4A82B00A401A6300229A600092E7
:1002780001921A6842F480321A601A6802F4003255
:100288000192009A01320092019A1AB9009AB2F5C5
:10029800A04FF2D11A6812F4003218BF012201925D
:1002A800019A012A26D11A4A122111605A685A6005
:1002B8005A685A605A6842F480625A605A6822F44E
:1002C8007C125A605A6842F4E8125A601A6842F07E
:1002D80080721A601A689201FCD55A6822F00302EB
:1002E8005A605A6842F002025A605A6802F00C02D8
:1002F800082AFAD1024B4FF000629A6002B07047A8
:1003080000ED00E0001002400CC07FF8CCFC00FFBC
:100318000020024008B5034800F0D2F9014800F077
:1003280059F8FEE70000002010B5054C204600F003
:1003380029F82046034A0449BDE8104000F0AEBC45
:1003480000000020A801002055030008704710B5E0
:100358000821044600F0A6FB204610BD10B5034B4B
:100368000360044600F050FB204610BDB41100089D
:1003780010B50446FFF7F2FF2046102100F092FB6B
:10038800204610BD1049114B03604B6943F47F03AD
:100398004B610F4B43609A6822F040429A609A681A
:1003A80042F040429A609A88C2F30E029A809A8874
:1003B80092B29A801A6822F040421A601A6842F093
:1003C80080421A60704700BF001002405C120008AB
:1003D80000040048374C384DDFF8EC8080B50746FC
:1003E800364E364800F032FD0028FAD07A68316976
:1003F800936943F400439361204600F026FC2946A4
:10040800204600F017FC7169204600F01EFC2946C2
:10041800204600F00FFCB169204600F016FC294682
:10042800204600F007FC4146204600F003FC7168B6
:10043800204600F00AFC2946204600F0FBFBB16884
:10044800204600F002FC2946204600F0F3FBF16844
:10045800204600F0FAFB2946204600F0EBFB414617
:10046800204600F0E7FBF169204600F0EEFB294644
:10047800204600F0DFFB316A204600F0E6FB294603
:10048800204600F0D7FB716A204600F0DEFB2946C3
:10049800204600F0CFFB2046094900F0CBFB7A68E4
:1004A8000848138D43F400431385642100F066FB6C
:1004B80096E700BF5C0000204F12000818000020DB
:1004C800D7110008600000204D120008D1B9036858
:1004D8009A6822F440429A609A6842F440429A60CC
:1004E8009A8822F080021204120C9A809A8892B29A
:1004F8009A801A6822F440421A601A6842F48042CC
:100508001A60704701290ED103689A6822F44042A4
:100518009A609A6842F440429A601A6822F440420B
:100528001A601A68ECE7022913D103689A6822F462
:1005380040429A609A6842F440429A601A6822F4EB
:1005480040421A601A681A60DA6842F48042DA6037
:100558007047032910D103689A6822F440429A60D0
:100568009A6842F440429A601A6822F440421A603B
:100578001A6842F40042C3E70429C2D103681A6822
:1005880022F440421A601A6842F44042B8E7000078
:10059800054A08B5536943F47F035361034B03606D
:1005A8000121FFF793FF08BD001002400004004836
:1005B800D1B903689A6822F440529A609A6842F462
:1005C80040529A609A8822F040021204120C9A80D3
:1005D8009A8892B29A801A6822F440521A601A686D
:1005E80042F480521A60704701290ED103689A6854
:1005F80022F440529A609A6842F440529A601A680B
:1006080022F440521A601A68ECE7022913D10368F1
:100618009A6822F440529A609A6842F440529A606A
:100628001A6822F440521A601A681A60DA6842F4AA
:100638008052DA607047032910D103689A6822F45F
:1006480040529A609A6842F440529A601A6822F4BA
:1006580040521A601A6842F40052C3E70429C2D112
:1006680003681A6822F440521A601A6842F4405229
:10067800B8E70000054A08B5536943F47F0353619E
:10068800034B03600121FFF793FF08BD00100240F0
:10069800000400480A2310B5436004460830FFF7F9
:1006A80077FF04F10C00FFF7E5FFA268138D43F014
:1006B80080031385E268138D43F04003138510BD52
:1006C80010B50446FFF7AAFD62682548936943F40C
:1006D8000043936100F048FC2249214800F0AAFA3F
:1006E80021491F4800F0A6FA204800F0DDF920490A
:1006F8001B4800F09FFA1F49194800F09BFAC821CF
:100708001A4800F03BFA1C49154800F093FA1B48B8
:10071800FFF7C0FF1A49124800F08CFA1749194828
:1007280000F0A4FB0E48184900F084FA154800F0C0
:1007380088FB90B115490A4800F07CFA144908482A
:1007480000F078FA1349064800F074FA6268138DCD
:1007580043F400431385002010BD0F49EBE700BFA9
:100768005C000020D0110008D911000860000020AA
:10077800ED110008FE1100081512000808000020FD
:100788000C120008180000201B1200082F12000885
:10079800D71100083A1200083412000870B5044650
:1007A80000F10C0604F1080530460021FFF700FFB0
:1007B80028460021FFF78AFE30460121FFF7F8FEA0
:1007C80028460021FFF782FE30460121FFF7F0FEA0
:1007D80028460121FFF77AFE2046BDE8704000F068
:1007E80059B970B5044600F10C0604F10805304605
:1007F8000121FFF7DDFE28460121FFF767FE30469D
:100808000121FFF7D5FE28460021FFF75FFE30469D
:100818000021FFF7CDFE28460121FFF757FE2046AD
:10082800BDE8704000F036B92DE9F843044600F100
:1008380008084046894604F10C070121FFF746FEE7
:1008480000213846FFF7B4FE204600F023F90826B9
:10085800002501213846FFF7ABFE204600F01AF9C3
:10086800A3681B8A6D001B064FF000013846EDB2E5
:1008780048BF45F00105013EFFF79AFE204600F00B
:1008880009F916F0FF06E4D1B9F1000F1ED0314680
:100898004046FFF71BFE204600F0FCF801213846D1
:1008A800FFF786FE204600F0F5F800213846FFF7EE
:1008B8007FFE204600F0EEF801214046FFF706FED5
:1008C800204600F0E7F82846BDE8F8830121DFE775
:1008D8002DE9F041082504460E4600EB050804F111
:1008E8000C0700213846FFF763FE204600F0D2F8D7
:1008F80033064CBF012100214046FFF7E7FD2046A3
:1009080000F0C8F801213846FFF752FE013D2046A5
:1009180000F0C0F8760015F0FF05F6B2DFD12946E1
:100928003846FFF745FE204600F0B4F8012140465E
:10093800FFF7CCFD204600F0ADF801213846FFF75F
:1009480037FE204600F0A6F8A3681E8A29463846D6
:10095800FFF72EFEB6B2204600F09CF886F0800025
:10096800C0F3C010BDE8F08138B5184D184C2846C2
:1009780000F044F82846174B40F8083BFFF708FEFC
:1009880005F10C00FFF776FE2846134D1349224661
:1009980000F084F9284600F041F92846104D114925
:1009A800224600F07BF9284600F07DF828460E4DD7
:1009B8000E49224600F072F9284600F07BF92246DB
:1009C80028460B49BDE8384000F068B90800002007
:1009D800A8010020B41100085C000020650300088D
:1009E80060000020310C000818000020190B0008D6
:1009F800AB0C00081423436070470000014B0360F0
:100A0800704700BF6C12000870472DE9F0411D4681
:100A1800036804469B6816460F469847236839467C
:100A28005B6920469847236831465B6920469847AA
:100A3800236829465A692046904723682046DB6880
:100A4800BDE8F0411847036870B504469B68164630
:100A58000D469847236829465B69204698472368CE
:100A680031465B6920469847236820469B6898472B
:100A7800236845F001015B692046984723680021F7
:100A88009B692046984723680546DB6820469847B7
:100A9800284670BD002342689A4202D900BF01333C
:100AA800F9E7704770477047F7B50022154D1427CE
:100AB80013464FF47A7607FB02F429190132102AFB
:100AC8002B514B608E60CB600B744B74F3D10E4A84
:100AD80013600E4A0360D36943F00103D361002217
:100AE8004FF434730093114663234FF0804000F0B5
:100AF800E5FA012200211C2000F0BEFA62B603B01C
:100B0800F0BD00BF68000020640000200010024013
:100B180070470000F0B572B6114D00244FF0FF3059
:100B28004FF0140C2F460CFB04F605EB060EAE59DD
:100B380026B9DEF80460002E08BF20460134102CC8
:100B4800F1D1441C0AD0C4B2142565437C1900268F
:100B58007E516160A260E2602674637462B6F0BD83
:100B68006800002082B072B6034B1B68019362B61E
:100B7800019802B0704700BF6400002007B5024624
:100B8800FFF7F0FF014401911046FFF7EBFF019BCF
:100B9800984201D200BFF7E703B05DF804FB0000FC
:100BA800F8B54FF080431A69D20714D5194F4FF69C
:100BB800FE721A61002414263D4606FB0473DA68A7
:100BC80052B1DA68013ADA600134102CF5D1124AD0
:100BD800136801331360F8BD9A68DA601A7CFF2A3B
:100BE8001FBF1A7C0132D2B21A7406FB04F3EA184A
:100BF800527C002AE8D1EA580AB1EB58984706FB1C
:100C080004535A68002ADFD0586803689B689847DD
:100C1800DAE700BF680000206400002010B5044631
:100C280000F0A0F9204610BD10B5044600F0E4F924
:100C3800204610BD38B505464C1E14F8011F19B1E1
:100C4800284600F0DBF9F8E738BD7FB50B1E4FF0FA
:100C580000024FF00A01BABF5B42012414468DF826
:100C68000F200E4604AA93FBF6F50A4406FB15333B
:100C7800303302F80C3C4A1ED2B22B4665B92CB16F
:100C880004AB13442D2103F80C1C114601AB194485
:100C9800FFF7D0FF04B070BD1146E3E700207047AE
:100CA800FEE7704710B544210446FFF7FBFE2046D7
:100CB80010BD0000014B0360704700BF9012000890
:100CC8002DE9F0410446006C03689B688846984704
:100CD800206C0368D4215B699847206C036819214C
:100CE8005B699847206C03689B689847206C036889
:100CF800D5215B699847206C036801219B69984757
:100D0800000207B2206C036801219B6998470743DA
:100D1800206C036801219B699847000206B2206C89
:100D2800036801219B6998470643206C03680121E9
:100D38009B699847000205B2206C036800219B69F3
:100D480098470543206C0368DB683FB236B22DB282
:100D58009847B8F1000F08D0A36A3B44A362E36A3E
:100D68003344E362236B2B442363A36AE169226B58
:100D7800E06AFB1AAD1A2361192293FBF2F301EB27
:100D88004303E361236AA561301A606190FBF2F0C6
:100D980003EB40002062636A206C95FBF2F503EBDD
:100DA8004505036865629B689847206C0368D421F1
:100DB8005B699847206C036829215B699847206C18
:100DC80003689B689847206C0368D5215B6998473E
:100DD800206C036801219B699847000207B2206CC8
:100DE800036801219B6998470743206C0368012128
:100DF8009B699847000206B2206C036801219B6931
:100E080098470643206C036801219B6998470002B4
:100E180005B2206C036800219B6998470543206C44
:100E28000368DB6898473FB236B22DB20123C4E9A4
:100E38000176E56084F83C30BDE8F0810021FFF7D9
:100E48003FBF406B003018BF0120704790F83C301E
:100E580072B613B1002280F83C2062B6184670477B
:100E680011F1FF3101D300BFFAE7704738B50446E6
:100E7800102208462164A823D421FFF7C6FD0023C9
:100E8800C4E90433A361C4E90A332363C4E907331B
:100E9800636242F210712046FFF7E2FF0F2263639C
:100EA800D421206CFFF7CFFD682804BF01236363BA
:100EB8001022A823D421206CFFF7A7FD38231E2277
:100EC800D421206CFFF7A1FD00232E22D421206C11
:100ED800FFF79BFD00231222D421206CFFF795FD1C
:100EE80060232022D421206CFFF78FFD38231F2296
:100EF800D421206CFFF789FD42F210712046FFF7DC
:100F0800AFFF0021FFF7DCFE0023A3634FF47A75DF
:100F180001212046FFF7D4FE64212046FFF7A0FFF9
:100F2800013DF5D14FF47A72A36A656293FBF2F33F
:100F3800C4E90755A362C4E90155E36AE56093FB78
:100F4800F2F32146E3620648236B93FBF2F30A228D
:100F580023632B46FFF7DEFD84F83C5038BD00BF05
:100F68006000002070470000214A2248536943F47A
:100F78007F0353614FF09043996821F440219960B1
:100F8800996841F440219960196821F44021196059
:100F9800196841F400211960516941F47F015161D8
:100FA800996821F440119960996841F44011996059
:100FB800196821F440111960196841F40011196089
:100FC800596A21F0F0015962596A41F07001596279
:100FD800596A21F470615962596A41F4E0615962B1
:100FE800936943F4804393614FF4E13100F0BCB856
:100FF800001002400038014070470000044BDA69D5
:10100800120601D400BFFAE789B21985704700BFFC
:1010180000380140094B1B8A13F0C0030BD0C02BCA
:101028000CBF01214FF0FF31054A136806200B441D
:10103800136000F0ABB80121F6E700BF00080048D4
:10104800AC0100200A4B1B8A13F4C0530CD0B3F533
:10105800C05F0CBF4FF0FF310121064A13680C2016
:101068000B44136000F092B84FF0FF31F5E700BF72
:1010780000080048B001002010B50E4BDB68DB43C8
:10108800C3F30224C4F10403DBB299400F232341C4
:101098001340094A0B431B01111803F0F00381F8B0
:1010A80000334109012300F01F0003FA00F042F861
:1010B800210010BD00ED00E000E100E030B505883A
:1010C800ACB2274DA84212D005F50065A8420ED053
:1010D800B0F1804F0BD0A5F59835A84207D005F59B
:1010E8008065A84203D005F5A435A84203D124F0B1
:1010F80070040C43A4B21B49884208D001F58061F2
:1011080088421FBF24F44074A4B21443A4B20480DC
:10111800C362BDF80C300385114B984213D003F518
:10112800006398420FD003F5406398420BD003F553
:101138008063984207D003F58063984203D003F593
:101148000063984201D10023038601234361038889
:1011580043F001030380C36843F00103C36030BD5B
:10116800002C01400010004000230C224360026064
:101178008360054BB3FBF1F189B28181036843F0C9
:1011880001030360704700BF00A24A0420F01F0259
:10119800012300F01F0003FA00F0014BD050704704
:1011A800140401400000000000000000650300086E
:1011B80079030008EB070008A50700089D0600084A
:1011C800D90800083108000823232323230A0A0A20
:1011D800007465726D696E616C20696E6974206453
:1011E8006F6E650A0074696D657220696E69742096
:1011F800646F6E650A0064656C6179203230302056
:101208006D73200069326320696E697420646F6EA3
:10121800650A00696D7520696E697420646F6E6572
:1012280020776974682000747275650066616C7354
:1012380065000A73797374656D20696E697420643A
:101248006F6E650A00203A200000000000000000D0
:1012580000000000550300085703000800000000C4
:10126800000000000000000000000000A90C0008B9
:10127800A90C0008FD090008A90C0008A90C000821
:101288000000000000000000AB0C0008AD0C0008D6
:04129800450E0008F7
:08129C0031030008710900088C
:04000005080001B935
:00000001FF
