:020000040800F2
:10000000008000209D01000889010008930100087C
:10001000890100088901000889010008000000002A
:10002000000000000000000000000000890100083E
:10003000890100080000000089010008890100080A
:100040008901000889010008890100088901000868
:100050008901000889010008890100088901000858
:100060008901000889010008890100088901000848
:100070008901000889010008890100088901000838
:100080008901000889010008890100088901000828
:100090008901000889010008890100086927000812
:1000A0008901000889010008890100088901000808
:1000B000D92F00088901000889010008890100087A
:1000C00089010008890100088901000889010008E8
:1000D00089010008890100088901000889010008D8
:1000E0009927000889010008890100088901000892
:1000F00089010008890100088901000889010008B8
:10010000000000000000000000000000890100085D
:100110008901000889010008890100088901000897
:100120008901000889010008890100088901000887
:10013000890100088901000800000000000000009B
:1001400089010008890100088901000800000000F9
:10015000000000000000000000000000000000009F
:10016000000000000000000089010008890100086B
:1001700089010008000000000000000000000000ED
:080180000000000089010008E5
:10018800684620F007018D46FEE7684620F0070123
:100198008D46FEE71549164A1648521A9210002352
:1001A8009A4217D1144A154ED2F88830144C43F4A9
:1001B8007003C2F88830D2F83432A41B43F04043AD
:1001C800C2F83432A4100025A54209D100F01AF86B
:1001D80001F018BA50F8234041F823400133DFE713
:1001E80056F8253098470135EEE700BF000000209B
:1001F80000000020784B000800ED00E0784B000874
:100208007C4B0008394AD2F8883043F47003C2F8AE
:100218008830374B1A6842F001021A605968354A2B
:100228000A405A601A6822F0847222F480321A60F6
:100238001A6822F480221A605A6822F4FE025A6070
:10024800DA6A22F00F02DA62196B2B4A82B00A408E
:100258001A6300229A60009201921A6842F480326E
:100268001A601A6802F400320192009A0132009270
:10027800019A1AB9009AB2F5A06FF2D11A6812F46D
:10028800003218BF01220192019A012A05D0174BAA
:100298004FF000629A6002B07047184A122111604C
:1002A8005A685A605A685A605A6842F480625A60BA
:1002B8005A6822F47C125A605A6842F4E8125A606A
:1002C8001A6842F080721A601A689201FCD55A685E
:1002D80022F003025A605A6842F002025A605A68D1
:1002E80002F00C02082AFAD1D1E700BF00ED00E0C5
:1002F800001002400CC07FF8CCFC00FF0020024038
:100308000E4BDB68DB4310B5C3F30224C4F10403CE
:10031800DBB299400F2323411340094A0B431B01C9
:10032800111803F0F00381F800334109012300F0AC
:100338001F0003FA00F042F8210010BD00ED00E0B4
:1003480000E100E030B50588ACB2244DA8420ED0DB
:1003580005F50065A8420AD0B0F1804F07D0A5F591
:100368009835A84203D005F58065A84203D124F04A
:1003780070040C43A4B21A49884208D001F5806180
:1003880088421FBF24F44074A4B21443A4B204806A
:10039800C362BDF80C300385104B98420FD003F5AB
:1003A800006398420BD003F54063984207D003F5E9
:1003B8008063984203D003F58063984201D10023FB
:1003C80003860123436103889BB243F00103038042
:1003D800C36843F00103C36030BD00BF002C014077
:1003E8000010004020F01F02012300F01F0003FA54
:1003F80000F0014BD05070471404014001F0030392
:1004080001F0FC0101F1804101F5803110B58A68E5
:100418009B000F249C4022EA04028A608A68984064
:100428001043886010BD20F01F0303F1804303F5DB
:100438008233012200F01F0030B502FA00F01C6878
:10044800C24314401C605D6815405D601D6805432B
:100458001D609D6815409D60DD6803F140442A4099
:100468001029A4F58234DA6006D19A6802439A60AA
:10047800DA681043D86030BD01F1804101F582315E
:100488000B591843085130BD7047704710B50C21FF
:10049800044600F0D3FF204610BD10B524210446C1
:1004A80000F0CCFF204610BD2DE9F04F0746384B31
:1004B80047F8043B8DB0044600264FF07E53324681
:1004C8003146009304F1300B3346384601F042F8C8
:1004D80004F1E00A584603F027FB504603F072FA8D
:1004E80004F5987003F07EF904F5C87003F086FEF1
:1004F80004F5FA79274BC4F8E83104F50B78C4F809
:10050800EC61C4F8F061484601F0AAF8404601F0F1
:1005180011F941F68C330025E55441F68D33324606
:10052800E5541D4B009338461C4B1D4900F0FAFF5B
:100538001C4BC4F8F03159465046C4F8EC6103F03E
:1005480055FA194B039301230493C8224FF0FF3344
:1005580003A9484605930795089509950A950B95AB
:1005680001F096F804F5DC5340461D6041F68833E7
:10057800E55001F043F941F684334FF4FA62E25052
:1005880041F68E332046E5540DB0BDE8F08F00BF2C
:100598003444000824440008000020419A99993FF7
:1005A8009A99993E6F12033B1444000870B50446AB
:1005B8002DED048B614802F0B1F80A230246604928
:1005C80004F1E00003F022FAD4F82831022B00F0FD
:1005D800A780032B02D0012B40F09F809FED598A02
:1005E8009FED599A41F68D35635D3BB341F68433EF
:1005F8005248E65802F092F8864280F294804F48BA
:1006080002F08CF804F50B750146284601F0D1F884
:1006180006464A4802F082F800F16401284601F0D3
:10062800C8F836F0040300F08680DFED487A9FEDC5
:10063800488A30F0040318BFB0EE678A454BDFEDF7
:10064800447A93F8C12094ED7B7A032A424A127CBB
:1006580008BFB0EE678A002A18BFB0EE678AB4EE0A
:10066800C78AF1EE10FACABFD4ED7C7A84ED7B8A92
:1006780077EE877A93ED348AC8BFC4ED7B7A79EE3A
:10068800487A18EE102A17EE901A201DD4ED7B8AAE
:1006980000F06CFF07EE900A38EEE79A77EEA87A3A
:1006A8002E4817EE901A02F059F919EE101A2B4835
:1006B80002F056F918EE101A04F5987003F0A8F82D
:1006C80041F68C33E35C2BB31C4804F5DC5502F08F
:1006D80025F82B6898421DDBDFED217A38EE278A52
:1006E800DFED207A28EE278A41F68833BDEEC88AE6
:1006F800E158E05018EE103A411A83F3080281F3EA
:100708000801D2B2C9B204F50B7001F047F82B68A2
:1007180064332B60BDEC048B70BD9FED0D8A5FE7E1
:100728009FED0A8A5CE7002363550F4B84ED7B9AA3
:10073800C4F8F03182E79FED068A7FE74002002087
:10074800D40200209A99193F00000000CDCC4C3FFC
:10075800CDCCCC3EC4020020580100209C030020D0
:100768000000803F0000C8426F12033BF8B5164FE7
:100778002DED028BDFED158A05460C460CB3384685
:1007880001F048F90028F9D097ED328A78EEC87A56
:1007980018EE102A17EE901A281D00F0E7FE014601
:1007A80006460B4802F0DAF886F00041084802F0E5
:1007B800D7F818EE101A05F5987003F029F8013CDF
:1007C800DCE7BDEC028BF8BDC4020020000000008D
:1007D8009C03002010B500211148124C02F0BEF80D
:1007E80000210F4802F0BCF80E4801F013F9002868
:1007F800FAD000210A4802F0B3F80B49084802F081
:10080800ADF8D4F8C430032BEED80021044802F028
:10081800A5F800210248BDE8104002F0A1B800BFC9
:100828009C030020C4020020CDCCCC3E80B5DFF86C
:10083800A480254D04460026404602F019FB30B13D
:1008480004F5FA772149384600F032FF70BB284694
:1008580001F0E0F80028EFD095F8C030EBB195F83A
:10086800C130032B204615D1FFF7B4FFC4F8EC6163
:10087800D5F8C810201D00F0B9FEDDE7012103F00E
:1008880005FD0021124802F069F80021104802F025
:1008980067F8EBE7FFF78AFECEE704F59877384666
:1008A80002F0B8FF384602F0EDFFEAE732212046B1
:1008B800FFF75CFF384600F021FF002804F5C870F8
:1008C800DCDC4FF0FF31DAE7C40200205C010020D5
:1008D8009C0300205801002041F68C330122C254A9
:1008E8007047000041F68D330122C2540023C0F83E
:1008F800EC31024BC0F8F031704700BF0AD7A33B78
:10090800104B10B50446036000F50B7000F0F8FEBC
:1009180004F5FA7000F09CFE04F5C87003F0A0FC22
:1009280004F5987003F030F804F1E00003F042F8A1
:1009380004F1300003F0D2F8201D00F0EBFD204652
:1009480010BD00BF3444000810B50446FFF7D8FFB7
:10095800204641F6903100F071FD204610BD7047E9
:100968007047142343607047002070470020704789
:10097800704710B50821044600F060FD204610BD00
:10098800014B0360704700BF444400082DE9F04163
:100998001D46036804469B6816460F469847236819
:1009A80039465B6920469847236831465B6920468B
:1009B8009847236829465A69204690472368204665
:1009C800DB68BDE8F0411847036870B504469B68CA
:1009D80016460D469847236829465B69204698477E
:1009E800236831465B6920469847236820469B6800
:1009F8009847236845F001015B69204698472368BA
:100A080000219B692046984723680546DB682046F5
:100A18009847284670BD42680023934202D000BF21
:100A28000133FAE77047000010B5034B0360044632
:100A380000F082FC204610BD6844000810B504464A
:100A4800FFF7F2FF2046402100F0F8FC204610BDD9
:100A58002DE9F84F04460E4692460D464FF08009A0
:100A68004FF480686FF07E07A36BA5EB060B5B4520
:100A78001BD9E26BA06A51460BFB020000F026FC72
:100A8800236B626B5843E36A90FBF9F013F90B3060
:100A980002FB030090FBF8F0B842B8BF38467F2845
:100AA800A8BF7F2005F8010BDEE7BDE8F88F00003E
:100AB80030B585B0044601AD85E80E0000F046FC6F
:100AC8002346144A43F81C2B95E8070083E80700DF
:100AD80008AA07CA231D83E807000BAA07CA04F15E
:100AE800100383E807000E9BA3620F9BE362109B31
:100AF8002363119B63636268A3685A43E3685343A3
:100B0800E363636902465A43A36920465343A363D8
:100B180005B030BD6844000870B5013A0B460025A1
:100B2800866A5C1AA64207D912F9014F002CB4BF95
:100B38001D701C700133F3E770BD000010B5034B46
:100B48000360044600F0F8FB204610BD7C44000812
:100B580010B50446FFF7F2FF20462C2100F06EFC8A
:100B6800204610BD30B585B0044601AD85E80E00BD
:100B780000F0ECFB23460D4A43F81C2B95E80700D0
:100B880083E8070008AA07CA231D83E807000BAA01
:100B980007CA04F1100383E80700A36862685A4390
:100BA800E36820465343A36205B030BD7C44000887
:100BB8002DE9F04F8DB0189C0A91199909908D1E56
:100BC800614303911B991A980595591800EBC000C9
:100BD8000791610004910146A51E0931069502900E
:100BE8000192A4460B9107998B427BD00B99019AED
:100BF800002511440891A846099905EB0C0E8E446E
:100C080000270A997819084401990026089A093199
:100C180091423CD090F900B011F909AC11F9079C48
:100C2800049A1AFB0B6690F901B011F908AC1AFB8B
:100C38000B6690F902B019FB0B6B11F9069C06576D
:100C480019FB06B600EB040911F905BC99F901A0D6
:100C58001BFB0A6699F902B011F904AC11F9039C5F
:100C68001AFB0B6A10F9146011F902BC19FB06A6ED
:100C780000EB0209039A99F901A01BFB0A6611F916
:100C880001AC99F902B010441AFB0B66BEE7169A3C
:100C980093F900105643802296FBF2F6179A02FB4E
:100CA80001614FF4806291FBF2F16FF07E02914294
:100CB800B8BF1146069A7F2907F10107A8BF7F210F
:100CC800BA420EF8011F9CD2059A08F10108424564
:100CD800254491D2029A01991144039A0191013352
:100CE800944480E70DB0BDE8F08F2DE9F04F8DB04A
:100CF8001AAC94E81011B8F1010F089009919646C2
:100D08001F46189DDDF864B01D9E54D1BCF1010F3B
:100D180062D10BFB05F29919CDF818E00792CEF1D4
:100D2800000E0A914FF0000C0A99994254D0002005
:100D38008046089F0CEB0001791800260B91099951
:100D4800DDF8189087190F4400210EEB090A544565
:100D580008D919F9012B97F900A012FB0A11079A73
:100D68001744F2E7169A93F900705143802291FBD9
:100D7800F2F1179A02FB07174FF4806297FBF2F71C
:100D88006FF07E029742B8BF17467F2F0B9AA8BF15
:100D98007F2797550136B542D1D208F10108C345DE
:100DA8002844C6D2079A9444069A224401330692EC
:100DB800AEEB040EB8E7B8F1030F0DD1BCF1030F89
:100DC8000DD10494179C0194169C0596CDF80CB08F
:100DD80002950094FFF7ECFE0DB0BDE8F08FBCF172
:100DE800010FF9D1AB1E069304EBC4030793089BCC
:100DF80004EB44042B449C46E31C4FF0000E0A937A
:100E08007645E9D00EF1010308930A9BE04603EB0F
:100E180002090024099B114618190023033149458A
:100E280013D090F900A011F903BC1BFB0A3390F909
:100E380001A011F902BC1BFB0A3390F902A011F9B9
:100E480001BC28441BFB0A33E8E7169980204B4372
:100E580017F90E1093FBF0F3179800FB01314FF4CC
:100E6800806391FBF3F16FF07E039942B8BF194696
:100E7800069B7F2904F10104A8BF7F21A34208F83B
:100E8800011FC7D2079BDDF820E01A44AC44B7E73E
:100E980010B5034B0360044600F04EFA204610BD1F
:100EA8009044000810B50446FFF7F2FF20463821A9
:100EB80000F0C4FA204610BD70B5154600F11C02BA
:100EC80004460E4607CA88B005AB83E80700221D12
:100ED80007CA02AB83E80700636B0193236B009397
:100EE8002946E36AA26A3046FFF7FFFE6368A168F5
:100EF8005943636A03FB01612B46A268606850434B
:100F0800E2684243581B824204D913F9012B01F8C5
:100F1800012BF2E708B070BD30B585B0044601ADCD
:100F280085E80E0000F012FA23460E4A43F81C2BFF
:100F380095E8070083E8070008AA07CA231D83E885
:100F480007000BAA07CA04F1100383E807000E9BE9
:100F5800A3620F9BE362109B2363119B636320468C
:100F680005B030BD9044000810B5034B036004463B
:100F780000F0E2F9204610BDA444000810B504466C
:100F8800FFF7F2FF2046282100F058FA204610BD4E
:100F980082B02DE9F04F87B04FEA420E009110A9B8
:100FA80081E80C00DDF844C0129B01934FEA4C0322
:100FB8000EFB03F3029300250CFB02F303932F4669
:100FC800019B9F4239D080462E464FF0000AE245E9
:100FD8002DD00099009B0EEB060949449C190591F8
:100FE8000023934204F102041BD014F902BC14F943
:100FF800011C8B45B8BF8B46A11B49442BEAEB7BF0
:1010080011F9011C5945B8BF59460491059911F9C0
:1010180013B004995945B8BF594608F8031001336D
:10102800DFE70AF1010A0EEB09069044CFE7029BBD
:101038001D44039B01371844C2E707B0BDE8F04FD1
:1010480002B0704782B02DE9F041DDF820C006AC4F
:1010580084E80C004FEA420E44420025654515D04D
:1010680006460B463719BA4203F1020309D913F9A8
:10107800027C13F9018C4745B8BF474606F8017B47
:10108800F0E7013571441044A41AE7E7BDE8F041E0
:1010980002B07047034607B508461146DA69022AC6
:1010A80008D11A6A022A08D19A69009210330CCB27
:1010B800FFF76EFF03B05DF804FB012AFAD19A69C5
:1010C800009210330CCBFFF7BDFFF3E730B585B0C6
:1010D800054601AC84E80E0000F038F92B460A4AB0
:1010E80043F81C2B94E8070083E8070008AA07CAFE
:1010F8002B1D83E807000BAA07CA05F1100383E834
:101108000700284605B030BDA4440008D0F88C304C
:10111800D0F8882030B55A43D0F890305A4300238D
:10112800934205D0D0F8A840CD56E5540133F7E7EF
:1011380030BD0000074B10B504460360D0F8A0008E
:1011480008B100F085F9D4F8A40008B100F080F9DE
:10115800204610BDB844000810B50446FFF7EAFF62
:101168002046B02100F06AF9204610BD0E4B0360FE
:101178000023C0F88830C0F88C30C0F89030C0F830
:101188009430C0F89830C0F89C3000F1080200F1A3
:10119800880142F8043B8A42FBD14360C0F8A03082
:1011A800C0F8A430704700BFB8440008F8B500255F
:1011B800044600F108062F4663689D421FD20023AB
:1011C800306842690169514382694A43934204D2B3
:1011D800D4F8AC20D7540133F2E70368D4F8A82038
:1011E8009B68D4F8AC109847D4F8A830D4F8AC2051
:1011F800C4F8A820C4F8AC3001350436DCE7D4F8CC
:10120800A830D4F8AC20C4F8A820C4F8AC30F8BD95
:1012180030B5D0F89820D0F89430D0F8AC4053438B
:10122800D0F89C2094F900105A43002318469342A2
:1012380006D0E556A942BCBF184629460133F6E751
:1012480030BD70B54468023400F1080500EB840431
:101258000020A54212D055F8043B9A6859681E69C7
:101268005143DA684A4359699B6971434B439A422F
:1012780038BF1A46904238BF1046EAE770BDD0F82A
:10128800A03070B5054603BBD0F8A440ECB9FFF711
:10129800D8FF064600F0D4F8C5F8A000304600F0A4
:1012A800CFF8D5F8A030C5F8A830C5F8A400C5F81F
:1012B800AC00234622469E4207D0D5F8A010CA5457
:1012C800D5F8A410CA540133F5E770BDF0B5002372
:1012D80005460C461646032E05F1040504F10404E0
:1012E80019D915F9047C14F904EC17FB0E3314F919
:1012F80003EC15F9037C17FB0E3715F9023C14F9BA
:1013080002EC13FB0E7715F901EC14F9013C043ECD
:101318001EFB0373DFE702F0030422F0030210440C
:101328000A443CB110F9015B12F9011B013C15FBA1
:101338000133F6E71846F0BD7047704710B528210D
:10134800044600F07BF8204610BD0000064A026003
:10135800002242608260C260026142618261C261B1
:1013680002624262704700BFD044000810B5034BC8
:1013780003600446FFF7E0FF204610BDE444000880
:1013880010B50446FFF7F2FF2046382100F056F862
:10139800204610BD70B5164600F11C0204460D46E5
:1013A80007CA88B005AB83E80700221D07CA02AB4D
:1013B80083E80700636B0193236B0093A26AE36AD7
:1013C80031462846FFF791FC08B070BD30B585B0AE
:1013D800044601AD85E80E00FFF7B8FF23460E4A24
:1013E80043F81C2B95E8070083E8070008AA07CAFA
:1013F800231D83E807000BAA07CA04F1100383E83A
:1014080007000E9BA3620F9BE362109B2363119B53
:101418006363204605B030BDE4440008014B024830
:10142800186070470000002038040020024A136842
:1014380018441060184670470000002070470000EC
:10144800024A1368184410601846704700000020CC
:10145800704700207047704710B530210446FFF7E9
:10146800EDFF204610BDC360009B0361019B4160F6
:1014780082604361704700238361C36103624362F2
:101488008362C3627047000008B5054B0360002300
:1014980043608360C36003614361FFF7ECFF08BDED
:1014A800F8440008D0ED097AD0ED044A90ED035ACB
:1014B80090ED0A6AC0ED0A7A05EE901A67EEA47AF2
:1014C80045EE857A4162D0ED055AD0ED066A80ED89
:1014D8000B6A46EE257A90ED016A90ED077AC0ED29
:1014E800076A46EE867AD0ED026A80ED087A47EE02
:1014F800267AC0ED067A17EE900A7047D0ED067A84
:10150800F5EEC07AF1EE10FA48BFF1EE677A17EE01
:10151800900A7047704710B52C210446FFF78EFFDC
:10152800204610BD07EE901A07EE102A37EE877A8C
:101538000021F1EE677A0362009B41608160C1601F
:1015480001614161816280ED067AC0ED077A4362EC
:101558007047000037B5044D0560069D0095FFF7FC
:10156800E1FF03B030BD00BF08450008D0ED036AB5
:10157800D0ED017A90ED046AD0ED074AC0ED046A17
:1015880007EE102A76EEA66A90ED065AC0ED027AAA
:1015980005EE901A67EEA47A37EE667A45EE857AFC
:1015A8004160C26037EE067AD0ED086A80ED056AC0
:1015B80047EE667A90ED0A7A77EE877A90ED097AA7
:1015C800C0ED0A7AF4EEC77AF1EE10FAC8BF80EDE2
:1015D8000A7AD0ED0A7AB1EE477AF4EEC77AF1EEDC
:1015E80010FA48BF80ED0A7A806A7047002343608A
:1015F8008360C160016141618362704781F000428C
:10160800FFF7B4BF10B5ADF5DC5D84B00E4801F04E
:1016180079FE0E4800F008FD04466846FEF744FFD0
:10162800012C68460CD1FFF757F96846FFF7FEF81A
:101638006846FFF765F900200DF5DC5D04B010BDC4
:10164800FFF750F9F1E700BF2C020020AC020020A0
:10165800704710B538210446FFF7F0FE204610BD4C
:10166800094B0360094B436000F1280200F10803AD
:10167800012143F8041B9342FBD100238362C36218
:1016880003634363704700BF18450008144400080B
:1016980030B50B1D00F10804243153F8045B44F8FD
:1016A800045B8B42F9D100238262C362036330BDBD
:1016B800002310B543630F4B5B7C0446C3B10E484F
:1016C80001F02CF8E36AC01A0028A36AB8BF4042A8
:1016D80083420DD2084801F021F8236BE06204EB45
:1016E8008302926802B16263062B9CBF01332363B5
:1016F800606B10BD5801002040020020406B70470D
:1017080070477047704710B544210446FFF796FEAE
:10171800204610BD10B541F604110446FFF78EFEB1
:10172800204610BD10B541F654110446FFF786FE59
:10173800204610BD044A0260044AC260044A026599
:10174800002242608260704748450008284500082A
:101758003845000837B505464068ADF8041000F074
:101768001F0305EB43030130B0F5486F1982686029
:101778000DD810F01F0408D105F11002A968064819
:1017880001F0C2F9AB684033AB60002001E04FF0D4
:10179800FF3003B030BD00BF3402002007B58DF81C
:1017A80004108DF805200199FFF7D4FF03B05DF808
:1017B80004FB90F8550070472DE9F8430024DFF842
:1017C8003890064600F11008274614F01F0505D189
:1017D80039464246484601F0C5F9403706EB45050B
:1017E80006EB440301342A8AA3F85420B4F5486F61
:1017F800EBD1BDE8F88300BF3402002010B40346E3
:1018080000F1400402460021117451740232A242D0
:10181800FAD100F5C851002283F8542083F85520E6
:1018280002338B42F8D1426082605DF8044BFFF7C7
:10183800C3BF000010B5034B0360044601F0B4F8C1
:10184800204610BD5845000810B50446FFF7F2FFC2
:1018580020460421FFF7F2FD204610BD10B50446CE
:1018680001F0AAF8014B2360204610BD5845000836
:1018780038B505464C1E14F8011F19B1284601F069
:10188800F7F8F8E738BDFFF7F3BF30B585B00023A8
:101898000A228DF80F301546B1FBF5F405FB141339
:1018A80004A91144303301F80C3C531EDBB2214625
:1018B8002CB901AB9918FFF7DBFF05B030BD1A460C
:1018C800EAE7704710B5D8210446FFF7B7FD204670
:1018D80010BD00004C4A4D4B0360536943F4FC03B0
:1018E80010B553614FF0904343609C6824F4403432
:1018F8009C609C6844F440349C609C8824F4807408
:101908002404240C9C809C88A4B29C801C6824F429
:1019180040341C601C6844F480341C603C4C0461F6
:1019280044638465C467546944F4FC0454611C68C6
:10193800C0F8A03024F003041C601C6844F00304C1
:101948001C60546944F4FC0454611C68C0F8A43059
:1019580024F00C041C601C6844F00C041C605469DE
:1019680044F4FC0454611C68C0F8A83024F0300426
:101978001C601C6844F030041C60546944F4FC0486
:1019880054611C68C0F8AC3024F0C0041C601C68AA
:1019980044F0C0041C60546944F4FC0454611C689D
:1019A800C0F8B03024F440741C601C6844F44074DF
:1019B8001C60546944F4FC0454611C68C0F8B430D9
:1019C80024F440641C601C6844F440641C6054693E
:1019D80044F4FC045461C0F8B8301C6824F4405442
:1019E8001C601C6844F440541C60546944F4FC04B2
:1019F80054611A68C0F8BC3022F440421A601A6870
:101A080042F440421A6010BD0010024068450008C8
:101A180014440008037B72B60BB10022027362B64D
:101A2800184670474268936943F48073936170471E
:101A38004268138D9BB243F480731385704700008E
:101A48002DE9F0410446FFF7F3FF64213048DFF841
:101A5800C48001F0ABFA04F15C063746002529463C
:101A6800404600F08BFB0135082D47F8040BF6D1F2
:101A78002046FFF7D7FF64212548264F01F096FA44
:101A880000252946384600F079FB56F8043B013515
:101A9800C01A082D3062F4D104F1140204F13401A3
:101AA800002342F8043B9142FBD16FF0FF02A2638E
:101AB8006FF0BF02E2636FF07F0222646FF03F02B3
:101AC80062644022A2648022E264C02222654FF44C
:101AD800807262654FF49672A260012284F8C12078
:101AE800002284F8C030C4F8C430C4F8C820C4F850
:101AF800CC20C4F8D020C4F8D420237304220023B7
:101B08002146034801F012FA0020BDE8F08100BF29
:101B1800340400205401002081F3030100EB81000C
:101B280030B5826B456902FB05F471B10369426BFC
:101B3800072902FB03422B440AD08169C06B0B447E
:101B480000FB012292FBF3F030BD62006B00F4E76A
:101B580022442B44F6E70000F8B500F114020023F4
:101B6800044680F8C03000F13401104650F8045B98
:101B780081422B44FAD1DB0807EE903AF8EEE77A77
:101B88000021C4ED357A16460D4604EB850756F854
:101B980004EB7F69BE45C8BF0D4601310829F4D161
:101BA800A168002652F8047B8F42C8BF01368242E2
:101BB800F8D1B3F5FA7F08D9032384F8C13001239B
:101BC80084F8C030C4F8C460F8BD04EB85035B69D1
:101BD80099422CDA0127294684F8C1702046FFF77C
:101BE8009BFF07EE900A9FED127AF8EEE77AE91963
:101BF80067EE877A2046C4ED327AFFF78DFF07EE4D
:101C0800900AF8EEE77A691E67EE877A2046C4EDF7
:101C1800337AFFF781FF07EE900AF8EEE77AC4F807
:101C2800C46067EE877A84F8C070C4ED347AF8BD72
:101C38000000803B2DE9F8430025DFF84880104F6D
:101C4800064600F11404A9462946404600F096FAD3
:101C5800A36CC01A7843E36E90FBF3F0013510F5DE
:101C68007A7054BF2060C4F80090082D04F1040471
:101C7800EAD13046FFF770FF01233373BDE8F883DC
:101C880018FCFFFF54010020704710B518210446C6
:101C9800FFF7D4FB204610BD4D494E4B03604B69FE
:101CA80043F4FC0330B54B614B4B43609A6822F414
:101CB80040729A609A6842F440729A609A8822F058
:101CC80010021204120C9A809A8892B29A801A68AA
:101CD80022F440721A601A6842F480721A604A69E3
:101CE80042F4FC024A619A68836022F440629A6076
:101CF8009A6842F440629A609A8822F0200212049C
:101D0800120C9A809A8892B29A801A6822F44062D9
:101D18001A601A6842F480621A604A6942F4FC0246
:101D28004A614FF09042C260956825F04045956041
:101D3800956845F0404595609588C5F30E059580F2
:101D48009588ADB29580156825F0404515601568F1
:101D580045F0804515604A6942F4FC024A619A6878
:101D6800036122F040629A609A6842F040629A6089
:101D78009A8822F400521204120C9A809A8892B21D
:101D88009A801A6822F040621A601A6842F08062EB
:101D98001A604A6942F4FC024A6143619A6822F077
:101DA80040529A609A6842F040529A609A8822F4A7
:101DB80080421204120C9A809A8892B29A801A6809
:101DC80022F040521A601A6842F080521A6030BD00
:101DD800001002407C450008000400480029C26841
:101DE80014DA138D6FEA43436FEA53439BB21385AA
:101DF8004942FF290B46A8BFFF2341F2BE215943A0
:101E0800FF23B1FBF3F1044B99637047936943F4E3
:101E180000439361EDE700BF002C01408268002970
:101E2800ABBF138D93699BB243F02003B5BF494202
:101E380043F0200393611385FF290B46A8BFFF23B6
:101E480041F2BE215943FF23B1FBF3F1014B596322
:101E5800704700BF002C01400269936823F040637B
:101E68009360936843F040639360136823F0406382
:101E78001360136843F0006313604369996821F0A5
:101E880040519960996841F040519960196821F072
:101E980040511960196841F000511960516A21F4E4
:101EA80070015162516A41F4C00151625A6A22F0CC
:101EB80070625A625A6A42F0C0625A62104A936962
:101EC80043F4006393610F4B002241F2BF211A8053
:101ED800D96201211A851A8659615A639A634FF4A7
:101EE80080725A6047F270029A6177221A621A88E1
:101EF80092B20A431A805A6C42F400425A647047FC
:101F080000100240002C0140416842690B8D9BB2D1
:101F180043F010030B8581680B8D9BB243F02003BF
:101F28000B85C1680B8D6FEA43436FEA53439BB23D
:101F38000B8501690B8D9BB243F400530B85138D00
:101F48009BB243F480431385FFF786BF704710B5F3
:101F580018210446FFF772FA204610BD037B8268F9
:101F680033B100230373936943F4004393617047CB
:101F780001230373138D6FEA43436FEA53439BB204
:101F8800138570471C4A1D4B0360536943F4FC03D7
:101F980010B553611A4B43609C6824F040749C60F0
:101FA8009C6844F040749C601C6824F040741C6079
:101FB8001C681C60DC6844F08074DC60546944F47C
:101FC800FC0454619A68836022F040429A609A68DF
:101FD80042F040429A609A88C2F30E029A809A8828
:101FE80092B29A801A6822F040421A601A6842F047
:101FF80080421A6010BD00BF001002408C450008E6
:10200800000400484FF0FF3310B543610023044635
:10201800037301464FF4FA72024800F087FF20610B
:1020280010BD00BF34040020436870B504461A8A06
:10203800D20401D500BFFAE7012363616422217C41
:102048000F480F4D00F09AFF0D4800F0A3FF00F570
:10205800FA6663681B8ADB040FD4094800F09AFF0C
:10206800B042F6D96369012BF3D13222217C28468C
:1020780000F084FF02236361EBE7606970BD00BF75
:1020880034040020704710B504210446FFF7D6F940
:10209800204610BD014B0360704700BFD4450008BF
:1020A8000B0F064BDA6A14BF22F4785222F4F87246
:1020B800DA62DA6A1143D962704700BF0010024041
:1020C80030B5042B9DF80C401CDC03EB4303086B74
:1020D8005B001F259D4020EA050002FA03F3034335
:1020E8000B63092A39DD0A3A8B698B6902EB4202D4
:1020F8000720904023EA00038B618B6994401C43BE
:102108008C6130BD092B0CDC0620053B43434D6B2D
:102118001F20984025EA000002FA03F303434B63AB
:10212800DFE70E2B4FF006000BDC0A3B43438D6BB9
:102138001F20984025EA000002FA03F303438B634B
:10214800CFE70F3B4343CD6B1F20984025EA0000A3
:1021580002FA03F30343CB63C3E7013A4B694B69C4
:1021680002EB42023820904023EA00034B614B699E
:10217800033204FA02F21A434A6130BD13B5013939
:1021880009299DBF0D4B53F821400D4B4FF0A0443A
:1021980098BF5A5C4FF00103009388BF0122214683
:1021A800FFF78EFFA36843F00403A36023685B076F
:1021B80001D400BFFAE7206C02B010BDA4450008A6
:1021C800984500082DE9F743254C264F264E4FF435
:1021D80088710546FFF764FF6369244943F080531B
:1021E8006361FFF75DFF63694FF0A04843F0005358
:1021F80063614FF0020900240123C8F80C401A4615
:10220800FC604146F460CDF80090FFF759FF0123C8
:102218001A4639462846CDF80090FFF751FF0123AA
:10222800CDF800900C2231462846FFF749FFD8F830
:10223800083043F00103C8F80830BB6843F00103D5
:10224800BB60B36843F00103B360214628460134FC
:10225800FFF794FF0B2CF8D103B0BDE8F08300BF63
:10226800001002400001005000040050002200103D
:10227800704710B548210446FFF7E0F8204610BD26
:10228800014B0360704700BFE44500082DE9F041A9
:102298000446406C03689B680F469847606C036867
:1022A800D4215B699847606C036819215B6998477A
:1022B800606C03689B689847606C0368D5215B690C
:1022C8009847606C036801219B69984700020FFAE0
:1022D80080F8606C036801219B69984748EA000808
:1022E800606C036801219B699847000205B2606C25
:1022F800036801219B6998470543606C03680121C5
:102308009B6998470602606C036800219B6998479F
:1023180036B20643606C08230FFA88F82DB298FB92
:10232800F3F895FBF3F536B296FBF3F603684FEA3C
:10233800C808ED00F600DB680FFA88F82DB236B24F
:10234800984747B1A36A4344A362E36A2B44E36214
:10235800236B33442363E26AA36A606CAD1A226B71
:102368006561A8EB0303B61A2361192293FBF2F8FF
:10237800E36995FBF2F503EB4803E361236AA66181
:1023880003EB4505636A96FBF2F603EB4606036822
:10239800256266629B689847606C0368D4215B6914
:1023A8009847606C036829215B699847606C0368EB
:1023B8009B689847606C0368D5215B699847606C97
:1023C800036801219B699847000205B2606C0368A5
:1023D80001219B699847284307B2606C0368012173
:1023E8009B699847000206B2606C036801219B69EB
:1023F80098470643606C036801219B69984700026F
:1024080005B2606C036800219B6998470543606CBE
:102418000368DB689847174B6760D4ED107ADFEDE7
:10242800166A93ED017A67EEA67AB8EEC77ADFED01
:10243800136A47EE267A36B22DB29FED117AA6605E
:10244800F4EEC77AF1EE10FAE560C4ED107A06DC16
:102458009FED0C7AF4EEC77AF1EE10FA07D5012356
:1024680084F83D30012384F83C30BDE8F081002336
:10247800F6E700BF64020020CDCC4C3FCCCC4C3EEC
:1024880000803B4500803BC50021FFF7FFBE406B45
:10249800003018BF0120704711F1FF3101D300BF90
:1024A800FAE7704738B50446102208466164A82345
:1024B800D421FEF76BFA002323616361A361A36251
:1024C800E3622363E3612362636242F21071204690
:1024D800FFF7E2FF0F226363D421606CFEF774FA02
:1024E800682804BF012363631022A823D421606CE9
:1024F800FEF74CFA38231E22D421606CFEF746FA08
:1025080000232E22D421606CFEF740FA0023122209
:10251800D421606CFEF73AFA60232022D421606C43
:10252800FEF734FA38231F22D421606CFEF72EFA06
:1025380042F210712046FFF7AFFF00212046FFF757
:10254800A5FE0023002284F83D302264A3634FF4E3
:102558007A7501212046FFF799FE64212046FFF78E
:102568009BFF013DF5D14FF47A72A36AE56193FBB5
:10257800F2F32562A3626562E36A656093FBF2F396
:10258800A560E362E560236B054893FBF2F32146FF
:1025980023630A222B4600F0C9FC84F83C5038BD5E
:1025A80034040020704710B514210446FEF746FF96
:1025B800204610BD304A314B0360536943F4FC0395
:1025C80010B553612E4B43609C6824F440549C60C2
:1025D8009C6844F440549C601C6824F440541C607B
:1025E8001C681C60DC6844F48054DC60546944F462
:1025F800FC0454619C68836024F440449C609C689B
:1026080044F440449C601C6824F440441C601C68EA
:102618001C60DC6844F48044DC60546944F4FC04C5
:1026280054619C68C36024F040749C609C6844F0CA
:1026380040749C601C6824F040741C601C681C601A
:10264800DC6844F08074DC60546944F4FC04546130
:102658009A68036122F440029A609A6842F4400240
:102668009A601A6822F440021A601A681A60DA68D6
:1026780042F48002DA6010BD00100240F8450008FC
:1026880000080048164B174A10B500241C60164B6A
:102698001C60936943F00103936106210220FDF752
:1026A800ADFE0C210220FDF7A9FE10210620FDF742
:1026B800BAFE10210C20FDF7B6FE2246214617204F
:1026C800FDF71EFE224621462820FDF719FE0620AA
:1026D800FDF788FE0C20BDE81040FDF783BE00BF63
:1026E80008000020001002400C00002072B6044BC5
:1026F800186862B658234343B42093FBF0F0704740
:102708000800002072B6044B186862B65823434389
:10271800B42093FBF0F070470C00002008B5014688
:10272800FFF7E4FF02460846FFF7ECFF02231044D8
:1027380090FBF3F008BD0000034B1868582343438F
:10274800B42093FBF0F0704708000020034B186892
:1027580058234343B42093FBF0F070470C0000204B
:10276800094B1B8A13F0C0030BD0C02B0CBF0123ED
:102778004FF0FF33054A116806200B441360FDF73C
:1027880031BE0123F6E700BF00080048080000201A
:102798000A4B1B8A13F4C0530CD0B3F5C05F0CBFAF
:1027A8004FF0FF330123064A11680C200B441360D5
:1027B800FDF718BE4FF0FF33F5E700BF00080048EB
:1027C8000C00002038B5C368364D2DED048B4360EE
:1027D8000369836004462846FFF7AEFFE060284699
:1027E800FFF7B4FF6268E3689FED2F5AD4ED056ADE
:1027F800DFED2E5A9FED2E6A20619B1A07EE103AE4
:10280800B8EEC77AA3689FED2B9A27EE057A66EE95
:10281800A56A47EE066AC31A04F13C0007EE903A2F
:10282800F8EEE77AC4ED056AB0EE667AD4ED066A8A
:1028380067EE857A66EEA56A47EE866AD4ED077A72
:10284800C4ED066A77EEC77A17EE102A17EE901ACB
:10285800FEF78CFEA269D4ED087A07EE102A77EE0F
:10286800C77A08EE900A17EE901A04F16800FEF78E
:102878007DFE68EE898A2434FDEEE87A08EE100AB7
:1028880017EE901A2046FFF7A9FA28EE098A204683
:10289800FDEEC87ABDEC048B17EE901ABDE83840FF
:1028A800FFF7BCBA40020020CDCCCC3D6666663F3F
:1028B8000000003E00007F4373B50E4B0025044620
:1028C8004FF07E5640F8243BFFF7E6F92B462A46A0
:1028D8002946009604F13C00FEF73CFE00962B4684
:1028E8002A46294604F16800FEF734FE204602B065
:1028F80070BD00BF08460008F7B5154F154E0446D1
:102908004FF07E552430FFF7FFFA00952B463A46E4
:10291800314604F13C00FEF705FE00952B463A4689
:10292800314604F16800FEF7FDFD002500236361D0
:10293800A361E36123626560A560E56025612B46BC
:1029480004222146044800F0F1FA284603B0F0BDFD
:10295800EC51B83DCDCC8C3F34040020C1617047A8
:1029680001627047406970478069704710B5084B2D
:10297800044640F8683BFEF7CDFD04F13C00FEF745
:10298800C9FD04F12400FFF77FF9204610BD00BF00
:102998000846000810B50446FFF7E8FF20469421D2
:1029A800FEF74CFD204610BD704710B504210446C3
:1029B800FEF744FD204610BD014B0360704700BF81
:1029C8001C460008274A536943F4FC0353614FF03F
:1029D8009043986820F440209860986840F440201C
:1029E8009860186820F440201860186840F40020A7
:1029F8001860506940F4FC005061986820F4401059
:102A08009860986840F440109860186820F4401066
:102A18001860186840F400101860586A20F0F00038
:102A28005862586A40F070005862586A20F4706022
:102A38005862586A40F4E0605862936943F48043EE
:102A48009361094B00220C205A6018609A60074A6B
:102A5800B2FBF1F189B299811A6842F001021A6059
:102A6800704700BF001002400038014000A24A042D
:102A7800044BDA69120601D400BFFAE789B2198556
:102A8800704700BF00380140704710B50C2104465C
:102A9800FEF7D4FC204610BD024A026000220272F2
:102AA800704700BF2C460008F8B501230446416072
:102AB800037272B60B6808469B689847606803689B
:102AC800A0215B69984707466068036800215B6935
:102AD800984706466068036800215B699847054681
:102AE80060680368DB68984762B6012F1CBF002343
:102AF8002372012E1CBF00232372012D1CBF00234B
:102B08002372F8BD007A704701F14003B3F5004F16
:102B180070B504460E46154623D872B64068036859
:102B28009B68984760680368A0215B69984760685C
:102B38000368C6F307215B69984760680368F1B2C8
:102B48005B6998476E1E3F35606816F8011F036879
:102B58005B699847AE42F7D160680368DB689847BD
:102B680062B670BDF8B501F14003B3F5004F0446F5
:102B78000E46154635D872B6406803689B68984774
:102B880060680368A0215B69984760680368C6F3BA
:102B980007215B69984760680368F1B25B699847E9
:102BA800606803689B68984760680368A1215B694F
:102BB80098476E1E05F13E076068036801219B690E
:102BC800984706F8010FBE42F6D1606803680021F5
:102BD8009B69984785F83F0060680368DB689847F9
:102BE80062B6F8BDF8B5082104462DED048B4148BE
:102BF800FFF7C4FA092108EE100A3E48FFF7BEFAAB
:102C08000A2109EE100A3B48FFF7B8FAF8EEC87A2D
:102C18009FED398A67EE887A04F1440717EE901A17
:102C280008EE900A3846FEF73DFCB8EEC99A04F162
:102C3800740669EE087A304617EE901AFEF732FCF1
:102C4800F8EEE88A04F1A40568EE887A284617EEBB
:102C5800901AFEF727FC3846FEF750FC9FED278AAE
:102C680007EE900A78EE677A3046C4ED027AFEF7EE
:102C780045FC07EE900A78EE677A2846C4ED017A9B
:102C8800FEF73CFC07EE900A9FED1D7A38EE678A46
:102C9800D4ED027A84ED038AF4EEC77A9FED197AAF
:102CA800F1EE10FA4CBF01230023F4EEC77AF1EEDF
:102CB80010FA23744FF0010348BF63742375A36AA5
:102CC8005CBF0022627413F003020AD1A1690A8D65
:102CD80092B242F400520A85BDEC048B0133A36220
:102CE800F8BD022A01BFA1698A6942F400528A61CB
:102CF800F2E700BF54010020000080390000803F47
:102D08003333333F6666263F2F49304B10B5036097
:102D18004B6943F4FC034B612D4B83619A6822F0A5
:102D280040629A609A6842F040629A609A8822F4F7
:102D380000521204120C9A809A8892B29A801A68E9
:102D480022F040621A601A6842F080621A604A698A
:102D580042F4FC024A611F4AC2610446106820F02E
:102D680003001060106840F003001060486940F4E8
:102D7800FC0048611068226220F00C0010601068A6
:102D880040F00C0010604A6942F4FC024A611A687B
:102D9800636222F003021A601A6842F003021A60A2
:102DA80004F14400FEF770FB04F17400FEF76CFBBD
:102DB80004F1A400FEF768FBA269138D9BB243F4EB
:102DC80000531385204610BD001002403C46000801
:102DD80000080048000400482DE9F7438269214FA4
:102DE800138DDFF888909BB2002543F40053856269
:102DF800002613854FF07B584FF07E530446C5627A
:102E0800056345638563C563056443608360C36088
:102E18000574457443463A463146CDF80490009609
:102E28004430FEF720FB43463A46314604F174002D
:102E3800CDF804900096FEF716FB43463A46314615
:102E480004F1A400CDF804900096FEF70CFB2B4685
:102E580005222146044800F069F82846257503B084
:102E6800BDE8F083000080BE340400200000C0BE2E
:102E7800037D72B60BB10022027562B61846704720
:102E880010B5084B044640F8A43BFEF7E4FA04F1F9
:102E98007400FEF7E0FA04F14400FEF7DCFA20467D
:102EA80010BD00BF3C46000810B50446FFF7E8FF18
:102EB8002046D421FEF7C2FA204610BD7047000014
:102EC800F7B50022154D142713464FF47A7607FB01
:102ED80002F429190132102A2B514B608E60CB6005
:102EE8000B744B74F3D10E4A13600E4A0360D36916
:102EF80043F00103D361002264230093114640F29A
:102F0800CF234FF08040FDF71DFA012200211C203D
:102F1800FDF7F6F962B603B0F0BD00BF140000205B
:102F2800100000200010024070470000F0B572B693
:102F3800114D00244FF0FF304FF0140E2F460EFBBA
:102F480004F605EB060CAE5926B9DCF80460002E31
:102F580008BF20460134102CF1D1441C0AD0C4B259
:102F6800142565437C1900267E516160A260E260E9
:102F78002674637462B6F0BD14000020044814235C
:102F880003FB01010023CA608A600B74704700BF0D
:102F98001400002082B072B6034B1B68019362B61E
:102FA800019802B0704700BF1000002007B5024624
:102FB800FFF7F0FF014401911046FFF7EBFF019B7B
:102FC800984201D200BFF7E703B05DF804FB0000A8
:102FD800F8B54FF080431A69D20714D5194F4FF648
:102FE800FE721A61002414263D4606FB0473DA6853
:102FF80052B1DA68013ADA600134102CF5D1124A7C
:10300800136801331360F8BD9A68DA601A7CFF2AE6
:103018001FBF1A7C0132D2B21A7406FB04F3EA18F5
:10302800527C002AE8D1EA580AB1EB58984706FBC7
:1030380004535A68002ADFD0586803689B68984789
:10304800DAE700BF1400002010000020704710B518
:1030580008210446FEF7F2F9204610BD10B5034BCF
:1030680003600446FDF784FC204610BD5046000866
:1030780010B50446FFF7F2FF20461021FEF7DEF9EF
:10308800204610BD10B5044621B10349FEF7FBFBED
:10309800204610BD0149F9E7AE470008B3470008CC
:1030A8001049114B03604B6943F4FC034B610F4B10
:1030B80043609A6822F040429A609A6842F040421F
:1030C8009A609A88C2F30E029A809A8892B29A807D
:1030D8001A6822F040421A601A6842F080421A6068
:1030E800704700BF00100240C447000800040048B1
:1030F800026821B1936943F4004393617047138DCB
:103108006FEA43436FEA53439BB213857047D1B9C3
:1031180003689A6822F440429A609A6842F44042EE
:103128009A609A8822F080021204120C9A809A8877
:1031380092B29A801A6822F440421A601A6842F4DD
:1031480080421A60704701290ED103689A6822F4F8
:1031580040429A609A6842F440429A601A6822F49F
:1031680040421A601A68ECE7022913D103689A688A
:1031780022F440429A609A6842F440429A601A687F
:1031880022F440421A601A681A60DA6842F48042EF
:10319800DA607047052910D103689A6822F4404222
:1031A8009A609A6842F440429A601A6822F440424F
:1031B8001A601A6842F40042C3E70429C2D10368BE
:1031C8001A6822F440421A601A6842F44042B8E78A
:1031D800054A08B5536943F4FC035361034B036084
:1031E8000121FFF794FF08BD0010024000040048C9
:1031F800D1B903689A6822F440529A609A6842F4F6
:1032080040529A609A8822F040021204120C9A8066
:103218009A8892B29A801A6822F440521A601A6800
:1032280042F480521A60704701290ED103689A68E7
:1032380022F440529A609A6842F440529A601A689E
:1032480022F440521A601A68ECE7022913D1036885
:103258009A6822F440529A609A6842F440529A60FE
:103268001A6822F440521A601A681A60DA6842F43E
:103278008052DA607047052910D103689A6822F4F1
:1032880040529A609A6842F440529A601A6822F44E
:1032980040521A601A6842F40052C3E70429C2D1A6
:1032A80003681A6822F440521A601A6842F44052BD
:1032B800B8E70000054A08B5536943F4FC035361B5
:1032C800034B03600121FFF793FF08BD0010024084
:1032D800000400480A2310B5436004460830FFF78D
:1032E80077FF04F10C00FFF7E5FFA268138D9BB28E
:1032F80043F080031385E268138D9BB243F04003CB
:10330800138510BD2DE9F0414F4C504EDFF8A481D4
:10331800071D38460121FFF7EBFE20464FF4E13147
:10332800FFF750FB20464A49FEF7ADFA49492046C7
:10333800FEF7A9FAFEF772F8474905462046FEF758
:10334800A2FA2946454D2046FEF79FFA294620460F
:10335800FEF799FA3046FFF7B3FD20464049FEF7DD
:1033680092FA20463F49FEF78EFA3046C8213E4E73
:10337800FFF71CFE3D492046FEF785FA3046FFF769
:10338800A9FF20463A49FEF77EFA31464046FFF744
:1033980089F838492046FEF776FA4046FFF777F86D
:1033A800DFF8148101462046FFF76CFE2946FEF738
:1033B8006AFA31464046FFF777FB2F492046FEF769
:1033C80062FA4046FFF79EFB01462046FFF75AFE89
:1033D8002946FEF758FA2948FEF7F4FE2849204600
:1033E800FEF751FA2748FEF72BFB27492046FEF740
:1033F8004AFA2648FFF7F0FC25492046FEF743FA2B
:103408002448FFF73FF924492046FEF73CFA2348B1
:10341800FFF772FA20462249FEF735FA00213846AE
:10342800FFF766FE1F48FEF7EDFD20461E49FEF732
:103438002AFA20461D49FEF726FA20461C49FEF7BF
:1034480022FA0020BDE8F081300400203404002076
:10345800814600088D460008A14600088B460008F2
:10346800BF460008D046000854020020E74600087E
:10347800DE460008ED460008014700085401002018
:1034880018470008C40200202747000858010020F8
:103498003E47000840020020594700089C030020CE
:1034A80073470008AC0200208D4700088A460008D0
:1034B8009C470008640200203402002070B50446CE
:1034C80000F10C0604F1080530460021FFF790FED4
:1034D80028460021FFF71BFE30460121FFF788FE32
:1034E80028460021FFF713FE30460121FFF780FE32
:1034F80028460121FFF70BFE2046BDE87040FDF786
:103508008ABA70B5044600F10C0604F10805304685
:103518000121FFF76DFE28460121FFF7F8FD30462F
:103528000121FFF765FE28460021FFF7F0FD304630
:103538000021FFF75DFE28460121FFF7E8FD204640
:10354800BDE87040FDF767BA2DE9F843044600F17D
:1035580008073846894604F10C060121FFF7D7FD14
:1035680000213046FFF744FE2046FDF754FA4FF09D
:1035780009080025B8F1010817D001213046FFF7E6
:1035880037FE2046FDF747FAA3681B8A6D001B0625
:103598003046EDB24FF0000148BF45F00105FFF796
:1035A80027FE2046FDF737FAE4E7B9F1000F1ED0F1
:1035B80041463846FFF7ABFD2046FDF72CFA0121BE
:1035C8003046FFF715FE2046FDF725FA0021304664
:1035D800FFF70EFE2046FDF71EFA01213846FFF7D9
:1035E80096FD2046FDF717FA2846BDE8F883012125
:1035F800DFE72DE9F04104460D46092700F10C06E6
:1036080000F10808013F1AD000213046FFF7F0FD0D
:103618002046FDF700FA2B064CBF01210021404649
:10362800FFF775FD2046FDF7F6F901213046FFF753
:10363800DFFD6D002046FDF7EEF9EDB2E2E7394611
:103648003046FFF7D5FD2046FDF7E5F90121404654
:10365800FFF75DFD2046FDF7DEF901213046FFF753
:10366800C7FD2046FDF7D7F9A3681D8A39463046BD
:10367800FFF7BEFDADB22046FDF7CDF985F080001D
:10368800C0F3C010BDE8F08138B53C4D3C4C28462D
:10369800FFF706FD28463B4D3B492246FDF7D9FE7C
:1036A8002846FEF7DBF82846384D39492246FDF70B
:1036B800D0FE2846FFF702FC2846364D36492246FA
:1036C800FDF7C7FE2846FDF75BF92846334B40F85F
:1036D800083BFFF77DFD05F10C00FFF7EBFD2846E1
:1036E8002F4D30492246FDF7B4FE2846FEF7C8FDA7
:1036F80028462D4D2D492246FDF7ABFE2846FFF7FB
:10370800CBF928462A4D2B492246FDF7A2FE28462A
:10371800FEF7C0FC2846284D28492246FDF799FEA9
:103728002846FEF7D7F82846254D26492246FDF7B4
:1037380090FE2846FFF7E8FA2846234D23492246FB
:10374800FDF787FE2846FEF735FF2846204D21491C
:103758002246FDF77EFE2846FFF7AEF828461E4DA6
:103768001E492246FDF775FE2846FEF70BFC224649
:1037780028461B49BDE83840FDF76BBE2C020020E7
:1037880004000020300400205530000834040020D4
:103798003D18000854020020312F00085046000848
:1037A80064020020653000083402002079220008F5
:1037B80054010020912A0008C40200208D2000082E
:1037C80058010020CB18000840020020892E00086C
:1037D8009C030020AD250008AC02002075290008D4
:1037E800551F000838B50446074B44F8083B054602
:1037F800204600F0CDFB2046044900F0F1FB0023F1
:1038080085F85C30284638BDD44700083333333F49
:1038180041607047012380F85C3070472DE9F84318
:1038280081461648DFF85880144E0D46FFF7B2FB64
:10383800054409F108070521384600F001FC044653
:10384800A0B94046FEF7E6F80028F4D03046FFF766
:10385800A1FB854202D298F8C0305BB9384600F027
:1038680013FC04213046FFF7A1FBE2E74FF0FF30DD
:10387800BDE8F8832046BDE8F88300BF3404002083
:10388800C402002073B5D0ED017A90F85C30009343
:10389800F5EEC07AF1EE10FA054600F108044BBFC8
:1038A800BE2100210022BE2220460026052300F06A
:1038B80013FB85F85C6031462846FFF7AFFF002808
:1038C8005ED0D5ED017A0096F5EEC07AF1EE10FAE9
:1038D8004BBF32466FF0BD026FF0BD013146052384
:1038E800204600F0F9FA27492846FFF797FF2046B7
:1038F80000F026FCD5ED017AF5EEC07AF1EE10FA6B
:103908004FF0000158BF0A4600914CBFBE22BE21AD
:103918002046052300F0E0FA96212846FFF77EFFAF
:1039280070B3D5ED017AF5EEC07AF1EE10FA4FF0EA
:10393800000154BF0A466FF0BD0200914FF0050325
:1039480058BF6FF0BD01204600F0C6FA0D49284661
:10395800FFF764FF204600F0F3FB96220023114690
:1039680000932046052300F0B7FA4FF4C8712846A3
:10397800FFF754FF204602B0BDE8704000F0E0BBFE
:1039880002B070BD40420F0010B5044B044640F829
:10399800083B00F091FA204610BD00BFD44700084C
:1039A80010B50446FFF7F0FF20466021FDF746FDFD
:1039B800204610BD704710B550210446FDF73EFD66
:1039C800204610BD0346074A43F8042B00F1440182
:1039D800002203F8012B8B42FBD1034B8264C364A2
:1039E80042647047E4470008003665C410B5031DFB
:1039F80000F14404002203F8012BA342FBD1024B3F
:103A08008264C364416410BD003665C470B5044661
:103A1800C06C101A0028B8BF404283424FDCE264F1
:103A280004F138020023A2F10800C51895F90460D2
:103A3800D5180133082B2E71F7D184420246F1D1F3
:103A48000D1D224B224A2431284650F8046BB242FD
:103A5800B8BF3246B342A8BF33468842F5D1934235
:103A68002FDAD31A07EE903A9FED1A7AF8EEE77A32
:103A7800C7EE276A07EE902AF8EEE77A07EEE67AAD
:103A8800F0EE477A231D1946B5EC017AB8EEC77AED
:103A9800B0EE676A07EE266A8542BDEEC67A17EE73
:103AA800102A03F8012BEFD1606C03689B689847D4
:103AB800606CFDF77BFB606CFDF7AAFBA06400203F
:103AC80070BDDFED057AF0EE676ADBE740420F0074
:103AD800C0BDF0FF0000FE4200000000F8B504463B
:103AE8000B4B44F8083B0026054637466B689E4258
:103AF80009D254F8040B10B103685B68984744F87E
:103B0800047C0136F2E72846FDF714FB2846F8BD89
:103B1800384B000810B50446FFF7E0FF2046B021F7
:103B2800FDF78CFC204610BD2DE9F043804695B08A
:103B3800FDF71CFBBC4BC8F800300823C8F88830D8
:103B4800C8F88C300123C8F89030C8F89430C8F809
:103B580098300523C8F89C30B44B93E80700B44B61
:103B68000BAC84E8070093E80700B24B0EAD85E87C
:103B7800070093E8070011AE86E807003820FDF734
:103B880055FC40F25F1309934FF41B730893AA4B3B
:103B98000793AA4B0693814696E8070003AF87E888
:103BA800070095E807008DE80700484694E80E00EE
:103BB800FDF70CFCA24BC8F8089093E80700A14B4E
:103BC80084E8070093E807009F4B85E8070093E81F
:103BD800070086E807002C20FDF728FC814696E8B8
:103BE800070087E8070095E807008DE807004846C2
:103BF80094E80E00FCF7B6FF944BC8F80C9093E8D5
:103C08000700934B84E8070093E80700914B85E889
:103C1800070093E8070086E807002820FDF706FC60
:103C2800814696E8070087E8070095E807008DE8D1
:103C38000700484694E80E00FDF748FA864BC8F896
:103C4800109093E80700854B84E8070093E8070085
:103C5800834B85E8070093E8070086E807003820CB
:103C6800FDF7E4FB40F25313099340F2D62308937F
:103C78007C4B07937C4B0693814696E8070087E8C0
:103C8800070095E807008DE80700484694E80E000D
:103C9800FDF742F9754BC8F8149093E80700744B88
:103CA80084E8070093E80700724B85E8070093E86B
:103CB800070086E807002C20FDF7B8FB814696E848
:103CC800070087E8070095E807008DE807004846E1
:103CD80094E80E00FCF746FF674BC8F8189093E885
:103CE8000700664B84E8070093E80700644B85E803
:103CF800070093E8070086E807003820FDF796FBE1
:103D080040F21513099340F2975308935D4B0793BC
:103D18005D4B0693814696E8070087E8070095E81B
:103D280007008DE80700484694E80E00FDF7F4F810
:103D3800564BC8F81C9093E80700554B84E80700D9
:103D480093E80700534B85E8070093E8070086E8E7
:103D580007002C20FDF76AFB814696E8070087E8F4
:103D6800070095E807008DE80700484694E80E002C
:103D7800FCF7F8FE484BC8F8209093E80700474B3B
:103D880084E8070093E80700454B85E8070093E8B7
:103D9800070086E807002820FDF748FB814696E8DB
:103DA800070087E8070095E807008DE80700484600
:103DB80094E80E00FDF78AF93A4BC8F8249093E886
:103DC8000700394B84E8070093E80700374B85E87C
:103DD800070093E8070086E807004020FDF726FB68
:103DE8004FF4CB7309934FF474730893304B0793D4
:103DF800304B0693814696E8070087E8070095E868
:103E080007008DE80700484694E80E00FCF750FECE
:103E180009234046C8F82890C8F80430FDF72FFA5F
:103E2800404615B0BDE8F083384B0008004B000849
:103E3800C44A0008D04A0008EC470008FD470008BB
:103E4800D04A0008D04A0008D04A00080C4B0008A5
:103E5800D04A0008DC4A0008004B0008DC4A000889
:103E6800E84A0008F047000821480008E84A000826
:103E7800E84A0008E84A0008004B0008E84A000839
:103E8800F44A0008F4470008B1480008F44A00085A
:103E9800F44A0008F44A00080C4B0008F44A0008E9
:103EA800184B0008184B0008184B0008244B000852
:103EB800F8470008D14900087047704710B510212D
:103EC8000446FDF7BBFA204610BD10B55421044640
:103ED800FDF7B4FA204610BD2DE9F0412DED028B17
:103EE800044625489DF820800E4617461D46FEF7D5
:103EF800FDFB3044A0602048FEF704FC002E384447
:103F0800E06025612ADDDFED1D7A9FED1D8A002F17
:103F1800D8BFB0EE678A1B4D1B4A84ED078A002381
:103F28002562A361E2622563A36284ED0F8A25649A
:103F3800A363E2642565A364B8F1000F0AD0BE420A
:103F48000FDA002F06DD1148FEF70EFD84ED0F8A0B
:103F58002564A063BDEC028BBDE8F0819FED078A64
:103F6800D9E7F7DD002EF5DD0848FEF7FBFC84ED08
:103F7800078A2562A061EDE7400200206F12033C2A
:103F88006F12833B0AD7233C6F12033B9C0300202C
:103F980013B5104B104A036000234261C3610362EA
:103FA80083614262C362036383624263C3630364DF
:103FB80083634264C364002203658364074B026120
:103FC80043601146009205230446FFF785FF20460B
:103FD80002B010BD604B0008504B00083333333F2C
:103FE80007B5002241600261009205231146FFF7E0
:103FF80073FF03B05DF804FB38B5846806480D46C6
:10400800FEF774FB201A0028B8BF40428542D4BF8F
:104018000020012038BD00BF4002002038B5C46828
:1040280006480D46FEF76EFB201A0028B8BF40422E
:104038008542D4BF0020012038BD00BF40020020C7
:1040480038B504460D46FFF7D7FF28B12946204664
:10405800BDE83840FFF7E2BF38BDD0ED017A07EE82
:10406800101AF4EEC77AF1EE10FA07D590ED027A3D
:1040780077EE277AC0ED017A40687047FCDD90ED55
:10408800037A77EEC77AF5E738B585682DED028BA8
:1040980004462848FEF72AFB854225DD616804F1BD
:1040A8001400FFF7DAFF94ED068A2248E568FEF768
:1040B80029FB85422BDD616804F13400FFF7CDFF51
:1040C800D4ED0E7A1C4817EE901AFEF749FC18EE4C
:1040D800101A1948FEF742FCBDEC028B21692046F4
:1040E800BDE83840FFF7ACBF1248A568FEF7FEFAF6
:1040F800854209DA616804F12400FFF7AEFF94ED08
:104108000A8AB1EE488AD0E79FED0C8ACDE70948C4
:10411800E568FEF7F7FA854209DA616804F14400B8
:10412800FFF79BFFD4ED127AF1EE677ACAE7DFED6D
:10413800037AC7E7400200209C030020000000002B
:1041480038B52DED048B9FED2A9A2A4D0446F0EEE2
:10415800499A2846FEF706FC07EE900AF5EEC07A63
:10416800F1EE10FA48BFF1EE677AF4EEC97AF1EE93
:1041780010FA20DD002104F14400FFF76EFFD4EDB2
:10418800128A002104F12400FFF767FF94ED0A8AE0
:10419800F1EE688A18EE901A2846B1EE488AFEF7C2
:1041A800DFFB18EE101A2846FEF7D8FB0421124848
:1041B800FEF7FCFECDE72846FEF7D6FB07EE900A91
:1041C800F5EEC07AF1EE10FA48BFF1EE677AF4EE38
:1041D800E97AF1EE10FACDDC00210648FEF7C0FBC3
:1041E800BDEC048B00210348BDE83840FEF7B6BBA0
:1041F8000AD7233C9C0300203404002038B5044629
:10420800064B44F8043B05462046FFF7C1FE20460E
:104218000349FFF7E5FE284638BD00BF704B00088C
:104228003333333F37B50023041D0093204605235D
:10423800FFF752FE094D05212046FFF701FF38B967
:104248002046FFF721FF04212846FEF7AFFEF2E7DC
:10425800204603B0BDE83040FFF772BF34040020A9
:1042680010B5044B044640F8043BFFF725FE2046F2
:1042780010BD00BF704B000810B50446FFF7F0FFF3
:1042880020465821FDF7DAF8204610BD2DE9F04305
:104298002DED048B8FB04FF07E53009300231A4608
:1042A80005460C4603A81946FDF754F9484E494BF4
:1042B80000930022484B494903A8FDF733F9F168F8
:1042C80003A8FDF793F96FF0250211462846FFF77A
:1042D800A9FF012C66D1582200212846FFF7A2FF2A
:1042E8003F48DFED408ADFF8E8909FED3F9A3F4F67
:1042F800FEF714FA00F1C8084846FEF7B9FD002891
:10430800FAD0012C53D196ED038A39EE488A18EE7B
:10431800101A03A8FDF772F99FED357AF4EEC78AF3
:10432800F1EE10FA4ABF9FED337AF0EE478A78EE45
:10433800878A07EE900A9FED307AF4EEC77AF1EE9D
:1043480010FA3DD49FED2D7AF4EE477AF1EE10FA8B
:10435800C8BFF0EE477A78EEE79A78EEA77A384643
:1043680017EE901AFEF7FCFA19EE901A3846FEF787
:10437800F5FA1B48FEF7D2F98045BDDA204B93F8D1
:10438800C030002BB8D0012C1DD14F220021284667
:10439800FFF748FF03A8FDF7BDF80FB0BDEC048B8D
:1043A800BDE8F083621C9BD10022582195E7631C6D
:1043B80002BF96ED018A39EE488AB1EE488AA6E72F
:1043C800F0EE477AC7E70134E4D100224F21DEE757
:1043D80058010020000020419A99993E9A99193F66
:1043E80040020020000000001F856B3F9C03002056
:1043F8000000803E0AD7233C9A9999BE9A99993E23
:10440800C40200200000000000000000930400081F
:10441800A304000800000000000000009104000848
:1044280095040008000000000000000009090008C9
:104438005109000800000000000000007909000888
:104448007B09000867090008690900086B0900086A
:10445800710900087509000800000000000000004C
:10446800310A0008450A0008590A0008000000003F
:1044780000000000450B0008590B0008210B00083C
:104488000000000000000000990E0008AD0E0008B2
:10449800C10E00080000000000000000710F0008B5
:1044A800850F00089D1000080000000000000000B3
:1044B8003D11000861110008151100088712000855
:1044C8000000000000000000411300084513000828
:1044D80043130008000000000000000075130008E6
:1044E800891300089D130008000000000000000068
:1044F8005F140008611400080000000000000000BC
:104508001D1500081F15000800000000000000002D
:10451800591600085B1600080000000000000000A3
:104528000B1700080F17000800000000000000002B
:104538000D1700081D17000800000000000000000B
:10454800091700082D1700080000000000000000EF
:104558003D18000851180008000000000000000085
:10456800CB180008CD1800083D1C0008000000000A
:1045780000000000911C0008931C000800000000C7
:1045880000000000551F0008571F0008651F00089D
:10459800020304010203040C01060000000000509D
:1045A80000000050000000500001005000010050C1
:1045B80000010050000100500004005000040050A9
:1045C8000000005000000000000000008D200008DE
:1045D8008F20000800000000000000007922000879
:1045E8007B22000891240008000000000000000061
:1045F800AD250008AF2500080000000000000000FD
:10460800752900089D290008CD2700080000000032
:1046180000000000B1290008B329000800000000CC
:1046280000000000912A0008932A000800000000FA
:1046380000000000892E0008B12E0008ED2B0008AC
:104648000000000000000000653000087930000814
:104658000B350008C5340008DD320008FB350008BA
:1046680051350008096573745F696D755F73656E10
:10467800736F720A00203A20000A0A0A23232323B0
:10468800230A0A0A007465726D696E616C20696E8E
:10469800697420646F6E650A006D656D20696E69C6
:1046A8007420646F6E652C20686561702073746176
:1046B8007274206174200074696D657220696E6976
:1046C8007420646F6E650A0064656C61792032300D
:1046D80030206D73200069326320696E697420642C
:1046E8006F6E650A00696D7520696E697420646F64
:1046F8006E6520776974682000656570726F6D203B
:10470800696E697420646F6E65207769746820002B
:1047180061646320696E697420646F6E650A006C59
:10472800696E652073656E736F7220696E69742097
:10473800646F6E650A0064697374616E63652073E3
:10474800656E736F7220696E697420646F6E650A96
:1047580000656E636F6465722073656E736F722097
:10476800696E697420646F6E650A006D6F746F728C
:1047780020636F6E74726F6C6C20696E697420644C
:104788006F6E650A006B657920696E697420646FC5
:104798006E650A0073797374656D20696E6974209B
:1047A800646F6E650A00747275650066616C736586
:1047B8000000000000000000000000005530000864
:1047C8005730000800000000000000009139000880
:1047D800A93900080000000000000000BD390008E9
:1047E800BF390008F47FF6D90048D97F7F4E7E3C58
:1047F800587F112230277F46262101F8EBE7B4C8FD
:104808007DEDF2171D04EA41DEE1100002ED100B08
:10481800AD555CF20EE502EFD6FBFAFCF700F700A7
:10482800020000000000000000EF02FFFE0FFE0D76
:104838000608F8FA0CF9FCEDF4F101FA0F0BD011A7
:10484800F705011709F1973E2609E012181AFF36F5
:104858000AEE20F815E4150CB7B63201F40A0C1666
:10486800FE18C50004FE23000AFC2DD578100500AB
:104878000017FF0724B4DF04F2FE01F8122C6B12B4
:1048880004F0EA031430F3C81BFCF5F8FD14D0D982
:10489800C70A0E06FD150E1316C413EF0EE3ED1727
:1048A800CF3481FF0F1806201700FF00FE0002FE1C
:1048B8000000E83512DA08F5FFFCEFE201F30DE03D
:1048C80000FB0EFAE010E8DC1300060DFF0000FB09
:1048D80006FEFF000005DD18E80B00FC000200F5ED
:1048E800FC07020305F801FEF9F3D00609000500EC
:1048F800F5000000010000020000FE23CFED0EE6E7
:10490800F8FAEB07E00F00F205FC000D00C31CFBF2
:10491800E9031102F5EF03100100000302FBE30FA6
:104928001100FF000107FCF9D8FF0107000503FF8C
:10493800E8F8001004FB0500FD000000000000007E
:10494800000013F8D305EC04F4F800ECD50CF3DC04
:10495800FCF2FBF5E21418F10005F80000000C0168
:10496800FD000000FDFD1C0AE0000307010000E453
:10497800FBF40400FD02F50020F801FE0316F40222
:10498800070000FF000000FF0000E71ECC0A07FE3A
:1049980009F3FA0027810800FC060307DA90090CDE
:1049A80001031213030000020001F9070000D90DEA
:1049B800FC090001FD060BE5000100F902F6FDF611
:1049C800D9EBEDF70AF707FB0040D318F4E0CDED7B
:1049D800EFCBE5F5F53407FBE0FCFEFF0016000918
:1049E8000000F600F23002160701FE00FFFDFCFF92
:1049F800FD1C010904E2F0FBF69840F311DCD3EE4C
:104A0800D72EE8FBF4B7FAEDEE0B050702E606F23F
:104A1800020901FD01020F050F00FF00FF08FD0359
:104A280000170C020424F203FA5EEAF7032A472F60
:104A38001B34211F1318FDC9EC0204F9F6FBFB0611
:104A4800F6E606FE00EB0FF4F20000000000FE00A0
:104A5800FEE7FFF8FE01020606E031FCF40ADE007C
:104A6800FBD628FA0C00047FDEFC00040105F201E5
:104A7800010CF80500FB0000FF00000000FF040027
:104A880000F4FCFF06F50CFF03E5D101080D3FF625
:104A980027F6E8FCFB0200D05F010805F9030C00CB
:104AA80006030D000FE6E2EFF100020000FF07FF2A
:104AB80006EEF601F20911FC0700000008000000EC
:104AC80008000000010000000800000008000000C5
:104AD80004000000040000000400000004000000BE
:104AE80004000000040000000800000004000000AA
:104AF800040000000C000000030000000300000098
:104B08000400000002000000020000000100000094
:104B180002000000020000000C000000010000007C
:104B28000100000005000000000000000000000077
:104B3800E53A00081D3B0008151100088712000817
:104B48000000000000000000C33E0008C53E000849
:104B58000000000000000000C13E0008D33E00082D
:104B680000000000000000006942000881420008BF
:044B7800913600086A
:040000050800019D51
:00000001FF
