:020000040800F2
:1000000000800020B901000889010008A90100084A
:10001000890100088901000889010008000000002A
:10002000000000000000000000000000890100083E
:10003000890100080000000089010008890100080A
:100040008901000889010008890100088901000868
:100050008901000889010008890100088901000858
:100060008901000889010008890100088901000848
:100070008901000889010008890100088901000838
:100080008901000889010008890100088901000828
:10009000890100088901000889010008892B0008EE
:1000A0008901000889010008890100088901000808
:1000B0000120000889010008890100088901000861
:1000C00089010008890100088901000889010008E8
:1000D00089010008890100088901000889010008D8
:1000E000B92B00088901000889010008890100086E
:1000F00089010008890100088901000889010008B8
:10010000000000000000000000000000890100085D
:100110008901000889010008890100088901000897
:100120008901000889010008890100088901000887
:10013000890100088901000800000000000000009B
:1001400089010008890100088901000800000000F9
:10015000000000000000000000000000000000009F
:10016000000000000000000089010008890100086B
:1001700089010008000000000000000000000000ED
:080180000000000089010008E5
:10018800684620F007018D46034A044900BF138DD5
:100198000B439BB21385F9E7000400480080FFFF7A
:1001A800684620F007018D4608B5FFF7E9FF000013
:1001B8001449154A1548521A921000239A4215D12B
:1001C800134A144ED2F88830134C43F47003C2F823
:1001D8008830D2F83432A41B43F04043C2F834329A
:1001E800A4100025AC4207D101F02CB950F82340E7
:1001F80041F823400133E1E756F8253098470135A7
:10020800F0E700BF0000002000000020D0390008FF
:1002180000ED00E0D0390008D8390008384AD2F893
:10022800883043F47003C2F88830364B1A6842F0BD
:1002380001021A605968344A0A405A601A6822F062
:10024800847222F480321A601A6822F480221A60BA
:100258005A6822F4FE025A60DA6A22F00F02DA6261
:10026800196B2A4A82B00A401A6300229A600092E7
:1002780001921A6842F480321A601A6802F4003255
:100288000192009A01320092019A1AB9009AB2F5C5
:10029800A04FF2D11A6812F4003218BF012201925D
:1002A800019A012A26D11A4A122111605A685A6005
:1002B8005A685A605A6842F480625A605A6822F44E
:1002C8007C125A605A6842F4E8125A601A6842F07E
:1002D80080721A601A689201FCD55A6822F00302EB
:1002E8005A605A6842F002025A605A6802F00C02D8
:1002F800082AFAD1024B4FF000629A6002B07047A8
:1003080000ED00E0001002400CC07FF8CCFC00FFBC
:1003180000200240002330B51D46846A9C4206D95D
:10032800D456002CB4BFCD54CC540133F5E730BDBE
:1003380010B5034B0360044600F0FCFD204610BDD9
:10034800E431000810B50446FFF7F2FF20462C21DF
:1003580001F07EFC204610BD30B585B0044601ADE5
:1003680085E80E0000F0F0FD23460D4A43F81C2BEB
:1003780095E8070083E8070008AA07CA231D83E851
:1003880007000BAA07CA04F1100383E80700D4E9A1
:1003980001235A43E36820465343A36205B030BDA6
:1003A800E431000810B5034B0360044600F0C2FDB9
:1003B800204610BDF831000810B50446FFF7F2FFDB
:1003C8002046382101F044FC204610BD70B5164681
:1003D80000F11C0204460D4607CA88B005AB83E845
:1003E8000700221D07CA02AB83E80700636B01936D
:1003F800236B00933146D4E90A23284600F01AFDFE
:10040800D4E901315943636A03FB0151013E0B46AC
:10041800D4E901504543E0685A1A6843904204D928
:1004280016F9012F03F8012BF2E708B070BD0000A0
:1004380030B585B0044601AD85E80E0000F084FDB6
:1004480023460E4A43F81C2B95E8070083E807006B
:1004580008AA07CA231D83E807000BAA07CA04F1E4
:10046800100383E807000E9BA3620F9BE362109BB7
:100478002363119B6363204605B030BDF831000843
:1004880010B5034B0360044600F054FD204610BD30
:100498000C32000810B50446FFF7F2FF2046282169
:1004A80001F0D6FB204610BD2DE9F04FC3698BB093
:1004B8000193023B0292032B00F23681DFE813F02E
:1004C80004005300A200EA00D0E9044E83690593B2
:1004D800630001930EFB04F3620004934FEA4E039A
:1004E80053430393A300029A02934FF0000C059B19
:1004F8009C4500F01981019B0020134488468146E1
:100508000693F14528D0069D002302EB000B05EB6E
:10051800000AA3421AD01AF913601BF913505F009E
:10052800AE42B8BF2E460BEB070526EAE67695F9EC
:1005380001505744B542B8BF354697F90160B542F6
:10054800B8BF354608F803500133E2E7029B09F1CA
:100558000109A0441844D4E7049B1944039B0CF1F7
:10056800010C1A44C3E7D0E904468369049304FBE9
:1005780006F304EB4405069306EB46036B43079327
:10058800002005EB45038A4605930746049B9F42D6
:1005980000F0CA808446D6464FF00008B0452BD0FC
:1005A800029B634400220893A2421FD0089902EBE1
:1005B80042030B44019903914FF0000993F900108D
:1005C80093F901B05945B8BF594693F902B0594556
:1005D800B8BF59468945B8BF8946039901392B44A4
:1005E8000391EBD10EF802900132DDE7059B08F18B
:1005F8000108A6449C44D1E7069B9A44079B01370F
:100608001844C3E7D0E904A9836904930AFB09F3F2
:100618004FEA8A0B07934FEA89030BFB03F308930E
:1006280000224FEA0A13884606930392DDE9031372
:10063800994279D0144645460026B14522D0029900
:100648002144002309919A4517D00999DDF804C07F
:1006580001EB83010027081D05908E461EF9010B4A
:100668008742B8BF074605988645F7D1BCF1010C0B
:100678005944F0D1EF540133E5E7069B0136554460
:100688001C44DAE7039B01330393079B9844089BB8
:100698001A44CBE7D0E904258369049302FB05F3E8
:1006A80002EB8204069305EB85036343079300205E
:1006B80004EB84038B4605930746049BBB4233D067
:1006C8008446DE464FF00008A84527D002996144C9
:1006D8000023089193421BD0089EDDF804A003EB89
:1006E8008301314403914FF000090026039989578B
:1006F80001368945B8BF8946052EF7D10399BAF165
:10070800010A21440391F0D10EF803900133E1E787
:10071800059B08F1010896449C44D5E7069B9B4439
:10072800079B01371844C8E70BB0BDE8F08F0000FD
:1007380030B585B0054601AC84E80E0000F004FC35
:100748002B460A4A43F81C2B94E8070083E8070065
:1007580008AA07CA2B1D83E807000BAA07CA05F1D8
:10076800100383E80700284605B030BD0C320008A6
:1007780010B5034B0360044600F0DCFB204610BDB7
:100788002032000810B50446FFF7F2FF2046382152
:1007980001F05EFA204610BD70B5164600F11C0245
:1007A80004460D4607CA88B005AB83E80700221D3A
:1007B80007CA02AB83E80700636B0193236B0093BE
:1007C8003146D4E90A23284600F034FB08B070BD4E
:1007D80030B585B0044601AD85E80E0000F0B4FBE5
:1007E80023460E4A43F81C2B95E8070083E80700C8
:1007F80008AA07CA231D83E807000BAA07CA04F141
:10080800100383E807000E9BA3620F9BE362109B13
:100818002363119B6363204605B030BD2032000876
:1008280010B5034B0360044600F084FB204610BD5E
:100838003432000810B50446FFF7F2FF2046402185
:1008480001F006FA204610BD2DE9F84F04460E4681
:1008580092460D464FF080094FF480686FF07E078E
:10086800A36BA5EB060B5B451BD9E26BA06A51464F
:100878000BFB020000F04CF8236B626B5843E36AF1
:1008880090FBF9F013F90B3002FB030090FBF8F032
:10089800B842B8BF38467F28A8BF7F2005F8010BAB
:1008A800DEE7BDE8F88F000030B585B0044601AD3D
:1008B80085E80E0000F048FB2346144A43F81C2B39
:1008C80095E8070083E8070008AA07CA231D83E8FC
:1008D80007000BAA07CA04F1100383E807000E9B60
:1008E800A3620F9BE362109B2363119B6363D4E9AC
:1008F80001235A43E3685343E363636902465A4357
:10090800A36920465343A36305B030BD34320008C1
:10091800002370B506461846934205D0F556CC56C6
:10092800013315FB0400F7E770BDD0E9222330B589
:100938005A43D0F890305A430023934205D0D0F858
:10094800A840CD56E5540133F7E730BD074B10B545
:1009580004460360D0F8A00008B101F083F9D4F888
:10096800A40008B101F07EF9204610BD4832000805
:1009780010B50446FFF7EAFF2046B02101F068F9F8
:10098800204610BD0A4B03600023C0E92233C0E9AA
:100998002433C0E9263300F1080200F1880142F847
:1009A800043B8A42FBD14360C0E92833704700BF4B
:1009B800483200082DE9F0410025044600F10806F8
:1009C800A8466368AB421DD900233068D4F8AC1040
:1009D80042691746026907FB02FC826902FB0CF2B6
:1009E800934203D201F803800133EEE70368D4F899
:1009F800A8209B689847D4E92A320135C4E92A23FC
:100A08000436DEE7D4E92A32C4E92A23BDE8F081B6
:100A1800D0E9253230B55343D0F8AC10D0F89C203B
:100A280091F900405A4300231846934206D0CD5608
:100A3800A542C4BF18462C460133F6E730BD70B551
:100A4800456800F1080101EB85050020A94212D094
:100A580051F8043BD3E901425443DA686243D3E9CD
:100A680004649B69744363439A4238BF1A469042B0
:100A780038BF1046EAE770BDD0F8A03070B505461B
:100A8800F3B9D0F8A440DCB9FFF7D9FF064601F066
:100A9800E1F8C5F8A000304601F0DCF8D5F8A03040
:100AA800C5F8A400C5E92A30224623469E4207D04D
:100AB800D5F8A010CA54D5F8A410CA540133F5E7E4
:100AC80070BD2DE9F04F8BB00991DDE916418E1EFE
:100AD800614304910119189D029119990596A61E62
:100AE8005918069605EBC50502F109062E4408912A
:100AF800610000920196079108998B427ED0DDF83B
:100B080024E0DDF808804FF0000CCDF80C800027B9
:100B1800009907EB0E000026019A093191423CD05A
:100B280090F900B011F909AC11F9079C079A1AFB62
:100B38000B6690F901B011F908AC1AFB0B6690F935
:100B480002B019FB0B6B11F9069C065719FB06B688
:100B580000EB040911F905BC99F901A01BFB0A6611
:100B680099F902B011F904AC11F9039C1AFB0B6A4C
:100B780010F9146011F902BC19FB06A600EB020972
:100B8800049A99F901A01BFB0A6611F901AC99F9BD
:100B980002B010441AFB0B66BEE7149A93F90010D2
:100BA8005643802296FBF2F6159A02FB01614FF438
:100BB800806291FBF2F16FF07E029142B8BF11465C
:100BC8007F29039AA8BF7F2102F8011F0392069A82
:100BD8000137BA429CD2059A0CF1010C6245A04437
:100BE800A64492D2009A04992A440092019A2A446F
:100BF8000192029A0A44013302927DE70BB0BDE8E4
:100C0800F08F2DE9F04F8FB0DDE91A452E1F0A96B7
:100C1800261F0B961C9E019219277E433A443244A4
:100C2800069200EB440207921D9A04969A180C92B9
:100C38000A19654309920C9A934200F0F880099AC0
:100C480052420592079A4FF000090132CDF80C90F4
:100C58000D920D9A4A440892099A02EB090804EB8E
:100C68000806A019002201990292A8EB040E271881
:100C7800C446069A1931914200F09E809EF900A060
:100C880011F919BC029A1BFB0A229EF901A011F95D
:100C980018BC1BFB0A229EF902A011F917BC1BFB0A
:100CA8000A229EF903A011F916BC1BFB0A229EF921
:100CB80004A011F915BC1BFB0A229CF900A011F92C
:100CC80014BC1BFB0A229CF901A011F913BC1BFBE5
:100CD8000A229CF902A011F912BC1BFB0A229CF9FA
:100CE80003A011F911BC1BFB0A229CF904A011F9FD
:100CF80010BC1BFB0A2296F900A011F90FBC1BFBC4
:100D08000A2296F901A011F90EBC1BFB0A2296F9DA
:100D180002A011F90DBC1BFB0A2296F903A011F9D8
:100D28000CBC1BFB0A2211F90BBC96F904A01BFB97
:100D38000A2211F90ABC90F900A01BFB0A2290F9BB
:100D480001A011F909BC1BFB0A2290F902A011F9B4
:100D580008BC1BFB0A2290F903A011F907BC1BFB76
:100D68000A2290F904A011F906BC1BFB0A2297F984
:100D780000A011F905BC1BFB0A2297F901A011F983
:100D880004BC1BFB0A2297F902A011F903BC1BFB48
:100D98000A2297F903A011F902BC1BFB0A2297F952
:100DA80004A011F901BC1BFB0A220292AE44AC4418
:100DB8002E4428442F445CE70299189A80204A431D
:100DC80093F9001092FBF0F2199800FB01214FF4FF
:100DD800806291FBF2F16FF07E029142B8BF11463A
:100DE8007F29089AA8BF7F2102F8011F0892059A57
:100DF8000B9908F1010842449142BFF430AF039ABD
:100E080001320392059A0399121B05920A9A8A42A3
:100E1800A144BFF41EAF019A04990A440192069AAC
:100E28000A440692079A2A440133079203E70FB04F
:100E3800BDE8F08F2DE9F04F8FB08346DDF874E000
:100E48000D91BEF1030FDDE91A461C9D1F9F59D075
:100E5800BEF1050F63D0BEF1010F5DD1514208917B
:100E680006FB04F10991D9190C91099949420B9192
:100E78000C998B4250D00021DDF834C00791DE4632
:100E880000200CEB000891460021099FB844089FF8
:100E980009EB070A554509D919F9017B0A970B9FF0
:100EA80018F907A00A9F17FB0A11EEE7189F93F994
:100EB80000807943802791FBF7F1199F07FB0818F9
:100EC8004FF4806198FBF1F86FF07E018845B8BF58
:100ED8008846B8F17F0FA8BF4FF07F080EF8008052
:100EE80001308442CDD2079901318E420791A64440
:100EF800A444C5D20899491B0891099901332A4489
:100F08008B44B5E7CDE90246199C0194189C0094DE
:100F1800CDE90457FFF7D5FD0FB0BDE8F08FCDE957
:100F28000246199C0194189C0094CDE90457FFF7D8
:100F380068FEF1E77047704710B52821044600F0B5
:100F480087FE204610BD0000064A02600022C0E964
:100F58000122C0E90322C0E90522C0E90722426252
:100F6800704700BF60320008F8B504460B4B44F8E0
:100F7800083B0026054637466B68B34208D9206807
:100F880010B103685B68984744F8047B0136F3E7BF
:100F98002846FFF7DBFC2846F8BD00BF8C37000861
:100FA80010B50446FFF7E0FF2046B02100F050FEE0
:100FB800204610BD2DE9F043804695B0FFF7E2FCCE
:100FC800804BC8F8003001220823C8E92623C8E965
:100FD80022337D4BC8E9242293E807007B4B0BACF6
:100FE80084E8070093E80700794B0EAD85E8070011
:100FF80093E8070011AE86E80700382000F020FECD
:1010080040F2F14340F2D232CDE90832714B0793F6
:10101800714B0693814696E8070003AF87E80700FF
:1010280095E807008DE80700484694E80E00FFF7AA
:10103800CFFB6A4BC8F8089093E80700684B84E830
:10104800070093E80700674B85E8070093E8070067
:1010580086E807002C2000F0F3FD814696E807009B
:1010680087E8070095E807008DE80700484694E8F8
:101078000E00FFF771F95C4BC8F80C9093E8070075
:101088005A4B84E8070093E80700594B85E80700A6
:1010980093E8070086E80700282000F0D1FD814684
:1010A80096E8070087E8070095E807008DE807003D
:1010B800484694E80E00FFF73BFB4E4BC8F81090EB
:1010C80093E807004C4B84E8070093E807004B4B74
:1010D80085E8070093E8070086E80700382000F055
:1010E800AFFD40F2837340F2C621CDE90831444B8D
:1010F8000793444B0693814696E8070087E8070064
:1011080095E807008DE80700484694E80E00FFF7C9
:101118008FF93D4BC8F8149093E807003B4B84E8DF
:10112800070093E807003A4B85E8070093E80700B3
:1011380086E807002C2000F083FD814696E807002A
:1011480087E8070095E807008DE80700484694E817
:101158000E00FFF701F92F4BC8F8189093E8070025
:101168002D4B84E8070093E807002C4B85E807001F
:1011780093E8070086E80700402000F061FD40F290
:101188000A438146A320CDE90830254B0793254B18
:10119800069396E8070087E8070095E807008DE8BA
:1011A8000700484694E80E00FFF77EFB06234046FA
:1011B800C8F81C90C8F80430FFF75EFC404615B02C
:1011C800BDE8F0838C3700083C370008303700084A
:1011D800483700086C3200087C320008483700089D
:1011E80048370008483700085437000848370008CF
:1011F800603700083C370008603700086C37000883
:1012080070320008A03200086C3700086C370008FC
:101218006C3700086C3700086C370008783700080E
:101228007432000830330008704710B54C2104466A
:1012380000F00EFD204610BD0346074A10B543F8DE
:10124800042B00F14404002203F8012BA342FBD134
:10125800C0E9111210BD00BFA437000870B50446DC
:1012680004F1380230300023C51895F90460D51808
:101278000133082B2E71F7D1083AA242A0F10800D9
:10128800F1D10D1F234B244A1C31284650F8046F16
:10129800B242B8BF3246B342A8BF33468142F5D105
:1012A800934231DAD31A07EE903A9FED1C7AF8EEA2
:1012B800E77AC7EE276A07EE902AF8EEE77A07EE94
:1012C800E67AF0EE477A231D194655F8042F07EE03
:1012D800102AB8EEC77AB0EE676A07EE266A85422A
:1012E800BDEEC67A17EE102A03F8012BEDD1606C1B
:1012F80003689B689847606CFFF75CFB606CFFF7BE
:1013080087FBA064002070BDDFED057AF0EE676A08
:10131800D9E700BF40420F00C0BDF0FF0000FE4209
:1013280000000000F0B52DED048B3A499FED3A8A94
:10133800DFED3A8A3A4D3B4C8FB007463A4800F009
:1013480093FF3A4B00930022394B3A4903A800F027
:10135800B1FD18EE106AF0EE489A314801F0ACF889
:101368000028FAD095F8B030002B44D032493846DE
:10137800FFF774FFBB6C072B07D8DFE803F0040402
:10138800393904040404DFED258AD5ED2E7A284680
:10139800B8EEE79A01F098F807EE900AB8EEE77A07
:1013A80003A8C9EE077A17EE902A79EEE77A17EEC6
:1013B800901A00F023FD07EE900AF4EEC88A37EE83
:1013C800887AF1EE10FA38EE679AC8BFDFED1B7A1B
:1013D80017EE101A2046CCBF38EE278AB0EE688A7E
:1013E80000F014FF19EE101A204600F011FFB4E7C0
:1013F800DFED138AC9E73146204600F007FF314682
:10140800204600F005FF03A800F038FD9FED028A92
:10141800A3E700BFAC37000800000000CDCCCC3EED
:10142800C800002084010020140200200000204190
:101438006666E63FCDCCCC3E380100206F12033BF8
:101448003333333F00B50848C1B000F07BF914A826
:10145800FFF7B0FD14A901A8FFF7EEFE034801F05D
:1014680005F901A8FFF75EFF00000020B00000208A
:1014780010B5054C204600F037F82046034A0449C9
:10148800BDE8104001F083B800000020640300208C
:101498009D140008704710B50821044600F0D8FBD9
:1014A800204610BD10B5034B0360044600F072FBE4
:1014B800204610BDCC37000810B50446FFF7F2FFF0
:1014C8002046102100F0C4FB204610BD10B504468C
:1014D80021B1034900F0C8FE204610BD0149F9E7D3
:1014E800E9380008EE3800081049114B03604B69D1
:1014F80043F47F034B610F4B43609A6822F04042EC
:101508009A609A6842F040429A609A88C2F30E0242
:101518009A809A8892B29A801A6822F040421A6099
:101528001A6842F080421A60704700BF00100240FB
:10153800FC38000800040048036821B19A6942F4A5
:1015480000429A6170471A8D42F400421A8570472A
:10155800D1B903689A6822F440429A609A6842F4C2
:1015680040429A609A8822F080021204120C9A80F3
:101578009A8892B29A801A6822F440421A601A68CD
:1015880042F480421A60704701290ED103689A68B4
:1015980022F440429A609A6842F440429A601A687B
:1015A80022F440421A601A68ECE7022913D1036852
:1015B8009A6822F440429A609A6842F440429A60DB
:1015C8001A6822F440421A601A681A60DA6842F40B
:1015D8008042DA607047032910D103689A6822F4C0
:1015E80040429A609A6842F440429A601A6822F42B
:1015F80040421A601A6842F40042C3E70429C2D183
:1016080003681A6822F440421A601A6842F4404299
:10161800B8E70000054A08B5536943F47F035361EE
:10162800034B03600121FFF793FF08BD0010024040
:1016380000040048D1B903689A6822F440529A60BD
:101648009A6842F440529A609A8822F04002120442
:10165800120C9A809A8892B29A801A6822F44052A0
:101668001A601A6842F480521A60704701290ED134
:1016780003689A6822F440529A609A6842F4405289
:101688009A601A6822F440521A601A68ECE7022934
:1016980013D103689A6822F440529A609A6842F417
:1016A80040529A601A6822F440521A601A681A6006
:1016B800DA6842F48052DA607047032910D103686F
:1016C8009A6822F440529A609A6842F440529A60AA
:1016D8001A6822F440521A601A6842F40052C3E7AA
:1016E8000429C2D103681A6822F440521A601A68A1
:1016F80042F44052B8E70000054A08B5536943F47C
:101708007F035361034B03600121FFF793FF08BD7B
:1017180000100240000400480A2310B54360044644
:101728000830FFF777FF04F10C00FFF7E5FFA26828
:10173800138D43F080031385E268138D43F0400353
:10174800138510BD2DE9F04105463F4C3F4FDFF8AA
:1017580050810435FEF762FD01212846FFF7ECFEB3
:10176800204601F009F92046394900F07DFD394944
:10177800204600F079FD00F05BFA3749064620461E
:1017880000F072FD3146354E204600F078FD3146B6
:10179800204600F069FD384600F0A6FB2046304997
:1017A80000F062FD20462F4900F05EFD3846C82152
:1017B80000F010FC2C492D4F204600F055FD404606
:1017C800FFF7AAFF20462A4900F04EFD4146384659
:1017D80001F054F82749204600F046FD384601F04C
:1017E80042F801462046FFF771FE314600F03CFD05
:1017F800214800F003FE2149204600F035FD20482D
:1018080001F076F91F49204600F02EFD1E4800F031
:10181800CBFC20461D4900F027FD00212846FFF794
:101828008BFE1B4800F010FF20461A4900F01CFDF3
:101838002046194900F018FD2046184900F014FD0B
:101848000020BDE8F08100BF14020020180200202B
:10185800FD370008093800081D3800080738000857
:101868003B3800084C380008633800086C0000203A
:101878005A38000869380008C80000207D38000878
:101888004C0000209438000884010020AE3800087D
:10189800B0000020C838000806380008D73800080B
:1018A8005C00002070B5044600F10C0604F1080540
:1018B80030460021FFF7BEFE28460021FFF748FE0C
:1018C80030460121FFF7B6FE28460021FFF740FE0B
:1018D80030460121FFF7AEFE28460121FFF738FE0A
:1018E8002046BDE8704000F09BB970B5044600F191
:1018F8000C0604F1080530460121FFF79BFE284637
:101908000121FFF725FE30460121FFF793FE284607
:101918000021FFF71DFE30460021FFF78BFE284609
:101928000121FFF715FE2046BDE8704000F078B9A8
:101938002DE9F843044600F108084046894604F1B9
:101948000C070121FFF704FE00213846FFF772FE5D
:10195800204600F065F90826002501213846FFF7E2
:1019680069FE204600F05CF9A3681B8A6D001B061F
:101978004FF000013846EDB248BF45F00105013E81
:10198800FFF758FE204600F04BF916F0FF06E4D1A9
:10199800B9F1000F1ED031464046FFF7D9FD204669
:1019A80000F03EF901213846FFF744FE204600F0DA
:1019B80037F900213846FFF73DFE204600F030F9A0
:1019C80001214046FFF7C4FD204600F029F92846CA
:1019D800BDE8F8830121DFE72DE9F0410825044639
:1019E8000E4600EB050804F10C0700213846FFF706
:1019F80021FE204600F014F933064CBF01210021D6
:101A08004046FFF7A5FD204600F00AF901213846B7
:101A1800FFF710FE013D204600F002F9760015F0B0
:101A2800FF05F6B2DFD129463846FFF703FE204608
:101A380000F0F6F801214046FFF78AFD204600F045
:101A4800EFF801213846FFF7F5FD204600F0E8F8E9
:101A5800A3681E8A29463846FFF7ECFDB6B2204631
:101A680000F0DEF886F08000C0F3C010BDE8F08119
:101A780038B52F4D2F4C284600F086F828462E4BB7
:101A880040F8083BFFF7C6FD05F10C00FFF734FEF0
:101A980028462A4D2A49224600F079FD284600F0BA
:101AA800D7FB2846274D2849224600F070FD2846D6
:101AB80000F018FA2846254D2549224600F067FD12
:101AC800284600F009FE2846224D2349224600F008
:101AD8005EFD284600F0D0F82846204D20492246D1
:101AE80000F055FD284600F0EFFB28461D4D1E4925
:101AF800224600F04CFD284600F094FF28461B4D76
:101B08001B49224600F043FD284600F02DFB2846DD
:101B1800184D1949224600F03AFD284600F054FDB8
:101B2800224628461549BDE8384000F030BD00BFC0
:101B38005C00002064030020CC3700081402002059
:101B4800AD14000818020020652200086C0000206F
:101B5800591F000808000020D1260008C8000020EE
:101B68006F1C00084C000020BF22000884010020E0
:101B7800F52A0008B00000201D2200089D25000855
:101B88001423436070470000014B0360704700BF97
:101B98000C39000870472DE9F0411D4603680446DA
:101BA8009B6816460F469847236839465B69204666
:101BB8009847236831465B69204698472368294639
:101BC8005A692046904723682046DB68BDE8F04103
:101BD8001847036870B504469B6816460D46984733
:101BE800236829465B6920469847236831465B6924
:101BF80020469847236820469B689847236845F005
:101C080001015B6920469847236800219B692046AB
:101C1800984723680546DB6820469847284670BDE4
:101C2800002342689A4202D900BF0133F9E770479E
:101C3800014B0248186070471C0200207003002006
:101C4800024A136818441060184670471C020020A6
:101C580070470000024A136818441060184670471D
:101C68001C0200207047704710B544210446FFF756
:101C7800EFFF204610BD00002749284B03604B6941
:101C880043F47F0330B54B61254B83619A6822F09A
:101C980040629A609A6842F040629A609A8822F498
:101CA80000521204120C9A809A8892B29A801A688A
:101CB80022F040621A601A6842F080621A604A692B
:101CC80042F47F024A61174AC261156825F003058C
:101CD8001560156845F0030515604D6945F47F05E5
:101CE8004D611568026225F00C051560156845F010
:101CF8000C0515604A6942F47F024A611A6843621A
:101D080022F003021A601A6842F003021A601A8D60
:101D180042F400521A8530BD0010024030390008E4
:101D2800000800480004004800EB8202936BD26A66
:101D38009B1A23EAE3731022C3F5805393FBF2F353
:101D48000A6802EB42021344042293FBF2F30B608D
:101D5800704738B5856A044615B1012D14D038BDD1
:101D6800082001F013FAA063092001F00FFAE063DC
:101D78000A2001F00BFAA2692064936943F4005326
:101D880093610123A362EAE7082001F0FFF9E0620A
:101D9800092001F0FBF920630A2001F0F7F9A26994
:101DA8006063138D43F4005313852046002204F129
:101DB8000801FFF7B9FF2A46211DFFF7B5FF0222E8
:101DC80004F10C01FFF7B0FFA268EF2A4FF00003FF
:101DD80004DCD12A257403DD637402E02374FBE775
:101DE80065740023A36201232375B8E7704710B513
:101DF8002C210446FFF72CFF204610BDD0ED036AC6
:101E0800D0ED017A90ED046AD0ED074AC0ED046A7E
:101E180007EE102A76EEA66A90ED065AC0ED027A11
:101E280005EE901A67EEA47A37EE667A45EE857A63
:101E38004160C26037EE067AD0ED086A80ED056A27
:101E480047EE667A90ED0A7A77EE877A90ED097A0E
:101E5800C0ED0A7AF4EEC77AF1EE10FAC8BF80ED49
:101E68000A7AD0ED0A7AB1EE477AF4EEC77AF1EE43
:101E780010FA48BF80ED0A7A806A704700234360F1
:101E88008360C360036143618362704710B507EEE6
:101E9800901A07EE102A1A46FFF7F0FF37EE877AF6
:101EA800029B80ED067AF1EE677AC0ED077A02624E
:101EB800436210BD07EE102A1A46094B036010B59D
:101EC80007EE901AFFF7DAFF37EE877A029B80ED6C
:101ED800067AF1EE677AC0ED077A0262436210BDB6
:101EE8004439000870470000F7B50022154D142743
:101EF80013464FF47A7607FB02F429190132102AA7
:101F08002B514B608E60CB600B744B74F3D10E4A2F
:101F180013600E4A0360D36943F00103D3610022C2
:101F28004FF434730093114663234FF0804000F060
:101F3800C7FF012200211C2000F0A0FF62B603B0F9
:101F4800F0BD00BF24020020200200200010024043
:101F580070470000F0B572B6114D00244FF0FF3005
:101F68004FF0140C2F460CFB04F605EB060EAE5989
:101F780026B9DEF80460002E08BF20460134102C74
:101F8800F1D1441C0AD0C4B2142565437C1900263B
:101F98007E516160A260E2602674637462B6F0BD2F
:101FA800240200200448142303FB01010023CA6013
:101FB8008A600B74704700BF2402002082B072B69A
:101FC800034B1B68019362B6019802B0704700BFCB
:101FD8002002002007B50246FFF7F0FF01440191F7
:101FE8001046FFF7EBFF019B984201D200BFF7E7CD
:101FF80003B05DF804FB0000F8B54FF080431A69A0
:10200800D20714D5194F4FF6FE721A610024142610
:102018003D4606FB0473DA6852B1DA68013ADA60C1
:102028000134102CF5D1124A136801331360F8BD3E
:102038009A68DA601A7CFF2A1FBF1A7C0132D2B272
:102048001A7406FB04F3EA18527C002AE8D1EA580D
:102058000AB1EB58984706FB04535A68002ADFD0A8
:10206800586803689B689847DAE700BF2402002095
:102078002002002038B5C368364D2DED048B43602F
:10208800036983600446284600F066FDE060284640
:1020980000F06CFD6268E3689FED2F5AD4ED056A85
:1020A800DFED2E5A9FED2E6A20619B1A07EE103A3B
:1020B800B8EEC77AA3689FED2B9A27EE057A66EEED
:1020C800A56A47EE066AC31A04F1380007EE903A8B
:1020D800F8EEE77AC4ED056AB0EE667AD4ED066AE2
:1020E80067EE857A66EEA56A47EE866AD4ED077ACA
:1020F800C4ED066A77EEC77A17EE102A17EE901A23
:10210800FFF77CFEA269D4ED087A07EE102A77EE75
:10211800C77A08EE900A17EE901A04F16400FFF7E8
:102128006DFE68EE898A2434FDEEE87A08EE100A1E
:1021380017EE901A204600F0F5FD28EE098A204691
:10214800FDEEC87ABDEC048B17EE901ABDE8384056
:1021580000F004BE4C000020CDCCCC3D6666663F46
:102168000000003E00007F4373B50E4B0025044677
:102178004FF07E5640F8243B00F034FD2B462A46AB
:102188002946009604F13800FFF794FE00962B4686
:102198002A46294604F16400FFF78CFE204602B067
:1021A80070BD00BF54390008F7B5154F154E0446E9
:1021B8004FF07E55243000F045FE00952B463A46F8
:1021C800314604F13800FFF761FE00952B463A4688
:1021D800314604F16400FFF759FE002500236361CE
:1021E800A361E3612362C4E90155C4E903552B46A1
:1021F800042221460448FFF7ADFE284603B0F0BD8F
:10220800EC51B83DCDCC4C3F18020020C16170475D
:102218000162704710B5084B044640F8643BFFF76D
:10222800E5FD04F13800FFF7E1FD04F1240000F0BA
:1022380077FD204610BD00BF5439000810B504468C
:10224800FFF7E8FF20469021FFF702FD204610BD6A
:1022580010B5044600F08EFB204610BD10B50446AC
:1022680000F0D2FB204610BD38B505464C1E14F8C8
:10227800011F19B1284600F0C9FBF8E738BD30B591
:1022880085B000230A228DF80F301546B1FBF5F40E
:1022980005FB141304A91144303301F80C3C531EF8
:1022A800DBB221462CB901AB9918FFF7DDFF05B069
:1022B80030BD1A46EAE7704710B5BC210446FFF75F
:1022C800C7FC204610BD00004A4A4B4B03605369C7
:1022D80043F47F0310B553614FF0904343609C680B
:1022E80024F440349C609C6844F440349C609C888E
:1022F80024F480742404240C9C809C88A4B29C80C0
:102308001C6824F440341C601C6844F480341C604D
:10231800546944F47F0454611C68C0F8903024F078
:1023280003041C601C6844F003041C60546944F4F2
:102338007F0454611C68C0F8943024F00C041C60BD
:102348001C6844F00C041C60546944F47F04546114
:102358001C68C0F8983024F030041C601C6844F0F5
:1023680030041C60546944F47F0454611C68C0F84C
:102378009C3024F0C0041C601C6844F0C0041C603D
:10238800546944F47F0454611C68C0F8A03024F4F4
:1023980040741C601C6844F440741C60546944F424
:1023A8007F0454611C68C0F8A43024F440641C60A5
:1023B8001C6844F440641C60546944F47F0454610C
:1023C8001C68C0F8A83024F440541C601C6844F40D
:1023D80040541C60546944F47F0454611A68C0F87E
:1023E800AC3022F440421A601A6842F440421A6043
:1023F80010BD00BF00100240683900084268F8B5F7
:10240800138D43F480731385642104462948FFF72C
:10241800E1FD00F07BFE64212648FFF7DBFD04F1B7
:10242800300637460025284600F0B0FE0135082D55
:1024380047F8040BF7D162681E48936943F4807328
:1024480093616421FFF7C6FD0025284600F09EFE33
:1024580056F8043B0135C01A082DF061F5D16FF02C
:10246800FF026FF0BF03C4E904236FF07F016FF030
:102478003F03C4E9061340208023C4E90803C026AB
:102488004FF480730025C4E90A634FF4C873A3604E
:10249800C4E91C55C4E91E55C4E92055C4E92255B0
:1024A80025732B46042221460248FFF753FD284690
:1024B800F8BD00BF18020020037B72B60BB10022E2
:1024C800027362B6184670474FF48070704700EB8D
:1024D800810030B50269056F02FB05F471B1C36E66
:1024E800C268062902FB03422B440AD8416F40699F
:1024F8000B4400FB012292FBF3F030BD62006B003D
:10250800F4E722442B44F6E7826800F170030020C8
:1025180053F8041B8A4204DB01300828F8D14FF035
:10252800FF3070472DE9F0470025044600F13006DA
:102538004FF47A79AA46284600F028FE56F8043B5C
:10254800C01A09FB00F0F26990FBF2F00135D0F5F2
:102558007A7054BFF063C6F83CA0082DEBD1204632
:10256800FFF7D2FF431C01460FD02046FFF7AFFF0D
:1025780001230746804684F8B030012384F8B1303F
:10258800C4E92D782373BDE8F0870023F3E7002022
:102598007047FEE7704710B518210446FFF758FB4F
:1025A800204610BD027B836832B1002202739A690B
:1025B80042F400429A617047012202731A8D42F474
:1025C80000421A85704700001C4A1D4B036053697E
:1025D80043F47F0310B553611A4B43609C6824F0A1
:1025E80040749C609C6844F040749C601C6824F0B3
:1025F80040741C601C681C60DC6844F08074DC60FB
:10260800546944F47F0454619A68836022F040421C
:102618009A609A6842F040429A609A88C2F30E0221
:102628009A809A8892B29A801A6822F040421A6078
:102638001A6842F080421A6010BD00BF00100240C4
:102648007C390008000400484FF0FF3310B543619F
:1026580000230446037301464FF4FA720248FFF759
:1026680079FC206110BD00BF1802002070B5044637
:1026780063681B8ADA0401D500BFF9E701236361A7
:102688006422217C0F480F4DFFF78CFC0D48FFF7A3
:1026980095FC00F5FA6663681B8ADB040FD40948C9
:1026A800FFF78CFCB042F6D96369012BF3D13222D3
:1026B800217C2846FFF776FC02236361EBE760691B
:1026C80070BD00BF18020020704710B544210446B1
:1026D800FFF7BEFA204610BD014B0360704700BFEC
:1026E800903900082DE9F0410446006C03689B68A6
:1026F80088469847206C0368D4215B699847206C0A
:10270800036819215B699847206C03689B689847A0
:10271800206C0368D5215B699847206C0368012108
:102728009B699847000207B2206C036801219B69E6
:1027380098470743206C036801219B69984700026A
:1027480006B2206C036801219B6998470643206CF8
:10275800036801219B699847000205B2206C036851
:1027680000219B6998470543206C0368DB683FB2EA
:1027780036B22DB29847B8F1000F08D0A36A3B448F
:10278800A362E36A3344E362236B2B442363A36AA3
:10279800E169226BE06AFB1AAD1A2361192293FBE7
:1027A800F2F301EB4303E361236AA561301A606128
:1027B80090FBF2F003EB40002062636A206C95FB0B
:1027C800F2F503EB4505036865629B689847206C42
:1027D8000368D4215B699847206C036829215B69E9
:1027E8009847206C03689B689847206C0368D5213C
:1027F8005B699847206C036801219B699847000230
:1028080007B2206C036801219B6998470743206C35
:10281800036801219B699847000206B2206C03688F
:1028280001219B6998470643206C036801219B6935
:102838009847000205B2206C036800219B699847FD
:102848000543206C0368DB6898473FB236B22DB267
:102858000123C4E90176E56084F83C30BDE8F081E5
:102868000021FFF73FBF406B003018BF01207047C1
:1028780011F1FF3101D300BFFAE7704738B50446BC
:10288800102208462164A823D421FFF784F90023E5
:10289800C4E90433A361C4E90A332363C4E90733F1
:1028A800636242F210712046FFF7E2FF0F22636372
:1028B800D421206CFFF78DF9682804BF01236363D6
:1028C8001022A823D421206CFFF765F938231E2293
:1028D800D421206CFFF75FF900232E22D421206C2D
:1028E800FFF759F900231222D421206CFFF753F97E
:1028F80060232022D421206CFFF74DF938231F22B2
:10290800D421206CFFF747F942F210712046FFF7F7
:10291800AFFF0021FFF7E6FE0023A3634FF47A75AB
:1029280001212046FFF7DEFE64212046FFF7A0FFC5
:10293800013DF5D14FF47A72A36A656293FBF2F315
:10294800C4E90755A362C4E90155E36AE56093FB4E
:10295800F2F32146E3620648236B93FBF2F30A2263
:1029680023632B46FFF7F6FA84F83C5038BD00BFC6
:102978001802002070470000214A2248536943F496
:102988007F0353614FF09043996821F44021996087
:10299800996841F440219960196821F4402119602F
:1029A800196841F400211960516941F47F015161AE
:1029B800996821F440119960996841F4401199602F
:1029C800196821F440111960196841F4001119605F
:1029D800596A21F0F0015962596A41F0700159624F
:1029E800596A21F470615962596A41F4E061596287
:1029F800936943F4804393614FF4E13100F0B6BA30
:102A0800001002400038014070470000044BDA69AA
:102A1800120601D400BFFAE789B21985704700BFD2
:102A2800003801402F4A536943F47F0310B55361BE
:102A38002D4B03609C6824F440549C609C6844F4CB
:102A480040549C601C6824F440541C601C681C6042
:102A5800DC6844F48054DC60546944F47F045461B5
:102A68009C68436024F440449C609C6844F440445F
:102A78009C601C6824F440441C601C681C60DC6872
:102A880044F48044DC60546944F47F0454619C68D5
:102A9800836024F040749C609C6844F040749C609F
:102AA8001C6824F040741C601C681C60DC6844F0DE
:102AB8008074DC60546944F47F0454619A68C3608C
:102AC80022F440029A609A6842F440029A601A68B6
:102AD80022F440021A601A681A60DA6842F4800226
:102AE800DA6010BD0010024000080048704700007E
:102AF800164B174A10B500241C60164B1C609369CE
:102B080043F0010393610621022000F04DFA0C21E5
:102B1800022000F049FA0821062000F05AFA08219C
:102B28000C2000F056FA22462146172000F0A6F99C
:102B380022462146282000F0A1F9062000F028FAB4
:102B48000C20BDE8104000F023BA00BF6803002045
:102B5800001002406C030020034B186858234343BD
:102B68005A2093FBF0F0704768030020034B186865
:102B7800582343435A2093FBF0F070476C0300201E
:102B8800094B1B8A13F0C0030BD0C02B0CBF0121CB
:102B98004FF0FF31054A136806200B44136000F01C
:102BA800F7B90121F6E700BF0008004868030020D4
:102BB8000A4B1B8A13F4C0530CD0B3F5C05F0CBF8B
:102BC8004FF0FF310121064A13680C200B441360B3
:102BD80000F0DEB94FF0FF31F5E700BF000800480C
:102BE8006C0300204C494B6943F47F0330B54B61BB
:102BF8004A4B03609A6822F440729A609A6842F4D9
:102C080040729A609A8822F010021204120C9A807C
:102C18009A8892B29A801A6822F440721A601A68E6
:102C280042F480721A604A6942F47F024A619A68E3
:102C3800436022F440629A609A6842F440629A6063
:102C48009A8822F020021204120C9A809A8892B272
:102C58009A801A6822F440621A601A6842F4806204
:102C68001A604A6942F47F024A614FF090428260DA
:102C7800956825F040459560956845F04045956014
:102C88009588C5F30E0595809588ADB29580156831
:102C980025F040451560156845F0804515604A697E
:102CA80042F47F024A619A68C36022F040629A60E7
:102CB8009A6842F040629A609A8822F4005212049C
:102CC800120C9A809A8892B29A801A6822F040620E
:102CD8001A601A6842F080621A604A6942F47F02F8
:102CE8004A619A68036122F040529A609A6842F0F9
:102CF80040529A609A8822F480421204120C9A80F8
:102D08009A8892B29A801A6822F040521A601A6819
:102D180042F080521A6030BD0010024000040048A2
:102D28007047000083680029B7BF1A8D9A69494225
:102D380042F40042AABF42F400421A859A61FF2970
:102D48000B46A8BFFF2341F2BE215943FF23B1FB25
:102D5800F3F1014B99637047002C01404368002947
:102D6800B7BF9A691A8D494242F02002AABF42F0C1
:102D780020029A611A85FF290B46A8BFFF2341F25A
:102D8800BE215943FF23B1FBF3F1014B596370474F
:102D9800002C0140C268936823F0406393609368F5
:102DA80043F040639360136823F040631360136833
:102DB80043F0006313600369996821F040519960FA
:102DC800996841F040519960196821F040511960A3
:102DD800196841F000511960516A21F4700151627B
:102DE800516A41F4C00151625A6A22F070625A6213
:102DF8005A6A42F0C0625A62104A936943F4006307
:102E080093610F4B002241F2BF211A80D962012140
:102E18001A851A8659615A639A634FF480725A6008
:102E280047F270029A6177221A621A880A431A8056
:102E38005A6C42F400425A64704700BF00100240C6
:102E4800002C014001680A8D42F010020A85416891
:102E58000A8D42F020020A8581680A8D42F40042F8
:102E68000A85C1680A8D42F400520A850269138DE9
:102E780043F480431385FFF78DBF000010B50E4B58
:102E8800DB68DB43C3F30224C4F10403DBB29940DB
:102E98000F2323411340094A0B431B01111803F068
:102EA800F00381F800334109012300F01F0003FA01
:102EB80000F042F8210010BD00ED00E000E100E064
:102EC80030B50588ACB2274DA84212D005F500658B
:102ED800A8420ED0B0F1804F0BD0A5F59835A84286
:102EE80007D005F58065A84203D005F5A435A842AA
:102EF80003D124F070040C43A4B21B49884208D0C3
:102F080001F5806188421FBF24F44074A4B21443C1
:102F1800A4B20480C362BDF80C300385114B9842FB
:102F280013D003F5006398420FD003F5406398422D
:102F38000BD003F58063984207D003F5806398426D
:102F480003D003F50063984201D1002303860123CF
:102F58004361038843F001030380C36843F001031E
:102F6800C36030BD002C01400010004000230C223B
:102F7800436002608360054BB3FBF1F189B2818144
:102F8800036843F001030360704700BF00A24A04CE
:102F980020F01F02012300F01F0003FA00F0014B8C
:102FA800D05070471404014001F0030301F0FC0104
:102FB80001F1804101F5803110B58A689B000F242A
:102FC8009C4022EA04028A608A689840104388601C
:102FD80010BD20F01F0303F1804303F58233012263
:102FE80000F01F0030B502FA00F01C68C24314401C
:102FF8001C605D6815405D601D6805431D609D6827
:1030080015409D60DD6803F140442A401029A4F56D
:103018008234DA6006D19A6802439A60DA6810430B
:10302800D86030BD01F1804101F582310B59184358
:103038000851F6E7030F064BDA6A14BF22F47852F8
:1030480022F4F872DA62DA6A1043D862704700BF75
:1030580000100240042A30B51CD802EB4202046B6F
:1030680052001F25954024EA050401FA02F2224382
:103078000263092939D90A398269826901EB410158
:1030880007248C4022EA0402826182698B40134340
:10309800836130BD092A0CD80624053A6243456B82
:1030A8001F24944025EA040401FA02F222434263F1
:1030B800DFE70E2A4FF006040BD80A3A6243856B05
:1030C8001F24944025EA040401FA02F22243826391
:1030D800CFE70F3A6243C56B1F24944025EA0404E6
:1030E80001FA02F22243C263C3E701394269426925
:1030F80001EB410138248C4022EA04024261426912
:10310800033103FA01F111434161C2E770B54FF48D
:103118008870FFF78FFF194919484B69194D1A4CE8
:1031280043F080534B61FFF785FF4B694FF0A04692
:1031380043F000534B6101220023F3601146EB601A
:103148003046E3600223FFF785FF01221146022380
:103158002846FFF77FFF022301220C212046FFF7B4
:1031680079FFB36843F00103B360AB6843F0010330
:10317800AB60A36843F00103A36070BD0010024078
:1031880000220010000100500004005001380928F6
:1031980098BF0E4B10B59BBF53F820400C4B4FF017
:1031A800A044195C4FF001031A4688BF012120464C
:1031B800FFF750FFA36843F00403A36023685B078D
:1031C80001D400BFFAE7206C10BD00BF9C3900088D
:1031D800C43900080000000000000000390300089E
:1031E8004D0300081D030008000000000000000057
:1031F800AD030008C1030008D50300080000000063
:1032080000000000890400089D040008B1040008BB
:103218000000000000000000790700088D07000882
:10322800A1070008000000000000000029080008AD
:103238003D080008510800080000000000000000D8
:10324800550900087909000833090008810A0008AF
:1032580000000000000000003D0F0008410F0008BA
:103268003F0F0008FEF681B781F0AEB663674451A0
:103278006F7F3A4101FF0101FF01FFFF01FFFF01DD
:10328800FFFF01012AC728F1F612351F23543BD846
:10329800FE3AD9F77F02406A0000000000000000F3
:1032A8000000000000000000FFDF03FE06C1F3FA83
:1032B800FF03E50C05E70211200A051102FD060BC4
:1032C80007F8172204250D07E341FBF716E60A0065
:1032D800FCFA1406F508F605FCFCFDD5EBFB27ED1A
:1032E800F80A050000170CE618141205EA1C0E105F
:1032F80001F60C19E9FB1800EDFE06FB0102F307C5
:10330800D2013BC5FF0003F50681E4070100050073
:10331800E70FD1B8FF10000109E90BCFF812E90D4A
:10332800EAF30A170E01EE04FFFF0101FFFFFFFF9A
:1033380001FFFFFF01FFFFFFFF0101FFFFFFFFFF8D
:10334800FFFFFFFFFF01FFFFFF01010101FFFFFF7B
:10335800FFFFFFFFFF01FFFF01FFFF01FFFFFFFF6F
:10336800FFFFFFFFFFFFFFFFFF01FFFF0101FF015D
:10337800FF01FF0101FF01010101FFFF01FFFFFF45
:1033880001FFFFFF01FFFFFF010101010101010131
:103398000101FF010101FFFF01FFFF010101FF0121
:1033A80001FFFF0101FFFFFF01010101FFFFFF0115
:1033B80001FFFFFF01FFFFFFFFFFFF01FF01FFFF0D
:1033C800FF01FFFF0101FFFFFFFFFF0101FFFFFFFB
:1033D80001FFFFFFFF0101FF01010101FF01FFFFE5
:1033E8000101FFFFFFFFFFFFFF01FFFFFF0101FFDB
:1033F800FF010101FF01FFFFFF01FFFF0101FFFFC7
:103408000101FFFFFF01FFFF0101FFFF0101FFFFB6
:103418000101FFFF0101FFFF01FFFFFF01FFFF01A6
:1034280001FFFFFF01FFFFFF04FE0000040CFE0583
:10343800000AFE02FD42030900FEFF010318FF0215
:10344800FE18030201DFF7FAFF00FC030404000082
:1034580003040000001F2DFB040401FCFCE7ED023F
:1034680004EEEF01FF35FEFF0508FD010205FEFF32
:10347800FD0507FFF60205060900F5F9FF0AF9FC44
:10348800F610FD00F327F90004FEFEFD0204FEFE1F
:10349800FB0200FFFC00FFFFFE000000000000FF31
:1034A800010200FF0001000002FF01FE0000FE0211
:1034B800FFF9FE0600DFFE04FB000301030217FE0E
:1034C80003000DFFFFFF1001FBFFFC0503040000D4
:1034D800FD030000FCF2DDFB02020401000F2604DC
:1034E800FDFE220201E2EC01FC0404FC000104FBE5
:1034F800FF0304F7FE0509FCFC02FEFDFCFF01FCCE
:10350800FEFF0AFF00DD0EFDFC0301FEFD0001FECB
:10351800FE0002FFFF0000000102FEFF0002FF00A4
:10352800FF000000FE00000002FB03FC050503FC91
:1035380000FD07FDFEFAFDFA00FF0305FBFDF9F7A4
:103548000401F9F2000609F3FCFE00FC000008FF84
:103558000400040001031308FB0000FDFE02F9EE5D
:10356800FB05FEE3FB02400DF7FB0A08FBFF0CFF1F
:103578000003020504FF0900F4FA0EFDF6F90EF83F
:10358800FBFC0FFA020408F6FDFCFFFFFDFD00FE40
:10359800FEFE00FFFFFE00FFFFFF0400FF0003FE2A
:1035A800FF0002FF000000000203020100000F00FC
:1035B8000109F2EE0000E5E502FCFD0203FFF70653
:1035C800FF00FA0C05070045000003FE0000FF029B
:1035D800020000FA0300F5F2FC01FD000100FE20E4
:1035E8000001FF26FCFFE8EFFC00FE03FF00030AD2
:1035F800F501020601040604FCFAF80DF2F5F513CC
:10360800F6FB040DF9F704FD0000FF00FCFFFE03C4
:10361800FBFF0200FC0000FF00FF000000FE0001AD
:10362800FF000200FF0002FA01FF020203F8FA0598
:1036380002071C22FBFDF77C0100FF0302FDFC11C1
:1036480002FCFEFF000301EA040104000300FC027F
:10365800FCFFFE01FFFEF1C9FB00FE04FEFEFFF7C2
:103668000100FDFC0500F61E030308070302010321
:10367800F6F70107F2F8FC030B0704010305020A39
:10368800E7F3F208F900FCFE040301020403010059
:10369800F8FC0106F50000FD010000000100000033
:1036A800FFFF0103FE000100FF00FCFFFCFEF9FB29
:1036B800FCF8FAE6FDFF0C810302FDFCFF0000F5B3
:1036C80003FEFFFF00FFFFEE02FDFD0301FEFF000A
:1036D80005FEFF0701FBF757FE0302FCFCFCFAF1AD
:1036E800FBFEFCF0FBFA00E2020003070001050400
:1036F800FF070006FDFD0009F9FC010500070805A4
:10370800000D0614F602EC26FEFF0001000000037F
:1037180000010004F4FE00120000FF010000FF0198
:103728000101FF00FE010009080000000800000078
:103738000100000003000000030000000400000076
:10374800080000000800000004000000020000005B
:103758000200000001000000040000000400000056
:10376800040000000400000004000000080000003D
:103778000100000001000000080000000000000037
:1037880000000000710F0008A90F000833090008A5
:10379800810A000800000000000000003112000843
:1037A800331200080A746573745F6C696E655F662E
:1037B8006F6C6C6F7765720A0000000000000000F3
:1037C80000000000AD140008C1140008F318000838
:1037D800AD18000821170008E11900083919000878
:1037E800096573745F696D755F73656E736F720ACF
:1037F80000203A20000A0A0A23232323230A0A0A5C
:10380800007465726D696E616C20696E69742064FC
:103818006F6E650A006D656D20696E697420646F4E
:103828006E652C2068656170207374617274206104
:1038380074200074696D657220696E697420646F04
:103848006E650A0064656C617920323030206D73D2
:10385800200069326320696E697420646F6E650A9E
:1038680000696D7520696E697420646F6E652077D4
:1038780069746820006C696E652073656E736F7279
:1038880020696E697420646F6E650A00656E636FE7
:103898006465722073656E736F7220696E69742037
:1038A800646F6E650A006D6F746F7220636F6E745B
:1038B800726F6C6C20696E697420646F6E650A00A3
:1038C8006B657920696E697420646F6E650A007390
:1038D800797374656D20696E697420646F6E650A0A
:1038E80000747275650066616C7365000000000005
:1038F800000000009D1400089F140008000000004C
:103908000000000000000000000000009B250008E7
:103918009B250008891B00089B2500089B2500089B
:1039280000000000000000006F1C0008711C000867
:103938005B1D00080000000000000000F51D0008E5
:10394800F71D000800000000000000001D2200080C
:10395800452200087D20000800000000000000004B
:10396800BF220008C12200082D2500080000000021
:10397800000000009D2500089F250008AD250008CF
:103988000000000000000000D1260008D32600082F
:103998006928000800000050000000500000005096
:1039A80000010050000100500001005000010050CB
:1039B80000040050000400500000005002030401FD
:0839C8000203040C01060000DB
:0839D00079140008791A0008BF
:04000005080001B935
:00000001FF
