:020000040800F2
:10000000008000209D01000889010008930100087C
:10001000890100088901000889010008000000002A
:10002000000000000000000000000000890100083E
:10003000890100080000000089010008890100080A
:100040008901000889010008890100088901000868
:100050008901000889010008890100088901000858
:100060008901000889010008890100088901000848
:100070008901000889010008890100088901000838
:100080008901000889010008890100088901000828
:10009000890100088901000889010008C5270008B6
:1000A0008901000889010008890100088901000808
:1000B000BD2E000889010008890100088901000897
:1000C00089010008890100088901000889010008E8
:1000D00089010008890100088901000889010008D8
:1000E000F527000889010008890100088901000836
:1000F00089010008890100088901000889010008B8
:10010000000000000000000000000000890100085D
:100110008901000889010008890100088901000897
:100120008901000889010008890100088901000887
:10013000890100088901000800000000000000009B
:1001400089010008890100088901000800000000F9
:10015000000000000000000000000000000000009F
:10016000000000000000000089010008890100086B
:1001700089010008000000000000000000000000ED
:080180000000000089010008E5
:10018800684620F007018D46FEE7684620F0070123
:100198008D46FEE71549164A1648521A9210002352
:1001A8009A4217D1144A154ED2F88830144C43F4A9
:1001B8007003C2F88830D2F83432A41B43F04043AD
:1001C800C2F83432A4100025A54209D100F01AF86B
:1001D80001F0C8B950F8234041F823400133DFE764
:1001E80056F8253098470135EEE700BF000000209B
:1001F80000000020CC49000800ED00E0CC490008D0
:10020800D0490008394AD2F8883043F47003C2F85C
:100218008830374B1A6842F001021A605968354A2B
:100228000A405A601A6822F0847222F480321A60F6
:100238001A6822F480221A605A6822F4FE025A6070
:10024800DA6A22F00F02DA62196B2B4A82B00A408E
:100258001A6300229A60009201921A6842F480326E
:100268001A601A6802F400320192009A0132009270
:10027800019A1AB9009AB2F5A06FF2D11A6812F46D
:10028800003218BF01220192019A012A05D0174BAA
:100298004FF000629A6002B07047184A122111604C
:1002A8005A685A605A685A605A6842F480625A60BA
:1002B8005A6822F47C125A605A6842F4E8125A606A
:1002C8001A6842F080721A601A689201FCD55A685E
:1002D80022F003025A605A6842F002025A605A68D1
:1002E80002F00C02082AFAD1D1E700BF00ED00E0C5
:1002F800001002400CC07FF8CCFC00FF0020024038
:100308000E4BDB68DB4310B5C3F30224C4F10403CE
:10031800DBB299400F2323411340094A0B431B01C9
:10032800111803F0F00381F800334109012300F0AC
:100338001F0003FA00F042F8210010BD00ED00E0B4
:1003480000E100E030B50588ACB2244DA8420ED0DB
:1003580005F50065A8420AD0B0F1804F07D0A5F591
:100368009835A84203D005F58065A84203D124F04A
:1003780070040C43A4B21A49884208D001F5806180
:1003880088421FBF24F44074A4B21443A4B204806A
:10039800C362BDF80C300385104B98420FD003F5AB
:1003A800006398420BD003F54063984207D003F5E9
:1003B8008063984203D003F58063984201D10023FB
:1003C80003860123436103889BB243F00103038042
:1003D800C36843F00103C36030BD00BF002C014077
:1003E8000010004020F01F02012300F01F0003FA54
:1003F80000F0014BD05070471404014001F0030392
:1004080001F0FC0101F1804101F5803110B58A68E5
:100418009B000F249C4022EA04028A608A68984064
:100428001043886010BD20F01F0303F1804303F5DB
:100438008233012200F01F0030B502FA00F01C6878
:10044800C24314401C605D6815405D601D6805432B
:100458001D609D6815409D60DD6803F140442A4099
:100468001029A4F58234DA6006D19A6802439A60AA
:10047800DA681043D86030BD01F1804101F582315E
:100488000B591843085130BD7047704710B50C21FF
:10049800044600F0E3FF204610BD10B524210446B1
:1004A80000F0DCFF204610BD2DE9F0430646294B3D
:1004B80046F8043B8DB0044600254FF07E532A468B
:1004C8002946009304F130092B46304600F0F2FF2C
:1004D80004F1E008484603F08BFA404603F0C0F9FF
:1004E80004F5987003F0CCF804F5C87003F0EAFD41
:1004F80004F5FA77184BC4F8E831C4F8EC51C4F89D
:10050800F051384601F054F8144B00932A4630460F
:10051800134B144900F0B7FF134BC4F8F0314946A8
:100528004046C4F8EC5103F0C5F901220F4B039380
:100538000592002306923846C82203A9049307931C
:10054800089309930A930B9301F048F820460DB0DD
:10055800BDE8F083C8420008B84200080000204106
:100568006666E63FCDCCCC3E6F12033BA84200083E
:1005780010B504462DED048B304802F0FDF83049E3
:1005880002460A2304F1E00003F0A4F9D4F8283164
:100598009FED2C7ADFED2C7A2C48022B2B4B93F80D
:1005A800C120D3ED328A18BFF0EE477A032A284AD1
:1005B800127C08BFF0EE477A002A18BFF0EE477A9F
:1005C80094ED7B7AF4EEC77AF1EE10FAC4BFD4ED5D
:1005D8007C7A77EE877AF8EEE88AC4ED7B7A94ED38
:1005E8007B9A01F0C7FD07EE900AF8EEE77A201D26
:1005F80088EEA78ADFED177A77EEC87A18EE102A08
:1006080017EE901A00F062FF07EE900A79EE678AFB
:1006180077EE897A104817EE901A02F0CDF918EEA5
:10062800901A0D4802F0CAF918EE101ABDEC048BA6
:1006380004F59870BDE8104003F038B8F8010020C0
:10064800F4020020CDCCCC3ECDCC4C3F780200202B
:10065800580100200000000070030020F8B51C4D70
:100668002DED048B9FED1B9A06460C4664B3284675
:1006780001F078FD0028F9D0D5ED327A2846F8EE59
:10068800E78A01F077FD07EE900AF8EEE77A301D69
:1006980088EEA78A013C79EE487A18EE102A17EE00
:1006A800901A00F013FF014607460B4802F084F940
:1006B80087F00041084802F081F918EE101A06F593
:1006C800987002F0F3FFD1E7BDEC048BF8BD00BFD2
:1006D80078020020000000007003002010B50E4CC6
:1006E8000D4801F03FFD0028FAD000210B4802F028
:1006F80065F90B49094802F05FF9D4F8D030032BAB
:10070800EED80021054802F057F900210348BDE85A
:10071800104002F053B900BF780200207003002097
:10072800CDCCCC3E2DE9F0412DED028BDFF8B08029
:10073800284D04460026404602F0ECFA28B1264926
:1007480004F5FA7000F05AFFC8BB284601F00AFD0C
:100758000028F0D095F8C03063B195F8C130032B6C
:10076800204604D1FFF7BAFFC4F8EC61E3E7FFF7CE
:10077800FFFEE0E704F59877384602F099FF38461F
:1007880002F0CEFF0021154802F016F900211348A7
:1007980002F014F9D5ED327AC4F8EC612846B8EEC7
:1007A800E78A01F0E7FC07EE900AF8EEE77A201DE9
:1007B80088EE277A17EE101A00F0C8FEBBE720462D
:1007C8003221FFF74BFF012104F5C87003F0C2FC8A
:1007D800D8E700BF780200205C01002070030020E9
:1007E800580100200E4B10B50446036000F5FA705E
:1007F80000F0D6FE04F5C87003F096FC04F5987076
:1008080003F010F804F1E00003F022F804F13000DE
:1008180003F0C8F8201D00F02EFE204610BD00BFD2
:10082800C842000810B50446FFF7DCFF20464FF425
:100838000A7100F013FE204610BD7047704714235C
:10084800436070470020704700207047704710B51C
:100858000821044600F002FE204610BD014B03604B
:10086800704700BFD84200082DE9F0411D460368D3
:1008780004469B6816460F469847236839465B69C5
:1008880020469847236831465B6920469847236885
:1008980029465A692046904723682046DB68BDE808
:1008A800F0411847036870B504469B6816460D4624
:1008B8009847236829465B6920469847236831464C
:1008C8005B6920469847236820469B6898472368B9
:1008D80045F001015B6920469847236800219B6920
:1008E8002046984723680546DB68204698472846EF
:1008F80070BD42680023934202D000BF0133FAE77B
:100908007047000010B5034B0360044600F024FD57
:10091800204610BDFC42000810B50446FFF7F2FF60
:100928002046402100F09AFD204610BD2DE9F84FE1
:1009380004460E4692460D464FF080094FF48068F3
:100948006FF07E07A36BA5EB060B5B451BD9E26B2B
:10095800A06A51460BFB020000F0C8FC236B626BD7
:100968005843E36A90FBF9F013F90B3002FB0300DC
:1009780090FBF8F0B842B8BF38467F28A8BF7F2060
:1009880005F8010BDEE7BDE8F88F000030B585B04B
:10099800044601AD85E80E0000F0E8FC2346144A41
:1009A80043F81C2B95E8070083E8070008AA07CA44
:1009B800231D83E807000BAA07CA04F1100383E884
:1009C80007000E9BA3620F9BE362109B2363119B9E
:1009D80063636268A3685A43E3685343E3636369E4
:1009E80002465A43A36920465343A36305B030BD6A
:1009F800FC42000870B5013A0B460025866A5C1A6D
:100A0800A64207D912F9014F002CB4BF1D701C7003
:100A18000133F3E770BD000010B5034B03600446D3
:100A280000F09AFC204610BD1043000810B504469B
:100A3800FFF7F2FF20462C2100F010FD204610BDE4
:100A480030B585B0044601AD85E80E0000F08EFC97
:100A580023460D4A43F81C2B95E8070083E8070056
:100A680008AA07CA231D83E807000BAA07CA04F1CE
:100A7800100383E80700A36862685A43E3682046C6
:100A88005343A36205B030BD104300082DE9F04F71
:100A98008DB0189C0A91199909908D1E6143039194
:100AA8001B991A980595591800EBC0000791610029
:100AB80004910146A51E0931069502900192A446AB
:100AC8000B9107998B427BD00B99019A0025114411
:100AD8000891A846099905EB0C0E8E4400270A993F
:100AE8007819084401990026089A093191423CD0A6
:100AF80090F900B011F909AC11F9079C049A1AFB96
:100B08000B6690F901B011F908AC1AFB0B6690F965
:100B180002B019FB0B6B11F9069C065719FB06B6B8
:100B280000EB040911F905BC99F901A01BFB0A6641
:100B380099F902B011F904AC11F9039C1AFB0B6A7C
:100B480010F9146011F902BC19FB06A600EB0209A2
:100B5800039A99F901A01BFB0A6611F901AC99F9EE
:100B680002B010441AFB0B66BEE7169A93F9001000
:100B78005643802296FBF2F6179A02FB01614FF466
:100B8800806291FBF2F16FF07E029142B8BF11468C
:100B9800069A7F2907F10107A8BF7F21BA420EF8FC
:100BA800011F9CD2059A08F101084245254491D2BB
:100BB800029A01991144039A01910133944480E700
:100BC8000DB0BDE8F08F2DE9F04F93B019251F9CAB
:100BD8000F90201F09901E980092219A04389A18A5
:100BE8000A9020980D921E9A6843059092001E98CC
:100BF8000B92059A44432A444000089004901192AD
:100C08000D9A934200F00581119A009802440E92C1
:100C18004FF00009089A0292CDF80C900B9A0298AE
:100C28004A440C921E9A4A4406921E9A024407921B
:100C3800049A4A4400251092069A009805EB020C83
:100C4800029A05EB020E079AAF180C9A05EB0908F1
:100C5800AE18002288448C448E440F440E440192FE
:100C68000E9A1930904200F09E8098F900A010F971
:100C780019BC019A1BFB0A2298F901A010F918BCAB
:100C88001BFB0A2298F902A010F917BC1BFB0A22C9
:100C980098F903A010F916BC1BFB0A2298F904A0C6
:100CA80010F915BC1BFB0A229CF900A010F914BC12
:100CB8001BFB0A229CF901A010F913BC1BFB0A229A
:100CC8009CF902A010F912BC1BFB0A229CF903A094
:100CD80010F911BC1BFB0A229CF904A010F910BCE6
:100CE8001BFB0A229EF900A010F90FBC1BFB0A226D
:100CF8009EF901A010F90EBC1BFB0A229EF902A066
:100D080010F90DBC1BFB0A229EF903A010F90CBCBC
:100D18001BFB0A2210F90BBC9EF904A01BFB0A223C
:100D280010F90ABC97F900A01BFB0A2297F901A049
:100D380010F909BC1BFB0A2297F902A010F908BC9C
:100D48001BFB0A2297F903A010F907BC1BFB0A2218
:100D580097F904A010F906BC1BFB0A2296F900A01B
:100D680010F905BC1BFB0A2296F901A010F904BC76
:100D78001BFB0A2296F902A010F903BC1BFB0A22EE
:100D880096F903A010F902BC1BFB0A2296F904A0ED
:100D980010F901BC1BFB0A220192A044A444A644FA
:100DA800274426445CE701981C9A8026424393F91D
:100DB800000092FBF6F21D9E06FB00224FF48060B5
:100DC80092FBF0F26FF07E008242B8BF02461098A4
:100DD8000F9E28447F2A3044A8BF7F2282700A9A37
:100DE8000135AA42BFF428AF039ADDF81890013202
:100DF8000392079A02920398099A8242BFF40EAFAF
:100E0800049A059822440492009A024401330092FD
:100E1800F6E613B0BDE8F08F2DE9F04F8DB0174618
:100E2800DDF86CC00990BCF1030F0A91189CDDF83D
:100E380064E01A9D1D9E56D0BCF1050F61D0BCF12F
:100E4800010F5BD10EFB04F2991907920697C7F1BF
:100E5800000C08914FF0000B08998B424ED00020EF
:100E68008046099F0BEB0001791800260B910A991F
:100E7800DDF8189087190F4400210CEB090A554535
:100E880008D919F9012B97F900A012FB0A11079A42
:100E98001744F2E7169A93F900705143802291FBA8
:100EA800F2F1179A02FB07174FF4806297FBF2F7EB
:100EB8006FF07E029742B8BF17467F2F0B9AA8BFE4
:100EC8007F2797550136B442D1D208F10108C645AB
:100ED8002044C6D2079A9344069A2A4401330692BC
:100EE800ACEB050CB8E70294179C0194169C059688
:100EF8000495CDF80CE00094FFF7C8FD0DB0BDE8EF
:100F0800F08F0294179C0194169C05960495CDF8D1
:100F18000CE00094FFF757FEF0E7000010B5034B14
:100F28000360044600F018FA204610BD2443000868
:100F380010B50446FFF7F2FF2046382100F08EFA7C
:100F4800204610BD70B5154600F11C0204460E4639
:100F580007CA88B005AB83E80700221D07CA02ABA1
:100F680083E80700636B0193236B00932946E36AC8
:100F7800A26A3046FFF750FF6368A1685943636A65
:100F880003FB01612B46A26860685043E268424354
:100F9800581B824204D913F9012B01F8012BF2E7FF
:100FA80008B070BD30B585B0044601AD85E80E00C7
:100FB80000F0DCF923460E4A43F81C2B95E807009D
:100FC80083E8070008AA07CA231D83E807000BAABD
:100FD80007CA04F1100383E807000E9BA3620F9B66
:100FE800E362109B2363119B6363204605B030BD09
:100FF8002443000810B5034B0360044600F0ACF925
:10100800204610BD3843000810B50446FFF7F2FF2C
:101018002046282100F022FA204610BD82B02DE992
:10102800F04F87B04FEA420E009110A981E80C00FA
:10103800DDF844C0129B01934FEA4C030EFB03F307
:10104800029300250CFB02F303932F46019B9F425A
:1010580039D080462E464FF0000AE2452DD000993F
:10106800009B0EEB060949449C1905910023934205
:1010780004F102041BD014F902BC14F9011C8B45BD
:10108800B8BF8B46A11B49442BEAEB7B11F9011C25
:101098005945B8BF59460491059911F913B00499F7
:1010A8005945B8BF594608F803100133DFE70AF17C
:1010B800010A0EEB09069044CFE7029B1D44039BEF
:1010C80001371844C2E707B0BDE8F04F02B07047D7
:1010D80007B50346084611469A69009210330CCBAF
:1010E800FFF79CFF03B05DF804FB000030B585B046
:1010F800054601AC84E80E0000F038F92B460A4A90
:1011080043F81C2B94E8070083E8070008AA07CADD
:101118002B1D83E807000BAA07CA05F1100383E813
:101128000700284605B030BD38430008D0F88C3099
:10113800D0F8882030B55A43D0F890305A4300236D
:10114800934205D0D0F8A840CD56E5540133F7E7CF
:1011580030BD0000074B10B504460360D0F8A0006E
:1011680008B100F085F9D4F8A40008B100F080F9BE
:10117800204610BD4C43000810B50446FFF7EAFFAF
:101188002046B02100F06AF9204610BD0E4B0360DE
:101198000023C0F88830C0F88C30C0F89030C0F810
:1011A8009430C0F89830C0F89C3000F1080200F183
:1011B800880142F8043B8A42FBD14360C0F8A03062
:1011C800C0F8A430704700BF4C430008F8B50025AC
:1011D800044600F108062F4663689D421FD200238B
:1011E800306842690169514382694A43934204D293
:1011F800D4F8AC20D7540133F2E70368D4F8A82018
:101208009B68D4F8AC109847D4F8A830D4F8AC2030
:10121800C4F8A820C4F8AC3001350436DCE7D4F8AB
:10122800A830D4F8AC20C4F8A820C4F8AC30F8BD75
:1012380030B5D0F89820D0F89430D0F8AC4053436B
:10124800D0F89C2094F900105A4300231846934282
:1012580006D0E556A942BCBF184629460133F6E731
:1012680030BD70B54468023400F1080500EB840411
:101278000020A54212D055F8043B9A6859681E69A7
:101288005143DA684A4359699B6971434B439A420F
:1012980038BF1A46904238BF1046EAE770BDD0F80A
:1012A800A03070B5054603BBD0F8A440ECB9FFF7F1
:1012B800D8FF064600F0D4F8C5F8A000304600F084
:1012C800CFF8D5F8A030C5F8A830C5F8A400C5F8FF
:1012D800AC00234622469E4207D0D5F8A010CA5437
:1012E800D5F8A410CA540133F5E770BDF0B5002352
:1012F80005460C461646032E05F1040504F10404C0
:1013080019D915F9047C14F904EC17FB0E3314F9F8
:1013180003EC15F9037C17FB0E3715F9023C14F999
:1013280002EC13FB0E7715F901EC14F9013C043EAD
:101338001EFB0373DFE702F0030422F003021044EC
:101348000A443CB110F9015B12F9011B013C15FB81
:101358000133F6E71846F0BD7047704710B52821ED
:10136800044600F07BF8204610BD0000064A0260E3
:10137800002242608260C260026142618261C26191
:1013880002624262704700BF6443000810B5034B15
:1013980003600446FFF7E0FF204610BD78430008CD
:1013A80010B50446FFF7F2FF2046382100F056F842
:1013B800204610BD70B5164600F11C0204460D46C5
:1013C80007CA88B005AB83E80700221D07CA02AB2D
:1013D80083E80700636B0193236B0093A26AE36AB7
:1013E80031462846FFF718FD08B070BD30B585B006
:1013F800044601AD85E80E00FFF7B8FF23460E4A04
:1014080043F81C2B95E8070083E8070008AA07CAD9
:10141800231D83E807000BAA07CA04F1100383E819
:1014280007000E9BA3620F9BE362109B2363119B33
:101438006363204605B030BD78430008014B02487D
:1014480018607047000000200C040020024A13684E
:1014580018441060184670470000002070470000CC
:10146800024A1368184410601846704700000020AC
:10147800704700207047704710B52C210446FFF7CD
:10148800EDFF204610BD07EE901A07EE102A37EE42
:10149800877A0021F1EE677A0362009B41608160E0
:1014A800C16001614161816280ED067AC0ED077A11
:1014B8004362704737B5044D0560069D0095FFF7F8
:1014C800E2FF03B030BD00BF8C430008D0ED036AD3
:1014D800D0ED017A90ED046AD0ED074AC0ED046AB8
:1014E80007EE102A76EEA66A90ED065AC0ED027A4B
:1014F80005EE901A67EEA47A37EE667A45EE857A9D
:101508004160C26037EE067AD0ED086A80ED056A60
:1015180047EE667A90ED0A7A77EE877A90ED097A47
:10152800C0ED0A7AF4EEC77AF1EE10FAC8BF80ED82
:101538000A7AD0ED0A7AB1EE477AF4EEC77AF1EE7C
:1015480010FA48BF80ED0A7A806A7047002343602A
:101558008360C160016141618362704781F000422C
:10156800FFF7B4BF00B50C48ADF50B7D01F03CFEAC
:101578000A4800F0AFFB00F065F86846FEF794FFF4
:101588006846FFF7CFF86846FFF72CF900200DF5FD
:101598000B7D5DF804FB00BFF00100206002002015
:1015A800704710B534210446FFF758FF204610BD98
:1015B800084B0360084B436000F1280200F1080360
:1015C800012143F8041B9342FBD100238362C362C9
:1015D800036370479C430008A842000830B50B1D00
:1015E80000F10804243153F8045B44F8045B8B428F
:1015F800F9D100238262C362036330BD0F4B5B7C69
:1016080010B504460BB9002010BD0D4801F0B4F820
:10161800E36AC01A0028A36AB8BF40428342F2D2E4
:10162800074801F0A9F8236BE06204EB8302062B5C
:1016380098BF0133906898BF236310BD58010020FC
:10164800F80100202DE9F041C0B014A802F0D0F94B
:1016580014A9684602F018F94A4C4B4D4B4F4C4EB2
:101668004C4900231A46684602F034F996F8C0300F
:10167800B046002B00F083804749204600F0C1F8AF
:10168800D6F8C410204600F0BEF82946204600F0DF
:10169800B8F8002608EB06032046D3F8801000F0BF
:1016A800B2F804362946204600F0ABF8202EF1D1D6
:1016B8003A4E2046F16900F0A6F82946204600F087
:1016C800A0F8316A204600F09EF82946204600F02E
:1016D80098F8716A204600F096F82946204600F0EE
:1016E80090F8384601F030F80146204600F08BF8B3
:1016F8002946204600F085F8384601F031F80146C1
:10170800204600F080F82946204600F07AF8244860
:1017180001F056F903220146204600F0B9F829469F
:10172800204600F06EF81E4801F04CF903220146ED
:10173800204600F0ADF82946204600F062F8002661
:101748000DEB0603204693F9041000F05CF801360F
:101758002946204600F055F8402EF1D1129920462E
:1017680000F07AF82946204600F04BF820460D494B
:1017780000F047F832210C4801F08AFB6FE70B496B
:101788007BE700BF04040020A8430008F8010020FC
:1017980078020020F4020020A44300081C02002064
:1017A80070030020F744000808040020A74300083D
:1017B80010B5034B0360044601F024F9204610BD20
:1017C800B443000810B50446FFF7F2FF2046042191
:1017D800FFF744FE204610BD10B5044601F01AF983
:1017E800014B2360204610BDB443000838B50546B8
:1017F8004C1E14F8011F19B1284601F067F9F8E7E3
:1018080038BDFFF7F3BF7FB50B1E4FF000024FF056
:101818000A01BABF5B42012414468DF80F200E4618
:1018280004AA93FBF6F50A4406FB1533303302F895
:101838000C3C4A1ED2B22B4665B92CB104AB1344FA
:101848002D2103F80C1C114601AB1944FFF7CEFFFC
:1018580004B070BD1146E3E730B585B000230A2215
:101868008DF80F301546B1FBF5F405FB141304A9E8
:101878001144303301F80C3C531EDBB221462CB91D
:1018880001AB9918FFF7B2FF05B030BD1A46EAE779
:10189800F8B507EE901A2DED028BF5EEC07AF1EE51
:1018A80010FA0646154646BFF1EE677A2D2120212B
:1018B800012300220A20AA4202D243430132FAE756
:1018C800BDEEE78A3046B8EEC87A77EEC77A07EEFB
:1018D800103AB8EE477A67EE877AFDEEE77A17EEA8
:1018E800904A002CB8BF644201F0F0F818EE101AC4
:1018F8003046FFF788FF2E21304601F0E7F8002236
:1019080001230A214B430132A342D2B2FADBAD1ABA
:10191800EDB20027AF4205D23021304601F0D6F8AB
:101928000137F7E7BDEC028B21463046BDE8F840A9
:10193800FFF769BF704710B518210446FFF78EFD01
:10194800204610BD4D494E4B03604B6943F4FC03E0
:1019580030B54B614B4B43609A6822F440729A60F1
:101968009A6842F440729A609A8822F0100212042F
:10197800120C9A809A8892B29A801A6822F440725D
:101988001A601A6842F480721A604A6942F4FC02CA
:101998004A619A68836022F440629A609A6842F4C5
:1019A80040629A609A8822F020021204120C9A80EF
:1019B8009A8892B29A801A6822F440621A601A6869
:1019C80042F480621A604A6942F4FC024A614FF0AC
:1019D8009042C260956825F040459560956845F04D
:1019E800404595609588C5F30E0595809588ADB2FC
:1019F8009580156825F040451560156845F08045C7
:101A080015604A6942F4FC024A619A68036122F04F
:101A180040629A609A6842F040629A609A8822F41A
:101A280000521204120C9A809A8892B29A801A680C
:101A380022F040621A601A6842F080621A604A69AD
:101A480042F4FC024A6143619A6822F040529A606B
:101A58009A6842F040529A609A8822F480421204AE
:101A6800120C9A809A8892B29A801A6822F0405290
:101A78001A601A6842F080521A6030BD00100240A5
:101A8800C4430008000400480029C26814DA138D12
:101A98006FEA43436FEA53439BB213854942FF29D8
:101AA8000B46A8BFFF2341F2BE215943FF23B1FBD8
:101AB800F3F1044B99637047936943F400439361CE
:101AC800EDE700BF002C014082680029ABBF138DF1
:101AD80093699BB243F02003B5BF494243F020030A
:101AE80093611385FF290B46A8BFFF2341F2BE214E
:101AF8005943FF23B1FBF3F1014B5963704700BF12
:101B0800002C01400269936823F040639360936856
:101B180043F040639360136823F0406313601368D5
:101B280043F0006313604369996821F0405199605C
:101B3800996841F040519960196821F04051196045
:101B4800196841F000511960516A21F4700151621D
:101B5800516A41F4C00151625A6A22F070625A62B5
:101B68005A6A42F0C0625A62104A936943F40063A9
:101B780093610F4B002241F2BF211A80D9620121E3
:101B88001A851A8659615A639A634FF480725A60AB
:101B980047F270029A6177221A621A8892B20A434F
:101BA8001A805A6C42F400425A647047001002408E
:101BB800002C0140416842690B8D9BB243F0100331
:101BC8000B8581680B8D9BB243F020030B85C168A0
:101BD8000B8D6FEA43436FEA53439BB20B85016950
:101BE8000B8D9BB243F400530B85138D9BB243F4CA
:101BF80080431385FFF786BF704710B51821044648
:101C0800FFF72CFC204610BD037B826833B100230C
:101C18000373936943F4004393617047012303738B
:101C2800138D6FEA43436FEA53439BB213857047A2
:101C38001C4A1D4B0360536943F4FC0310B5536100
:101C48001A4B43609C6824F040749C609C6844F084
:101C580040749C601C6824F040741C601C681C6004
:101C6800DC6844F08074DC60546944F4FC0454611A
:101C78009A68836022F040429A609A6842F0404233
:101C88009A609A88C2F30E029A809A8892B29A80D1
:101C98001A6822F040421A601A6842F080421A60BC
:101CA80010BD00BF00100240D443000800040048E3
:101CB8004FF0FF3310B54361002304460373014618
:101CC8004FF4FA72024801F0A3F8206110BD00BF7A
:101CD80008040020436870B504461A8AD20401D566
:101CE80000BFFAE7012363616422217C0F480F4D8E
:101CF80001F0B6F80D4801F0BFF800F5FA66636820
:101D08001B8ADB040FD4094801F0B6F8B042F6D9B3
:101D18006369012BF3D13222217C284601F0A0F817
:101D280002236361EBE7606970BD00BF080400200F
:101D3800704710B504210446FFF790FB204610BDFC
:101D4800014B0360704700BF1C4400080B0F064B93
:101D5800DA6A14BF22F4785222F4F872DA62DA6A84
:101D68001143D962704700BF0010024030B5042B00
:101D78009DF80C401CDC03EB4303086B5B001F253C
:101D88009D4020EA050002FA03F303430B63092A86
:101D980039DD0A3A8B698B6902EB420207209040D1
:101DA80023EA00038B618B6994401C438C6130BD2E
:101DB800092B0CDC0620053B43434D6B1F20984044
:101DC80025EA000002FA03F303434B63DFE70E2B17
:101DD8004FF006000BDC0A3B43438D6B1F209840F5
:101DE80025EA000002FA03F303438B63CFE70F3BB6
:101DF8004343CD6B1F20984025EA000002FA03F305
:101E08000343CB63C3E7013A4B694B6902EB4202D8
:101E18003820904023EA00034B614B69033204FAEF
:101E280002F21A434A6130BD13B5013909299DBF31
:101E38000D4B53F821400D4B4FF0A04498BF5A5C0E
:101E48004FF00103009388BF01222146FFF78EFF60
:101E5800A36843F00403A36023685B0701D400BFB1
:101E6800FAE7206C02B010BDEC430008E04300081C
:101E78002DE9F743254C264F264E4FF48871054629
:101E8800FFF764FF6369244943F080536361FFF7F8
:101E98005DFF63694FF0A04843F0005363614FF062
:101EA800020900240123C8F80C401A46FC60414688
:101EB800F460CDF80090FFF759FF01231A46394620
:101EC8002846CDF80090FFF751FF0123CDF8009088
:101ED8000C2231462846FFF749FFD8F8083043F06E
:101EE8000103C8F80830BB6843F00103BB60B3685E
:101EF80043F00103B360214628460134FFF794FFFD
:101F08000B2CF8D103B0BDE8F08300BF00100240ED
:101F1800000100500004005000220010704710B566
:101F2800F8210446FFF79AFA204610BD4C4A4D4B5B
:101F38000360536943F4FC0310B553614FF09043B9
:101F480043609C6824F440349C609C6844F44034AA
:101F58009C609C8824F480742404240C9C809C88B5
:101F6800A4B29C801C6824F440341C601C6844F4AF
:101F780080341C603C4C046144638465C4675469C4
:101F880044F4FC0454611C68C0F8A03024F0030435
:101F98001C601C6844F003041C60546944F4FC048D
:101FA80054611C68C0F8A43024F00C041C601C6840
:101FB80044F00C041C60546944F4FC0454611C682B
:101FC800C0F8A83024F030041C601C6844F03004C9
:101FD8001C60546944F4FC0454611C68C0F8AC30BB
:101FE80024F0C0041C601C6844F0C0041C605469E0
:101FF80044F4FC0454611C68C0F8B03024F4407404
:102008001C601C6844F440741C60546944F4FC046B
:1020180054611C68C0F8B43024F440641C601C6827
:1020280044F440641C60546944F4FC045461C0F8EE
:10203800B8301C6824F440541C601C6844F44054B4
:102048001C60546944F4FC0454611A68C0F8BC303C
:1020580022F440421A601A6842F440421A6010BDE5
:10206800001002402C440008A84200084268138D62
:102078009BB243F480732DE9F04164210446138533
:102088003648DFF8DC8000F003FF04F138063746F5
:10209800002529464046FFF7C7FE0135082D47F8B9
:1020A800040BF6D162682D4893692D4F43F4807371
:1020B8009361642100F0ECFE002529463846FFF7BD
:1020C800B3FE56F8043B0135C01A082D3062F4D12E
:1020D80004F1800304F1A002002543F8045B9A424E
:1020E800FBD16FF0FF0363616FF0BF03A3616FF073
:1020F8007F03E3616FF03F03236240236362802321
:10210800A362C023E3624FF4807323634FF4C87360
:10211800A360012384F8C05084F8C130C4F8D050BB
:10212800C4F8D450C4F8D850C4F8C450C4F8C8503F
:10213800C4F8CC5004F1C0070FCF04F1DC060FC679
:1021480097E80700002386E8070025730422214644
:10215800024800F05DFE0020BDE8F0810804002080
:1021680054010020037B72B60BB10022027362B6E1
:10217800184670474FF48070704700EB810030B507
:102188004269D0F8805002FB05F479B1C36F026947
:10219800062902FB03422B440BD8D0F8841080692F
:1021A8000B4400FB012292FBF3F030BD62006B0090
:1021B800F3E722442B44F6E7826800F1800300200D
:1021C80053F8041B8A4204DB01300828F8D14FF089
:1021D800FF30704700F1800270B5A03050F8985C6D
:1021E8001346002153F8044BAC42C8BF0121984262
:1021F800F8D111B3002452F8041B8D42B8BF013442
:102208009A42F8D10E4901224FF0FF3000250B68A1
:1022180051F8046FC3EB46034E689B1B002BB8BFF5
:102228005B42AB4201DD10461D460132072AEED162
:10223800052C98BF4FF0FF3070BD4FF0FF3070BDD8
:10224800F80200202DE9F8430025DFF804813F4F0C
:10225800044600F13806A94629464046FFF7E4FD42
:1022680056F8043BC01A7843336A90FBF3F0013503
:1022780010F57A7054BF7064C6F84490082DEBD1FD
:10228800002304F18001A268C4F8EC3004F1A00531
:102298000B4653F8040B9042C2BFD4F8EC0001304F
:1022A800C4F8EC00AB42F4D100230720C4F8F030A6
:1022B800C4F8F40051F8040B824230DAC4F8F03064
:1022C80004F19C01072351F8040982422BDAC4F86F
:1022D800F430002384F8DC302046FFF77BFF054606
:1022E8002046FFF769FF6A1C01461FD0032304EB51
:1022F800850584F8DD306B69C4F8E830012384F87B
:10230800DC3004F1DC060FCE04F1C0050FC596E8F9
:102318000700012385E807002373BDE8F88301332C
:10232800082BC7D1CCE7013BCDD1D2E7431CE8D07D
:10233800012584F8DD502046FFF71FFF84F8DC50A4
:10234800C4F8E000C4F8E400DBE700BF18FCFFFFB6
:1023580054010020704710B544210446FFF77EF869
:10236800204610BD014B0360704700BF4044000881
:102378002DE9F0410446006C03689B68884698473D
:10238800206C0368D4215B699847206C0368192185
:102398005B699847206C03689B689847206C0368C2
:1023A800D5215B699847206C036801219B69984790
:1023B800000207B2206C036801219B699847074314
:1023C800206C036801219B699847000206B2206CC3
:1023D800036801219B6998470643206C0368012123
:1023E8009B699847000205B2206C036800219B692D
:1023F80098470543206C0368DB683FB236B22DB2BC
:102408009847B8F1000F08D0A36A3B44A362E36A77
:102418003344E362236B2B442363A36AE169226B91
:10242800E06AFB1AAD1A2361192293FBF2F301EB60
:102438004303E361236AA561301A606190FBF2F0FF
:1024480003EB40002062636A206C95FBF2F503EB16
:102458004505036865629B689847206C0368D4212A
:102468005B699847206C036829215B699847206C51
:1024780003689B689847206C0368D5215B69984777
:10248800206C036801219B699847000207B2206C01
:10249800036801219B6998470743206C0368012161
:1024A8009B699847000206B2206C036801219B696A
:1024B80098470643206C036801219B6998470002EE
:1024C80005B2206C036800219B6998470543206C7E
:1024D8000368DB6898473FB236B22DB201236760C4
:1024E800A660E56084F83C30BDE8F0810021FFF784
:1024F8003FBF406B003018BF0120704711F1FF311A
:1025080001D300BFFAE7704738B5044610220846E1
:102518002164A823D421FEF7A7F90023236163616E
:10252800A361A362E3622363E3612362636242F20D
:1025380010712046FFF7E2FF0F226363D421206C5D
:10254800FEF7B0F9682804BF012363631022A823AB
:10255800D421206CFEF788F938231E22D421206C60
:10256800FEF782F900232E22D421206CFEF77CF995
:1025780000231222D421206CFEF776F96023202252
:10258800D421206CFEF770F938231F22D421206C47
:10259800FEF76AF942F210712046FFF7AFFF0021FB
:1025A8002046FFF7E5FE0023A3634FF47A75012167
:1025B8002046FFF7DDFE64212046FFF79FFF013D1F
:1025C800F5D14FF47A72A36AE56193FBF2F32562C1
:1025D800A3626562E36A656093FBF2F3A560E36258
:1025E800E560236B054893FBF2F3214623630A2237
:1025F8002B4600F00DFC84F83C5038BD0804002040
:10260800704710B514210446FEF728FF204610BD78
:10261800304A314B0360536943F4FC0310B55361EE
:102628002E4B43609C6824F440549C609C6844F49E
:1026380040549C601C6824F440541C601C681C6056
:10264800DC6844F48054DC60546944F4FC0454614C
:102658009C68836024F440449C609C6844F4404433
:102668009C601C6824F440441C601C681C60DC6886
:1026780044F48044DC60546944F4FC0454619C686C
:10268800C36024F040749C609C6844F040749C6073
:102698001C6824F040741C601C681C60DC6844F0F2
:1026A8008074DC60546944F4FC0454619A680361E2
:1026B80022F440029A609A6842F440029A601A68CA
:1026C80022F440021A601A681A60DA6842F480023A
:1026D800DA6010BD001002405444000800080048A9
:1026E800164B174A10B500241C60164B1C609369E2
:1026F80043F00103936106210220FDF77FFE0C21C0
:102708000220FDF77BFE10210620FDF78CFE10212C
:102718000C20FDF788FE224621461720FDF7F0FD24
:10272800224621462820FDF7EBFD0620FDF75AFE3C
:102738000C20BDE81040FDF755BE00BF0800002082
:10274800001002400C00002072B6044B186862B6F4
:1027580058234343B42093FBF0F07047080000204F
:1027680072B6044B186862B658234343B42093FBEF
:10277800F0F070470C00002008B50146FFF7E4FFB1
:1027880002460846FFF7ECFF0223104490FBF3F0E3
:1027980008BD0000034B186858234343B42093FB3B
:1027A800F0F0704708000020034B18685823434393
:1027B800B42093FBF0F070470C000020094B1B8AF3
:1027C80013F0C0030BD0C02B0CBF01234FF0FF3315
:1027D800054A116806200B441360FDF703BE012368
:1027E800F6E700BF00080048080000200A4B1B8AD3
:1027F80013F4C0530CD0B3F5C05F0CBF4FF0FF33D8
:102808000123064A11680C200B441360FDF7EABD4A
:102818004FF0FF33F5E700BF000800480C00002028
:1028280038B5C368364D2DED048B4360036983606A
:1028380004462846FFF7AEFFE0602846FFF7B4FFDE
:102848006268E3689FED2F5AD4ED056ADFED2E5AD2
:102858009FED2E6A20619B1A07EE103AB8EEC77AF0
:10286800A3689FED2B9A27EE057A66EEA56A47EED8
:10287800066AC31A04F13C0007EE903AF8EEE77ACC
:10288800C4ED056AB0EE667AD4ED066A67EE857A1D
:1028980066EEA56A47EE866AD4ED077AC4ED066A45
:1028A80077EEC77A17EE102A17EE901AFEF70EFE8B
:1028B800A269D4ED087A07EE102A77EEC77A08EEF7
:1028C800900A17EE901A04F16800FEF7FFFD68EE13
:1028D800898A2434FDEEE87A08EE100A17EE901A79
:1028E8002046FFF7D1F828EE098A2046FDEEC87A7F
:1028F800BDEC048B17EE901ABDE83840FFF7E4B83A
:10290800F8010020CDCCCC3D6666663F0000003E55
:1029180000007F4373B50E4B002504464FF07E56EA
:1029280040F8243BFFF70EF82B462A462946009626
:1029380004F13C00FEF7BEFD00962B462A462946C8
:1029480004F16800FEF7B6FD204602B070BD00BF76
:1029580064440008F7B5154F154E04464FF07E55F0
:102968002430FFF727F900952B463A46314604F103
:102978003C00FEF788FD00952B463A46314604F1A7
:102988006800FEF780FD002500236361A361E36111
:1029980023626560A560E56025612B460422214617
:1029A800044800F035FA284603B0F0BDEC51B83DB4
:1029B800CDCC4C3F08040020C161704701627047CC
:1029C800406970478069704710B5084B044640F865
:1029D800683BFEF750FD04F13C00FEF74CFD04F1A6
:1029E8002400FEF7A7FF204610BD00BF644400087E
:1029F80010B50446FFF7E8FF20469421FEF72EFDA8
:102A0800204610BD704710B504210446FEF726FD88
:102A1800204610BD014B0360704700BF7844000892
:102A2800274A536943F4FC0353614FF09043986875
:102A380020F440209860986840F440209860186816
:102A480020F440201860186840F40020186050698D
:102A580040F4FC005061986820F440109860986831
:102A680040F440109860186820F440101860186806
:102A780040F400101860586A20F0F0005862586A54
:102A880040F070005862586A20F470605862586AC2
:102A980040F4E0605862936943F480439361094BC2
:102AA80000220C205A6018609A60074AB2FBF1F1C4
:102AB80089B299811A6842F001021A60704700BF12
:102AC800001002400038014000A24A04044BDA69B1
:102AD800120601D400BFFAE789B21985704700BF12
:102AE8000038014070477047704710B51C210446F4
:102AF800FEF7B4FC204610BD10B510210446FEF7C1
:102B0800ADFC204610BD10B598210446FEF7A6FC82
:102B1800204610BD4268034600EB820010B5013222
:102B2800C1600321B2FBF1F101EB4101521A5A6075
:102B380000229A6103F1180103F10C0252F8040B08
:102B48009C698A4220449861F8D10322B0FBF2F0D4
:102B5800986110BD38B5856A044615B1012D17D0A6
:102B680038BD08213248FFF75FF90921A0633048D2
:102B7800FFF75AF90A21E0632D48FFF755F9A269D2
:102B88002064936943F4005393610123A36238BD21
:102B980008212748FFF748F90921E0622448FFF790
:102BA80043F90A2120632248FFF73EF9A2696063CE
:102BB800138DA16B9BB243F400531385E36AC91AC2
:102BC800C1F5805121EAE17104F14400FFF7A2FF49
:102BD800236BE16BA060C91AC1F5805121EAE1714C
:102BE80004F16000FFF796FF636B216C6060C91AFF
:102BF800C1F5805121EAE17104F17C00FFF78AFFF9
:102C0800A368E06040F65332934207DC40F6C312F3
:102C18009342257405DD0023637403E000232374C5
:102C2800F9E765740023A3620123237538BD00BF4B
:102C38005401002030B5314C314B0360636943F4D3
:102C4800FC0363612F4B8361996821F040619960AF
:102C5800996841F040619960998821F4005109040C
:102C6800090C9980998889B29980196821F0406186
:102C78001960196841F080611960616941F4FC01CB
:102C880061612149C1610D6825F003050D600D687A
:102C980045F003050D60656945F4FC0565610D683F
:102CA800016225F00C050D600D6845F00C050D60FE
:102CB8006169164D41F4FC0161611968436221F0B4
:102CC800030119601968124C41F0030119601A8D4B
:102CD800456492B2002142F40052C4648164C16523
:102CE8000566846641668167C567C0F88440C0F898
:102CF8008010C0F894101A8530BD00BF0010024043
:102D0800A844000800080048000400489844000847
:102D180088440008037D72B60BB10022027562B6C2
:102D28001846704770B505460E4603243168284694
:102D3800FFF7F0FE013CF9D170BD0000826938B59B
:102D4800138D9BB2002543F40053856213854FF41D
:102D58008073044643608360C360C562056345634E
:102D68008563C56305640574457400F10801443042
:102D7800FFF7D8FF211D04F16000FFF7D3FF04F12E
:102D88000C0104F17C00FFF7CDFF2B4605222146FC
:102D9800024800F03DF82575284638BD0804002093
:102DA80070470000F7B50022154D142713464FF45D
:102DB8007A7607FB02F429190132102A2B514B604D
:102DC8008E60CB600B744B74F3D10E4A13600E4ABD
:102DD8000360D36943F00103D361002264230093A5
:102DE800114640F2CF234FF08040FDF7ABFA0122A5
:102DF80000211C20FDF784FA62B603B0F0BD00BFC5
:102E0800140000201000002000100240704700004D
:102E1800F0B572B6114D00244FF0FF304FF0140E8C
:102E28002F460EFB04F605EB060CAE5926B9DCF866
:102E38000460002E08BF20460134102CF1D1441C38
:102E48000AD0C4B2142565437C1900267E516160FE
:102E5800A260E2602674637462B6F0BD14000020BC
:102E68000448142303FB01010023CA608A600B7421
:102E7800704700BF1400002082B072B6034B1B6875
:102E8800019362B6019802B0704700BF100000209D
:102E980007B50246FFF7F0FF014401911046FFF71E
:102EA800EBFF019B984201D200BFF7E703B05DF842
:102EB80004FB0000F8B54FF080431A69D20714D517
:102EC800194F4FF6FE721A61002414263D4606FB80
:102ED8000473DA6852B1DA68013ADA600134102C06
:102EE800F5D1124A136801331360F8BD9A68DA60A5
:102EF8001A7CFF2A1FBF1A7C0132D2B21A7406FB51
:102F080004F3EA18527C002AE8D1EA580AB1EB58CF
:102F1800984706FB04535A68002ADFD058680368AC
:102F28009B689847DAE700BF1400002010000020D3
:102F3800704710B508210446FEF790FA204610BDE8
:102F480010B5034B03600446FDF780FC204610BD16
:102F5800BC44000810B50446FFF7F2FF20461021D4
:102F6800FEF77CFA204610BD10B5044621B103498E
:102F7800FEF747FC204610BD0149F9E70346000863
:102F8800084600081049114B03604B6943F4FC03E1
:102F98004B610F4B43609A6822F040429A609A68EE
:102FA80042F040429A609A88C2F30E029A809A8848
:102FB80092B29A801A6822F040421A601A6842F067
:102FC80080421A60704700BF00100240184600088F
:102FD80000040048026821B1936943F400439361F7
:102FE8007047138D6FEA43436FEA53439BB21385CF
:102FF8007047D1B903689A6822F440429A609A6887
:1030080042F440429A609A8822F080021204120C1C
:103018009A809A8892B29A801A6822F440421A607A
:103028001A6842F480421A60704701290ED1036879
:103038009A6822F440429A609A6842F440429A6040
:103048001A6822F440421A601A68ECE7022913D180
:1030580003689A6822F440429A609A6842F44042AF
:103068009A601A6822F440421A601A681A60DA688C
:1030780042F48042DA607047052910D103689A68E3
:1030880022F440429A609A6842F440429A601A6870
:1030980022F440421A601A6842F40042C3E7042945
:1030A800C2D103681A6822F440421A601A6842F4CE
:1030B8004042B8E7054A08B5536943F4FC03536135
:1030C800034B03600121FFF794FF08BD0010024085
:1030D80000040048D1B903689A6822F440529A6003
:1030E8009A6842F440529A609A8822F04002120488
:1030F800120C9A809A8892B29A801A6822F44052E6
:103108001A601A6842F480521A60704701290ED179
:1031180003689A6822F440529A609A6842F44052CE
:103128009A601A6822F440521A601A68ECE7022979
:1031380013D103689A6822F440529A609A6842F45C
:1031480040529A601A6822F440521A601A681A604B
:10315800DA6842F48052DA607047052910D10368B2
:103168009A6822F440529A609A6842F440529A60EF
:103178001A6822F440521A601A6842F40052C3E7EF
:103188000429C2D103681A6822F440521A601A68E6
:1031980042F44052B8E70000054A08B5536943F4C1
:1031A800FC035361034B03600121FFF793FF08BD44
:1031B80000100240000400480A2310B5436004468A
:1031C8000830FFF777FF04F10C00FFF7E5FFA2686E
:1031D800138D9BB243F080031385E268138D9BB275
:1031E80043F04003138510BD2DE9F041454C464F8F
:1031F800DFF87881051D28460121FFF7EBFE204600
:103208004FF4E131FFF70CFC20464049FEF7F9FA8C
:103218003F492046FEF7F5FAFEF710F93D49064604
:103228002046FEF7EEFA31463B4E2046FEF714FBE9
:1032380031462046FEF7E5FA3846FFF7B3FD20464B
:103248003649FEF7DEFA20463549FEF7DAFA3846FF
:10325800C821FFF71DFE3349334F2046FEF7D1FA48
:103268004046FFF7A9FF20463049FEF7CAFA414613
:103278003846FFF749F92E492046FEF7C2FA384684
:10328800FFF737F901462046FFF76EFE3146FEF795
:10329800B8FA2848FEF7ECFD27492046FEF7B1FAB0
:1032A8002648FEF7E3FE26492046FEF7AAFA2548F7
:1032B800FFF744FD24492046FEF7A3FA2348FFF709
:1032C8000FFA23492046FEF79CFA2248FFF742FBF3
:1032D80020462149FEF795FA00212846FFF77AFE95
:1032E8001E48FEF7E5FC20461D49FEF78AFA2046EF
:1032F8001C49FEF786FA20461B49FEF782FA002091
:10330800BDE8F0810404002008040020ED44000812
:10331800F94400080D450008F74400082B4500084B
:103328003C450008534500081C0200204A45000897
:1033380059450008540100206D4500087802002016
:103348007C4500085801002093450008F80100203A
:10335800AE45000870030020C84500086002002040
:10336800E2450008F6440008F14500080C02002078
:1033780070B5044600F10C0604F10805304600213A
:10338800FFF7A8FE28460021FFF733FE304601214B
:10339800FFF7A0FE28460021FFF72BFE304601214B
:1033A800FFF798FE28460121FFF723FE2046BDE8D7
:1033B8007040FDF79EBA70B5044600F10C0604F1A2
:1033C800080530460121FFF785FE28460121FFF751
:1033D80010FE30460121FFF77DFE28460021FFF749
:1033E80008FE30460021FFF775FE28460121FFF749
:1033F80000FE2046BDE87040FDF77BBA2DE9F84392
:10340800044600F108073846894604F10C060121F4
:10341800FFF7EFFD00213046FFF75CFE2046FDF781
:1034280068FA4FF009080025B8F1010817D0012102
:103438003046FFF74FFE2046FDF75BFAA3681B8A6C
:103448006D001B063046EDB24FF0000148BF45F055
:103458000105FFF73FFE2046FDF74BFAE4E7B9F117
:10346800000F1ED041463846FFF7C3FD2046FDF742
:1034780040FA01213046FFF72DFE2046FDF739FAC4
:1034880000213046FFF726FE2046FDF732FA0121DB
:103498003846FFF7AEFD2046FDF72BFA2846BDE873
:1034A800F8830121DFE72DE9F04104460D4609279D
:1034B80000F10C0600F10808013F1AD0002130463F
:1034C800FFF708FE2046FDF714FA2B064CBF012132
:1034D80000214046FFF78DFD2046FDF70AFA01213D
:1034E8003046FFF7F7FD6D002046FDF702FAEDB212
:1034F800E2E739463046FFF7EDFD2046FDF7F9F9DA
:1035080001214046FFF775FD2046FDF7F2F901213C
:103518003046FFF7DFFD2046FDF7EBF9A3681D8A6B
:1035280039463046FFF7D6FDADB22046FDF7E1F942
:1035380085F08000C0F3C010BDE8F08138B5384D83
:10354800384C2846FFF71EFD2846374D3749224696
:10355800FDF78FFF2846FEF73FF92846344D3549D9
:103568002246FDF786FF2846FFF71AFC2846324D0B
:1035780032492246FDF77DFF2846FDF76FF92846B8
:103588002F4B40F8083BFFF795FD05F10C00FFF7BE
:1035980003FE28462B4D2C492246FDF76AFF284694
:1035A800FEF7E0FE2846294D29492246FDF761FF2E
:1035B8002846FEF7C5FB2846264D27492246FDF733
:1035C80058FF2846FEF7B2FC2846244D24492246D7
:1035D800FDF74FFF2846FFF72DFB2846214D2249CE
:1035E8002246FDF746FF2846FFF712F828461F4DEA
:1035F8001F492246FDF73DFF2846FFF78BF928466D
:103608001C4D1D492246FDF734FF2846FEF710FBE6
:10361800224628461949BDE83840FDF72ABF00BFB1
:10362800F00100200400002004040020392F0008C5
:1036380008040020B91700080C020020152E000805
:10364800BC4400081C020020492F00085401002037
:103658005D23000878020020391D00085801002069
:10366800251F0008F8010020ED2A0008700300203B
:103678000926000860020020D1290008011C000862
:1036880038B50446074B44F8083B0546204600F089
:10369800E3FB2046044900F007FC002385F85C3072
:1036A800284638BD284600083333333F4160704709
:1036B800012380F85C3070472DE9F84381461648AD
:1036C800DFF85880144E0D46FFF7D6FB054409F184
:1036D80008070521384600F017FC0446A0B9404603
:1036E800FEF740FD0028F4D03046FFF7C5FB8542C1
:1036F80002D298F8C0305BB9384600F029FC0421A2
:103708003046FFF7C5FBE2E74FF0FF30BDE8F8832E
:103718002046BDE8F88300BF080400207802002096
:1037280073B5D0ED017A90F85C300093F5EEC07A6D
:10373800F1EE10FA054600F108044BBFAA2100215A
:103748000022AA2220460026052300F029FB85F83E
:103758005C6031462846FFF7AFFF00285DD0D5ED05
:10376800017A0096F5EEC07AF1EE10FA4BBF3246B8
:103778006FF0A9026FF0A90131460523204600F039
:103788000FFB27492846FFF797FF204600F03CFC2F
:10379800D5ED017AF5EEC07AF1EE10FA4FF000019E
:1037A80058BF0A4600914CBFAA22AA2120460523E9
:1037B80000F0F6FA96212846FFF77EFF68B3D5EDAC
:1037C800017AF5EEC07AF1EE10FA4FF0000154BF1D
:1037D8000A466FF0A90200914FF0050358BF6FF039
:1037E800A901204600F0DCFA0D492846FFF764FFDE
:1037F800204600F009FC552200231146009320467C
:10380800052300F0CDFA96212846FFF755FF2046FC
:1038180002B0BDE8704000F0F7BB02B070BD00BF59
:1038280040420F0010B5044B044640F8083B00F036
:10383800A7FA204610BD00BF2846000810B5044668
:10384800FFF7F0FF20466021FDF708FE204610BD77
:10385800704710B550210446FDF700FE204610BD04
:103868000346074A43F8042B00F14401002203F8F9
:10387800012B8B42FBD1034B8264C36442647047C3
:1038880038460008003665C40346084A10B543F8B0
:10389800042B00F14404002203F8012BA342FBD1BE
:1038A800034B8264C364416410BD00BF38460008FE
:1038B800003665C410B5031D00F14404002203F866
:1038C800012BA342FBD1024B8264C364416410BD47
:1038D800003665C470B50446C06C101A0028B8BF1D
:1038E800404283424FDCE26404F138020023A2F133
:1038F8000800C51895F90460D5180133082B2E71F6
:10390800F7D184420246F1D10D1D224B224A2431BF
:10391800284650F8046BB242B8BF3246B342A8BF3B
:1039280033468842F5D193422FDAD31A07EE903AFC
:103938009FED1A7AF8EEE77AC7EE276A07EE902A23
:10394800F8EEE77A07EEE67AF0EE477A231D194695
:10395800B5EC017AB8EEC77AB0EE676A07EE266A68
:103968008542BDEEC67A17EE102A03F8012BEFD177
:10397800606C03689B689847606CFDF727FC606C77
:10398800FDF756FCA064002070BDDFED057AF0EE6F
:10399800676ADBE740420F00C0BDF0FF0000FE424F
:1039A80000000000F8B504460B4B44F8083B00261D
:1039B800054637466B689E4209D254F8040B10B18D
:1039C80003685B68984744F8047C0136F2E72846A8
:1039D800FDF7C0FB2846F8BD8C49000810B5044621
:1039E800FFF7E0FF2046B021FDF738FD204610BD67
:1039F8002DE9F043804695B0FDF7C8FBBC4BC8F8ED
:103A080000300823C8F88830C8F88C300123C8F87B
:103A18009030C8F89430C8F898300523C8F89C301E
:103A2800B44B93E80700B44B0BAC84E8070093E869
:103A38000700B24B0EAD85E8070093E8070011AE0A
:103A480086E807003820FDF701FD40F25F1309936F
:103A58004FF41B730893AA4B0793AA4B069381460E
:103A680096E8070003AF87E8070095E807008DE8A8
:103A78000700484694E80E00FDF7B8FCA24BC8F8CA
:103A8800089093E80700A14B84E8070093E8070033
:103A98009F4B85E8070093E8070086E807002C207D
:103AA800FDF7D4FC814696E8070087E8070095E80B
:103AB80007008DE80700484694E80E00FCF7C0FFB1
:103AC800944BC8F80C9093E80700934B84E80700E0
:103AD80093E80700914B85E8070093E8070086E81C
:103AE80007002820FDF7B2FC814696E8070087E822
:103AF800070095E807008DE80700484694E80E009F
:103B0800FDF7F4FA864BC8F8109093E80700854B48
:103B180084E8070093E80700834B85E8070093E8EB
:103B2800070086E807003820FDF790FC40F25313A1
:103B3800099340F2D62308937C4B07937C4B06935A
:103B4800814696E8070087E8070095E807008DE8B2
:103B58000700484694E80E00FDF724FA754BC8F8AC
:103B6800149093E80700744B84E8070093E8070073
:103B7800724B85E8070093E8070086E807002C20C9
:103B8800FDF764FC814696E8070087E8070095E89A
:103B980007008DE80700484694E80E00FCF750FF40
:103BA800674BC8F8189093E80700664B84E807004D
:103BB80093E80700644B85E8070093E8070086E868
:103BC80007003820FDF742FC40F21513099340F234
:103BD800975308935D4B07935D4B0693814696E890
:103BE800070087E8070095E807008DE807004846C2
:103BF80094E80E00FDF7D6F9564BC8F81C9093E8E8
:103C08000700554B84E8070093E80700534B85E805
:103C1800070093E8070086E807002C20FDF716FC4C
:103C2800814696E8070087E8070095E807008DE8D1
:103C38000700484694E80E00FCF702FF484BC8F816
:103C4800209093E80700474B84E8070093E80700B3
:103C5800454B85E8070093E8070086E80700282019
:103C6800FDF7F4FB814696E8070087E8070095E82A
:103C780007008DE80700484694E80E00FDF736FA7D
:103C88003A4BC8F8249093E80700394B84E80700BA
:103C980093E80700374B85E8070093E8070086E8B4
:103CA80007004020FDF7D2FB4FF4CB7309934FF484
:103CB80074730893304B0793304B0693814696E80C
:103CC800070087E8070095E807008DE807004846E1
:103CD80094E80E00FCF75AFE09234046C8F82890DD
:103CE800C8F80430FDF7DBFA404615B0BDE8F083AC
:103CF8008C4900085449000818490008244900085C
:103D08004046000851460008244900082449000894
:103D1800244900086049000824490008304900087F
:103D280054490008304900083C4900084446000846
:103D3800754600083C4900083C4900083C49000811
:103D4800544900083C49000848490008484600080A
:103D5800054700084849000848490008484900083C
:103D680060490008484900086C4900086C49000887
:103D78006C490008784900084C46000825480008A6
:103D88007047704710B510210446FDF767FB2046C1
:103D980010BD10B554210446FDF760FB204610BD48
:103DA8002DE9F0412DED028B044625489DF8208031
:103DB8000E4617461D46FEF7C7FC3044A060204853
:103DC800FEF7CEFC002E3844E06025612ADDDFEDE9
:103DD8001D7A9FED1D8A002FD8BFB0EE678A1B4D54
:103DE8001B4A84ED078A00232562A361E2622563EA
:103DF800A36284ED0F8A2564A363E2642565A36446
:103E0800B8F1000F0AD0BE420FDA002F06DD1148C4
:103E1800FEF7D8FD84ED0F8A2564A063BDEC028B04
:103E2800BDE8F0819FED078AD9E7F7DD002EF5DDC3
:103E38000848FEF7C5FD84ED078A2562A061EDE715
:103E4800F80100206F12033C6F12833B0AD7233C12
:103E58006F12033B7003002013B5104B104A036028
:103E680000234261C361036283614262C3620363E8
:103E780083624263C363036483634264C36400224E
:103E880003658364074B0261436011460092052372
:103E98000446FFF785FF204602B010BDB44900086C
:103EA800A44900083333333F07B50022416002615B
:103EB800009205231146FFF773FF03B05DF804FB7A
:103EC80038B5846806480D46FEF73EFC201A0028DF
:103ED800B8BF40428542D4BF0020012038BD00BF92
:103EE800F801002038B5C46806480D46FEF738FCCE
:103EF800201A0028B8BF40428542D4BF00200120C4
:103F080038BD00BFF801002038B504460D46FFF75C
:103F1800D7FF28B129462046BDE83840FFF7E2BF61
:103F280038BDD0ED017A07EE101AF4EEC77AF1EE3B
:103F380010FA07D590ED027A77EE277AC0ED017A6C
:103F480040687047FCDD90ED037A77EEC77AF5E7B5
:103F580038B585682DED028B04462848FEF7F4FB3A
:103F6800854225DD616804F11400FFF7DAFF94ED5E
:103F7800068A2248E568FEF7F3FB85422BDD616877
:103F880004F13400FFF7CDFFD4ED0E7A1C4817EE8C
:103F9800901AFEF713FD18EE101A1948FEF70CFDDB
:103FA800BDEC028B21692046BDE83840FFF7ACBF65
:103FB8001248A568FEF7C8FB854209DA616804F172
:103FC8002400FFF7AEFF94ED0A8AB1EE488AD0E7E5
:103FD8009FED0C8ACDE70948E568FEF7C1FB8542ED
:103FE80009DA616804F14400FFF79BFFD4ED127A07
:103FF800F1EE677ACAE7DFED037AC7E7F801002038
:10400800700300200000000038B52DED048B9FEDF3
:104018002A9A2A4D0446F0EE499A2846FEF7D0FC23
:1040280007EE900AF5EEC07AF1EE10FA48BFF1EE0D
:10403800677AF4EEC97AF1EE10FA20DD002104F176
:104048004400FFF76EFFD4ED128A002104F124002A
:10405800FFF767FF94ED0A8AF1EE688A18EE901A66
:104068002846B1EE488AFEF7A9FC18EE101A284631
:10407800FEF7A2FC04211248FEF70AFFCDE7284606
:10408800FEF7A0FC07EE900AF5EEC07AF1EE10FA02
:1040980048BFF1EE677AF4EEE97AF1EE10FACDDC7A
:1040A80000210648FEF78AFCBDEC048B002103487A
:1040B800BDE83840FEF780BC0AD7233C70030020D7
:1040C8000804002038B50446064B44F8043B05466E
:1040D8002046FFF7C1FE20460349FFF7E5FE2846C4
:1040E80038BD00BFC44900083333333F37B5002318
:1040F800041D009320460523FFF752FE094D0521B4
:104108002046FFF701FF38B92046FFF721FF0421B9
:104118002846FEF7BDFEF2E7204603B0BDE8304072
:10412800FFF772BF0804002010B5044B044640F89E
:10413800043BFFF725FE204610BD00BFC449000818
:1041480010B50446FFF7F0FF20465821FDF786F921
:10415800204610BDF0B52DED048B6FF015028FB021
:1041680011460546FFF7C2FF582200212846FFF7EF
:10417800BDFF4FF07E53009300231A46194603A84B
:10418800FDF798F9374C384B00930022374B3849E4
:10419800DFED388A9FED388ADFED389A384E03A86C
:1041A800FDF771F9D4ED037AF8EEE77A03A887EE04
:1041B800A87A274617EE101AFDF7C8F93846FEF711
:1041C800A9FD0028FAD0D4ED037AF8EEE77A03A81F
:1041D80087EEA87A79EEC77A17EE901AFDF7BEF93E
:1041E8009FED287AB4EEC78AF1EE10FA4ABF9FED28
:1041F800267AB0EE478A38EE078A07EE900A9FEDD6
:10420800237AF4EEC77AF1EE10FA27D49FED207ADC
:10421800F4EE477AF1EE10FAC8BFF0EE477A38EEBE
:10422800679A77EE887A304617EE901AFEF7C6FB43
:1042380019EE101A3046FEF7BFFB164B93F8C03044
:10424800002BBBD0722200212846FFF74FFF03A89E
:10425800FDF711F90FB0BDEC048BF0BDF0EE477A15
:10426800DDE700BF58010020000020419A99993EDF
:10427800EC51383E00007A440000000033337340AC
:10428800700300200000803E0AD7233C9A9999BE0B
:104298009A99993E78020020000000000000000072
:1042A80093040008A30400080000000000000000B8
:1042B80091040008950400080000000000000000B8
:1042C800ED0700082D0800080000000000000000AD
:1042D8005508000857080008430800084508000862
:1042E800470800084D0800085108000800000000B1
:1042F800000000000D090008210900083509000820
:104308000000000000000000210A0008350A00082B
:10431800FD0900080000000000000000250F00084B
:10432800390F00084D0F00080000000000000000D1
:10433800FD0F000811100008D91000080000000047
:10434800000000005D110008811100083511000807
:10435800A712000800000000000000006113000818
:104368006513000863130008000000000000000047
:1043780095130008A9130008BD13000800000000E9
:10438800000000007F1400088114000800000000ED
:1043980000000000A9150008AB1500083120003006
:1043A800200000000000000000000000B91700080D
:1043B800CD17000800000000000000003D190008AB
:1043C8003F1900080000000000000000011C000860
:1043D800031C0008111C0008020304010203040C5A
:1043E80001060000000000500000005000000050CE
:1043F8000001005000010050000100500001005071
:1044080000040050000400500000005000000000AC
:1044180000000000391D00083B1D000800000000D6
:1044280000000000251F0008271F00084D22000873
:1044380000000000000000005D2300085F23000862
:10444800F52400080000000000000000092600080C
:104458000B2600080000000000000000D129000819
:10446800F9290008292800080000000000000000C1
:104478000D2A00080F2A00080000000000000000B4
:10448800F12A0008012B00080000000000000000CD
:10449800EF2A0008F32A00080000000000000000CE
:1044A800ED2A00080F2B00085D2B00080000000013
:1044B80000000000492F00085D2F0008BF330008E6
:1044C80079330008C1310008AF340008053400080A
:1044D800096573745F696D755F73656E736F720AD2
:1044E80000203A20000A0A0A23232323230A0A0A5F
:1044F800007465726D696E616C20696E6974206400
:104508006F6E650A006D656D20696E697420646F51
:104518006E652C2068656170207374617274206107
:1045280074200074696D657220696E697420646F07
:104538006E650A0064656C617920323030206D73D5
:10454800200069326320696E697420646F6E650AA1
:1045580000696D7520696E697420646F6E652077D7
:10456800697468200061646320696E697420646FEF
:104578006E650A006C696E652073656E736F7220D4
:10458800696E697420646F6E650A0064697374618A
:104598006E63652073656E736F7220696E6974202F
:1045A800646F6E650A00656E636F6465722073657B
:1045B8006E736F7220696E697420646F6E650A008D
:1045C8006D6F746F7220636F6E74726F6C6C20699C
:1045D8006E697420646F6E650A006B657920696E78
:1045E800697420646F6E650A0073797374656D2051
:1045F800696E697420646F6E650A0074727565006F
:1046080066616C7365000000000000000000000097
:10461800392F00083B2F00080000000000000000B0
:104628002D38000845380008000000000000000090
:10463800593800085B380008F47FF6D90048D97F5C
:104648007F4E7E3C587F112230277F46262101F875
:10465800EBE7B4C87DEDF2171D04EA41DEE1100076
:1046680002ED100BAD555CF20EE502EFD6FBFAFC3D
:10467800F700F700020000000000000000EF02FF52
:10468800FE0FFE0D0608F8FA0CF9FCEDF4F101FA3C
:104698000F0BD011F705011709F1973E2609E01213
:1046A800181AFF360AEE20F815E4150CB7B63201D1
:1046B800F40A0C16FE18C50004FE23000AFC2DD5CA
:1046C800781005000017FF0724B4DF04F2FE01F894
:1046D800122C6B1204F0EA031430F3C81BFCF5F833
:1046E800FD14D0D9C70A0E06FD150E1316C413EF14
:1046F8000EE3ED17CF3481FF0F1806201700FF00D7
:10470800FE0002FE0000E83512DA08F5FFFCEFE2D1
:1047180001F30DE000FB0EFAE010E8DC1300060DD3
:10472800FF0000FB06FEFF000005DD18E80B00FC9B
:10473800000200F5FC07020305F801FEF9F3D006B4
:1047480009000500F5000000010000020000FE233A
:10475800CFED0EE6F8FAEB07E00F00F205FC000DCE
:1047680000C31CFBE9031102F5EF0310010000036D
:1047780002FBE30F1100FF000107FCF9D8FF010756
:10478800000503FFE8F8001004FB0500FD00000029
:1047980000000000000013F8D305EC04F4F800EC66
:1047A800D50CF3DCFCF2FBF5E21418F10005F80077
:1047B80000000C01FD000000FDFD1C0AE0000307DD
:1047C800010000E4FBF40400FD02F50020F801FEFE
:1047D8000316F402070000FF000000FF0000E71EB8
:1047E800CC0A07FE09F3FA0027810800FC06030734
:1047F800DA90090C01031213030000020001F90703
:104808000000D90DFC090001FD060BE5000100F9C7
:1048180002F6FDF6D9EBEDF70AF707FB0040D318CF
:10482800F4E0CDEDEFCBE5F5F53407FBE0FCFEFF5A
:10483800001600090000F600F23002160701FE001B
:10484800FFFDFCFFFD1C010904E2F0FBF69840F3B4
:1048580011DCD3EED72EE8FBF4B7FAEDEE0B050723
:1048680002E606F2020901FD01020F050F00FF0032
:10487800FF08FD0300170C020424F203FA5EEAF7AE
:10488800032A472F1B34211F1318FDC9EC0204F912
:10489800F6FBFB06F6E606FE00EB0FF4F20000005E
:1048A8000000FE00FEE7FFF8FE01020606E031FC0C
:1048B800F40ADE00FBD628FA0C00047FDEFC0004B4
:1048C8000105F201010CF80500FB0000FF000000E3
:1048D80000FF040000F4FCFF06F50CFF03E5D1011E
:1048E800080D3FF627F6E8FCFB0200D05F0108053B
:1048F800F9030C0006030D000FE6E2EFF1000200D9
:1049080000FF07FF06EEF601F20911FC07000000A0
:104918000800000008000000010000000800000076
:10492800080000000400000004000000040000006B
:10493800040000000400000004000000080000005B
:1049480004000000040000000C0000000300000048
:104958000300000004000000020000000200000044
:104968000100000002000000020000000C0000002E
:104978000100000001000000050000000000000028
:1049880000000000AD390008E539000835110008BD
:10499800A712000800000000000000008B3D00087E
:1049A8008D3D00080000000000000000893D00085F
:1049B8009B3D000800000000000000003141000895
:0449C8004941000859
:0449CC004535000865
:040000050800019D51
:00000001FF
