:020000040800F2
:10000000008000209D01000889010008930100087C
:10001000890100088901000889010008000000002A
:10002000000000000000000000000000890100083E
:10003000890100080000000089010008890100080A
:100040008901000889010008890100088901000868
:100050008901000889010008890100088901000858
:100060008901000889010008890100088901000848
:100070008901000889010008890100088901000838
:100080008901000889010008890100088901000828
:10009000890100088901000889010008E12B000896
:1000A0008901000889010008890100088901000808
:1000B000E53300088901000889010008890100086A
:1000C00089010008890100088901000889010008E8
:1000D00089010008890100088901000889010008D8
:1000E000112C000889010008890100088901000815
:1000F00089010008890100088901000889010008B8
:10010000000000000000000000000000890100085D
:100110008901000889010008890100088901000897
:100120008901000889010008890100088901000887
:10013000890100088901000800000000000000009B
:1001400089010008890100088901000800000000F9
:10015000000000000000000000000000000000009F
:10016000000000000000000089010008890100086B
:1001700089010008000000000000000000000000ED
:080180000000000089010008E5
:10018800684620F007018D46FEE7684620F0070123
:100198008D46FEE71549164A1648521A9210002352
:1001A8009A4217D1144A154ED2F88830144C43F4A9
:1001B8007003C2F88830D2F83432A41B43F04043AD
:1001C800C2F83432A4100025A54209D100F01AF86B
:1001D80001F094BC50F8234041F823400133DFE795
:1001E80056F8253098470135EEE700BF000000209B
:1001F80000000020B046000800ED00E0B04600080E
:10020800B8460008394AD2F8883043F47003C2F877
:100218008830374B1A6842F001021A605968354A2B
:100228000A405A601A6822F0847222F480321A60F6
:100238001A6822F480221A605A6822F4FE025A6070
:10024800DA6A22F00F02DA62196B2B4A82B00A408E
:100258001A6300229A60009201921A6842F480326E
:100268001A601A6802F400320192009A0132009270
:10027800019A1AB9009AB2F5A06FF2D11A6812F46D
:10028800003218BF01220192019A012A05D0174BAA
:100298004FF000629A6002B07047184A122111604C
:1002A8005A685A605A685A605A6842F480625A60BA
:1002B8005A6822F47C125A605A6842F4E8125A606A
:1002C8001A6842F080721A601A689201FCD55A685E
:1002D80022F003025A605A6842F002025A605A68D1
:1002E80002F00C02082AFAD1D1E700BF00ED00E0C5
:1002F800001002400CC07FF8CCFC00FF0020024038
:100308000E4BDB68DB4310B5C3F30224C4F10403CE
:10031800DBB299400F2323411340094A0B431B01C9
:10032800111803F0F00381F800334109012300F0AC
:100338001F0003FA00F042F8210010BD00ED00E0B4
:1003480000E100E030B50588ACB2244DA8420ED0DB
:1003580005F50065A8420AD0B0F1804F07D0A5F591
:100368009835A84203D005F58065A84203D124F04A
:1003780070040C43A4B21A49884208D001F5806180
:1003880088421FBF24F44074A4B21443A4B204806A
:10039800C362BDF80C300385104B98420FD003F5AB
:1003A800006398420BD003F54063984207D003F5E9
:1003B8008063984203D003F58063984201D10023FB
:1003C80003860123436103889BB243F00103038042
:1003D800C36843F00103C36030BD00BF002C014077
:1003E8000010004020F01F02012300F01F0003FA54
:1003F80000F0014BD05070471404014001F0030392
:1004080001F0FC0101F1804101F5803110B58A68E5
:100418009B000F249C4022EA04028A608A68984064
:100428001043886010BD20F01F0303F1804303F5DB
:100438008233012200F01F0030B502FA00F01C6878
:10044800C24314401C605D6815405D601D6805432B
:100458001D609D6815409D60DD6803F140442A4099
:100468001029A4F58234DA6006D19A6802439A60AA
:10047800DA681043D86030BD01F1804101F582315E
:100488000B591843085130BD034B93F8C100B0FA1B
:1004980080F04009704700BFC802002070477047CD
:1004A800704710B50C21044600F0C6FF204610BD69
:1004B80010B52421044600F0BFFF204610BD10B53A
:1004C8000421044600F0B8FF204610BD2DE9F04F86
:1004D8000746394B47F8043B8DB0044600264FF0D9
:1004E8007E5332463146009304F1300B334638468A
:1004F80001F02EF804F1E00A584601F037F95046A9
:1005080001F082F804F5987003F01AFC04F5B27053
:1005180003F0E0FC04F5E479284BC4F8BC3104F599
:100528000078C4F8C061C4F8C461484601F014FBFF
:10053800404601F053FB04F5DB5300251D7041F6DE
:1005480061333246E5541E4B009338461D4B4FF03D
:100558007A5100F0E5FF1C4BC4F8C43159465046A7
:10056800C4F8C06101F064F8184B039301230493A5
:10057800C8224FF0FF3303A948460593069507950F
:10058800089509950A950B9501F0FEFA41F6543342
:100598004046E55041F65C33E55001F055FB41F625
:1005A80058334FF4FA62E25041F662332046E5547C
:1005B8000DB0BDE8F08F00BF6C3F0008483F000851
:1005C800000020413333B33F4260653B383F0008A9
:1005D80070B504462DED028B494802F0DBFA0A2378
:1005E8000246484904F1E00001F032F8D4F8283115
:1005F800022B76D0032B01D0012B6FD19FED428ABD
:10060800DFED428A41F66135635D2BB341F658331D
:100618003B48E65802F0BEFA864265DA384802F0EE
:10062800B9FA04F500750146284601F0E7FA0646CE
:10063800334802F0AFFA00F16401284601F0DEFA0F
:1006480036F0040358D0DFED327A9FED328A30F06D
:10065800040318BFB0EE678A2F4BDFED2E7A93F8AC
:10066800C02094ED707A032A2C4A127C08BFB0EEA1
:10067800678A002A18BFB0EE678AB4EEC78AF1EE1F
:1006880010FAC8BFD4ED717AD3F8C820D4BF84ED6E
:10069800708A77EE877A04F10400C8BFC4ED707AD7
:1006A80007EE902A78EEE77A94ED708A17EE901AA2
:1006B80000F05AFF07EE900A78EE678A77EE887A9C
:1006C800174817EE901A02F085FB18EE901ABDEC49
:1006D800028B1348BDE8704002F07EBB9FED0D8A87
:1006E8008EE79FED0B8A8BE7002363550D4BC4ED16
:1006F800708AC4F8C431AFE79FED068AACE700BF43
:1007080044020020D80200206666263F0000000050
:100718000000803F9A99993EC80200205C010020A1
:10072800A00300204260653B10B500211148124C1F
:1007380002F050FB00210F4802F04EFB0E4801F07A
:1007480083FE0028FAD000210A4802F045FB0B4935
:10075800084802F03FFBD4F8C430032BEED8002140
:10076800044802F037FB00210248BDE8104002F0BF
:1007780033BB00BFA0030020C80200209A99993E0D
:10078800BFB5464E464D9FED478A0446434801F0A3
:100798005BFE0028FAD096F8C13093B996F8C030BD
:1007A800032B20460AD1FFF7BFFF0023C4F8C0314E
:1007B800D6F8C810201D00F017FFE7E7FFF708FF7D
:1007C800E4E7012B1BD1284602F008FB80462846A7
:1007D80002F006FB344B039304F598770293334BEE
:1007E8000590019300933846CDF810804FF48C7330
:1007F80000222F4903F0B8FA384603F05BFB96F85D
:10080800C130032B22D1284602F0E8FA08EE900AFC
:10081800284602F0E5FA07EE900A234B039367EEA9
:10082800887A68EE888A04F5987702931F4B0193BB
:1008380000933846CDED057ACDED048AFA230022DF
:100848001B4903F091FA384603F034FB96F8C1309F
:10085800022B9BD1284602F0C1FA08EE900A2846DE
:1008680002F0BEFA07EE900A0F4B039367EE887A00
:1008780068EE888A04F5987702930C4B01930093ED
:100888003846CDED057ACDED048A0023FA220849D1
:1008980003F06AFA384603F00DFB77E7C802002038
:1008A800A00300200000003F0AD7A33BCDCC4C3F5B
:1008B8000000002000F5DB500123037070470000A2
:1008C80041F661330122C2540023C0F8C031024B03
:1008D800C0F8C431704700BF0AD7A33B0348044B94
:1008E800044A0549036000F0B2BD00BF00000020C3
:1008F800583F000808000020A9040008104B10B554
:100908000446036000F5007001F04EF904F5E47048
:1009180001F01AF904F5B27003F0F0FA04F59870D2
:1009280003F006FA04F1E00000F066FE04F130007E
:1009380000F0F6FE201D00F0EBFD204610BD00BFC4
:100948006C3F000810B50446FFF7D8FF204641F673
:10095800643100F071FD204610BD704770471423C4
:10096800436070470020704700207047704710B5FB
:100978000821044600F060FD204610BD014B0360CD
:10098800704700BF7C3F00082DE9F0411D46036811
:1009980004469B6816460F469847236839465B69A4
:1009A80020469847236831465B6920469847236864
:1009B80029465A692046904723682046DB68BDE8E7
:1009C800F0411847036870B504469B6816460D4603
:1009D8009847236829465B6920469847236831462B
:1009E8005B6920469847236820469B689847236898
:1009F80045F001015B6920469847236800219B69FF
:100A08002046984723680546DB68204698472846CD
:100A180070BD42680023934202D000BF0133FAE759
:100A28007047000010B5034B0360044600F082FCD9
:100A3800204610BDA03F000810B50446FFF7F2FF9E
:100A48002046402100F0F8FC204610BD2DE9F84F63
:100A580004460E4692460D464FF080094FF48068D2
:100A68006FF07E07A36BA5EB060B5B451BD9E26B0A
:100A7800A06A51460BFB020000F026FC236B626B58
:100A88005843E36A90FBF9F013F90B3002FB0300BB
:100A980090FBF8F0B842B8BF38467F28A8BF7F203F
:100AA80005F8010BDEE7BDE8F88F000030B585B02A
:100AB800044601AD85E80E0000F046FC2346144AC2
:100AC80043F81C2B95E8070083E8070008AA07CA23
:100AD800231D83E807000BAA07CA04F1100383E863
:100AE80007000E9BA3620F9BE362109B2363119B7D
:100AF80063636268A3685A43E3685343E3636369C3
:100B080002465A43A36920465343A36305B030BD48
:100B1800A03F000870B5013A0B460025866A5C1AAA
:100B2800A64207D912F9014F002CB4BF1D701C70E2
:100B38000133F3E770BD000010B5034B03600446B2
:100B480000F0F8FB204610BDB43F000810B504467D
:100B5800FFF7F2FF20462C2100F06EFC204610BD66
:100B680030B585B0044601AD85E80E0000F0ECFB19
:100B780023460D4A43F81C2B95E8070083E8070035
:100B880008AA07CA231D83E807000BAA07CA04F1AD
:100B9800100383E80700A36862685A43E3682046A5
:100BA8005343A36205B030BDB43F00082DE9F04FB0
:100BB8008DB0189C0A91199909908D1E6143039173
:100BC8001B991A980595591800EBC0000791610008
:100BD80004910146A51E0931069502900192A4468A
:100BE8000B9107998B427BD00B99019A00251144F0
:100BF8000891A846099905EB0C0E8E4400270A991E
:100C08007819084401990026089A093191423CD084
:100C180090F900B011F909AC11F9079C049A1AFB74
:100C28000B6690F901B011F908AC1AFB0B6690F944
:100C380002B019FB0B6B11F9069C065719FB06B697
:100C480000EB040911F905BC99F901A01BFB0A6620
:100C580099F902B011F904AC11F9039C1AFB0B6A5B
:100C680010F9146011F902BC19FB06A600EB020981
:100C7800039A99F901A01BFB0A6611F901AC99F9CD
:100C880002B010441AFB0B66BEE7169A93F90010DF
:100C98005643802296FBF2F6179A02FB01614FF445
:100CA800806291FBF2F16FF07E029142B8BF11466B
:100CB800069A7F2907F10107A8BF7F21BA420EF8DB
:100CC800011F9CD2059A08F101084245254491D29A
:100CD800029A01991144039A01910133944480E7DF
:100CE8000DB0BDE8F08F2DE9F04F8DB01AAC94E847
:100CF8001011B8F1010F0890099196461F46189DEA
:100D0800DDF864B01D9E54D1BCF1010F62D10BFB1C
:100D180005F29919CDF818E00792CEF1000E0A9164
:100D28004FF0000C0A99994254D000208046089F41
:100D38000CEB0001791800260B910999DDF8189041
:100D480087190F4400210EEB090A544508D919F9EF
:100D5800012B97F900A012FB0A11079A1744F2E732
:100D6800169A93F900705143802291FBF2F1179A79
:100D780002FB07174FF4806297FBF2F76FF07E02D1
:100D88009742B8BF17467F2F0B9AA8BF7F27975562
:100D98000136B542D1D208F10108C3452844C6D26C
:100DA800079A9444069A224401330692AEEB040E45
:100DB800B8E7B8F1030F0DD1BCF1030F0DD10494BE
:100DC800179C0194169C0596CDF80CB002950094DA
:100DD800FFF7ECFE0DB0BDE8F08FBCF1010FF9D1C3
:100DE800AB1E069304EBC4030793089B04EB44046F
:100DF8002B449C46E31C4FF0000E0A937645E9D03D
:100E08000EF1010308930A9BE04603EB0209002454
:100E1800099B1146181900230331494513D090F94D
:100E280000A011F903BC1BFB0A3390F901A011F9CA
:100E380002BC1BFB0A3390F902A011F901BC28443B
:100E48001BFB0A33E8E7169980204B4317F90E106D
:100E580093FBF0F3179800FB01314FF4806391FB8B
:100E6800F3F16FF07E039942B8BF1946069B7F29BC
:100E780004F10104A8BF7F21A34208F8011FC7D2CB
:100E8800079BDDF820E01A44AC44B7E710B5034BE4
:100E98000360044600F04EFA204610BDC83F000823
:100EA80010B50446FFF7F2FF2046382100F0C4FAD7
:100EB800204610BD70B5154600F11C0204460E46CA
:100EC80007CA88B005AB83E80700221D07CA02AB32
:100ED80083E80700636B0193236B00932946E36A59
:100EE800A26A3046FFF7FFFE6368A1685943636A48
:100EF80003FB01612B46A26860685043E2684243E5
:100F0800581B824204D913F9012B01F8012BF2E78F
:100F180008B070BD30B585B0044601AD85E80E0057
:100F280000F012FA23460E4A43F81C2B95E80700F6
:100F380083E8070008AA07CA231D83E807000BAA4D
:100F480007CA04F1100383E807000E9BA3620F9BF6
:100F5800E362109B2363119B6363204605B030BD99
:100F6800C83F000810B5034B0360044600F0E2F9DF
:100F7800204610BDDC3F000810B50446FFF7F2FF1D
:100F88002046282100F058FA204610BD82B02DE9ED
:100F9800F04F87B04FEA420E009110A981E80C008B
:100FA800DDF844C0129B01934FEA4C030EFB03F398
:100FB800029300250CFB02F303932F46019B9F42EB
:100FC80039D080462E464FF0000AE2452DD00099D0
:100FD800009B0EEB060949449C1905910023934296
:100FE80004F102041BD014F902BC14F9011C8B454E
:100FF800B8BF8B46A11B49442BEAEB7B11F9011CB6
:101008005945B8BF59460491059911F913B0049987
:101018005945B8BF594608F803100133DFE70AF10C
:10102800010A0EEB09069044CFE7029B1D44039B7F
:1010380001371844C2E707B0BDE8F04F02B0704767
:1010480082B02DE9F041DDF820C006AC84E80C0040
:101058004FEA420E44420025654515D006460B4628
:101068003719BA4203F1020309D913F9027C13F9BB
:10107800018C4745B8BF474606F8017BF0E70135C4
:1010880071441044A41AE7E7BDE8F04102B0704784
:10109800034607B508461146DA69022A08D11A6AD2
:1010A800022A08D19A69009210330CCBFFF76EFF21
:1010B80003B05DF804FB012AFAD19A690092103353
:1010C8000CCBFFF7BDFFF3E730B585B0054601ACA3
:1010D80084E80E0000F038F92B460A4A43F81C2B26
:1010E80094E8070083E8070008AA07CA2B1D83E8CD
:1010F80007000BAA07CA05F1100383E80700284672
:1011080005B030BDDC3F0008D0F88C30D0F888201E
:1011180030B55A43D0F890305A430023934205D053
:10112800D0F8A840CD56E5540133F7E730BD0000AC
:10113800074B10B504460360D0F8A00008B100F0D2
:1011480085F9D4F8A40008B100F080F9204610BD54
:10115800F03F000810B50446FFF7EAFF2046B0212B
:1011680000F06AF9204610BD0E4B03600023C0F85A
:101178008830C0F88C30C0F89030C0F89430C0F88F
:101188009830C0F89C3000F1080200F1880142F85C
:10119800043B8A42FBD14360C0F8A030C0F8A430B9
:1011A800704700BFF03F0008F8B50025044600F17D
:1011B80008062F4663689D421FD2002330684269A3
:1011C8000169514382694A43934204D2D4F8AC205E
:1011D800D7540133F2E70368D4F8A8209B68D4F801
:1011E800AC109847D4F8A830D4F8AC20C4F8A8209C
:1011F800C4F8AC3001350436DCE7D4F8A830D4F8AC
:10120800AC20C4F8A820C4F8AC30F8BD30B5D0F88C
:101218009820D0F89430D0F8AC405343D0F89C20B4
:1012280094F900105A4300231846934206D0E55615
:10123800A942BCBF184629460133F6E730BD70B550
:101248004468023400F1080500EB84040020A5423C
:1012580012D055F8043B9A6859681E695143DA68F8
:101268004A4359699B6971434B439A4238BF1A46AE
:10127800904238BF1046EAE770BDD0F8A03070B58C
:10128800054603BBD0F8A440ECB9FFF7D8FF0646E3
:1012980000F0D4F8C5F8A000304600F0CFF8D5F833
:1012A800A030C5F8A830C5F8A400C5F8AC0023469E
:1012B80022469E4207D0D5F8A010CA54D5F8A410EB
:1012C800CA540133F5E770BDF0B5002305460C4656
:1012D8001646032E05F1040504F1040419D915F97D
:1012E800047C14F904EC17FB0E3314F903EC15F91C
:1012F800037C17FB0E3715F9023C14F902EC13FBBB
:101308000E7715F901EC14F9013C043E1EFB03733A
:10131800DFE702F0030422F0030210440A443CB160
:1013280010F9015B12F9011B013C15FB0133F6E7CB
:101338001846F0BD7047704710B52821044600F0E4
:101348007BF8204610BD0000064A02600022426079
:101358008260C260026142618261C261026242626D
:10136800704700BF0840000810B5034B03600446EF
:10137800FFF7E0FF204610BD1C40000810B50446EA
:10138800FFF7F2FF2046382100F056F8204610BD3E
:1013980070B5164600F11C0204460D4607CA88B00F
:1013A80005AB83E80700221D07CA02AB83E80700E4
:1013B800636B0193236B0093A26AE36A3146284664
:1013C800FFF791FC08B070BD30B585B0044601AD9B
:1013D80085E80E00FFF7B8FF23460E4A43F81C2B9A
:1013E80095E8070083E8070008AA07CA231D83E8D1
:1013F80007000BAA07CA04F1100383E807000E9B35
:10140800A3620F9BE362109B2363119B63632046D7
:1014180005B030BD1C400008014B024818607047F9
:10142800040000203C040020024A1368184410609D
:10143800184670470400002070470000024A1368ED
:1014480018441060184670470400002070470020B8
:101458007047704710B530210446FFF7EDFF20466E
:1014680010BDC360009B0361019B416082604361C2
:10147800704700238361C361036243628362C3626E
:101488007047000008B5054B036000234360836084
:10149800C36003614361FFF7ECFF08BD30400008FB
:1014A800D0ED097AD0ED044A90ED035A90ED0A6A1E
:1014B800C0ED0A7A05EE901A67EEA47A45EE857AB1
:1014C8004162D0ED055AD0ED066A80ED0B6A46EE12
:1014D800257A90ED016A90ED077AC0ED076A46EE2D
:1014E800867AD0ED026A80ED087A47EE267AC0ED5A
:1014F800067A17EE900A7047D0ED067AF5EEC07AB4
:10150800F1EE10FA48BFF1EE677A17EE900A7047CD
:10151800704710B52C210446FFF78EFF204610BDFA
:1015280007EE901A07EE102A37EE877A0021F1EEBF
:10153800677A0362009B41608160C160016141611B
:10154800816280ED067AC0ED077A43627047000039
:1015580037B5044D0560069D0095FFF7E1FF03B020
:1015680030BD00BF40400008D0ED036AD0ED017ADD
:1015780090ED046AD0ED074AC0ED046A07EE102A20
:1015880076EEA66A90ED065AC0ED027A05EE901A3C
:1015980067EEA47A37EE667A45EE857A4160C260D6
:1015A80037EE067AD0ED086A80ED056A47EE667A6E
:1015B80090ED0A7A77EE877A90ED097AC0ED0A7A8B
:1015C800F4EEC77AF1EE10FAC8BF80ED0A7AD0EDD2
:1015D8000A7AB1EE477AF4EEC77AF1EE10FA48BF0C
:1015E80080ED0A7A806A7047002343608360C16097
:1015F8000161416183627047704710B5502104460C
:10160800FFF71AFF204610BD0346074A43F8042B8C
:1016180000F14401002203F8012B8B42FBD1034B5C
:101628008264C3644264704750400008003665C451
:1016380010B5031D00F14404002203F8012BA34256
:10164800FBD1024B8264C364416410BD003665C49B
:1016580070B50446C06C101A0028B8BF40428342D7
:101668004FDCE26404F138020023A2F10800C51837
:1016780095F90460D5180133082B2E71F7D18442EF
:101688000246F1D10D1D224B224A2431284650F83A
:10169800046BB242B8BF3246B342A8BF3346884251
:1016A800F5D193422FDAD31A07EE903A9FED1A7AC2
:1016B800F8EEE77AC7EE276A07EE902AF8EEE77A9F
:1016C80007EEE67AF0EE477A231D1946B5EC017A63
:1016D800B8EEC77AB0EE676A07EE266A8542BDEEB5
:1016E800C67A17EE102A03F8012BEFD1606C036855
:1016F8009B689847606CFFF757FD606CFFF786FDA5
:10170800A064002070BDDFED057AF0EE676ADBE7C4
:1017180040420F00C0BDF0FF0000FE420000000084
:10172800F8B504460B4B44F8083B002605463746F7
:101738006B689E4209D254F8040B10B103685B68C9
:10174800984744F8047C0136F2E72846FFF7F0FC96
:101758002846F8BDA443000810B50446FFF7E0FF8B
:101768002046B021FFF768FE204610BD2DE9F04362
:10177800804695B0FFF7F8FCBC4BC8F8003008234A
:10178800C8F88830C8F88C300123C8F89030C8F8F9
:101798009430C8F898300523C8F89C30B44B93E8C7
:1017A8000700B44B0BAC84E8070093E80700B24B82
:1017B8000EAD85E8070093E8070011AE86E807003C
:1017C8003820FFF731FE40F25F1309934FF41B7383
:1017D8000893AA4B0793AA4B0693814696E80700FD
:1017E80003AF87E8070095E807008DE8070048463B
:1017F80094E80E00FFF7E8FDA24BC8F8089093E8BC
:101808000700A14B84E8070093E807009F4B85E891
:10181800070093E8070086E807002C20FFF704FE7E
:10182800814696E8070087E8070095E807008DE8F5
:101838000700484694E80E00FFF792F9944BC8F861
:101848000C9093E80700934B84E8070093E807009F
:10185800914B85E8070093E8070086E807002820F1
:10186800FFF7E2FD814696E8070087E8070095E85C
:1018780007008DE80700484694E80E00FFF724FCAF
:10188800864BC8F8109093E80700854B84E807005A
:1018980093E80700834B85E8070093E8070086E88C
:1018A80007003820FFF7C0FD40F25313099340F2B8
:1018B800D62308937C4B07937C4B0693814696E886
:1018C800070087E8070095E807008DE80700484605
:1018D80094E80E00FFF71EFB754BC8F8149093E8C8
:1018E8000700744B84E8070093E80700724B85E80B
:1018F800070093E8070086E807002C20FFF794FD0F
:10190800814696E8070087E8070095E807008DE814
:101918000700484694E80E00FFF722F9674BC8F81D
:10192800189093E80700664B84E8070093E80700DF
:10193800644B85E8070093E8070086E8070038202D
:10194800FFF772FD40F21513099340F2975308937D
:101958005D4B07935D4B0693814696E8070087E841
:10196800070095E807008DE80700484694E80E0050
:10197800FFF7D0FA564BC8F81C9093E80700554B70
:1019880084E8070093E80700534B85E8070093E8CD
:10199800070086E807002C20FFF746FD814696E8F9
:1019A800070087E8070095E807008DE80700484624
:1019B80094E80E00FFF7D4F8484BC8F8209093E855
:1019C8000700474B84E8070093E80700454B85E884
:1019D800070093E8070086E807002820FFF724FDA2
:1019E800814696E8070087E8070095E807008DE834
:1019F8000700484694E80E00FFF766FB3A4BC8F824
:101A0800249093E80700394B84E8070093E807001F
:101A1800374B85E8070093E8070086E80700402071
:101A2800FFF702FD4FF4CB7309934FF474730893D7
:101A3800304B0793304B0693814696E8070087E8BA
:101A4800070095E807008DE80700484694E80E006F
:101A5800FFF72CF809234046C8F82890C8F8043046
:101A6800FFF70BFC404615B0BDE8F083A44300081F
:101A78006C430008304300083C4300085840000805
:101A8800694000083C4300083C4300083C43000808
:101A9800784300083C430008484300086C430008AA
:101AA80048430008544300085C4000088D40000883
:101AB8005443000854430008544300086C4300088A
:101AC8005443000860430008604000081D410008B6
:101AD800604300086043000860430008784300083A
:101AE80060430008844300088443000884430008D6
:101AF80090430008644000083D42000810B5ADF569
:101B0800DB5D82B00E4801F003FE0E4800F0D0FA0B
:101B1800044601A8FEF7DAFC012C01A80CD1FEF757
:101B2800C9FE01A8FEF72CFE01A8FEF7E7FE00207B
:101B38000DF5DB5D02B010BDFEF7C2FEF1E700BF98
:101B480030020020B0020020704710B5382104464A
:101B5800FFF772FC204610BD094B0360094B436038
:101B680000F1280200F10803012143F8041B934205
:101B7800FBD100238362C36203634363704700BFE2
:101B8800BC430008383F000830B50B1D00F10804BD
:101B9800243153F8045B44F8045B8B42F9D10023E9
:101BA8008262C362036330BD70477047704710B5E7
:101BB80044210446FFF740FC204610BD10B541F60D
:101BC80004110446FFF738FC204610BD10B541F655
:101BD80054110446FFF730FC204610BD044A026049
:101BE800044AC260044A026500224260826070476B
:101BF800EC430008CC430008DC43000890F855008B
:101C0800704700002DE9F8430024DFF838900646B5
:101C180000F11008274614F01F0505D13946424641
:101C2800484601F0ADF9403706EB450506EB44039D
:101C380001342A8AA3F85420B4F5486FEBD1BDE8E3
:101C4800F88300BF3802002010B4034600F14004B6
:101C580002460021117451740232A242FAD100F5F1
:101C6800C851002283F8542083F8552002338B4250
:101C7800F8D1426082605DF8044BFFF7C3BF0000F3
:101C880010B5034B0360044601F0CAF8204610BDA6
:101C9800FC43000810B50446FFF7F2FF2046042174
:101CA800FFF7CAFB204610BD10B5044601F0C0F886
:101CB800014B2360204610BDFC43000838B505469B
:101CC8004C1E14F8011F19B1284601F00DF9F8E768
:101CD80038BDFFF7F3BF30B585B000230A228DF871
:101CE8000F301546B1FBF5F405FB141304A9114494
:101CF800303301F80C3C531EDBB221462CB901AB42
:101D08009918FFF7DBFF05B030BD1A46EAE77047C0
:101D180010B518210446FFF78FFB204610BD0000C0
:101D28004D494E4B03604B6943F4FC0330B54B619E
:101D38004B4B43609A6822F440729A609A6842F466
:101D480040729A609A8822F010021204120C9A804B
:101D58009A8892B29A801A6822F440721A601A68B5
:101D680042F480721A604A6942F4FC024A619A6835
:101D7800836022F440629A609A6842F440629A60F2
:101D88009A8822F020021204120C9A809A8892B241
:101D98009A801A6822F440621A601A6842F48062D3
:101DA8001A604A6942F4FC024A614FF09042C260EC
:101DB800956825F040459560956845F040459560E3
:101DC8009588C5F30E0595809588ADB29580156800
:101DD80025F040451560156845F0804515604A694D
:101DE80042F4FC024A619A68036122F040629A60F8
:101DF8009A6842F040629A609A8822F4005212046B
:101E0800120C9A809A8892B29A801A6822F04062DC
:101E18001A601A6842F080621A604A6942F4FC0249
:101E28004A6143619A6822F040529A609A6842F087
:101E380040529A609A8822F480421204120C9A80C6
:101E48009A8892B29A801A6822F040521A601A68E8
:101E580042F080521A6030BD001002400C44000865
:101E6800000400480029C26814DA138D6FEA43435E
:101E78006FEA53439BB213854942FF290B46A8BF1B
:101E8800FF2341F2BE215943FF23B1FBF3F1044B79
:101E980099637047936943F400439361EDE700BF8A
:101EA800002C014082680029ABBF138D93699BB257
:101EB80043F02003B5BF494243F0200393611385E3
:101EC800FF290B46A8BFFF2341F2BE215943FF2338
:101ED800B1FBF3F1014B5963704700BF002C01407F
:101EE8000269936823F040639360936843F040630A
:101EF8009360136823F040631360136843F0006332
:101F080013604369996821F040519960996841F0DC
:101F180040519960196821F040511960196841F0E1
:101F280000511960516A21F470015162516A41F4FB
:101F3800C00151625A6A22F070625A625A6A42F0CB
:101F4800C0625A62104A936943F4006393610F4B6D
:101F5800002241F2BF211A80D96201211A851A860E
:101F680059615A639A634FF480725A6047F270025B
:101F78009A6177221A621A8892B20A431A805A6CB6
:101F880042F400425A64704700100240002C01409D
:101F9800416842690B8D9BB243F010030B85816841
:101FA8000B8D9BB243F020030B85C1680B8D6FEA44
:101FB80043436FEA53439BB20B8501690B8D9BB278
:101FC80043F400530B85138D9BB243F48043138570
:101FD800FFF786BF704710B518210446FFF72CFAA3
:101FE800204610BD037B826833B1002303739369D5
:101FF80043F400439361704701230373138D6FEA21
:1020080043436FEA53439BB2138570471C4A1D4BE9
:102018000360536943F4FC0310B553611A4B4360E2
:102028009C6824F040749C609C6844F040749C60F8
:102038001C6824F040741C601C681C60DC6844F058
:102048008074DC60546944F4FC0454619A688360C9
:1020580022F040429A609A6842F040429A609A8818
:10206800C2F30E029A809A8892B29A801A6822F075
:1020780040421A601A6842F080421A6010BD00BFE0
:10208800001002401C440008000400484FF0FF33D1
:1020980010B5436100230446037301464FF4FA72F6
:1020A800024801F049F9206110BD00BF3804002042
:1020B800436870B504461A8AD20401D500BFFAE70E
:1020C800012363616422217C0F480F4D01F05CF904
:1020D8000D4801F065F900F5FA6663681B8ADB04B0
:1020E8000FD4094801F05CF9B042F6D96369012BB5
:1020F800F3D13222217C284601F046F9022363619C
:10210800EBE7606970BD00BF38040020704710B568
:1021180004210446FFF790F9204610BD014B0360E7
:10212800704700BF644400080B0F064BDA6A14BFFF
:1021380022F4785222F4F872DA62DA6A1143D96228
:10214800704700BF0010024030B5042B9DF80C40CA
:102158001CDC03EB4303086B5B001F259D4020EA52
:10216800050002FA03F303430B63092A39DD0A3A2F
:102178008B698B6902EB42020720904023EA000337
:102188008B618B6994401C438C6130BD092B0CDC3E
:102198000620053B43434D6B1F20984025EA00006D
:1021A80002FA03F303434B63DFE70E2B4FF00600FD
:1021B8000BDC0A3B43438D6B1F20984025EA000047
:1021C80002FA03F303438B63CFE70F3B4343CD6B23
:1021D8001F20984025EA000002FA03F30343CB636B
:1021E800C3E7013A4B694B6902EB42023820904041
:1021F80023EA00034B614B69033204FA02F21A43E3
:102208004A6130BD13B5013909299DBF0D4B53F8FB
:1022180021400D4B4FF0A04498BF5A5C4FF001038A
:10222800009388BF01222146FFF78EFFA36843F081
:102238000403A36023685B0701D400BFFAE7206C9E
:1022480002B010BD34440008284400082DE9F743C3
:10225800254C264F264E4FF488710546FFF764FF3C
:102268006369244943F080536361FFF75DFF636945
:102278004FF0A04843F0005363614FF00209002477
:102288000123C8F80C401A46FC604146F460CDF8BA
:102298000090FFF759FF01231A4639462846CDF822
:1022A8000090FFF751FF0123CDF800900C22314632
:1022B8002846FFF749FFD8F8083043F00103C8F86B
:1022C8000830BB6843F00103BB60B36843F0010307
:1022D800B360214628460134FFF794FF0B2CF8D150
:1022E80003B0BDE8F08300BF0010024000010050B9
:1022F8000004005000220010704710B5D821044691
:10230800FFF79AF8204610BD4C4A4D4B03605369BD
:1023180043F4FC0310B553614FF0904343609C684D
:1023280024F440349C609C6844F440349C609C884D
:1023380024F480742404240C9C809C88A4B29C807F
:102348001C6824F440341C601C6844F480341C600D
:102358003C4C046144638465C467546944F4FC04D8
:1023680054611C68C0F8A03024F003041C601C6889
:1023780044F003041C60546944F4FC0454611C6870
:10238800C0F8A43024F00C041C601C6844F00C0451
:102398001C60546944F4FC0454611C68C0F8A830FB
:1023A80024F030041C601C6844F030041C6054693C
:1023B80044F4FC0454611C68C0F8AC3024F0C00438
:1023C8001C601C6844F0C0041C60546944F4FC049C
:1023D80054611C68C0F8B03024F440741C601C6858
:1023E80044F440741C60546944F4FC0454611C684F
:1023F800C0F8B43024F440641C601C6844F44064A1
:102408001C60546944F4FC045461C0F8B8301C687A
:1024180024F440541C601C6844F440541C60546903
:1024280044F4FC0454611A68C0F8BC3022F44042F9
:102438001A601A6842F440421A6010BD0010024047
:1024480074440008383F0008037B72B60BB10022C1
:10245800027362B6184670474268936943F4807302
:10246800936170474268138D9BB243F48073138560
:10247800704700002DE9F0410446FFF7F3FF64219F
:102488003048DFF8C48000F097FF04F15C06374657
:10249800002529464046FFF7B5FE0135082D47F8C7
:1024A800040BF6D12046FFF7D7FF64212548264FB5
:1024B80000F082FF002529463846FFF7A3FE56F8AC
:1024C800043B0135C01A082D3062F4D104F114021E
:1024D80004F13401002342F8043B9142FBD16FF030
:1024E800FF02A2636FF0BF02E2636FF07F02226413
:1024F8006FF03F0262644022A2648022E264C0223C
:1025080022654FF4807262654FF49672A2600122D0
:1025180084F8C020002284F8C130C4F8C430C4F85C
:10252800C820C4F8CC20C4F8D020C4F8D420237321
:10253800042200232146034800F0FEFE0020BDE8E7
:10254800F08100BF380400205801002081F3030106
:1025580000EB810030B5826B456902FB05F471B16F
:102568000369426B072902FB03422B440AD08169A5
:10257800C06B0B4400FB012292FBF3F030BD6200FC
:102588006B00F4E722442B44F6E70000F8B500F1AD
:102598001402012380F8C130044600F134010023FD
:1025A800104650F8045B81422B44FAD1DB0807EE51
:1025B800903AF8EEE77A0021C4ED357A16460D46D2
:1025C80004EB850756F804EB7F69BE45C8BF0D4686
:1025D80001310829F4D1A168002652F8047B8F4202
:1025E800C8BF01368242F8D1B3F5FA7F08D9032370
:1025F80084F8C030C4F8C460002384F8C130F8BD42
:1026080004EB85035B69994229DA012384F8C03019
:1026180029462046FFF79AFF07EE900A9FED1A7A9F
:10262800F8EEE77A691C67EE877A2046C4ED327ABD
:10263800FFF78CFF07EE900AF8EEE77A691E67EE5F
:10264800877A2046C4ED337AFFF780FF07EE900AB9
:10265800F8EEE77A67EE877AC4ED347ACAE7D4ED04
:10266800327A9FED0A7AF4EEC77AF1EE10FA01D5C4
:102678000223C2E79FED067AF4EEC77AF1EE10FA6C
:10268800BDDD0323B9E700BF0000803BCDCC4CBFC4
:10269800CDCC4C3F2DE9F8430025DFF84880104F9A
:1026A800064600F11404A94629464046FFF7AAFD4C
:1026B800A36CC01A7843E36E90FBF3F0013510F574
:1026C8007A7054BF2060C4F80090082D04F1040407
:1026D800EAD13046FFF75AFF01233373BDE8F88388
:1026E80018FCFFFF58010020704710B54821044628
:1026F800FEF7A2FE204610BD014B0360704700BFE5
:10270800884400082DE9F0410446406C03689B6842
:102718000F469847606C0368D4215B699847606CE2
:10272800036819215B699847606C03689B68984740
:10273800606C0368D5215B699847606C0368012168
:102748009B69984700020FFA80F8606C03680121C2
:102758009B69984748EA0008606C036801219B69F7
:102768009847000205B2606C036801219B6998478D
:102778000543606C036801219B6998470602606CF9
:10278800036800219B69984736B20643606C0823AA
:102798000FFA88F82DB298FBF3F895FBF3F536B2EB
:1027A80096FBF3F603684FEAC808ED00F600DB680D
:1027B8000FFA88F82DB236B2984747B1A36A434456
:1027C800A362E36A2B44E362236B33442363E26A24
:1027D800A36A606CAD1A226B6561A8EB0303B61A95
:1027E8002361192293FBF2F8E36995FBF2F503EBF9
:1027F8004803E361236AA66103EB4505636A96FB18
:10280800F2F603EB46060368256266629B68984702
:10281800606C0368D4215B699847606C0368292160
:102828005B699847606C03689B689847606C0368AD
:10283800D5215B699847606C036801219B699847BB
:10284800000205B2606C036801219B699847284320
:1028580007B2606C036801219B699847000206B2C1
:10286800606C036801219B6998470643606C0368A4
:1028780001219B699847000205B2606C036800213A
:102888009B6998470543606C0368DB689847174B5A
:102898006760D4ED107ADFED166A93ED017A67EE82
:1028A800A67AB8EEC77ADFED136A47EE267A36B213
:1028B8002DB29FED117AA660F4EEC77AF1EE10FA08
:1028C800E560C4ED107A06DC9FED0C7AF4EEC77A69
:1028D800F1EE10FA07D5012384F83D30012384F87E
:1028E8003C30BDE8F0810023F6E700BF6802002015
:1028F800CDCC4C3FCCCC4C3E00803B4500803BC50A
:102908000021FFF7FFBE406B003018BF0120704761
:1029180011F1FF3101D300BFFAE7704738B504461B
:10292800102208466164A823D421FEF72DF800235D
:1029380023616361A361A362E3622363E3612362AA
:10294800636242F210712046FFF7E2FF0F226363D1
:10295800D421606CFEF736F8682804BF012363634E
:102968001022A823D421606CFEF70EF838231E220B
:10297800D421606CFEF708F800232E22D421606C65
:10298800FEF702F800231222D421606CFDF7FCFF49
:1029980060232022D421606CFDF7F6FF38231F2224
:1029A800D421606CFDF7F0FF42F210712046FFF76A
:1029B800AFFF00212046FFF7A5FE0023002284F880
:1029C8003D302264A3634FF47A7501212046FFF756
:1029D80099FE64212046FFF79BFF013DF5D14FF496
:1029E8007A72A36AE56193FBF2F32562A3626562DA
:1029F800E36A656093FBF2F3A560E362E560236B2D
:102A0800054893FBF2F3214623630A222B4600F084
:102A180093FC84F83C5038BD38040020704710B54A
:102A280014210446FEF708FD204610BD304A314BFC
:102A38000360536943F4FC0310B553612E4B4360A4
:102A48009C6824F440549C609C6844F440549C6006
:102A58001C6824F440541C601C681C60DC6844F446
:102A68008054DC60546944F4FC0454619C688360BD
:102A780024F440449C609C6844F440449C601C6876
:102A880024F440441C601C681C60DC6844F48044E6
:102A9800DC60546944F4FC0454619C68C36024F00D
:102AA80040749C609C6844F040749C601C6824F0EE
:102AB80040741C601C681C60DC6844F08074DC6036
:102AC800546944F4FC0454619A68036122F4400296
:102AD8009A609A6842F440029A601A6822F44002A6
:102AE8001A601A681A60DA6842F48002DA6010BD67
:102AF800001002409C44000800080048164B174A82
:102B080010B500241C60164B1C60936943F0010348
:102B1800936106210220FDF771FC0C210220FDF7CC
:102B28006DFC10210620FDF77EFC10210C20FDF71E
:102B38007AFC224621461720FDF7E2FB2246214671
:102B48002820FDF7DDFB0620FDF74CFC0C20BDE836
:102B58001040FDF747BC00BF0C00002000100240E9
:102B68001000002072B6044B186862B6582343431D
:102B7800B42093FBF0F070470C00002072B6044BB1
:102B8800186862B658234343B42093FBF0F07047AB
:102B98001000002008B50146FFF7E4FF024608468A
:102BA800FFF7ECFF0223104490FBF3F008BD000090
:102BB800034B186858234343B42093FBF0F0704745
:102BC8000C000020034B186858234343B42093FBA0
:102BD800F0F0704710000020094B1B8A13F0C00367
:102BE8000BD0C02B0CBF01234FF0FF33054A1168EF
:102BF80006200B441360FDF7F5BB0123F6E700BF81
:102C0800000800480C0000200A4B1B8A13F4C0532C
:102C18000CD0B3F5C05F0CBF4FF0FF330123064A59
:102C280011680C200B441360FDF7DCBB4FF0FF3339
:102C3800F5E700BF000800481000002038B5C36859
:102C4800364D2DED048B43600369836004462846A6
:102C5800FFF7AEFFE0602846FFF7B4FF6268E3685D
:102C68009FED2F5AD4ED056ADFED2E5A9FED2E6A9F
:102C780020619B1A07EE103AB8EEC77AA3689FED59
:102C88002B9A27EE057A66EEA56A47EE066AC31AFE
:102C980004F13C0007EE903AF8EEE77AC4ED056AD5
:102CA800B0EE667AD4ED066A67EE857A66EEA56AB6
:102CB80047EE866AD4ED077AC4ED066A77EEC77ADE
:102CC80017EE102A17EE901AFEF74EFCA269D4ED03
:102CD800087A07EE102A77EEC77A08EE900A17EE00
:102CE800901A04F16800FEF73FFC68EE898A2434E4
:102CF800FDEEE87A08EE100A17EE901A2046FFF764
:102D0800B1F828EE098A2046FDEEC87ABDEC048B9E
:102D180017EE901ABDE83840FFF7C4B84402002007
:102D2800CDCCCC3D6666663F0000003E00007F4388
:102D380073B50E4B002504464FF07E5640F8243BF1
:102D4800FEF7EEFF2B462A462946009604F13C0082
:102D5800FEF7FEFB00962B462A46294604F168003A
:102D6800FEF7F6FB204602B070BD00BFAC44000879
:102D7800F7B5154F154E04464FF07E552430FFF732
:102D880007F900952B463A46314604F13C00FEF718
:102D9800C7FB00952B463A46314604F16800FEF71A
:102DA800BFFB002500236361A361E36123626560C3
:102DB800A560E56025612B4604222146044800F001
:102DC800BBFA284603B0F0BDEC51B83DCDCC8C3FE2
:102DD80038040020C161704701627047406970473C
:102DE8008069704710B5084B044640F8683BFEF709
:102DF8008FFB04F13C00FEF78BFB04F12400FEF787
:102E080086FF204610BD00BFAC44000810B504463C
:102E1800FFF7E8FF20469421FEF70EFB204610BD81
:102E2800704710B504210446FEF706FB204610BD86
:102E3800014B0360704700BFC0440008274A53692C
:102E480043F4FC0353614FF09043986820F440200A
:102E58009860986840F440209860186820F44020F2
:102E68001860186840F400201860506940F4FC00AD
:102E78005061986820F440109860986840F44010B9
:102E88009860186820F440101860186840F4001022
:102E98001860586A20F0F0005862586A40F07000D4
:102EA8005862586A20F470605862586A40F4E060CA
:102EB8005862936943F480439361094B00220C20C4
:102EC8005A6018609A60074AB2FBF1F189B2998199
:102ED8001A6842F001021A60704700BF00100240F1
:102EE8000038014000A24A04044BDA69120601D4F2
:102EF80000BFFAE789B21985704700BF0038014062
:102F0800704710B50C210446FEF796FA204610BD0E
:102F1800024A026000220272704700BFD0440008D3
:102F2800F8B5012304464160037272B60B6808467F
:102F38009B68984760680368A0215B6998470746C3
:102F48006068036800215B69984706466068036803
:102F580000215B699847054660680368DB68984705
:102F680062B6012F1CBF00232372012E1CBF002351
:102F78002372012D1CBF00232372F8BD007A70470D
:102F8800F8B501F14003B3F5004F04460E46154667
:102F980035D872B6406803689B68984760680368CC
:102FA800A0215B69984760680368C6F307215B69DD
:102FB800984760680368F1B25B699847606803687E
:102FC8009B68984760680368A1215B6998476E1EF3
:102FD80005F13E076068036801219B69984706F878
:102FE800010FBE42F6D16068036800219B699847CB
:102FF80085F83F0060680368DB68984762B6F8BDEB
:10300800F8B5082104462DED048B4148FFF7FAF87E
:10301800092108EE100A3E48FFF7F4F80A2109EEE4
:10302800100A3B48FFF7EEF8F8EEC87A9FED398AA8
:1030380067EE887A04F1440717EE901A08EE900AB2
:103048003846FEF72DFAB8EEC99A04F1740669EE0F
:10305800087A304617EE901AFEF722FAF8EEE88A58
:1030680004F1A40568EE887A284617EE901AFEF750
:1030780017FA3846FEF740FA9FED278A07EE900ABE
:1030880078EE677A3046C4ED027AFEF735FA07EE35
:10309800900A78EE677A2846C4ED017AFEF72CFA92
:1030A80007EE900A9FED1D7A38EE678AD4ED027A12
:1030B80084ED038AF4EEC77A9FED197AF1EE10FADF
:1030C8004CBF01230023F4EEC77AF1EE10FA237403
:1030D8004FF0010348BF63742375A36A5CBF0022E5
:1030E800627413F003020AD1A1690A8D92B242F404
:1030F80000520A85BDEC048B0133A362F8BD022A95
:1031080001BFA1698A6942F400528A61F2E700BFEF
:1031180058010020000080390000803F3333333FDE
:103128006666263F2F49304B10B503604B6943F460
:10313800FC034B612D4B83619A6822F040629A60D0
:103148009A6842F040629A609A8822F40052120407
:10315800120C9A809A8892B29A801A6822F0406279
:103168001A601A6842F080621A604A6942F4FC02E6
:103178004A611F4AC2610446106820F003001060CB
:10318800106840F003001060486940F4FC00486192
:103198001068226220F00C001060106840F00C00EB
:1031A80010604A6942F4FC024A611A68636222F0BC
:1031B80003021A601A6842F003021A6004F144001C
:1031C800FEF760F904F17400FEF75CF904F1A4005D
:1031D800FEF758F9A269138D9BB243F40053138587
:1031E800204610BD00100240E044000800080048D6
:1031F800000400482DE9F7438269214F138DDFF859
:1032080088909BB2002543F40053856200261385FD
:103218004FF07B584FF07E530446C5620563456303
:103228008563C563056443608360C3600574457442
:1032380043463A463146CDF8049000964430FEF7AE
:1032480010F943463A46314604F17400CDF804902B
:103258000096FEF706F943463A46314604F1A400C3
:10326800CDF804900096FEF7FCF82B46052221467F
:10327800044800F061F82846257503B0BDE8F083DE
:10328800000080BE380400200000C0BE10B5084B06
:10329800044640F8A43BFEF7DCF804F17400FEF79E
:1032A800D8F804F14400FEF7D4F8204610BD00BF5A
:1032B800E044000810B50446FFF7E8FF2046D42193
:1032C800FEF7BAF8204610BD70470000F7B5002297
:1032D800154D142713464FF47A7607FB02F4291983
:1032E8000132102A2B514B608E60CB600B744B74EB
:1032F800F3D10E4A13600E4A0360D36943F0010309
:10330800D361002264230093114640F2CF234FF08B
:103318008040FDF717F8012200211C20FCF7F0FF80
:1033280062B603B0F0BD00BF1800002014000020F2
:103338000010024070470000F0B572B6114D00242D
:103348004FF0FF304FF0140E2F460EFB04F605EB3E
:10335800060CAE5926B9DCF80460002E08BF2046DA
:103368000134102CF1D1441C0AD0C4B21425654391
:103378007C1900267E516160A260E2602674637445
:1033880062B6F0BD180000200448142303FB0101B5
:103398000023CA608A600B74704700BF18000020C1
:1033A80082B072B6034B1B68019362B6019802B0F3
:1033B800704700BF1400002007B50246FFF7F0FF72
:1033C800014401911046FFF7EBFF019B984201D29F
:1033D80000BFF7E703B05DF804FB0000F8B54FF055
:1033E80080431A69D20714D5194F4FF6FE721A6135
:1033F800002414263D4606FB0473DA6852B1DA68E5
:10340800013ADA600134102CF5D1124A13680133FD
:103418001360F8BD9A68DA601A7CFF2A1FBF1A7C0D
:103428000132D2B21A7406FB04F3EA18527C002A5D
:10343800E8D1EA580AB1EB58984706FB04535A6892
:10344800002ADFD0586803689B689847DAE700BF0E
:103458001800002014000020704710B50821044609
:10346800FDF7EAFF204610BD10B5034B0360044684
:10347800FDF77CFA204610BDF444000810B5044658
:10348800FFF7F2FF20461021FDF7D6FF204610BDBA
:1034980010B5044621B10349FEF71BFC204610BDB8
:1034A8000149F9E752460008574600081049114BF0
:1034B80003604B6943F4FC034B610F4B43609A680C
:1034C80022F040429A609A6842F040429A609A8894
:1034D800C2F30E029A809A8892B29A801A6822F0F1
:1034E80040421A601A6842F080421A60704700BF72
:1034F800001002406846000800040048026821B134
:10350800936943F4004393617047138D6FEA434313
:103518006FEA53439BB213857047D1B903689A6821
:1035280022F440429A609A6842F440429A609A882B
:1035380022F080021204120C9A809A8892B29A8021
:103548001A6822F440421A601A6842F480421A60EB
:10355800704701290ED103689A6822F440429A60A4
:103568009A6842F440429A601A6822F440421A600B
:103578001A68ECE7022913D103689A6822F44042DA
:103588009A609A6842F440429A601A6822F440426B
:103598001A601A681A60DA6842F48042DA60704782
:1035A800052910D103689A6822F440429A609A6803
:1035B80042F440429A601A6822F440421A601A683B
:1035C80042F40042C3E70429C2D103681A6822F40E
:1035D80040421A601A6842F44042B8E7054A08B502
:1035E800536943F4FC035361034B03600121FFF764
:1035F80094FF08BD0010024000040048D1B90368D8
:103608009A6822F440529A609A6842F440529A604A
:103618009A8822F040021204120C9A809A8892B278
:103628009A801A6822F440521A601A6842F480524A
:103638001A60704701290ED103689A6822F4405233
:103648009A609A6842F440529A601A6822F440528A
:103658001A601A68ECE7022913D103689A6822F401
:1036680040529A609A6842F440529A601A6822F46A
:1036780040521A601A681A60DA6842F48052DA60B6
:103688007047052910D103689A6822F440529A605D
:103698009A6842F440529A601A6822F440521A60BA
:1036A8001A6842F40052C3E70429C2D103681A68B1
:1036B80022F440521A601A6842F44052B8E70000F7
:1036C800054A08B5536943F4FC035361034B03608F
:1036D8000121FFF793FF08BD0010024000040048D5
:1036E8000A2310B5436004460830FFF777FF04F15A
:1036F8000C00FFF7E5FFA268138D9BB243F080032F
:103708001385E268138D9BB243F04003138510BD07
:103718002DE9F0414F4C504EDFF8A481071D384683
:103728000121FFF7EBFE20464FF4E131FFF786FB5E
:1037380020464A49FEF7CDFA49492046FEF7C9FA1C
:10374800FDF76AFE474905462046FEF7C2FA2946B4
:10375800454D2046FEF7BFFA29462046FEF7B9FA3E
:103768003046FFF7B3FD20464049FEF7B2FA20463F
:103778003F49FEF7AEFA3046C8213E4EFFF71CFE21
:103788003D492046FEF7A5FA3046FFF7A9FF204637
:103798003A49FEF79EFA31464046FFF7BFF83849E6
:1037A8002046FEF796FA4046FFF7ADF8DFF8148199
:1037B80001462046FFF76CFE2946FEF78AFA314695
:1037C8004046FFF7ADFB2F492046FEF782FA4046F8
:1037D800FFF7D4FB01462046FFF75AFE2946FEF7BD
:1037E80078FA2948FEF732FD28492046FEF771FA93
:1037F8002748FEF73FFE27492046FEF76AFA264883
:10380800FFF7F8FC25492046FEF763FA2448FFF73E
:1038180075F924492046FEF75CFA2348FFF7A8FA11
:1038280020462249FEF755FA00213846FFF766FE82
:103838001F48FEF72BFC20461E49FEF74AFA204691
:103848001D49FEF746FA20461C49FEF742FA0020B9
:10385800BDE8F08134040020380400202545000824
:1038680031450008454500082F4500086345000814
:1038780074450008580200208B450008824500085E
:1038880091450008A545000858010020BC450008DE
:10389800C8020020CB4500085C010020E245000872
:1038A80044020020FD450008A00300201746000838
:1038B800B0020020314600082E45000840460008A6
:1038C800680200203802002070B5044600F10C069A
:1038D80004F1080530460021FFF790FE2846002134
:1038E800FFF71BFE30460121FFF788FE284600211E
:1038F800FFF713FE30460121FFF780FE284601211D
:10390800FFF70BFE2046BDE87040FDF782B870B5A2
:10391800044600F10C0604F1080530460121FFF7C2
:103928006DFE28460121FFF7F8FD30460121FFF71B
:1039380065FE28460021FFF7F0FD30460021FFF71D
:103948005DFE28460121FFF7E8FD2046BDE87040EE
:10395800FDF75FB82DE9F843044600F1080738463B
:10396800894604F10C060121FFF7D7FD00213046F6
:10397800FFF744FE2046FDF74CF84FF009080025F4
:10398800B8F1010817D001213046FFF737FE20466D
:10399800FDF73FF8A3681B8A6D001B063046EDB2A1
:1039A8004FF0000148BF45F00105FFF727FE20460C
:1039B800FDF72FF8E4E7B9F1000F1ED0414638466D
:1039C800FFF7ABFD2046FDF724F801213046FFF74D
:1039D80015FE2046FDF71DF800213046FFF70EFEC4
:1039E8002046FDF716F801213846FFF796FD2046D8
:1039F800FDF70FF82846BDE8F8830121DFE72DE938
:103A0800F04104460D46092700F10C0600F10808AC
:103A1800013F1AD000213046FFF7F0FD2046FCF7A1
:103A2800F8FF2B064CBF012100214046FFF775FD2A
:103A38002046FCF7EEFF01213046FFF7DFFD6D0061
:103A48002046FCF7E6FFEDB2E2E739463046FFF7DD
:103A5800D5FD2046FCF7DDFF01214046FFF75DFD5F
:103A68002046FCF7D6FF01213046FFF7C7FD204668
:103A7800FCF7CFFFA3681D8A39463046FFF7BEFD25
:103A8800ADB22046FCF7C5FF85F08000C0F3C0103A
:103A9800BDE8F08138B53C4D3C4C2846FFF706FDA3
:103AA80028463B4D3B492246FDF7D1FC2846FEF708
:103AB800FBF82846384D39492246FDF7C8FC284608
:103AC800FFF702FC2846364D36492246FDF7BFFC73
:103AD8002846FCF753FF2846334B40F8083BFFF7CE
:103AE8007DFD05F10C00FFF7EBFD28462F4D304911
:103AF8002246FDF7ACFC2846FEF7FEFD28462D4D74
:103B08002D492246FDF7A3FC2846FFF701FA28466F
:103B18002A4D2B492246FDF79AFC2846FEF7FEFA65
:103B28002846284D28492246FDF791FC2846FEF7ED
:103B3800EBFB2846254D26492246FDF788FC2846FA
:103B4800FFF7F0FA2846234D23492246FDF77FFC6C
:103B58002846FEF76BFF2846204D21492246FDF7EF
:103B680076FC2846FFF7E4F828461E4D1E492246F3
:103B7800FDF76DFC2846FEF749FA224628461B4900
:103B8800BDE83840FDF763BC300200200800002083
:103B9800340400206134000838040020891C00081F
:103BA800580200203D330008F44400086802002051
:103BB8007134000838020020F1260008580100205E
:103BC800092F0008C8020020152100085C01002008
:103BD800012300084402002095320008A0030020B9
:103BE800252A0008B0020020ED2D0008DD1F00087E
:103BF8007047704710B510210446FDF71DFC20469C
:103C080010BD10B554210446FDF716FC204610BD22
:103C18002DE9F0412DED028B044625489DF82080C2
:103C28000E4617461D46FEF79DFF3044A06020480B
:103C3800FEF7A4FF002E3844E06025612ADDDFEDA1
:103C48001D7A9FED1D8A002FD8BFB0EE678A1B4DE5
:103C58001B4A84ED078A00232562A361E26225637B
:103C6800A36284ED0F8A2564A363E2642565A364D7
:103C7800B8F1000F0AD0BE420FDA002F06DD114856
:103C8800FFF7AEF884ED0F8A2564A063BDEC028BC4
:103C9800BDE8F0819FED078AD9E7F7DD002EF5DD55
:103CA8000848FFF79BF884ED078A2562A061EDE7D5
:103CB800440200206F12033C6F12833B0AD7233C57
:103CC8006F12033BA003002013B5104B104A03608A
:103CD80000234261C361036283614262C36203637A
:103CE80083624263C363036483634264C3640022E0
:103CF80003658364074B0261436011460092052304
:103D08000446FFF785FF204602B010BD884600082C
:103D1800784600083333333F07B50022416002611B
:103D2800009205231146FFF773FF03B05DF804FB0B
:103D3800704710B534210446FDF77EFB204610BDC0
:103D4800084A02600021002241608160426182616C
:103D5800C26102624262826280F82C1080F82D10E3
:103D6800016370479846000838B58360049B8361F7
:103D7800059B4361069B0362079BC361089B8362A3
:103D8800094D099B4362002304460163426080F8A1
:103D98002C3080F82D302846FEF7E4FEE0602846F7
:103DA800FEF7ECFE206138BD4402002070B5C36800
:103DB800466804463D481E44FEF7D4FEA568361AF8
:103DC800206905443948FEF7D9FE94F82C30281AA2
:103DD8003BB9D4ED0A7A94ED087A77EE877AC4ED88
:103DE8000A7A94F82D303BB9D4ED097A94ED077A24
:103DF80077EE877AC4ED097AD4ED0A7A94ED067ADB
:103E0800D4ED096AF4EEC77AF1EE10FAD4ED057A2A
:103E1800C8BF84ED0A7AF4EEE76AD4ED0A6AB1EE17
:103E2800477AF1EE10FAF4EEC76AC8BFC4ED097A12
:103E3800F1EE10FA48BF84ED0A7A94ED097AF1EEB2
:103E4800677AB4EEE77AF1EE10FA48BFC4ED097A62
:103E5800002EB8BF7642042EDFBF0023A3620123E1
:103E680084F82C300028B8BF40420428DFBF002364
:103E78006362012384F82D30616A0D48FEF7ACFFB8
:103E8800A16A0B48FEF7A6FF94F82C3013B194F8FA
:103E98002D303BB9206B18B103689B68984718B957
:103EA800002070BD012070BD022070BD44020020BA
:103EB800A003002038B5064C05462846FFF776FFD4
:103EC80020B904212046FFF777FAF6E738BD00BF8E
:103ED8003804002038B50446064B44F8043B054630
:103EE8002046FFF7F1FE20460349FFF715FF284655
:103EF80038BD00BFA84600083333333F10B5044B24
:103F0800044640F8043BFFF773FE204610BD00BF8F
:103F1800A846000810B50446FFF7F0FF20465821D0
:103F2800FDF78AFA204610BD0000000000000000DE
:103F3800A7040008B9040008000000000000000001
:103F4800A5040008AB040008000000000000000001
:103F5800A9040008C7040008910400080000000034
:103F680000000000050900084D09000800000000D5
:103F780000000000750900087709000863090008B7
:103F880065090008670900086D090008710900083B
:103F980000000000000000002D0A0008410A000887
:103FA800550A00080000000000000000410B00084E
:103FB800550B00081D0B0008000000000000000061
:103FC800950E0008A90E0008BD0E000800000000AC
:103FD800000000006D0F0008810F0008991000080C
:103FE8000000000000000000391100085D11000801
:103FF80011110008831200080000000000000000F2
:104008003D130008411300083F130008000000009A
:1040180000000000711300088513000899130008B8
:1040280000000000000000005B1400085D14000898
:104038000000000000000000191500081B1500080A
:104048000000000000000000011600080316000828
:10405800F47FF6D90048D97F7F4E7E3C587F1122E5
:1040680030277F46262101F8EBE7B4C87DEDF2172B
:104078001D04EA41DEE1100002ED100BAD555CF2C3
:104088000EE502EFD6FBFAFCF700F700020000008D
:104098000000000000EF02FFFE0FFE0D0608F8FA10
:1040A8000CF9FCEDF4F101FA0F0BD011F70501172B
:1040B80009F1973E2609E012181AFF360AEE20F891
:1040C80015E4150CB7B63201F40A0C16FE18C50033
:1040D80004FE23000AFC2DD5781005000017FF0701
:1040E80024B4DF04F2FE01F8122C6B1204F0EA0388
:1040F8001430F3C81BFCF5F8FD14D0D9C70A0E0616
:10410800FD150E1316C413EF0EE3ED17CF3481FF20
:104118000F1806201700FF00FE0002FE0000E83519
:1041280012DA08F5FFFCEFE201F30DE000FB0EFAEE
:10413800E010E8DC1300060DFF0000FB06FEFF00A0
:104148000005DD18E80B00FC000200F5FC0702037F
:1041580005F801FEF9F3D00609000500F500000096
:10416800010000020000FE23CFED0EE6F8FAEB078F
:10417800E00F00F205FC000D00C31CFBE90311026F
:10418800F5EF03100100000302FBE30F1100FF002D
:104198000107FCF9D8FF0107000503FFE8F8001044
:1041A80004FB0500FD00000000000000000013F8FB
:1041B800D305EC04F4F800ECD50CF3DCFCF2FBF5C9
:1041C800E21418F10005F80000000C01FD000000E1
:1041D800FDFD1C0AE0000307010000E4FBF40400F5
:1041E800FD02F50020F801FE0316F402070000FFA7
:1041F800000000FF0000E71ECC0A07FE09F3FA00E2
:1042080027810800FC060307DA90090C0103121342
:10421800030000020001F9070000D90DFC090001A4
:10422800FD060BE5000100F902F6FDF6D9EBEDF706
:104238000AF707FB0040D318F4E0CDEDEFCBE5F526
:10424800F53407FBE0FCFEFF001600090000F6004D
:10425800F23002160701FE00FFFDFCFFFD1C0109FC
:1042680004E2F0FBF69840F311DCD3EED72EE8FB1E
:10427800F4B7FAEDEE0B050702E606F2020901FDB6
:1042880001020F050F00FF00FF08FD0300170C02D5
:104298000424F203FA5EEAF7032A472F1B34211F8E
:1042A8001318FDC9EC0204F9F6FBFB06F6E606FE58
:1042B80000EB0FF4F20000000000FE00FEE7FFF83C
:1042C800FE01020606E031FCF40ADE00FBD628FAFD
:1042D8000C00047FDEFC00040105F201010CF80566
:1042E80000FB0000FF00000000FF040000F4FCFFDA
:1042F80006F50CFF03E5D101080D3FF627F6E8FCAB
:10430800FB0200D05F010805F9030C0006030D004D
:104318000FE6E2EFF100020000FF07FF06EEF601EC
:10432800F20911FC07000000080000000800000066
:104338000100000008000000080000000400000060
:104348000400000004000000040000000400000055
:104358000400000008000000040000000400000041
:104368000C0000000300000003000000040000002F
:10437800020000000200000001000000020000002E
:10438800020000000C000000010000000100000015
:1043980005000000000000000000000029170008C8
:1043A80061170008111100088312000800000000BE
:1043B80000000000511B0008531B0008000000000B
:1043C80000000000B31B0008B71B00080000000035
:1043D80000000000B51B0008C51B00080000000015
:1043E80000000000B11B0008D51B000800000000F9
:1043F80000000000891C00089D1C00080000000047
:1044080000000000171D0008191D0008000000002A
:1044180000000000DD1F0008DF1F0008ED1F000876
:10442800020304010203040C01060000000000500E
:104438000000005000000050000100500001005032
:10444800000100500001005000040050000400501A
:1044580000000050000000000000000015210008C6
:1044680017210008000000000000000001230008D8
:10447800032300089D26000800000000000000003B
:10448800F1260008F32600080929000800000000AA
:1044980000000000252A0008272A00080000000064
:1044A80000000000ED2D0008152E0008452C00081E
:1044B8000000000000000000292E00082B2E000834
:1044C8000000000000000000092F00080B2F000862
:1044D800000000000000000095320008BD3200080E
:1044E80009300008000000000000000071340008D6
:1044F8008534000817390008D1380008E936000863
:10450800073A00085D390008096573745F696D75BD
:104518005F73656E736F720A00203A20000A0A0AF8
:1045280023232323230A0A0A007465726D696E61C6
:104538006C20696E697420646F6E650A006D656D24
:1045480020696E697420646F6E652C2068656170DF
:10455800207374617274206174200074696D6572CF
:1045680020696E697420646F6E650A0064656C6109
:104578007920323030206D73200069326320696EF3
:10458800697420646F6E650A00696D7520696E69CB
:104598007420646F6E6520776974682000656570A3
:1045A800726F6D20696E697420646F6E652077691B
:1045B8007468200061646320696E697420646F6E9A
:1045C800650A006C696E652073656E736F72206989
:1045D8006E697420646F6E650A0064697374616E35
:1045E80063652073656E736F7220696E69742064E9
:1045F8006F6E650A00656E636F6465722073656E21
:10460800736F7220696E697420646F6E650A006D3D
:104618006F746F7220636F6E74726F6C6C20696E4A
:10462800697420646F6E650A006B657920696E692C
:104638007420646F6E650A0073797374656D206900
:104648006E697420646F6E650A0074727565006621
:10465800616C7365000000000000000000000000AD
:104668006134000863340008000000000000000006
:10467800FB3B0008FD3B00080000000000000000B4
:10468800F93B00080B3C0008000000000000000097
:10469800393D00083B3D0008000000000000000014
:0846A800053F00081D3F00085A
:0846B000E50800089D3A00082E
:040000050800019D51
:00000001FF
