:020000040800F2
:1000000000800020B5010008A50100088901000852
:10001000A5010008A5010008A501000800000000D6
:10002000000000000000000000000000A501000822
:10003000A501000800000000A5010008A5010008B6
:10004000A5010008A5010008A5010008A5010008F8
:10005000A5010008A5010008A5010008A5010008E8
:10006000A5010008A5010008A5010008A5010008D8
:10007000A5010008A5010008A5010008A5010008C8
:10008000A5010008A5010008A5010008A5010008B8
:10009000A5010008A5010008A5010008650B0008DE
:1000A000A5010008A5010008A5010008A501000898
:1000B00051190008A5010008A5010008A5010008C4
:1000C000A5010008A5010008A5010008A501000878
:1000D000A5010008A5010008A5010008A501000868
:1000E000950B0008A5010008A5010008A50100085E
:1000F000A5010008A5010008A5010008A501000848
:10010000000000000000000000000000A501000841
:10011000A5010008A5010008A5010008A501000827
:10012000A5010008A5010008A5010008A501000817
:10013000A5010008A5010008000000000000000063
:10014000A5010008A5010008A501000800000000A5
:10015000000000000000000000000000000000009F
:100160000000000000000000A5010008A501000833
:10017000A5010008000000000000000000000000D1
:0801800000000000A5010008C9
:10018800684620F00701044A8D4600BF138D9BB2D4
:1001980043F400431385F8E700040048684620F05C
:1001A80007018D4608B5FFF7EBFF00001449154A13
:1001B8001548521A921000239A4215D1134A144E28
:1001C800D2F88830134C43F47003C2F88830D2F860
:1001D8003432A41B43F04043C2F83432A410002543
:1001E800A54207D100F0ECBC50F8234041F8234069
:1001F8000133E1E756F8253098470135F0E700BFAD
:100208000000002000000020943A000800ED00E003
:10021800943A00089C3A0008394AD2F8883043F4E6
:100228007003C2F88830374B1A6842F001021A602E
:100238005968354A0A405A601A6822F0847222F4D2
:1002480080321A601A6822F480221A605A6822F4EE
:10025800FE025A60DA6A22F00F02DA62196B2B4A40
:1002680082B00A401A6300229A60009201921A68CA
:1002780042F480321A601A6802F400320192009A3D
:1002880001320092019A1AB9009AB2F5A04FF2D140
:100298001A6812F4003218BF01220192019A012A49
:1002A80005D0174B4FF000629A6002B07047184AA9
:1002B800122111605A685A605A685A605A6842F4A2
:1002C80080625A605A6822F47C125A605A6842F472
:1002D800E8125A601A6842F080721A601A6892012D
:1002E800FCD55A6822F003025A605A6842F00202AA
:1002F8005A605A6802F00C02082AFAD1D1E700BF06
:1003080000ED00E0001002400CC07FF8CCFC00FFBC
:10031800002002404C494B6943F47F0330B54B61E0
:100328004A4B03609A6822F440729A609A6842F4D1
:1003380040729A609A8822F010021204120C9A8075
:100348009A8892B29A801A6822F440721A601A68DF
:1003580042F480721A604A6942F47F024A619A68DC
:10036800436022F440629A609A6842F440629A605C
:100378009A8822F020021204120C9A809A8892B26B
:100388009A801A6822F440621A601A6842F48062FD
:100398001A604A6942F47F024A614FF090428260D3
:1003A800956825F040459560956845F0404595600D
:1003B8009588C5F30E0595809588ADB2958015682A
:1003C80025F040451560156845F0804515604A6977
:1003D80042F47F024A619A68C36022F040629A60E0
:1003E8009A6842F040629A609A8822F40052120495
:1003F800120C9A809A8892B29A801A6822F0406207
:100408001A601A6842F080621A604A6942F47F02F0
:100418004A619A68036122F040529A609A6842F0F1
:1004280040529A609A8822F480421204120C9A80F0
:100438009A8892B29A801A6822F040521A601A6812
:1004480042F080521A6030BD00100240000400489B
:10045800704700000029826814DA138D6FEA43435D
:100468006FEA53439BB213854942FF290B46A8BF45
:10047800FF2341F2BE215943FF23B1FBF3F1044BA3
:1004880099637047936943F400439361EDE700BFB4
:10049800002C014042680029ABBF138D93699BB2C1
:1004A80043F02003B5BF494243F02003936113850D
:1004B800FF290B46A8BFFF2341F2BE215943FF2362
:1004C800B1FBF3F1014B5963704700BF002C0140A9
:1004D800C268936823F040639360936843F0406375
:1004E8009360136823F040631360136843F000635C
:1004F80013600369996821F040519960996841F047
:1005080040519960196821F040511960196841F00B
:1005180000511960516A21F470015162516A41F425
:10052800C00151625A6A22F070625A625A6A42F0F5
:10053800C0625A62104A936943F4006393610F4B97
:10054800002241F2BF211A80D96201211A851A8638
:1005580059615A639A634FF480725A6047F2700285
:100568009A6177221A621A8892B20A431A805A6CE0
:1005780042F400425A64704700100240002C0140C7
:10058800016802690B8D9BB243F010030B8541682B
:100598000B8D9BB243F020030B8581680B8D6FEAAE
:1005A80043436FEA53439BB20B85C1680B8D9BB2E3
:1005B80043F400530B85138D9BB243F4804313859A
:1005C800FFF786BF030F064BDA6A14BF22F478528E
:1005D80022F4F872DA62DA6A1043D862704700BF10
:1005E80000100240042A30B51CDC02EB4202046B06
:1005F80052001F25954024EA050401FA02F222431D
:100608000263092939DD0A398269826901EB4101EE
:1006180007248C4022EA0402826182698B401343DA
:10062800836130BD092A0CDC0624053A6243456B18
:100638001F24944025EA040401FA02F2224342638B
:10064800DFE70E2A4FF006040BDC0A3A6243856B9B
:100658001F24944025EA040401FA02F2224382632B
:10066800CFE70F3A6243C56B1F24944025EA040480
:1006780001FA02F22243C263C3E7013942694269BF
:1006880001EB410138248C4022EA040242614269AC
:10069800033103FA01F11143416130BD70B54FF4E4
:1006A8008870FFF78FFF194919484B69194D1A4C83
:1006B80043F080534B61FFF785FF4B694FF0A0462D
:1006C80043F000534B6101220023F3601146EB60B5
:1006D8003046E3600223FFF785FF0122114602231B
:1006E8002846FFF77FFF022301220C212046FFF74F
:1006F80079FFB36843F00103B360AB6843F00103CB
:10070800AB60A36843F00103A36070BD0010024012
:100718000022001000010050000400500138092890
:1007280098BF0E4B10B59BBF53F820400C4B4FF0B1
:10073800A044195C4FF001031A4688BF01212046E6
:10074800FFF750FFA36843F00403A36023685B0727
:1007580001D400BFFAE7206C10BD00BF3033000899
:10076800583300080E4BDB68DB4310B5C3F3022493
:10077800C4F10403DBB299400F2323411340094A13
:100788000B431B01111803F0F00381F800334109F2
:10079800012300F01F0003FA00F042F8210010BD09
:1007A80000ED00E000E100E030B50588ACB2284D6E
:1007B800A84212D005F50065A8420ED0B0F1804FCE
:1007C8000BD0A5F59835A84207D005F58065A84255
:1007D80003D005F5A435A84203D124F070040C43D6
:1007E800A4B21C49884208D001F5806188421FBF25
:1007F80024F44074A4B21443A4B20480C362BDF8C4
:100808000C300385124B984213D003F500639842CD
:100818000FD003F5406398420BD003F580639842EC
:1008280007D003F58063984203D003F5006398422C
:1008380001D1002303860123436103889BB243F05F
:1008480001030380C36843F00103C36030BD00BFE8
:10085800002C01400010004000230C22436002607D
:100868008360054BB3FBF1F189B28181036843F0E2
:1008780001030360704700BF00A24A0420F01F0272
:10088800012300F01F0003FA00F0014BD05070471D
:100898001404014001F0030301F0FC0101F180415F
:1008A80001F5803110B58A689B000F249C4022EA2C
:1008B80004028A608A6898401043886010BD20F05E
:1008C8001F0303F1804303F58233012200F01F0068
:1008D80030B502FA00F01C68C24314401C605D6821
:1008E80015405D601D6805431D609D6815409D604D
:1008F800DD6803F140442A401029A4F58234DA6007
:1009080006D19A6802439A60DA681043D86030BD0D
:1009180001F1804101F582310B591843085130BD6E
:1009280070470000214A2248536943F47F0353610A
:100938004FF09043996821F440219960996841F4F7
:1009480040219960196821F440211960196841F41F
:1009580000211960516941F47F015161996821F4BE
:1009680040119960996841F440119960196821F41F
:1009780040111960196841F400111960596A21F091
:10098800F0015962596A41F070015962596A21F4BB
:1009980070615962596A41F4E0615962936943F49C
:1009A800804393614FF4E131FFF756BF00100240D6
:1009B8000038014070470000044BDA69120601D480
:1009C80000BFFAE789B21985704700BF00380140B7
:1009D8002F4A536943F47F0310B553612D4B0360CD
:1009E8009C6824F440549C609C6844F440549C6087
:1009F8001C6824F440541C601C681C60DC6844F4C7
:100A08008054DC60546944F47F0454619C684360FA
:100A180024F440449C609C6844F440449C601C68F6
:100A280024F440441C601C681C60DC6844F4804466
:100A3800DC60546944F47F0454619C68836024F04A
:100A480040749C609C6844F040749C601C6824F06E
:100A580040741C601C681C60DC6844F08074DC60B6
:100A6800546944F47F0454619A68C36022F44002D4
:100A78009A609A6842F440029A601A6822F4400226
:100A88001A601A681A60DA6842F48002DA6010BDE7
:100A9800001002400008004870470000164B174A33
:100AA80010B500241C60164B1C60936943F00103C9
:100AB800936106210220FFF7EDFE0C210220FFF7CB
:100AC800E9FE08210620FFF7FAFE08210C20FFF7AF
:100AD800F6FE224621461720FFF744FE224621460D
:100AE8002820FFF73FFE0620FFF7C8FE0C20BDE8D0
:100AF8001040FFF7C3BE00BF0000002000100240F6
:100B08000400002072B6044B186862B658234343A9
:100B18005A2093FBF0F070470000002072B6044B97
:100B2800186862B6582343435A2093FBF0F0704785
:100B380004000020034B1868582343435A2093FBB2
:100B4800F0F0704700000020034B18685823434317
:100B58005A2093FBF0F0704704000020094B1B8AD1
:100B680013F0C0030BD0C02B0CBF01234FF0FF3391
:100B7800054A116806200B441360FFF77FBE012366
:100B8800F6E700BF00080048000000200A4B1B8A57
:100B980013F4C0530CD0B3F5C05F0CBF4FF0FF3354
:100BA8000123064A11680C200B441360FFF766BE48
:100BB8004FF0FF33F5E700BF0008004804000020AD
:100BC80008B5034801F0B2F801F0CEFAFEE700BF1D
:100BD8000800002010B5054C204600F075FF20469F
:100BE800034A0449BDE8104000F02DBE080000206B
:100BF800140000207D1A000810B50446FFF790FE87
:100C0800204610BD10B50446FFF7D4FE204610BD9F
:100C180038B505464C1E14F8011F19B12846FFF7D0
:100C2800CBFEF8E738BDFFF7F3BF7FB50B1E4FF0DB
:100C380000024FF00A01BABF5B42012414468DF846
:100C48000F200E4604AA93FBF6F50A4406FB15335B
:100C5800303302F80C3C4A1ED2B22B4665B92CB18F
:100C680004AB13442D2103F80C1C114601AB1944A5
:100C7800FFF7CEFF04B070BD1146E3E730B585B08D
:100C880000230A228DF80F301546B1FBF5F405FB59
:100C9800141304A91144303301F80C3C531EDBB281
:100CA80021462CB901AB9918FFF7B2FF05B030BD4A
:100CB8001A46EAE7F8B507EE901A2DED028BF5EE25
:100CC800C07AF1EE10FA0646154646BFF1EE677A8D
:100CD8002D212021012300220A20AA4202D24343C7
:100CE8000132FAE7BDEEE78A3046B8EEC87A77EE09
:100CF800C77A07EE103AB8EE477A67EE877AFDEEC4
:100D0800E77A17EE904A002CB8BF6442FFF754FE0A
:100D180018EE101A3046FFF788FF2E213046FFF7ED
:100D28004BFE002201230A214B430132A342D2B2D7
:100D3800FADBAD1AEDB20027AF4205D230213046BA
:100D4800FFF73AFE0137F7E7BDEC028B2146304644
:100D5800BDE8F840FFF769BF704710B51821044691
:100D680000F09EFC204610BD037B826833B100234F
:100D78000373936943F4004393617047012303733A
:100D8800138D6FEA43436FEA53439BB21385704751
:100D98001C4A1D4B0360536943F47F0310B553612C
:100DA8001A4B43609C6824F040749C609C6844F033
:100DB80040749C601C6824F040741C601C681C60B3
:100DC800DC6844F08074DC60546944F47F04546146
:100DD8009A68836022F040429A609A6842F04042E2
:100DE8009A609A88C2F30E029A809A8892B29A8080
:100DF8001A6822F040421A601A6842F080421A606B
:100E080010BD00BF001002406C3300080004004809
:100E18004FF0FF3310B543610023044603730146C6
:100E28004FF4FA72024800F049FD206110BD00BF7E
:100E38006C030020704710B5BC21044600F030FC5C
:100E4800204610BD4A4A4B4B0360536943F47F0365
:100E580010B553614FF0904343609C6824F44034CC
:100E68009C609C6844F440349C609C8824F48074A2
:100E78002404240C9C809C88A4B29C801C6824F4C4
:100E880040341C601C6844F480341C60546944F489
:100E98007F0454611C68C0F8903024F003041C607F
:100EA8001C6844F003041C60546944F47F045461D2
:100EB8001C68C0F8943024F00C041C601C6844F0D2
:100EC8000C041C60546944F47F0454611C68C0F825
:100ED800983024F030041C601C6844F030041C6016
:100EE800546944F47F0454611C68C0F89C3024F0B1
:100EF800C0041C601C6844F0C0041C60546944F4BD
:100F08007F0454611C68C0F8A03024F440741C604D
:100F18001C6844F440741C60546944F47F045461B0
:100F28001C68C0F8A43024F440641C601C6844F4B5
:100F380040641C60546944F47F0454611C68C0F820
:100F4800A83024F440541C601C6844F440541C60CD
:100F5800546944F47F0454611A68C0F8AC3022F430
:100F680040421A601A6842F440421A6010BD00BF3D
:100F780000100240803300084268F8B5138D9BB218
:100F880043F48073138564210446294800F0CAFCA1
:100F9800FFF784FB6421264800F0C4FC04F1300606
:100FA800374600252846FFF7B9FB0135082D47F8D5
:100FB800040BF7D162681E48936943F48073936108
:100FC800642100F0AFFC00252846FFF7A7FB56F880
:100FD800043B0135C01A082DF061F5D104F1700306
:100FE80004F19001002243F8042B9942FBD16FF0E1
:100FF800FF0323616FF0BF0363616FF07F03A36199
:101008006FF03F03E3614023236280236362C023C0
:10101800A3624FF48073E3624FF4C873A360227332
:10102800002304222146024800F048FC0020F8BDB5
:101038006C03002000EB810030B50269056F02FBEC
:1010480005F471B1C36EC268062902FB03422B4442
:101058000AD8416F40690B4400FB012292FBF3F070
:1010680030BD62006B00F4E722442B44F6E7826847
:1010780000F17003002053F8041B8A4204DB01309E
:101088000828F8D14FF0FF30704700002DE9F047ED
:101098000025DFF86890044600F13006AA46284685
:1010A800FFF73CFB56F8043BC01A09FB00F0F26955
:1010B80090FBF2F0013510F57A7054BFF063C6F872
:1010C8003CA0082DEBD12046FFF7D1FF431C014679
:1010D80011D02046FFF7AEFF01230746804684F86B
:1010E800B030012384F8B130C4F8B470C4F8B880C3
:1010F8002373BDE8F0870023F1E700BF18FCFFFF6A
:10110800704710B54421044600F0CAFA204610BDC5
:10111800014B0360704700BF943300082DE9F0418C
:101128000446006C03689B6888469847206C0368EF
:10113800D4215B699847206C036819215B6998473B
:10114800206C03689B689847206C0368D5215B690D
:101158009847206C036801219B699847000207B2F1
:10116800206C036801219B6998470743206C03683A
:1011780001219B699847000206B2206C036801218F
:101188009B6998470643206C036801219B6998472F
:10119800000205B2206C036800219B69984705434B
:1011A800206C0368DB683FB236B22DB29847B8F1BD
:1011B800000F08D0A36A3B44A362E36A3344E362A6
:1011C800236B2B442363A36AE169226BE06AFB1A51
:1011D800AD1A2361192293FBF2F301EB4303E36198
:1011E800236AA561301A606190FBF2F003EB4000BE
:1011F8002062636A206C95FBF2F503EB45050368F2
:1012080065629B689847206C0368D4215B6998479E
:10121800206C036829215B699847206C03689B68E8
:101228009847206C0368D5215B699847206C036850
:1012380001219B699847000207B2206C03680121CD
:101248009B6998470743206C036801219B6998476D
:10125800000206B2206C036801219B699847064387
:10126800206C036801219B699847000205B2206C35
:10127800036800219B6998470543206C0368DB6875
:1012880098473FB236B22DB201236760A660E56089
:1012980084F83C30BDE8F0810021FFF73FBF406B88
:1012A800003018BF0120704711F1FF3101D300BF92
:1012B800FAE7704738B50446102208462164A82387
:1012C800D42100F08AFB002323616361A361A36238
:1012D800E3622363E3612362636242F21071204692
:1012E800FFF7E2FF0F226363D421206C00F093FB29
:1012F800682804BF012363631022A823D421206C2B
:1013080000F06BFB38231E22D421206C00F065FB13
:1013180000232E22D421206C00F05FFB0023122230
:10132800D421206C00F059FB60232022D421206CAA
:1013380000F053FB38231F22D421206C00F04DFB12
:1013480042F210712046FFF7AFFF00212046FFF759
:10135800E5FE0023A3634FF47A7501212046FFF7C9
:10136800DDFE64212046FFF79FFF013DF5D14FF4D4
:101378007A72A36AE56193FBF2F32562A362656260
:10138800E36A656093FBF2F3A560E362E560236BB3
:10139800054893FBF2F3214623630A222B4600F00B
:1013A8008DFA84F83C5038BD6C03002038B5C3680A
:1013B800364D2DED048B436003698360044628464F
:1013C800FFF7B8FBE0602846FFF7BEFB6268E368FA
:1013D8009FED2F5AD4ED056ADFED2E5A9FED2E6A48
:1013E80020619B1A07EE103AB8EEC77AA3689FED02
:1013F8002B9A27EE057A66EEA56A47EE066AC31AA7
:1014080004F1380007EE903AF8EEE77AC4ED056A81
:10141800B0EE667AD4ED066A67EE857A66EEA56A5E
:1014280047EE866AD4ED077AC4ED066A77EEC77A86
:1014380017EE102A17EE901A00F0AEF8A269D4ED54
:10144800087A07EE102A77EEC77A08EE900A17EEA8
:10145800901A04F1640000F09FF868EE898A243439
:10146800FDEEE87A08EE100A17EE901A2046FEF70D
:10147800F1FF28EE098A2046FDEEC87ABDEC048B00
:1014880017EE901ABDE83840FFF704B8A001002015
:10149800CDCCCC3D6666663F0000003E00007F4331
:1014A80073B50E4B002504464FF07E5640F8243B9A
:1014B800FEF730FF2B462A462946009604F13800ED
:1014C80000F0C6F800962B462A46294604F1640027
:1014D80000F0BEF8204602B070BD00BFA833000877
:1014E800F7B5154F154E04464FF07E552430FFF7DB
:1014F80047F800952B463A46314604F1380000F08B
:1015080093F800952B463A46314604F1640000F002
:101518008BF8002500236361A361E36123626560A2
:10152800A560E56025612B4604222146044800F0A9
:10153800C5F9284603B0F0BDEC51B83DCDCC4C3FC1
:101548006C030020406970478069704710B5084BEC
:10155800044640F8643B00F017F804F1380000F046
:1015680013F804F12400FEF773FF204610BD00BFF6
:10157800A833000810B50446FFF7E8FF204690217D
:1015880000F08EF8204610BD704710B52C21044697
:1015980000F086F8204610BDD0ED036AD0ED017A40
:1015A80090ED046AD0ED074AC0ED046A07EE102AF0
:1015B80076EEA66A90ED065AC0ED027A05EE901A0C
:1015C80067EEA47A37EE667A45EE857A4160C260A6
:1015D80037EE067AD0ED086A80ED056A47EE667A3E
:1015E80090ED0A7A77EE877A90ED097AC0ED0A7A5B
:1015F800F4EEC77AF1EE10FAC8BF80ED0A7AD0EDA2
:101608000A7AB1EE477AF4EEC77AF1EE10FA48BFDB
:1016180080ED0A7A806A7047002343608360C36064
:10162800036143618362704710B507EE901A07EEB5
:10163800102A1A46FFF7F0FF37EE877A029B80EDF3
:10164800067AF1EE677AC0ED077A0262436210BD4E
:1016580007EE102A1A46094B036010B507EE901AD8
:10166800FFF7DAFF37EE877A029B80ED067AF1EE14
:10167800677AC0ED077A0262436210BDBC33000886
:10168800014B0248186070471000002070030020CA
:10169800024A13681844106018467047100000206A
:1016A80070470000024A13681844106018467047D3
:1016B800100000207047704710B544210446FFF71A
:1016C800EFFF204610BD00002849294B03604B69F5
:1016D80043F47F0330B54B61264B83619A6822F04F
:1016E80040629A609A6842F040629A609A8822F44E
:1016F80000521204120C9A809A8892B29A801A6840
:1017080022F040621A601A6842F080621A604A69E0
:1017180042F47F024A61184AC261156825F0030540
:101728001560156845F0030515604D6945F47F059A
:101738004D611568026225F00C051560156845F0C5
:101748000C0515604A6942F47F024A611A684362CF
:1017580022F003021A601A6842F003021A601A8D16
:1017680092B242F400521A8530BD00BF0010024008
:10177800CC330008000800480004004800EB82024F
:10178800936BD26A9B1A23EAE3731022C3F5805342
:1017980093FBF2F30A6802EB42021344042293FB20
:1017A800F2F30B60704738B5856A044615B1012D10
:1017B80014D038BD0820FEF7B1FFA0630920FEF75A
:1017C800ADFFE0630A20FEF7A9FFA26920649369D0
:1017D80043F4005393610123A36238BD0820FEF748
:1017E8009DFFE0620920FEF799FF20630A20FEF7BB
:1017F80095FFA2696063138D9BB243F40053138570
:1018080004F1080100222046FFF7B8FF2A46211DEF
:101818002046FFF7B3FF022204F10C012046FFF730
:10182800ADFFA268EF2A4FF0000304DCD12A25742B
:1018380003DD637402E02374FBE765740023A3628D
:101848000123237538BD00207047FEE7704700006C
:10185800F7B50022154D142713464FF47A7607FB87
:1018680002F429190132102A2B514B608E60CB608B
:101878000B744B74F3D10E4A13600E4A0360D3699C
:1018880043F00103D36100224FF4347300931146EF
:1018980063234FF08040FEF787FF012200211C20C0
:1018A800FEF760FF62B603B0F0BD00BF1C00002069
:1018B800180000200010024070470000F0B572B612
:1018C800114D00244FF0FF304FF0140E2F460EFB41
:1018D80004F605EB060CAE5926B9DCF80460002EB8
:1018E80008BF20460134102CF1D1441C0AD0C4B2E0
:1018F800142565437C1900267E516160A260E26070
:101908002674637462B6F0BD1C00002082B072B603
:10191800034B1B68019362B6019802B0704700BF81
:101928001800002007B50246FFF7F0FF01440191B7
:101938001046FFF7EBFF019B984201D200BFF7E783
:1019480003B05DF804FB0000F8B54FF080431A6956
:10195800D20714D5194F4FF6FE721A6100241426C7
:101968003D4606FB0473DA6852B1DA68013ADA6078
:101978000134102CF5D1124A136801331360F8BDF5
:101988009A68DA601A7CFF2A1FBF1A7C0132D2B229
:101998001A7406FB04F3EA18527C002AE8D1EA58C4
:1019A8000AB1EB58984706FB04535A68002ADFD05F
:1019B800586803689B689847DAE700BF1C00002056
:1019C800180000201423436070470000014B036097
:1019D800704700BFE033000870472DE9F0411D460D
:1019E800036804469B6816460F469847236839469D
:1019F8005B6920469847236831465B6920469847CB
:101A0800236829465A692046904723682046DB68A0
:101A1800BDE8F0411847036870B504469B68164650
:101A28000D469847236829465B69204698472368EE
:101A380031465B6920469847236820469B6898474B
:101A4800236845F001015B69204698472368002117
:101A58009B692046984723680546DB6820469847D7
:101A6800284670BD42680023934202D000BF01336C
:101A7800FAE77047704710B508210446FFF710FED3
:101A8800204610BD10B5034B03600446FFF7A4FFC2
:101A9800204610BD0434000810B50446FFF7F2FFD5
:101AA80020461021FFF7FCFD204610BD10B5044666
:101AB80021B10349FFF7B7F8204610BD0149F9E7FE
:101AC80021350008263500081049114B03604B6981
:101AD80043F47F034B610F4B43609A6822F0404206
:101AE8009A609A6842F040429A609A88C2F30E025D
:101AF8009A809A8892B29A801A6822F040421A60B4
:101B08001A6842F080421A60704700BF0010024015
:101B18003435000800040048026821B1936943F491
:101B2800004393617047138D6FEA43436FEA534351
:101B38009BB213857047D1B903689A6822F4404272
:101B48009A609A6842F440429A609A8822F0800229
:101B58001204120C9A809A8892B29A801A6822F417
:101B680040421A601A6842F480421A60704701299C
:101B78000ED103689A6822F440429A609A6842F447
:101B880040429A601A6822F440421A601A68ECE7E8
:101B9800022913D103689A6822F440429A609A682D
:101BA80042F440429A601A6822F440421A601A6865
:101BB8001A60DA6842F48042DA607047032910D16B
:101BC80003689A6822F440429A609A6842F4404254
:101BD8009A601A6822F440421A601A6842F4004275
:101BE800C3E70429C2D103681A6822F440421A6084
:101BF8001A6842F44042B8E7054A08B5536943F405
:101C08007F035361034B03600121FFF794FF08BD75
:101C18000010024000040048D1B903689A6822F411
:101C280040529A609A6842F440529A609A8822F028
:101C380040021204120C9A809A8892B29A801A680A
:101C480022F440521A601A6842F480521A607047AF
:101C580001290ED103689A6822F440529A609A6862
:101C680042F440529A601A6822F440521A601A6884
:101C7800ECE7022913D103689A6822F440529A606B
:101C88009A6842F440529A601A6822F440521A60E4
:101C98001A681A60DA6842F48052DA6070470329D9
:101CA80010D103689A6822F440529A609A6842F404
:101CB80040529A601A6822F440521A601A6842F434
:101CC8000052C3E70429C2D103681A6822F44052BB
:101CD8001A601A6842F44052B8E70000054A08B58D
:101CE800536943F47F035361034B03600121FFF7FA
:101CF80093FF08BD00100240000400480A2310B5F5
:101D0800436004460830FFF777FF04F10C00FFF743
:101D1800E5FFA268138D9BB243F080031385E26848
:101D2800138D9BB243F04003138510BD2DE9F0419C
:101D380005463F4C3F4FDFF850810435FEF76CFAFB
:101D480001212846FFF7E8FE2046FEF7EBFD204676
:101D58003949FEF768FF39492046FEF764FFFFF767
:101D68008FFC374906462046FEF75DFF3146354E63
:101D78002046FEF783FF31462046FEF754FF3846DB
:101D8800FFF766FD20463049FEF74DFF20462F49F4
:101D9800FEF749FF3846C821FFF7C4FD2C492D4FEF
:101DA8002046FEF740FF4046FFF7A8FF20462A4995
:101DB800FEF739FF41463846FFF77CFA27492046A7
:101DC800FEF731FF3846FFF76AFA01462046FFF76B
:101DD8006DFE3146FEF727FF2148FFF7CDF8214970
:101DE8002046FEF720FF2048FEF758FE1F492046F0
:101DF800FEF719FF1E48FFF773FB20461D49FEF743
:101E080012FF00212846FFF787FE1B48FFF700F85E
:101E180020461A49FEF707FF20461949FEF703FF37
:101E280020461849FEF7FFFE0020BDE8F08100BFFC
:101E3800680300206C030020353400084134000892
:101E4800553400083F34000873340008843400080F
:101E58009B340008C001002092340008A134000817
:101E68001C020020B5340008A0010020CC34000872
:101E7800D8020020E63400080402002000350008DB
:101E88003E3400080F350008B001002070B5044644
:101E980000F10C0604F1080530460021FFF7BCFEEE
:101EA80028460021FFF747FE30460121FFF7B4FE20
:101EB80028460021FFF73FFE30460121FFF7ACFE20
:101EC80028460121FFF737FE2046BDE87040FFF79E
:101ED800C9BD70B5044600F10C0604F1080530468A
:101EE8000121FFF799FE28460121FFF724FE30461D
:101EF8000121FFF791FE28460021FFF71CFE30461E
:101F08000021FFF789FE28460121FFF714FE20462D
:101F1800BDE87040FFF7A6BD2DE9F843044600F17F
:101F280008073846894604F10C060121FFF703FE2D
:101F380000213046FFF770FE2046FFF793FD4FF073
:101F480009080025B8F1010817D001213046FFF72C
:101F580063FE2046FFF786FDA3681B8A6D001B06FB
:101F68003046EDB24FF0000148BF45F00105FFF7DC
:101F780053FE2046FFF776FDE4E7B9F1000F1ED0C7
:101F880041463846FFF7D7FD2046FFF76BFD012194
:101F98003046FFF741FE2046FFF764FD002130463A
:101FA800FFF73AFE2046FFF75DFD01213846FFF7AF
:101FB800C2FD2046FFF756FD2846BDE8F8830121FB
:101FC800DFE72DE9F04104460D46092700F10C062C
:101FD80000F10808013F1AD000213046FFF71CFE27
:101FE8002046FFF73FFD2B064CBF0121002140464C
:101FF800FFF7A1FD2046FFF735FD01213046FFF729
:102008000BFE6D002046FFF72DFDEDB2E2E73946E5
:102018003046FFF701FE2046FFF724FD0121404628
:10202800FFF789FD2046FFF71DFD01213046FFF728
:10203800F3FD2046FFF716FDA3681D8A3946304692
:10204800FFF7EAFDADB22046FFF70CFD85F08000F2
:10205800C0F3C010BDE8F08138B52F4D2F4C28468D
:10206800FFF7B4FC28462E4B40F8083BFFF7C4FDA9
:1020780005F10C00FFF732FE28462A4D2A49224670
:10208800FFF7E1FB2846FEF7B7FD2846274D28490C
:102098002246FFF7D8FB2846FFF7D8FB2846254DF0
:1020A80025492246FFF7CFFB2846FFF731F8284697
:1020B800224D23492246FFF7C6FB2846FFF704FBBB
:1020C8002846204D20492246FFF7BDFB2846FEF74B
:1020D800B9FE28461D4D1E492246FFF7B4FB284687
:1020E800FEF776FC28461B4D1B492246FFF7ABFB43
:1020F8002846FFF7D5F92846184D19492246FFF713
:10210800A2FB2846FEF744FE224628461549BDE8AC
:102118003840FFF798BB00BFB00100201400002032
:1021280004340008680300208D1A00086C0300209E
:102138000D0C0008C0010020C11800085C01002037
:10214800091100081C020020BF160008A001002089
:102158003D0E0008D8020020A10A00080402002051
:1021680055150008610D00082DE9F041C0B014A80C
:1021780000F04EF914A901A800F0B0F8484C494DF8
:10218800494F4A4E4A4901A800F0BAF896F8B030CB
:10219800B046002B00F0828046492046FEF743FDFA
:1021A800D6F8B4102046FEF740FD29462046FEF733
:1021B8003AFD002608EB06032046196FFEF735FDA9
:1021C800043629462046FEF72EFD202EF2D13A4E3F
:1021D8002046F169FEF729FD29462046FEF723FD32
:1021E800316A2046FEF721FD29462046FEF71BFDF1
:1021F800716A2046FEF719FD29462046FEF713FDB1
:102208003846FEF77FFC01462046FEF70EFD2946BC
:102218002046FEF708FD3846FEF780FC01462046BA
:10222800FEF703FD29462046FEF7FDFC2348FFF78D
:1022380089F9032201462046FEF73CFD294620463F
:10224800FEF7F1FC1D48FFF77FF9032201462046FF
:10225800FEF730FD29462046FEF7E5FC002601ABD7
:102268003344204693F90410FEF7DFFC0136294673
:102278002046FEF7D8FC402EF1D113992046FEF7F0
:10228800FDFC29462046FEF7CEFC20460C49FEF709
:10229800CAFC32210B48FFF745FB72E70A497CE785
:1022A8006803002040350008A00100201C0200201F
:1022B8008C0200203C350008C0010020D802002014
:1022C8003F3400086C0300203F350008704710B504
:1022D8004C210446FFF7E4F9204610BD0346074A9F
:1022E80010B543F8042B00F14404002203F8012B35
:1022F800A342FBD18264416410BD00BF4C35000885
:1023080070B500F1380204460023A2F10800C51890
:1023180095F90460D5180133082B2E71F7D1844242
:102328000246F1D1081F234B234A1C31054655F8B4
:10233800046FB242B8BF3246B342A8BF33468D429B
:10234800F5D1934231DAD31A07EE903A9FED1B7A12
:10235800F8EEE77AC7EE276A07EE902AF8EEE77AF2
:1023680007EEE67AF0EE477A231D194650F8042F57
:1023780007EE102AB8EEC77AB0EE676A07EE266A4B
:102388008542BDEEC67A17EE102A03F8012BEDD16F
:10239800606C03689B689847606C00F0B7FE606CDF
:1023A80000F0E6FEA064002070BDDFED057AF0EED7
:1023B800676AD9E740420F00C0BDF0FF0000FE4247
:1023C80000000000F8B504460B4B44F8083B002613
:1023D800054637466B689E4209D254F8040B10B183
:1023E80003685B68984744F8047C0136F2E728469E
:1023F80000F050FE2846F8BDF439000810B5044630
:10240800FFF7E0FF2046B021FFF74AF9204610BD4C
:102418002DE9F043804695B000F058FE844BC8F88B
:1024280000300823C8F88830C8F88C300123C8F871
:102438009030C8F89430C8F898300723C8F89C3012
:102448007C4B93E807007C4B0BAC84E8070093E8CF
:1024580007007A4B0EAD85E8070093E8070011AE38
:1024680086E807003820FFF713F94FF4397309930A
:1024780040F695330893724B0793724B0693814647
:1024880096E8070003AF87E8070095E807008DE89E
:102498000700484694E80E0000F01EFF6A4BC8F893
:1024A800089093E80700694B84E8070093E8070061
:1024B800674B85E8070093E8070086E807002C20AB
:1024C800FFF7E6F8814696E8070087E8070095E8F1
:1024D80007008DE80700484694E80E0000F078F9F8
:1024E8005C4BC8F80C9093E807005B4B84E8070046
:1024F80093E80700594B85E8070093E8070086E84A
:1025080007002820FFF7C4F8814696E8070087E807
:10251800070095E807008DE80700484694E80E0094
:1025280000F084FD4E4BC8F8109093E807004D4B1F
:1025380084E8070093E807004B4B85E8070093E819
:10254800070086E807003820FFF7A2F8EC23099374
:1025580041F2B4030893454B0793454B06938146D4
:1025680096E8070087E8070095E807008DE8070068
:10257800484694E80E0000F0DDFB3E4BC8F8149086
:1025880093E807003C4B84E8070093E807003B4BBF
:1025980085E8070093E8070086E807002C20FFF786
:1025A80077F8814696E8070087E8070095E807006E
:1025B8008DE80700484694E80E0000F009F9304B12
:1025C800C8F8189093E807002E4B84E8070093E8B2
:1025D80007002D4B85E8070093E8070086E8070009
:1025E8004020FFF755F840F24F13099340F2B1230A
:1025F8000893264B0793264B0693814696E80700D7
:1026080087E8070095E807008DE80700484694E842
:102618000E0000F083F806234046C8F81C90C8F85E
:10262800043000F0DCFD404615B0BDE8F08300BF83
:10263800F4390008C839000898390008A439000896
:102648005435000863350008A4390008A439000887
:10265800A4390008BC390008A4390008B0390008BA
:10266800C8390008B0390008D439000858350008BE
:1026780087350008D4390008D4390008D43900084F
:10268800D4390008D4390008E03900085C3500085E
:102698001736000810B5034B0360044600F0D3FD5D
:1026A800204610BD0C3A000810B50446FFF7F2FFAB
:1026B80020464021FEF7F4FF204610BD2DE9F84FD3
:1026C80004460E4692460D464FF080094FF4806846
:1026D8006FF07E07A36BA5EB060B5B451BD9E26B7E
:1026E800A06A51460BFB020000F0A0FD236B626B51
:1026F8005843E36A90FBF9F013F90B3002FB03002F
:1027080090FBF8F0B842B8BF38467F28A8BF7F20B2
:1027180005F8010BDEE7BDE8F88F000030B585B09D
:10272800044601AD85E80E0000F096FD2346144AE4
:1027380043F81C2B95E8070083E8070008AA07CA96
:10274800231D83E807000BAA07CA04F1100383E8D6
:1027580007000E9BA3620F9BE362109B2363119BF0
:1027680063636268A3685A43E3685343E363636936
:1027780002465A43A36920465343A36305B030BDBC
:102788000C3A000870B5013A0B460025866A5C1AB7
:10279800A64207D912F9014F002CB4BF1D701C7056
:1027A8000133F3E770BD000010B5034B0360044626
:1027B80000F049FD204610BD203A000810B5044637
:1027C800FFF7F2FF20462C21FEF76AFF204610BDD6
:1027D80030B585B0044601AD85E80E0000F03CFD3B
:1027E80023460D4A43F81C2B95E8070083E80700A9
:1027F80008AA07CA231D83E807000BAA07CA04F121
:10280800100383E80700A36862685A43E368204618
:102818005343A36205B030BD203A00082DE9F04FBC
:102828008DB0189C0A91199909908D1E61430391E6
:102838001B991A980595591800EBC000079161007B
:1028480004910146A51E0931069502900192A446FD
:102858000B9107998B427BD00B99019A0025114463
:102868000891A846099905EB0C0E8E4400270A9991
:102878007819084401990026089A093191423CD0F8
:1028880090F900B011F909AC11F9079C049A1AFBE8
:102898000B6690F901B011F908AC1AFB0B6690F9B8
:1028A80002B019FB0B6B11F9069C065719FB06B60B
:1028B80000EB040911F905BC99F901A01BFB0A6694
:1028C80099F902B011F904AC11F9039C1AFB0B6ACF
:1028D80010F9146011F902BC19FB06A600EB0209F5
:1028E800039A99F901A01BFB0A6611F901AC99F941
:1028F80002B010441AFB0B66BEE7169A93F9001053
:102908005643802296FBF2F6179A02FB01614FF4B8
:10291800806291FBF2F16FF07E029142B8BF1146DE
:10292800069A7F2907F10107A8BF7F21BA420EF84E
:10293800011F9CD2059A08F101084245254491D20D
:10294800029A01991144039A01910133944480E752
:102958000DB0BDE8F08F2DE9F04F93B019251F9CFD
:102968000F90201F09901E980092219A04389A18F7
:102978000A9020980D921E9A6843059092001E981E
:102988000B92059A44432A444000089004901192FF
:102998000D9A934200F00581119A009802440E9214
:1029A8004FF00009089A0292CDF80C900B9A029801
:1029B8004A440C921E9A4A4406921E9A024407926E
:1029C800049A4A4400251092069A009805EB020CD6
:1029D800029A05EB020E079AAF180C9A05EB090844
:1029E800AE18002288448C448E440F440E44019251
:1029F8000E9A1930904200F09E8098F900A010F9C4
:102A080019BC019A1BFB0A2298F901A010F918BCFD
:102A18001BFB0A2298F902A010F917BC1BFB0A221B
:102A280098F903A010F916BC1BFB0A2298F904A018
:102A380010F915BC1BFB0A229CF900A010F914BC64
:102A48001BFB0A229CF901A010F913BC1BFB0A22EC
:102A58009CF902A010F912BC1BFB0A229CF903A0E6
:102A680010F911BC1BFB0A229CF904A010F910BC38
:102A78001BFB0A229EF900A010F90FBC1BFB0A22BF
:102A88009EF901A010F90EBC1BFB0A229EF902A0B8
:102A980010F90DBC1BFB0A229EF903A010F90CBC0F
:102AA8001BFB0A2210F90BBC9EF904A01BFB0A228F
:102AB80010F90ABC97F900A01BFB0A2297F901A09C
:102AC80010F909BC1BFB0A2297F902A010F908BCEF
:102AD8001BFB0A2297F903A010F907BC1BFB0A226B
:102AE80097F904A010F906BC1BFB0A2296F900A06E
:102AF80010F905BC1BFB0A2296F901A010F904BCC9
:102B08001BFB0A2296F902A010F903BC1BFB0A2240
:102B180096F903A010F902BC1BFB0A2296F904A03F
:102B280010F901BC1BFB0A220192A044A444A6444C
:102B3800274426445CE701981C9A8026424393F96F
:102B4800000092FBF6F21D9E06FB00224FF4806007
:102B580092FBF0F26FF07E008242B8BF02461098F6
:102B68000F9E28447F2A3044A8BF7F2282700A9A89
:102B78000135AA42BFF428AF039ADDF81890013254
:102B88000392079A02920398099A8242BFF40EAF01
:102B9800049A059822440492009A02440133009250
:102BA800F6E613B0BDE8F08F2DE9F04F8DB017466B
:102BB800DDF86CC00990BCF1030F0A91189CDDF890
:102BC80064E01A9D1D9E56D0BCF1050F61D0BCF182
:102BD800010F5BD10EFB04F2991907920697C7F112
:102BE800000C08914FF0000B08998B424ED0002042
:102BF8008046099F0BEB0001791800260B910A9972
:102C0800DDF8189087190F4400210CEB090A554587
:102C180008D919F9012B97F900A012FB0A11079A94
:102C28001744F2E7169A93F900705143802291FBFA
:102C3800F2F1179A02FB07174FF4806297FBF2F73D
:102C48006FF07E029742B8BF17467F2F0B9AA8BF36
:102C58007F2797550136B442D1D208F10108C645FD
:102C68002044C6D2079A9344069A2A44013306920E
:102C7800ACEB050CB8E70294179C0194169C0596DA
:102C88000495CDF80CE00094FFF7C8FD0DB0BDE841
:102C9800F08F0294179C0194169C05960495CDF824
:102CA8000CE00094FFF757FEF0E7000010B5034B67
:102CB8000360044600F0C7FA204610BD343A000805
:102CC80010B50446FFF7F2FF20463821FEF7E8FC6E
:102CD800204610BD70B5154600F11C0204460E468C
:102CE80007CA88B005AB83E80700221D07CA02ABF4
:102CF80083E80700636B0193236B00932946E36A1B
:102D0800A26A3046FFF750FF6368A1685943636AB7
:102D180003FB01612B46A26860685043E2684243A6
:102D2800581B824204D913F9012B01F8012BF2E751
:102D380008B070BD30B585B0044601AD85E80E0019
:102D480000F08AFA23460E4A43F81C2B95E8070040
:102D580083E8070008AA07CA231D83E807000BAA0F
:102D680007CA04F1100383E807000E9BA3620F9BB8
:102D7800E362109B2363119B6363204605B030BD5B
:102D8800343A000810B5034B0360044600F05BFAC0
:102D9800204610BD483A000810B50446FFF7F2FF78
:102DA80020462821FEF77CFC204610BD2DE9F04F77
:102DB800C36989B00193023B0092032B00F233816F
:102DC800DFE813F004005500A100E9000369D0F81A
:102DD80014E0826903924FEA43094FEA4E0209FB65
:102DE80002F202920EFB03F2019200269A0004926C
:102DF8003746039A974200F016818C4632464FF0C8
:102E08000008F0452DD0009C009809EB020A5444B4
:102E1800851806940020984205F102051BD015F983
:102E280001BC15F9024CA345B8BFA346AC1A5444DB
:102E38002BEAEB7B14F9014C5C45B8BF5C46059462
:102E4800069C14F910B0059C5C45B8BF5C460CF8AC
:102E580000400130DFE7049808F1010802449C446F
:102E6800CFE7029A1644019A01371144C1E7456930
:102E780004698369079305FB04F304EB4400049396
:102E880005EB450343438A460393002100EB4003C7
:102E980005938B46079B9B4500F0C58002915746DA
:102EA8004FF0000EAE4527D00022A2421CD0029E51
:102EB800DDF8048002EB42033344009E4FF0000C1F
:102EC8003344DE1C0696994619F9016BB445B8BF20
:102ED800B446069E4E45F7D1B8F101080344F0D137
:102EE80007F802C00132E0E7029A059B1A440EF186
:102EF800010E27440292D5E7049B9A44039B0BF1E9
:102F0800010B1944C6E7026945698369039305FB08
:102F180002F34FEA820B0693AB000BFB03F3079314
:102F2800002013018A4605930290039B02998B4265
:102F380079D0064657464FF0000EAE4523D0002103
:102F480091421AD0009CDDF8048006EB81032344EB
:102F58004FF0000C1C1D0494994619F9014BA44527
:102F6800B8BFA446049CA145F7D1B8F101085B4459
:102F7800F0D107F801C00131E2E7059B0EF1010E1F
:102F880017441E44D9E7029B01330293069B9A44D7
:102F9800079B1844C9E7456904698369039304FBDF
:102FA80005F304EB8400059305EB850343438B4647
:102FB8000693002100EB800304930F46039BBB425A
:102FC80031D08E46DC464FF00008454525D000221A
:102FD80094421CD002EB8203009EDDF804A07344E7
:102FE800334402934FF000090026029B9B57013699
:102FF8009945B8BF9946052EF7D1029BBAF1010A47
:1030080003440293F0D10CF802900132E0E7049BEC
:1030180008F10108A4449E44D7E7059B9B44069BFE
:1030280001371944CAE709B0BDE8F08F30B585B05B
:10303800054601AC84E80E0000F00EF92B460A4A5A
:1030480043F81C2B94E8070083E8070008AA07CA7E
:103058002B1D83E807000BAA07CA05F1100383E8B4
:103068000700284605B030BD483A0008D0F88C3033
:10307800D0F8882030B55A43D0F890305A4300230E
:10308800934205D0D0F8A840CD56E5540133F7E770
:1030980030BD0000074B10B504460360D0F8A0000F
:1030A80008B1FEF707FBD4F8A40008B1FEF702FB4D
:1030B800204610BD5C3A000810B50446FFF7EAFF49
:1030C8002046B021FEF7ECFA204610BD0E4B0360F7
:1030D8000023C0F88830C0F88C30C0F89030C0F8B1
:1030E8009430C0F89830C0F89C3000F1080200F124
:1030F800880142F8043B8A42FBD14360C0F8A03003
:10310800C0F8A430704700BF5C3A0008F8B5002545
:10311800044600F108062F4663689D421FD200232B
:10312800306842690169514382694A43934204D233
:10313800D4F8AC20D7540133F2E70368D4F8A820B8
:103148009B68D4F8AC109847D4F8A830D4F8AC20D1
:10315800C4F8A820C4F8AC3001350436DCE7D4F84C
:10316800A830D4F8AC20C4F8A820C4F8AC30F8BD16
:1031780030B5D0F89820D0F89430D0F8AC4053430C
:10318800D0F89C2094F900105A4300231846934223
:1031980006D0E556A942BCBF184629460133F6E7D2
:1031A80030BD70B54468023400F1080500EB8404B2
:1031B8000020A54212D055F8043B9A6859681E6948
:1031C8005143DA684A4359699B6971434B439A42B0
:1031D80038BF1A46904238BF1046EAE770BDD0F8AB
:1031E800A03070B5054603BBD0F8A440ECB9FFF792
:1031F800D8FF0646FEF756FAC5F8A0003046FEF797
:1032080051FAD5F8A030C5F8A830C5F8A400C5F81B
:10321800AC00234622469E4207D0D5F8A010CA54D7
:10322800D5F8A410CA540133F5E770BD002370B572
:1032380006461846934205D0F556CC56013315FB81
:103248000400F7E770BD7047704710B528210446A1
:10325800FEF726FA204610BD064A026000224260A8
:103268008260C260026142618261C261026242623E
:10327800704700BF743A000810B5034B036004465A
:10328800FFF7E1FF204610BD883A000810B5044654
:10329800FFF7F2FF20463821FEF702FA204610BD5C
:1032A80070B5164600F11C0204460D4607CA88B0E0
:1032B80005AB83E80700221D07CA02AB83E80700B5
:1032C800636B0193236B0093A26AE36A3146284635
:1032D800FFF76AFC08B070BD30B585B0044601AD93
:1032E80085E80E00FFF7B8FF23460E4A43F81C2B6B
:1032F80095E8070083E8070008AA07CA231D83E8A2
:1033080007000BAA07CA04F1100383E807000E9B05
:10331800A3620F9BE362109B2363119B63632046A8
:1033280005B030BD883A0008000000500000005089
:103338000000005000010050000100500001005042
:10334800000100500004005000040050000000502C
:10335800020304010203040C01060000000000003F
:1033680000000000610D0008630D0008710D0008E1
:1033780000000000000000003D0E00083F0E00089D
:103388009510000800000000000000000911000866
:103398000B110008A1120008000000000000000046
:1033A800551500087D150008B51300080000000039
:1033B80000000000911500089315000800000000A7
:1033C80000000000BF160008C1160008AF1700086B
:1033D80000000000000000000000000000000000E5
:1033E8005318000853180008CD190008531800088E
:1033F8005318000800000000000000008D1A0008A3
:10340800A11A0008DB1E0008951E0008051D00080B
:10341800CB1F0008211F0008096573745F696D756B
:103428005F73656E736F720A00203A20000A0A0AF9
:1034380023232323230A0A0A007465726D696E61C7
:103448006C20696E697420646F6E650A006D656D25
:1034580020696E697420646F6E652C2068656170E0
:10346800207374617274206174200074696D6572D0
:1034780020696E697420646F6E650A0064656C610A
:103488007920323030206D73200069326320696EF4
:10349800697420646F6E650A00696D7520696E69CC
:1034A8007420646F6E65207769746820006C696E9B
:1034B800652073656E736F7220696E697420646F1E
:1034C8006E650A00656E636F6465722073656E735E
:1034D8006F7220696E697420646F6E650A006D6F83
:1034E800746F7220636F6E74726F6C6C20696E6992
:1034F8007420646F6E650A006B657920696E697463
:1035080020646F6E650A0073797374656D20696E47
:10351800697420646F6E650A00747275650066616F
:103528006C73650000000000000000007D1A0008B0
:103538007F1A000831200030200000000000000041
:1035480000000000D5220008D722000800A681F05C
:10355800BCDE488138383F197F3133000000000055
:10356800000000000000000000000006240479FFAD
:103578000E7BF3FD7FF5FAE60D00EE0FFEDD110080
:10358800000000000000000000000000000000FC37
:1035980000FFFD02FFF80300FD00140DED150AE819
:1035A800110DECF30F00F80ABBDC0CB8D200B2CE58
:1035B800F35245DB3565D31A69D5E96BD7C4D435E1
:1035C800A1D51BA9CD0EAC081815081DCFEF1BA45B
:1035D800EE1796EF1DC8651AD27D22CE7F1ECE78D3
:1035E80026C8DB2399DD2499E12397FDF7FB01FE2B
:1035F80000FF001A08020F0A00010000FEFF010088
:103608000000FDFC0402FAEA10F7DE05F5C9E60041
:1036180000000000000000000000000000000000A2
:103628000000000000000000000000000000000092
:103638000000000000000000000000000000000082
:103648000000000000000000000000000000000072
:103658000000000000000000000000000000000062
:103668000000000000000000000000000000000052
:103678000000000000000000000000000000000042
:103688000000000000000000000000000000000032
:103698000000000000000000000000000000000022
:1036A8000000000000000000000000000000000012
:1036B8000000000000000000000000000000000002
:1036C80000000000000000000000000000000000F2
:1036D80000000000000000000000000000000000E2
:1036E80000000000000000000000000000000000D2
:1036F80000000000000000000000000000000000C2
:1037080000000000000000000000000000000004AD
:10371800FB04FEFEF5000008F500FF01F70000FCC1
:10372800F90308000000000300000000000000008A
:10373800F9F90104000000FD000000FE000000028D
:10374800FD080204FAE4FFFBFEE0F500070EAEF602
:103758001CED09FC17F000FB1FEA01F219F603BC87
:103768001600FCBE1700FDB71303FAB91A01F7FFDC
:10377800010000000100000001000000010000F548
:1037880015FBFDFA13FBFDF717FAFBF71AF8F50717
:1037980002FD02080F0100F9100100FF0A010007ED
:1037A800FDFF010500000004000000FC0000000807
:1037B800FE050707000000FB0000000300000000F2
:1037C8000508000802470000024EFEFE13FC030035
:1037D8000307F5040008FD070108F1040B0AF20DC0
:1037E8000AFEFF0B0701FC0E0B01FF090BFEFE0092
:1037F800000000000000000000000000000000FFC2
:1038080008F5FAFF06F5F9FF01F1FCFE03EBFCFDF4
:10381800FD080104FDF50000FDF3FFF900EBF9F8E0
:10382800FAFB07FB0000000000000000000000FE9B
:103838000302000300000003000000020000000370
:10384800FD0506F8F8DB09FCF8D906048137F90DFF
:103858000525D408051FD3050420DE050323E3F757
:10386800F51CE1FAF213E3FAF114E1FBF31CDA00B8
:10387800000100FF0000000000010000000100F846
:10388800EB21F7FAEA1CF9FAEA22F5FBE527ED073E
:1038980006030400011801FF00190104012703F9B8
:1038A8000001FCF9000000FB000000030000000319
:1038B800FC03F8F9000000F8000000FB0000000815
:1038C800030400FB01000001000002FE1E050000C9
:1038D80003FF2300FEFA27F7F7FA2601FD00190473
:1038E800FEF41A0301F5170300F21400FFF718009D
:1038F800000000000000000000000000000000FEC2
:103908000108F2FD0308F1FC0306F4FC010CEC00CD
:10391800FF04040000F2F80500F3F7FD01EAF9FDE1
:103928000107FE0500000008000000FA000000FA88
:10393800FA01F903000000FD000000020000000188
:1039480008FE03FCF9F9FEF8FBF6FB054582FA0AC6
:10395800FBF31219FAFC151700F5130EFBEF100212
:10396800FDFA1203FCFF1401FDFF18FFFBF93100FB
:10397800000000000000010000000000000000FC42
:10398800F8EB21FDF9EF22FDFAEE21FFFCEB4300F5
:103998000800000008000000010000000800000006
:1039A80008000000040000000400000004000000FB
:1039B80004000000020000000200000001000000F6
:1039C80003000000030000000400000004000000E1
:1039D80004000000080000000100000001000000D1
:1039E800070000000000000000000000CD230008D0
:1039F8000524000875300008E731000800000000C1
:103A0800000000009D260008B1260008C526000811
:103A18000000000000000000B1270008C5270008CA
:103A28008D2700080000000000000000B52C0008E9
:103A3800C92C0008DD2C0008000000000000000070
:103A48008D2D0008A12D0008B52D000800000000EC
:103A5800000000009D300008C130000875300008E3
:103A6800E731000800000000000000004F320008A5
:103A78005332000851320008000000000000000026
:0C3A88008132000895320008A9320008C5
:083A9400DD0B000861200008B1
:04000005080001B539
:00000001FF
