:020000040800F2
:10000000008000209D01000889010008930100087C
:10001000890100088901000889010008000000002A
:10002000000000000000000000000000890100083E
:10003000890100080000000089010008890100080A
:100040008901000889010008890100088901000868
:100050008901000889010008890100088901000858
:100060008901000889010008890100088901000848
:100070008901000889010008890100088901000838
:100080008901000889010008890100088901000828
:100090008901000889010008890100086527000816
:1000A0008901000889010008890100088901000808
:1000B000F92E00088901000889010008890100085B
:1000C00089010008890100088901000889010008E8
:1000D00089010008890100088901000889010008D8
:1000E0009527000889010008890100088901000896
:1000F00089010008890100088901000889010008B8
:10010000000000000000000000000000890100085D
:100110008901000889010008890100088901000897
:100120008901000889010008890100088901000887
:10013000890100088901000800000000000000009B
:1001400089010008890100088901000800000000F9
:10015000000000000000000000000000000000009F
:10016000000000000000000089010008890100086B
:1001700089010008000000000000000000000000ED
:080180000000000089010008E5
:10018800684620F007018D46FEE7684620F0070123
:100198008D46FEE71549164A1648521A9210002352
:1001A8009A4217D1144A154ED2F88830144C43F4A9
:1001B8007003C2F88830D2F83432A41B43F04043AD
:1001C800C2F83432A4100025A54209D100F01AF86B
:1001D80001F046BA50F8234041F823400133DFE7E5
:1001E80056F8253098470135EEE700BF000000209B
:1001F80000000020444B000800ED00E0444B0008DC
:10020800484B0008394AD2F8883043F47003C2F8E2
:100218008830374B1A6842F001021A605968354A2B
:100228000A405A601A6822F0847222F480321A60F6
:100238001A6822F480221A605A6822F4FE025A6070
:10024800DA6A22F00F02DA62196B2B4A82B00A408E
:100258001A6300229A60009201921A6842F480326E
:100268001A601A6802F400320192009A0132009270
:10027800019A1AB9009AB2F5A06FF2D11A6812F46D
:10028800003218BF01220192019A012A05D0174BAA
:100298004FF000629A6002B07047184A122111604C
:1002A8005A685A605A685A605A6842F480625A60BA
:1002B8005A6822F47C125A605A6842F4E8125A606A
:1002C8001A6842F080721A601A689201FCD55A685E
:1002D80022F003025A605A6842F002025A605A68D1
:1002E80002F00C02082AFAD1D1E700BF00ED00E0C5
:1002F800001002400CC07FF8CCFC00FF0020024038
:100308000E4BDB68DB4310B5C3F30224C4F10403CE
:10031800DBB299400F2323411340094A0B431B01C9
:10032800111803F0F00381F800334109012300F0AC
:100338001F0003FA00F042F8210010BD00ED00E0B4
:1003480000E100E030B50588ACB2244DA8420ED0DB
:1003580005F50065A8420AD0B0F1804F07D0A5F591
:100368009835A84203D005F58065A84203D124F04A
:1003780070040C43A4B21A49884208D001F5806180
:1003880088421FBF24F44074A4B21443A4B204806A
:10039800C362BDF80C300385104B98420FD003F5AB
:1003A800006398420BD003F54063984207D003F5E9
:1003B8008063984203D003F58063984201D10023FB
:1003C80003860123436103889BB243F00103038042
:1003D800C36843F00103C36030BD00BF002C014077
:1003E8000010004020F01F02012300F01F0003FA54
:1003F80000F0014BD05070471404014001F0030392
:1004080001F0FC0101F1804101F5803110B58A68E5
:100418009B000F249C4022EA04028A608A68984064
:100428001043886010BD20F01F0303F1804303F5DB
:100438008233012200F01F0030B502FA00F01C6878
:10044800C24314401C605D6815405D601D6805432B
:100458001D609D6815409D60DD6803F140442A4099
:100468001029A4F58234DA6006D19A6802439A60AA
:10047800DA681043D86030BD01F1804101F582315E
:100488000B591843085130BD7047704710B50C21FF
:10049800044601F001F8204610BD10B52421044699
:1004A80000F0FAFF204610BD2DE9F04306462A4B1E
:1004B80046F8043B8DB0044600254FF07E532A468B
:1004C8002946009304F130092B46304601F070F8B4
:1004D80004F1E008484603F023FB404603F06EFAB7
:1004E80004F5987003F07AF904F5C87003F082FEF9
:1004F80004F5FA77194BC4F8E831C4F8EC51C4F89C
:10050800F051384601F0D4F8154B00932A4630468E
:10051800144B154901F034F8144BC4F8F03149462E
:100528004046C4F8EC5103F05DFA01220592104BE5
:1005380003934FF0FF32002306923846C82203A9DE
:1005480004930793089309930A930B9301F0C8F84F
:1005580020460DB0BDE8F0831C4400080C44000898
:10056800000020416666E63F9A99993E6F12033B68
:10057800FC43000810B504462DED048B344802F006
:10058800CBF80A230246334904F1E00003F03AFAB3
:10059800D4F82831022B58D0032B01D0012B51D18C
:1005A800DFED2D7A2D4B9FED2E7A93F8C1202B4845
:1005B800D3ED328A032A2B4A127C08BFF0EE477A21
:1005C800002A18BFF0EE477A94ED7B7AF4EEC77AEA
:1005D800F1EE10FAC4BFD4ED7C7A77EE877AF8EEA4
:1005E800E88AC4ED7B7A94ED7B9A01F093FD07EEDF
:1005F800900AF8EEE77A201D88EEA78ADFED1A7ACE
:1006080077EEC87A18EE102A17EE901A00F0DCFF81
:1006180007EE900A79EE678A77EE897A134817EE23
:10062800901A02F099F918EE901A104802F096F90B
:1006380018EE101ABDEC048B04F59870BDE8104054
:1006480003F0E2B8DFED067AACE7DFED097AA9E757
:10065800400200203C0300209A99193FC002002064
:10066800CDCCCC3E5801002000000000B80300208B
:10067800CDCC4C3FF8B51C4D2DED048B9FED1B9A4E
:1006880006460C4664B3284601F03CFD0028F9D024
:10069800D5ED327A2846F8EEE78A01F03BFD07EE01
:1006A800900AF8EEE77A301D88EEA78A013C79EEC9
:1006B800487A18EE102A17EE901A00F085FF0146C6
:1006C80007460B4802F048F987F00041084802F055
:1006D80045F918EE101A06F5987003F095F8D1E769
:1006E800BDEC048BF8BD00BFC00200200000000074
:1006F800B803002010B500211148124C02F02CF963
:1007080000210F4802F02AF90E4801F0FBFC0028EE
:10071800FAD000210A4802F021F90B49084802F0F2
:100728001BF9D4F8D030032BEED80021044802F08E
:1007380013F900210248BDE8104002F00FB900BFCC
:10074800B8030020C0020020CDCCCC3E2DE9F041FA
:100758002DED028BDFF8C4802D4D0446002640465F
:1007680002F016FB38B104F5FA772A49384600F04A
:10077800C7FF00283DD1284601F0C4FC0028EED070
:1007880095F8C03063B395F8C130032B204624D1C7
:10079800FFF7B0FFC4F8EC61E1E7012103F072FD57
:1007A80000211D4802F0D8F800211B4802F0D6F8B5
:1007B800D5ED327AC4F8EC612846B8EEE78A01F044
:1007C800A9FC07EE900AF8EEE77A201D88EE277A52
:1007D80017EE101A00F038FFC1E7FFF7CBFEBEE7AF
:1007E80004F59877384603F011F8384603F046F8D0
:1007F800D6E732212046FFF73DFF384600F0A6FF36
:10080800002804F5C870C8DC4FF0FF31C6E700BF08
:10081800C00200205C010020B8030020580100201D
:100828000E4B10B50446036000F5FA7000F038FF6F
:1008380004F5C87003F010FD04F5987003F0A0F8F3
:1008480004F1E00003F0B2F804F1300003F042F9DB
:10085800201D00F08DFE204610BD00BF1C4400087E
:1008680010B50446FFF7DCFF20464FF40B7100F08B
:1008780013FE204610BD704770471423436070472D
:100888000020704700207047704710B508210446C3
:1008980000F002FE204610BD014B0360704700BF08
:1008A8002C4400082DE9F0411D46036804469B6866
:1008B80016460F469847236839465B69204698478D
:1008C800236831465B6920469847236829465A6958
:1008D8002046904723682046DB68BDE8F04118476A
:1008E800036870B504469B6816460D46984723680A
:1008F80029465B6920469847236831465B6920464C
:100908009847236820469B689847236845F001016B
:100918005B6920469847236800219B6920469847D1
:1009280023680546DB6820469847284670BD42681C
:100938000023934202D000BF0133FAE7704700005A
:1009480010B5034B0360044600F024FD204610BD9B
:100958005044000810B50446FFF7F2FF2046402136
:1009680000F09AFD204610BD2DE9F84F04460E46CA
:1009780092460D464FF080094FF480686FF07E076D
:10098800A36BA5EB060B5B451BD9E26BA06A51462E
:100998000BFB020000F0C8FC236B626B5843E36A50
:1009A80090FBF9F013F90B3002FB030090FBF8F011
:1009B800B842B8BF38467F28A8BF7F2005F8010B8A
:1009C800DEE7BDE8F88F000030B585B0044601AD1C
:1009D80085E80E0000F0E8FC2346144A43F81C2B77
:1009E80095E8070083E8070008AA07CA231D83E8DB
:1009F80007000BAA07CA04F1100383E807000E9B3F
:100A0800A3620F9BE362109B2363119B636362687D
:100A1800A3685A43E3685343E363636902465A434E
:100A2800A36920465343A36305B030BD5044000872
:100A380070B5013A0B460025866A5C1AA64207D9AA
:100A480012F9014F002CB4BF1D701C700133F3E77D
:100A580070BD000010B5034B0360044600F09AFC1B
:100A6800204610BD6444000810B50446FFF7F2FFA5
:100A780020462C2100F010FD204610BD30B585B071
:100A8800044601AD85E80E0000F08EFC23460D4AB1
:100A980043F81C2B95E8070083E8070008AA07CA53
:100AA800231D83E807000BAA07CA04F1100383E893
:100AB8000700A36862685A43E36820465343A36269
:100AC80005B030BD644400082DE9F04F8DB0189C86
:100AD8000A91199909908D1E614303911B991A98DF
:100AE8000595591800EBC000079161000491014673
:100AF800A51E0931069502900192A4460B9107990B
:100B08008B427BD00B99019A002511440891A84685
:100B1800099905EB0C0E8E4400270A9978190844A8
:100B280001990026089A093191423CD090F900B009
:100B380011F909AC11F9079C049A1AFB0B6690F994
:100B480001B011F908AC1AFB0B6690F902B019FB59
:100B58000B6B11F9069C065719FB06B600EB040946
:100B680011F905BC99F901A01BFB0A6699F902B0B5
:100B780011F904AC11F9039C1AFB0B6A10F9146003
:100B880011F902BC19FB06A600EB0209039A99F9B0
:100B980001A01BFB0A6611F901AC99F902B01044D7
:100BA8001AFB0B66BEE7169A93F90010564380228B
:100BB80096FBF2F6179A02FB01614FF4806291FBF3
:100BC800F2F16FF07E029142B8BF1146069A7F2972
:100BD80007F10107A8BF7F21BA420EF8011F9CD276
:100BE800059A08F101084245254491D2029A0199D3
:100BF8001144039A01910133944480E70DB0BDE894
:100C0800F08F2DE9F04F93B019251F9C0F90201FEE
:100C180009901E980092219A04389A180A902098F0
:100C28000D921E9A6843059092001E980B92059AA1
:100C380044432A4440000890049011920D9A93422C
:100C480000F00581119A009802440E924FF00009B5
:100C5800089A0292CDF80C900B9A02984A440C928A
:100C68001E9A4A4406921E9A02440792049A4A44DB
:100C780000251092069A009805EB020C029A05EBE3
:100C8800020E079AAF180C9A05EB0908AE18002255
:100C980088448C448E440F440E4401920E9A1930B5
:100CA800904200F09E8098F900A010F919BC019AB2
:100CB8001BFB0A2298F901A010F918BC1BFB0A2299
:100CC80098F902A010F917BC1BFB0A2298F903A097
:100CD80010F916BC1BFB0A2298F904A010F915BCE0
:100CE8001BFB0A229CF900A010F914BC1BFB0A226A
:100CF8009CF901A010F913BC1BFB0A229CF902A065
:100D080010F912BC1BFB0A229CF903A010F911BCB4
:100D18001BFB0A229CF904A010F910BC1BFB0A2239
:100D28009EF900A010F90FBC1BFB0A229EF901A036
:100D380010F90EBC1BFB0A229EF902A010F90DBC8B
:100D48001BFB0A229EF903A010F90CBC1BFB0A220C
:100D580010F90BBC9EF904A01BFB0A2210F90ABC6F
:100D680097F900A01BFB0A2297F901A010F909BC0A
:100D78001BFB0A2297F902A010F908BC1BFB0A22E8
:100D880097F903A010F907BC1BFB0A2297F904A0E6
:100D980010F906BC1BFB0A2296F900A010F905BC45
:100DA8001BFB0A2296F901A010F904BC1BFB0A22BE
:100DB80096F902A010F903BC1BFB0A2296F903A0BE
:100DC80010F902BC1BFB0A2296F904A010F901BC19
:100DD8001BFB0A220192A044A444A64427442644AB
:100DE8005CE701981C9A8026424393F9000092FB25
:100DF800F6F21D9E06FB00224FF4806092FBF0F293
:100E08006FF07E008242B8BF024610980F9E2844B9
:100E18007F2A3044A8BF7F2282700A9A0135AA42ED
:100E2800BFF428AF039ADDF8189001320392079AAD
:100E380002920398099A8242BFF40EAF049A059869
:100E480022440492009A024401330092F6E613B059
:100E5800BDE8F08F2DE9F04F8DB01746DDF86CC076
:100E68000990BCF1030F0A91189CDDF864E01A9D03
:100E78001D9E56D0BCF1050F61D0BCF1010F5BD1AE
:100E88000EFB04F2991907920697C7F1000C089116
:100E98004FF0000B08998B424ED000208046099FE6
:100EA8000BEB0001791800260B910A99DDF81890D0
:100EB80087190F4400210CEB090A554508D919F97F
:100EC800012B97F900A012FB0A11079A1744F2E7C1
:100ED800169A93F900705143802291FBF2F1179A08
:100EE80002FB07174FF4806297FBF2F76FF07E0260
:100EF8009742B8BF17467F2F0B9AA8BF7F279755F1
:100F08000136B442D1D208F10108C6452044C6D200
:100F1800079A9344069A2A4401330692ACEB050CCF
:100F2800B8E70294179C0194169C05960495CDF891
:100F38000CE00094FFF7C8FD0DB0BDE8F08F0294F7
:100F4800179C0194169C05960495CDF80CE0009426
:100F5800FFF757FEF0E7000010B5034B03600446A7
:100F680000F018FA204610BD7844000810B5044671
:100F7800FFF7F2FF2046382100F08EFA204610BD18
:100F880070B5154600F11C0204460E4607CA88B023
:100F980005AB83E80700221D07CA02AB83E80700F8
:100FA800636B0193236B00932946E36AA26A304678
:100FB800FFF750FF6368A1685943636A03FB016147
:100FC8002B46A26860685043E2684243581B82423D
:100FD80004D913F9012B01F8012BF2E708B070BD11
:100FE80030B585B0044601AD85E80E0000F0DCF9A7
:100FF80023460E4A43F81C2B95E8070083E80700B0
:1010080008AA07CA231D83E807000BAA07CA04F128
:10101800100383E807000E9BA3620F9BE362109BFB
:101028002363119B6363204605B030BD78440008F4
:1010380010B5034B0360044600F0ACF9204610BD20
:101048008C44000810B50446FFF7F2FF204628211B
:1010580000F022FA204610BD82B02DE9F04F87B08B
:101068004FEA420E009110A981E80C00DDF844C057
:10107800129B01934FEA4C030EFB03F302930025E6
:101088000CFB02F303932F46019B9F4239D0804605
:101098002E464FF0000AE2452DD00099009B0EEB3A
:1010A800060949449C1905910023934204F102045E
:1010B8001BD014F902BC14F9011C8B45B8BF8B4630
:1010C800A11B49442BEAEB7B11F9011C5945B8BF18
:1010D80059460491059911F913B004995945B8BFB7
:1010E800594608F803100133DFE70AF1010A0EEB4D
:1010F80009069044CFE7029B1D44039B013718441F
:10110800C2E707B0BDE8F04F02B0704707B5034625
:10111800084611469A69009210330CCBFFF79CFFE2
:1011280003B05DF804FB000030B585B0054601AC9E
:1011380084E80E0000F038F92B460A4A43F81C2BC5
:1011480094E8070083E8070008AA07CA2B1D83E86C
:1011580007000BAA07CA05F1100383E80700284611
:1011680005B030BD8C440008D0F88C30D0F8882009
:1011780030B55A43D0F890305A430023934205D0F3
:10118800D0F8A840CD56E5540133F7E730BD00004C
:10119800074B10B504460360D0F8A00008B100F072
:1011A80085F9D4F8A40008B100F080F9204610BDF4
:1011B800A044000810B50446FFF7EAFF2046B02116
:1011C80000F06AF9204610BD0E4B03600023C0F8FA
:1011D8008830C0F88C30C0F89030C0F89430C0F82F
:1011E8009830C0F89C3000F1080200F1880142F8FC
:1011F800043B8A42FBD14360C0F8A030C0F8A43059
:10120800704700BFA0440008F8B50025044600F167
:1012180008062F4663689D421FD200233068426942
:101228000169514382694A43934204D2D4F8AC20FD
:10123800D7540133F2E70368D4F8A8209B68D4F8A0
:10124800AC109847D4F8A830D4F8AC20C4F8A8203B
:10125800C4F8AC3001350436DCE7D4F8A830D4F84B
:10126800AC20C4F8A820C4F8AC30F8BD30B5D0F82C
:101278009820D0F89430D0F8AC405343D0F89C2054
:1012880094F900105A4300231846934206D0E556B5
:10129800A942BCBF184629460133F6E730BD70B5F0
:1012A8004468023400F1080500EB84040020A542DC
:1012B80012D055F8043B9A6859681E695143DA6898
:1012C8004A4359699B6971434B439A4238BF1A464E
:1012D800904238BF1046EAE770BDD0F8A03070B52C
:1012E800054603BBD0F8A440ECB9FFF7D8FF064683
:1012F80000F0D4F8C5F8A000304600F0CFF8D5F8D3
:10130800A030C5F8A830C5F8A400C5F8AC0023463D
:1013180022469E4207D0D5F8A010CA54D5F8A4108A
:10132800CA540133F5E770BDF0B5002305460C46F5
:101338001646032E05F1040504F1040419D915F91C
:10134800047C14F904EC17FB0E3314F903EC15F9BB
:10135800037C17FB0E3715F9023C14F902EC13FB5A
:101368000E7715F901EC14F9013C043E1EFB0373DA
:10137800DFE702F0030422F0030210440A443CB100
:1013880010F9015B12F9011B013C15FB0133F6E76B
:101398001846F0BD7047704710B52821044600F084
:1013A8007BF8204610BD0000064A02600022426019
:1013B8008260C260026142618261C261026242620D
:1013C800704700BFB844000810B5034B03600446DB
:1013D800FFF7E0FF204610BDCC44000810B50446D6
:1013E800FFF7F2FF2046382100F056F8204610BDDE
:1013F80070B5164600F11C0204460D4607CA88B0AF
:1014080005AB83E80700221D07CA02AB83E8070083
:10141800636B0193236B0093A26AE36A3146284603
:10142800FFF718FD08B070BD30B585B0044601ADB2
:1014380085E80E00FFF7B8FF23460E4A43F81C2B39
:1014480095E8070083E8070008AA07CA231D83E870
:1014580007000BAA07CA04F1100383E807000E9BD4
:10146800A3620F9BE362109B2363119B6363204677
:1014780005B030BDCC440008014B024818607047E5
:101488000000002054040020024A13681844106029
:10149800184670470000002070470000024A136891
:1014A800184410601846704700000020704700205C
:1014B8007047704710B530210446FFF7EDFF20460E
:1014C80010BDC360009B0361019B41608260436162
:1014D800704700238361C361036243628362C3620E
:1014E8007047000008B5054B036000234360836024
:1014F800C36003614361FFF7ECFF08BDE0440008E7
:10150800D0ED097AD0ED044A90ED035A90ED0A6ABD
:10151800C0ED0A7A05EE901A67EEA47A45EE857A50
:101528004162D0ED055AD0ED066A80ED0B6A46EEB1
:10153800257A90ED016A90ED077AC0ED076A46EECC
:10154800867AD0ED026A80ED087A47EE267AC0EDF9
:10155800067A17EE900A7047D0ED067AF5EEC07A53
:10156800F1EE10FA48BFF1EE677A17EE900A70476D
:10157800704710B52C210446FFF78EFF204610BD9A
:1015880007EE901A07EE102A37EE877A0021F1EE5F
:10159800677A0362009B41608160C16001614161BB
:1015A800816280ED067AC0ED077A436270470000D9
:1015B80037B5044D0560069D0095FFF7E1FF03B0C0
:1015C80030BD00BFF0440008D0ED036AD0ED017AC9
:1015D80090ED046AD0ED074AC0ED046A07EE102AC0
:1015E80076EEA66A90ED065AC0ED027A05EE901ADC
:1015F80067EEA47A37EE667A45EE857A4160C26076
:1016080037EE067AD0ED086A80ED056A47EE667A0D
:1016180090ED0A7A77EE877A90ED097AC0ED0A7A2A
:10162800F4EEC77AF1EE10FAC8BF80ED0A7AD0ED71
:101638000A7AB1EE477AF4EEC77AF1EE10FA48BFAB
:1016480080ED0A7A806A7047002343608360C16036
:10165800016141618362704781F00042FFF7B4BFC6
:1016680010B50D4CADF50C7D204601F047FE0B483A
:1016780000F000FB4FF0FF31204601F0D9FC01A833
:10168800FEF712FF01A8FFF761F801A8FFF7C8F8F5
:1016980000200DF50C7D10BD2C020020A8020020B2
:1016A800704710B538210446FFF7F6FE204610BDF6
:1016B800094B0360094B436000F1280200F108035D
:1016C800012143F8041B9342FBD100238362C362C8
:1016D80003634363704700BF00450008FC430008EC
:1016E80030B50B1D00F10804243153F8045B44F8AD
:1016F800045B8B42F9D100238262C362036330BD6D
:10170800002310B543630F4B5B7C0446C3B10E48FE
:1017180001F002F8E36AC01A0028A36AB8BF404281
:1017280083420DD2084800F0F7FF236BE06204EB18
:101738008302926802B16263062B9CBF0133236364
:10174800606B10BD5801002040020020406B7047BC
:1017580010B5034B0360044601F024F9204610BD80
:101768001045000810B50446FFF7F2FF2046042193
:10177800FFF792FE204610BD10B5044601F01AF995
:10178800014B2360204610BD1045000838B50546BA
:101798004C1E14F8011F19B1284601F067F9F8E743
:1017A80038BDFFF7F3BF7FB50B1E4FF000024FF0B7
:1017B8000A01BABF5B42012414468DF80F200E4679
:1017C80004AA93FBF6F50A4406FB1533303302F8F6
:1017D8000C3C4A1ED2B22B4665B92CB104AB13445B
:1017E8002D2103F80C1C114601AB1944FFF7CEFF5D
:1017F80004B070BD1146E3E730B585B000230A2276
:101808008DF80F301546B1FBF5F405FB141304A948
:101818001144303301F80C3C531EDBB221462CB97D
:1018280001AB9918FFF7B2FF05B030BD1A46EAE7D9
:10183800F8B507EE901A2DED028BF5EEC07AF1EEB1
:1018480010FA0646154646BFF1EE677A2D2120218B
:10185800012300220A20AA4202D243430132FAE7B6
:10186800BDEEE78A3046B8EEC87A77EEC77A07EE5B
:10187800103AB8EE477A67EE877AFDEEE77A17EE08
:10188800904A002CB8BF644201F0F0F818EE101A24
:101898003046FFF788FF2E21304601F0E7F8002296
:1018A80001230A214B430132A342D2B2FADBAD1A1B
:1018B800EDB20027AF4205D23021304601F0D6F80C
:1018C8000137F7E7BDEC028B21463046BDE8F8400A
:1018D800FFF769BF704710B518210446FFF7DCFD14
:1018E800204610BD4D494E4B03604B6943F4FC0341
:1018F80030B54B614B4B43609A6822F440729A6052
:101908009A6842F440729A609A8822F0100212048F
:10191800120C9A809A8892B29A801A6822F44072BD
:101928001A601A6842F480721A604A6942F4FC022A
:101938004A619A68836022F440629A609A6842F425
:1019480040629A609A8822F020021204120C9A804F
:101958009A8892B29A801A6822F440621A601A68C9
:1019680042F480621A604A6942F4FC024A614FF00C
:101978009042C260956825F040459560956845F0AD
:10198800404595609588C5F30E0595809588ADB25C
:101998009580156825F040451560156845F0804527
:1019A80015604A6942F4FC024A619A68036122F0B0
:1019B80040629A609A6842F040629A609A8822F47B
:1019C80000521204120C9A809A8892B29A801A686D
:1019D80022F040621A601A6842F080621A604A690E
:1019E80042F4FC024A6143619A6822F040529A60CC
:1019F8009A6842F040529A609A8822F4804212040F
:101A0800120C9A809A8892B29A801A6822F04052F0
:101A18001A601A6842F080521A6030BD0010024005
:101A280020450008000400480029C26814DA138D14
:101A38006FEA43436FEA53439BB213854942FF2938
:101A48000B46A8BFFF2341F2BE215943FF23B1FB38
:101A5800F3F1044B99637047936943F4004393612E
:101A6800EDE700BF002C014082680029ABBF138D51
:101A780093699BB243F02003B5BF494243F020036A
:101A880093611385FF290B46A8BFFF2341F2BE21AE
:101A98005943FF23B1FBF3F1014B5963704700BF72
:101AA800002C01400269936823F0406393609368B7
:101AB80043F040639360136823F040631360136836
:101AC80043F0006313604369996821F040519960BD
:101AD800996841F040519960196821F040511960A6
:101AE800196841F000511960516A21F4700151627E
:101AF800516A41F4C00151625A6A22F070625A6216
:101B08005A6A42F0C0625A62104A936943F4006309
:101B180093610F4B002241F2BF211A80D962012143
:101B28001A851A8659615A639A634FF480725A600B
:101B380047F270029A6177221A621A8892B20A43AF
:101B48001A805A6C42F400425A64704700100240EE
:101B5800002C0140416842690B8D9BB243F0100391
:101B68000B8581680B8D9BB243F020030B85C16800
:101B78000B8D6FEA43436FEA53439BB20B850169B0
:101B88000B8D9BB243F400530B85138D9BB243F42A
:101B980080431385FFF786BF704710B518210446A8
:101BA800FFF77AFC204610BD037B826833B100231F
:101BB8000373936943F400439361704701230373EC
:101BC800138D6FEA43436FEA53439BB21385704703
:101BD8001C4A1D4B0360536943F4FC0310B5536161
:101BE8001A4B43609C6824F040749C609C6844F0E5
:101BF80040749C601C6824F040741C601C681C6065
:101C0800DC6844F08074DC60546944F4FC0454617A
:101C18009A68836022F040429A609A6842F0404293
:101C28009A609A88C2F30E029A809A8892B29A8031
:101C38001A6822F040421A601A6842F080421A601C
:101C480010BD00BF001002403045000800040048E5
:101C58004FF0FF3310B54361002304460373014678
:101C68004FF4FA72024801F0F1F8206110BD00BF8C
:101C780050040020436870B504461A8AD20401D57E
:101C880000BFFAE7012363616422217C0F480F4DEE
:101C980001F004F90D4801F00DF900F5FA666368E2
:101CA8001B8ADB040FD4094801F004F9B042F6D9C5
:101CB8006369012BF3D13222217C284601F0EEF82A
:101CC80002236361EBE7606970BD00BF5004002028
:101CD800704710B504210446FFF7DEFB204610BD0F
:101CE800014B0360704700BF784500080B0F064B97
:101CF800DA6A14BF22F4785222F4F872DA62DA6AE5
:101D08001143D962704700BF0010024030B5042B60
:101D18009DF80C401CDC03EB4303086B5B001F259C
:101D28009D4020EA050002FA03F303430B63092AE6
:101D380039DD0A3A8B698B6902EB42020720904031
:101D480023EA00038B618B6994401C438C6130BD8E
:101D5800092B0CDC0620053B43434D6B1F209840A4
:101D680025EA000002FA03F303434B63DFE70E2B77
:101D78004FF006000BDC0A3B43438D6B1F20984055
:101D880025EA000002FA03F303438B63CFE70F3B16
:101D98004343CD6B1F20984025EA000002FA03F365
:101DA8000343CB63C3E7013A4B694B6902EB420239
:101DB8003820904023EA00034B614B69033204FA50
:101DC80002F21A434A6130BD13B5013909299DBF92
:101DD8000D4B53F821400D4B4FF0A04498BF5A5C6F
:101DE8004FF00103009388BF01222146FFF78EFFC1
:101DF800A36843F00403A36023685B0701D400BF12
:101E0800FAE7206C02B010BD484500083C450008C0
:101E18002DE9F743254C264F264E4FF48871054689
:101E2800FFF764FF6369244943F080536361FFF758
:101E38005DFF63694FF0A04843F0005363614FF0C2
:101E4800020900240123C8F80C401A46FC604146E8
:101E5800F460CDF80090FFF759FF01231A46394680
:101E68002846CDF80090FFF751FF0123CDF80090E8
:101E78000C2231462846FFF749FFD8F8083043F0CE
:101E88000103C8F80830BB6843F00103BB60B368BE
:101E980043F00103B360214628460134FFF794FF5D
:101EA8000B2CF8D103B0BDE8F08300BF001002404E
:101EB800000100500004005000220010704710B5C7
:101EC800F8210446FFF7E8FA204610BD4C4A4D4B6E
:101ED8000360536943F4FC0310B553614FF090431A
:101EE80043609C6824F440349C609C6844F440340B
:101EF8009C609C8824F480742404240C9C809C8816
:101F0800A4B29C801C6824F440341C601C6844F40F
:101F180080341C603C4C046144638465C467546924
:101F280044F4FC0454611C68C0F8A03024F0030495
:101F38001C601C6844F003041C60546944F4FC04ED
:101F480054611C68C0F8A43024F00C041C601C68A0
:101F580044F00C041C60546944F4FC0454611C688B
:101F6800C0F8A83024F030041C601C6844F0300429
:101F78001C60546944F4FC0454611C68C0F8AC301B
:101F880024F0C0041C601C6844F0C0041C60546940
:101F980044F4FC0454611C68C0F8B03024F4407464
:101FA8001C601C6844F440741C60546944F4FC04CC
:101FB80054611C68C0F8B43024F440641C601C6888
:101FC80044F440641C60546944F4FC045461C0F84F
:101FD800B8301C6824F440541C601C6844F4405415
:101FE8001C60546944F4FC0454611A68C0F8BC309D
:101FF80022F440421A601A6842F440421A6010BD46
:102008000010024088450008FC4300084268138D10
:102018009BB243F480732DE9F04164210446138593
:102028003648DFF8DC8000F051FF04F13806374607
:10203800002529464046FFF7C7FE0135082D47F819
:10204800040BF6D162682D4893692D4F43F48073D1
:102058009361642100F03AFF002529463846FFF7CE
:10206800B3FE56F8043B0135C01A082D3062F4D18E
:1020780004F1800304F1A002002543F8045B9A42AE
:10208800FBD16FF0FF0363616FF0BF03A3616FF0D3
:102098007F03E3616FF03F03236240236362802381
:1020A800A362C023E3624FF4807323634FF49673F3
:1020B800A360012384F8C05084F8C130C4F8D0501C
:1020C800C4F8D450C4F8D850C4F8C450C4F8C850A0
:1020D800C4F8CC5004F1C0070FCF04F1DC060FC6DA
:1020E80097E80700002386E80700257304222146A5
:1020F800024800F0ABFE0020BDE8F081500400204B
:1021080054010020037B72B60BB10022027362B641
:10211800184670474FF48070704700EB810030B567
:102128004269D0F8805002FB05F479B1C36F0269A7
:10213800062902FB03422B440BD8D0F8841080698F
:102148000B4400FB012292FBF3F030BD62006B00F0
:10215800F3E722442B44F6E7826800F1800300206D
:1021680053F8041B8A4204DB01300828F8D14FF0E9
:10217800FF30704700F1800270B5A03050F8985CCD
:102188001346002153F8044BAC42C8BF01219842C2
:10219800F8D111B3002452F8041B8D42B8BF0134A2
:1021A8009A42F8D10E4901224FF0FF3000250B6802
:1021B80051F8046FC3EB46034E689B1B002BB8BF56
:1021C8005B42AB4201DD10461D460132072AEED1C3
:1021D800072C98BF4FF0FF3070BD4FF0FF3070BD37
:1021E800400300202DE9F8430025DFF804813F4F24
:1021F800044600F13806A94629464046FFF7E4FDA3
:1022080056F8043BC01A7843336A90FBF3F0013563
:1022180010F57A7054BF7064C6F84490082DEBD15D
:10222800002304F18001A268C4F8EC3004F1A00591
:102238000B4653F8040B9042C2BFD4F8EC000130AF
:10224800C4F8EC00AB42F4D100230720C4F8F03006
:10225800C4F8F40051F8040B824230DAC4F8F030C4
:1022680004F19C01072351F8040982422BDAC4F8CF
:10227800F430002384F8DC302046FFF77BFF054666
:102288002046FFF769FF6A1C01461FD0032304EBB1
:10229800850584F8DD306B69C4F8E830012384F8DB
:1022A800DC3004F1DC060FCE04F1C0050FC596E85A
:1022B8000700012385E807002373BDE8F88301338D
:1022C800082BC7D1CCE7013BCDD1D2E7431CE8D0DE
:1022D800012584F8DD502046FFF71FFF84F8DC5005
:1022E800C4F8E000C4F8E400DBE700BF18FCFFFF17
:1022F80054010020704710B544210446FFF7CCF87C
:10230800204610BD014B0360704700BF9C45000884
:102318002DE9F0410446006C03689B68884698479D
:10232800206C0368D4215B699847206C03681921E5
:102338005B699847206C03689B689847206C036822
:10234800D5215B699847206C036801219B699847F0
:10235800000207B2206C036801219B699847074374
:10236800206C036801219B699847000206B2206C23
:10237800036801219B6998470643206C0368012183
:102388009B699847000205B2206C036800219B698D
:1023980098470543206C0368DB683FB236B22DB21C
:1023A8009847B8F1000F08D0A36A3B44A362E36AD8
:1023B8003344E362236B2B442363A36AE169226BF2
:1023C800E06AFB1AAD1A2361192293FBF2F301EBC1
:1023D8004303E361236AA561301A606190FBF2F060
:1023E80003EB40002062636A206C95FBF2F503EB77
:1023F8004505036865629B689847206C0368D4218B
:102408005B699847206C036829215B699847206CB1
:1024180003689B689847206C0368D5215B699847D7
:10242800206C036801219B699847000207B2206C61
:10243800036801219B6998470743206C03680121C1
:102448009B699847000206B2206C036801219B69CA
:1024580098470643206C036801219B69984700024E
:1024680005B2206C036800219B6998470543206CDE
:102478000368DB6898473FB236B22DB20123676024
:10248800A660E56084F83C30BDE8F0810021FFF7E4
:102498003FBF406B003018BF0120704711F1FF317A
:1024A80001D300BFFAE7704738B504461022084642
:1024B8002164A823D421FEF7F5F900232361636181
:1024C800A361A362E3622363E3612362636242F26E
:1024D80010712046FFF7E2FF0F226363D421206CBE
:1024E800FEF7FEF9682804BF012363631022A823BE
:1024F800D421206CFEF7D6F938231E22D421206C73
:10250800FEF7D0F900232E22D421206CFEF7CAF959
:1025180000231222D421206CFEF7C4F96023202264
:10252800D421206CFEF7BEF938231F22D421206C59
:10253800FEF7B8F942F210712046FFF7AFFF00210D
:102548002046FFF7E5FE0023A3634FF47A750121C7
:102558002046FFF7DDFE64212046FFF79FFF013D7F
:10256800F5D14FF47A72A36AE56193FBF2F3256221
:10257800A3626562E36A656093FBF2F3A560E362B8
:10258800E560236B054893FBF2F3214623630A2297
:102598002B4600F05BFC84F83C5038BD500400200A
:1025A800704710B514210446FEF776FF204610BD8B
:1025B800304A314B0360536943F4FC0310B553614F
:1025C8002E4B43609C6824F440549C609C6844F4FF
:1025D80040549C601C6824F440541C601C681C60B7
:1025E800DC6844F48054DC60546944F4FC045461AD
:1025F8009C68836024F440449C609C6844F4404494
:102608009C601C6824F440441C601C681C60DC68E6
:1026180044F48044DC60546944F4FC0454619C68CC
:10262800C36024F040749C609C6844F040749C60D3
:102638001C6824F040741C601C681C60DC6844F052
:102648008074DC60546944F4FC0454619A68036142
:1026580022F440029A609A6842F440029A601A682A
:1026680022F440021A601A681A60DA6842F480029A
:10267800DA6010BD00100240B045000800080048AC
:10268800164B174A10B500241C60164B1C60936942
:1026980043F00103936106210220FDF7AFFE0C21F0
:1026A8000220FDF7ABFE10210620FDF7BCFE10212D
:1026B8000C20FDF7B8FE224621461720FDF720FE24
:1026C800224621462820FDF71BFE0620FDF78AFE3C
:1026D8000C20BDE81040FDF785BE00BF08000020B3
:1026E800001002400C00002072B6044B186862B655
:1026F80058234343B42093FBF0F0704708000020B0
:1027080072B6044B186862B658234343B42093FB4F
:10271800F0F070470C00002008B50146FFF7E4FF11
:1027280002460846FFF7ECFF0223104490FBF3F043
:1027380008BD0000034B186858234343B42093FB9B
:10274800F0F0704708000020034B186858234343F3
:10275800B42093FBF0F070470C000020094B1B8A53
:1027680013F0C0030BD0C02B0CBF01234FF0FF3375
:10277800054A116806200B441360FDF733BE012398
:10278800F6E700BF00080048080000200A4B1B8A33
:1027980013F4C0530CD0B3F5C05F0CBF4FF0FF3338
:1027A8000123064A11680C200B441360FDF71ABE7A
:1027B8004FF0FF33F5E700BF000800480C00002089
:1027C80038B5C368364D2DED048B436003698360CB
:1027D80004462846FFF7AEFFE0602846FFF7B4FF3F
:1027E8006268E3689FED2F5AD4ED056ADFED2E5A33
:1027F8009FED2E6A20619B1A07EE103AB8EEC77A51
:10280800A3689FED2B9A27EE057A66EEA56A47EE38
:10281800066AC31A04F13C0007EE903AF8EEE77A2C
:10282800C4ED056AB0EE667AD4ED066A67EE857A7D
:1028380066EEA56A47EE866AD4ED077AC4ED066AA5
:1028480077EEC77A17EE102A17EE901AFEF7BCFE3D
:10285800A269D4ED087A07EE102A77EEC77A08EE57
:10286800900A17EE901A04F16800FEF7ADFE68EEC4
:10287800898A2434FDEEE87A08EE100A17EE901AD9
:102888002046FFF7D1F828EE098A2046FDEEC87ADF
:10289800BDEC048B17EE901ABDE83840FFF7E4B89A
:1028A80040020020CDCCCC3D6666663F0000003E6D
:1028B80000007F4373B50E4B002504464FF07E564B
:1028C80040F8243BFFF70EF82B462A462946009687
:1028D80004F13C00FEF76CFE00962B462A4629467A
:1028E80004F16800FEF764FE204602B070BD00BF28
:1028F800C0450008F7B5154F154E04464FF07E55F4
:102908002430FFF727F900952B463A46314604F163
:102918003C00FEF735FE00952B463A46314604F159
:102928006800FEF72DFE002500236361A361E361C3
:1029380023626560A560E56025612B460422214677
:10294800044800F083FA284603B0F0BDEC51B83DC6
:10295800CDCC8C3F50040020C161704701627047A4
:10296800406970478069704710B5084B044640F8C5
:10297800683BFEF7FDFD04F13C00FEF7F9FD04F1AC
:102988002400FEF7A7FF204610BD00BFC045000881
:1029980010B50446FFF7E8FF20469421FEF77CFDBA
:1029A800204610BD704710B504210446FEF774FD9B
:1029B800204610BD014B0360704700BFD445000896
:1029C800274A536943F4FC0353614FF090439868D6
:1029D80020F440209860986840F440209860186877
:1029E80020F440201860186840F4002018605069EE
:1029F80040F4FC005061986820F440109860986892
:102A080040F440109860186820F440101860186866
:102A180040F400101860586A20F0F0005862586AB4
:102A280040F070005862586A20F470605862586A22
:102A380040F4E0605862936943F480439361094B22
:102A480000220C205A6018609A60074AB2FBF1F124
:102A580089B299811A6842F001021A60704700BF72
:102A6800001002400038014000A24A04044BDA6911
:102A7800120601D400BFFAE789B21985704700BF72
:102A880000380140704710B50C210446FEF704FDDC
:102A9800204610BD024A026000220272704700BF41
:102AA800E4450008F8B5012304464160037272B694
:102AB8000B6808469B68984760680368B0215B69A3
:102AC800984707466068036800215B69984706468F
:102AD8006068036800215B69984705466068036879
:102AE800DB68984762B6012F1CBF00232372012EB2
:102AF8001CBF00232372012D1CBF00232372F8BDC5
:102B0800007A7047F8B5082104462DED048B41483A
:102B1800FFF75AF9092108EE100A3E48FFF754F961
:102B28000A2109EE100A3B48FFF74EF9F8EEC87A79
:102B38009FED398A67EE887A04F1440717EE901AF8
:102B480008EE900A3846FEF7DBFCB8EEC99A04F1A5
:102B5800740669EE087A304617EE901AFEF7D0FC34
:102B6800F8EEE88A04F1A40568EE887A284617EE9C
:102B7800901AFEF7C5FC3846FEF7EEFC9FED278A53
:102B880007EE900A78EE677A3046C4ED027AFEF7CF
:102B9800E3FC07EE900A78EE677A2846C4ED017ADE
:102BA800FEF7DAFC07EE900A9FED1D7A38EE678A89
:102BB800D4ED027A84ED038AF4EEC77A9FED197A90
:102BC800F1EE10FA4CBF01230023F4EEC77AF1EEC0
:102BD80010FA23744FF0010348BF63742375A36A86
:102BE8005CBF0022627413F003020AD1A1690A8D46
:102BF80092B242F400520A85BDEC048B0133A36201
:102C0800F8BD022A01BFA1698A6942F400528A61AB
:102C1800F2E700BF54010020000080390000803F27
:102C28003333333F0AD7233F2F49304B10B5036066
:102C38004B6943F4FC034B612D4B83619A6822F086
:102C480040629A609A6842F040629A609A8822F4D8
:102C580000521204120C9A809A8892B29A801A68CA
:102C680022F040621A601A6842F080621A604A696B
:102C780042F4FC024A611F4AC2610446106820F00F
:102C880003001060106840F003001060486940F4C9
:102C9800FC0048611068226220F00C001060106887
:102CA80040F00C0010604A6942F4FC024A611A685C
:102CB800636222F003021A601A6842F003021A6083
:102CC80004F14400FEF70EFC04F17400FEF70AFC60
:102CD80004F1A400FEF706FCA269138D9BB243F42D
:102CE80000531385204610BD00100240F44500082B
:102CF80000080048000400482DE9F7438269214F85
:102D0800138DDFF888909BB2002543F40053856249
:102D1800002613854FF07B584FF07E530446C5625A
:102D2800056345638563C563056443608360C36069
:102D38000574457443463A463146CDF804900096EA
:102D48004430FEF7BEFB43463A46314604F1740070
:102D5800CDF804900096FEF7B4FB43463A46314658
:102D680004F1A400CDF804900096FEF7AAFB2B46C8
:102D780005222146044800F069F82846257503B065
:102D8800BDE8F083000080BE500400200000C0BEF3
:102D9800037D72B60BB10022027562B61846704701
:102DA80010B5084B044640F8A43BFEF782FB04F13B
:102DB8007400FEF77EFB04F14400FEF77AFB204620
:102DC80010BD00BFF445000810B50446FFF7E8FF42
:102DD8002046D421FEF760FB204610BD7047000056
:102DE800F7B50022154D142713464FF47A7607FBE2
:102DF80002F429190132102A2B514B608E60CB60E6
:102E08000B744B74F3D10E4A13600E4A0360D369F6
:102E180043F00103D361002264230093114640F27A
:102E2800CF234FF08040FDF78DFA012200211C20AE
:102E3800FDF766FA62B603B0F0BD00BF14000020CB
:102E4800100000200010024070470000F0B572B674
:102E5800114D00244FF0FF304FF0140E2F460EFB9B
:102E680004F605EB060CAE5926B9DCF80460002E12
:102E780008BF20460134102CF1D1441C0AD0C4B23A
:102E8800142565437C1900267E516160A260E260CA
:102E98002674637462B6F0BD14000020044814233D
:102EA80003FB01010023CA608A600B74704700BFEE
:102EB8001400002082B072B6034B1B68019362B6FF
:102EC800019802B0704700BF1000002007B5024605
:102ED800FFF7F0FF014401911046FFF7EBFF019B5C
:102EE800984201D200BFF7E703B05DF804FB000089
:102EF800F8B54FF080431A69D20714D5194F4FF629
:102F0800FE721A61002414263D4606FB0473DA6833
:102F180052B1DA68013ADA600134102CF5D1124A5C
:102F2800136801331360F8BD9A68DA601A7CFF2AC7
:102F38001FBF1A7C0132D2B21A7406FB04F3EA18D6
:102F4800527C002AE8D1EA580AB1EB58984706FBA8
:102F580004535A68002ADFD0586803689B6898476A
:102F6800DAE700BF1400002010000020704710B5F9
:102F780008210446FEF790FA204610BD10B5034B11
:102F880003600446FDF780FC204610BD0846000893
:102F980010B50446FFF7F2FF20461021FEF77CFA31
:102FA800204610BD10B5044621B10349FEF7F9FBD0
:102FB800204610BD0149F9E77D470008824700080F
:102FC8001049114B03604B6943F4FC034B610F4BF1
:102FD80043609A6822F040429A609A6842F0404200
:102FE8009A609A88C2F30E029A809A8892B29A805E
:102FF8001A6822F040421A601A6842F080421A6049
:10300800704700BF001002409047000800040048C5
:10301800026821B1936943F4004393617047138DAB
:103028006FEA43436FEA53439BB21385704700002E
:103038002DE9F84381460F462C482D492D4D2B4C40
:103048002D4EFEF7AEFB4FF00108B8F1000F4AD045
:103058002846FFF79DFE0028F7D009F10408002F45
:1030680040464FF00101C8BF07F1FF37FFF7D0FF17
:10307800032269682046FEF7DBFB31462046FEF74F
:1030880090FB0322A9682046FEF7D2FB3146204672
:10309800FEF787FB0322E9682046FEF7C9FB3146A5
:1030A8002046FEF77EFB297C2046FFF77BFF314652
:1030B800FEF777FB697C2046FFF774FF3146FEF781
:1030C80070FB0E492046FEF76CFB40460021FFF7D7
:1030D8009FFFC8210A48FFF7F9FE17F1000818BF3B
:1030E8004FF00108B1E7BDE8F88300BF4C040020A9
:1030F8003946000858010020374600085A4600089B
:1031080050040020D1B903689A6822F440429A60BA
:103118009A6842F440429A609A8822F08002120427
:10312800120C9A809A8892B29A801A6822F44042C5
:103138001A601A6842F480421A60704701290ED159
:1031480003689A6822F440429A609A6842F44042BE
:103158009A601A6822F440421A601A68ECE7022959
:1031680013D103689A6822F440429A609A6842F43C
:1031780040429A601A6822F440421A601A681A603B
:10318800DA6842F48042DA607047052910D1036892
:103198009A6822F440429A609A6842F440429A60DF
:1031A8001A6822F440421A601A6842F40042C3E7DF
:1031B8000429C2D103681A6822F440421A601A68C6
:1031C80042F44042B8E70000054A08B5536943F4A1
:1031D800FC035361034B03600121FFF793FF08BD14
:1031E8000010024000040048D1B903689A6822F42C
:1031F80040529A609A6842F440529A609A8822F043
:1032080040021204120C9A809A8892B29A801A6824
:1032180022F440521A601A6842F480521A607047C9
:1032280001290ED103689A6822F440529A609A687C
:1032380042F440529A601A6822F440521A601A689E
:10324800ECE7022913D103689A6822F440529A6085
:103258009A6842F440529A601A6822F440521A60FE
:103268001A681A60DA6842F48052DA6070470529F1
:1032780010D103689A6822F440529A609A6842F41E
:1032880040529A601A6822F440521A601A6842F44E
:103298000052C3E70429C2D103681A6822F44052D5
:1032A8001A601A6842F44052B8E70000054A08B5A7
:1032B800536943F4FC035361034B03600121FFF797
:1032C80093FF08BD00100240000400480A2310B50F
:1032D800436004460830FFF777FF04F10C00FFF75E
:1032E800E5FFA268138D9BB243F080031385E26863
:1032F800138D9BB243F04003138510BD2DE9F041B7
:103308004F4C504EDFF8A481071D38460121FFF7C6
:103318007FFE20464FF4E131FFF752FB20464A4931
:10332800FEF73FFA49492046FEF73BFAFEF7A4F8B4
:10333800474905462046FEF734FA2946454D2046BA
:10334800FEF75AFA29462046FEF72BFA3046FFF7D1
:1033580047FD20464049FEF724FA20463F49FEF73C
:1033680020FA3046C8213E4EFFF7B0FD3D492046C1
:10337800FEF717FA3046FFF7A9FF20463A49FEF74D
:1033880010FA31464046FFF78FF838492046FEF7D5
:1033980008FA4046FFF77DF8DFF814810146204619
:1033A800FFF700FE2946FEF7FCF931464046FFF7D5
:1033B80079FB2F492046FEF7F4F94046FFF7A0FBBA
:1033C80001462046FFF7EEFD2946FEF7EAF92948AF
:1033D800FEF71EFD28492046FEF7E3F92748FEF7C9
:1033E80015FE27492046FEF7DCF92648FFF784FC3E
:1033F80025492046FEF7D5F92448FFF741F9244925
:103408002046FEF7CEF92348FFF774FA20462249F2
:10341800FEF7C7F900213846FFF7FAFD1F48FEF707
:1034280017FC20461E49FEF7BCF920461D49FEF749
:10343800B8F920461C49FEF7B4F90020BDE8F08130
:103448004C04002050040020504600085C46000848
:10345800704600085A4600088E4600089F46000835
:1034680054020020B6460008AD460008BC460008D5
:10347800D046000854010020E7460008C00200209A
:10348800F6460008580100200D47000840020020B9
:1034980028470008B803002042470008A802002077
:1034A8005C470008594600086B4700086402002082
:1034B8003402002070B5044600F10C0604F108053A
:1034C80030460021FFF790FE28460021FFF71AFE3C
:1034D80030460121FFF788FE28460021FFF712FE3B
:1034E80030460121FFF780FE28460121FFF70AFE3A
:1034F8002046BDE87040FDF71ABA70B5044600F1E1
:103508000C0604F1080530460121FFF76DFE284638
:103518000121FFF7F7FD30460121FFF765FE284638
:103528000021FFF7EFFD30460021FFF75DFE28463A
:103538000121FFF7E7FD2046BDE87040FDF7F7B928
:103548002DE9F843044600F108073846894604F196
:103558000C060121FFF7D6FD00213046FFF744FE97
:103568002046FDF7E4F94FF009080025B8F10108F5
:1035780017D001213046FFF737FE2046FDF7D7F96F
:10358800A3681B8A6D001B063046EDB24FF00001A0
:1035980048BF45F00105FFF727FE2046FDF7C7F9AC
:1035A800E4E7B9F1000F1ED041463846FFF7AAFDFF
:1035B8002046FDF7BCF901213046FFF715FE2046ED
:1035C800FDF7B5F900213046FFF70EFE2046FDF75E
:1035D800AEF901213846FFF795FD2046FDF7A7F91A
:1035E8002846BDE8F8830121DFE72DE9F0410446CC
:1035F8000D46092700F10C0600F10808013F1AD012
:1036080000213046FFF7F0FD2046FDF790F92B0624
:103618004CBF012100214046FFF774FD2046FDF70D
:1036280086F901213046FFF7DFFD6D002046FDF7E2
:103638007EF9EDB2E2E739463046FFF7D5FD204680
:10364800FDF775F901214046FFF75CFD2046FDF7BF
:103658006EF901213046FFF7C7FD2046FDF767F9EF
:10366800A3681D8A39463046FFF7BEFDADB2204635
:10367800FDF75DF985F08000C0F3C010BDE8F0816A
:1036880038B53C4D3C4C2846FFF79AFC28463B4D44
:103698003B492246FDF70BFF2846FEF76DF8284602
:1036A800384D39492246FDF702FF2846FFF796FBB9
:1036B8002846364D36492246FDF7F9FE2846FDF7DD
:1036C800EBF82846334B40F8083BFFF77DFD05F142
:1036D8000C00FFF7EBFD28462F4D30492246FDF739
:1036E800E6FE2846FEF70EFE28462D4D2D492246B9
:1036F800FDF7DDFE2846FFF7CDF928462A4D2B4970
:103708002246FDF7D4FE2846FEF7EAFA2846284D59
:1037180028492246FDF7CBFE2846FEF7D7FB284668
:10372800254D26492246FDF7C2FE2846FFF77CFABA
:103738002846234D23492246FDF7B9FE2846FEF7C1
:1037480037FF2846204D21492246FDF7B0FE28467E
:10375800FFF7B0F828461E4D1E492246FDF7A7FE82
:103768002846FEF735FA224628461B49BDE8384068
:10377800FDF79DBE2C020020040000204C04002010
:10378800752F000850040020591700085402002023
:10379800512E00080846000864020020852F000802
:1037A80034020020FD220008540100208D2A000860
:1037B800C0020020D91C000858010020C51E0008BE
:1037C80040020020A92D0008B8030020A925000800
:1037D800A802002071290008A11B000838B504467A
:1037E800074B44F8083B0546204600F0CDFB204631
:1037F800044900F0F1FB002385F85C30284638BD09
:10380800A04700083333333F41607047012380F8F5
:103818005C3070472DE9F84381461648DFF8588038
:10382800144E0D46FFF746FB054409F1080705212C
:10383800384600F001FC0446A0B94046FEF762FC99
:103848000028F4D03046FFF735FB854202D298F8BD
:10385800C0305BB9384600F013FC04213046FFF74E
:1038680035FBE2E74FF0FF30BDE8F8832046BDE8BE
:10387800F88300BF50040020C002002073B5D0EDCB
:10388800017A90F85C300093F5EEC07AF1EE10FA08
:10389800054600F108044BBFAA2100210022AA22F4
:1038A80020460026052300F013FB85F85C603146AE
:1038B8002846FFF7AFFF00285DD0D5ED017A0096C6
:1038C800F5EEC07AF1EE10FA4BBF32466FF0A9025E
:1038D8006FF0A90131460523204600F0F9FA27497F
:1038E8002846FFF797FF204600F026FCD5ED017A21
:1038F800F5EEC07AF1EE10FA4FF0000158BF0A4613
:1039080000914CBFAA22AA212046052300F0E0FA24
:1039180096212846FFF77EFF68B3D5ED017AF5EECC
:10392800C07AF1EE10FA4FF0000154BF0A466FF06A
:10393800A90200914FF0050358BF6FF0A901204676
:1039480000F0C6FA0D492846FFF764FF204600F04C
:10395800F3FB55220023114600932046052300F06F
:10396800B7FA96212846FFF755FF204602B0BDE872
:10397800704000F0E1BB02B070BD00BF40420F00D4
:1039880010B5044B044640F8083B00F091FA204675
:1039980010BD00BFA047000810B50446FFF7F0FFB0
:1039A80020466021FDF778FD204610BD704710B510
:1039B80050210446FDF770FD204610BD0346074A16
:1039C80043F8042B00F14401002203F8012B8B4239
:1039D800FBD1034B8264C36442647047B04700085C
:1039E800003665C410B5031D00F14404002203F835
:1039F800012BA342FBD1024B8264C364416410BD16
:103A0800003665C470B50446C06C101A0028B8BFEB
:103A1800404283424FDCE26404F138020023A2F101
:103A28000800C51895F90460D5180133082B2E71C4
:103A3800F7D184420246F1D10D1D224B224A24318E
:103A4800284650F8046BB242B8BF3246B342A8BF0A
:103A580033468842F5D193422FDAD31A07EE903ACB
:103A68009FED1A7AF8EEE77AC7EE276A07EE902AF2
:103A7800F8EEE77A07EEE67AF0EE477A231D194664
:103A8800B5EC017AB8EEC77AB0EE676A07EE266A37
:103A98008542BDEEC67A17EE102A03F8012BEFD146
:103AA800606C03689B689847606CFDF7ADFB606CC1
:103AB800FDF7DCFBA064002070BDDFED057AF0EEB9
:103AC800676ADBE740420F00C0BDF0FF0000FE421E
:103AD80000000000F8B504460B4B44F8083B0026EC
:103AE800054637466B689E4209D254F8040B10B15C
:103AF80003685B68984744F8047C0136F2E7284677
:103B0800FDF746FB2846F8BD044B000810B50446EF
:103B1800FFF7E0FF2046B021FDF7BEFC204610BDB0
:103B28002DE9F043804695B0FDF74EFBBC4BC8F835
:103B380000300823C8F88830C8F88C300123C8F84A
:103B48009030C8F89430C8F898300523C8F89C30ED
:103B5800B44B93E80700B44B0BAC84E8070093E838
:103B68000700B24B0EAD85E8070093E8070011AED9
:103B780086E807003820FDF787FC40F25F130993B9
:103B88004FF41B730893AA4B0793AA4B06938146DD
:103B980096E8070003AF87E8070095E807008DE877
:103BA8000700484694E80E00FDF73EFCA24BC8F813
:103BB800089093E80700A14B84E8070093E8070002
:103BC8009F4B85E8070093E8070086E807002C204C
:103BD800FDF75AFC814696E8070087E8070095E854
:103BE80007008DE80700484694E80E00FCF746FFFA
:103BF800944BC8F80C9093E80700934B84E80700AF
:103C080093E80700914B85E8070093E8070086E8EA
:103C180007002820FDF738FC814696E8070087E86A
:103C2800070095E807008DE80700484694E80E006D
:103C3800FDF77AFA864BC8F8109093E80700854B91
:103C480084E8070093E80700834B85E8070093E8BA
:103C5800070086E807003820FDF716FC40F25313EA
:103C6800099340F2D62308937C4B07937C4B069329
:103C7800814696E8070087E8070095E807008DE881
:103C88000700484694E80E00FDF7AAF9754BC8F8F6
:103C9800149093E80700744B84E8070093E8070042
:103CA800724B85E8070093E8070086E807002C2098
:103CB800FDF7EAFB814696E8070087E8070095E8E4
:103CC80007008DE80700484694E80E00FCF7D6FE8A
:103CD800674BC8F8189093E80700664B84E807001C
:103CE80093E80700644B85E8070093E8070086E837
:103CF80007003820FDF7C8FB40F21513099340F27E
:103D0800975308935D4B07935D4B0693814696E85E
:103D1800070087E8070095E807008DE80700484690
:103D280094E80E00FDF75CF9564BC8F81C9093E830
:103D38000700554B84E8070093E80700534B85E8D4
:103D4800070093E8070086E807002C20FDF79CFB96
:103D5800814696E8070087E8070095E807008DE8A0
:103D68000700484694E80E00FCF788FE484BC8F860
:103D7800209093E80700474B84E8070093E8070082
:103D8800454B85E8070093E8070086E807002820E8
:103D9800FDF77AFB814696E8070087E8070095E873
:103DA80007008DE80700484694E80E00FDF7BCF9C7
:103DB8003A4BC8F8249093E80700394B84E8070089
:103DC80093E80700374B85E8070093E8070086E883
:103DD80007004020FDF758FB4FF4CB7309934FF4CD
:103DE80074730893304B0793304B0693814696E8DB
:103DF800070087E8070095E807008DE807004846B0
:103E080094E80E00FCF7E0FD09234046C8F8289026
:103E1800C8F80430FDF761FA404615B0BDE8F083F4
:103E2800044B0008CC4A0008904A00089C4A000845
:103E3800B8470008C94700089C4A00089C4A00087F
:103E48009C4A0008D84A00089C4A0008A84A00086A
:103E5800CC4A0008A84A0008B44A0008BC47000831
:103E6800ED470008B44A0008B44A0008B44A0008FC
:103E7800CC4A0008B44A0008C04A0008C0470008F5
:103E88007D480008C04A0008C04A0008C04A000827
:103E9800D84A0008C04A0008E44A0008E44A000872
:103EA800E44A0008F04A0008C44700089D49000891
:103EB8007047704710B510210446FDF7EDFA20460B
:103EC80010BD10B554210446FDF7E6FA204610BD92
:103ED8002DE9F0412DED028B044625489DF8208000
:103EE8000E4617461D46FEF7FFFB3044A0602048EB
:103EF800FEF706FC002E3844E06025612ADDDFED80
:103F08001D7A9FED1D8A002FD8BFB0EE678A1B4D22
:103F18001B4A84ED078A00232562A361E2622563B8
:103F2800A36284ED0F8A2564A363E2642565A36414
:103F3800B8F1000F0AD0BE420FDA002F06DD114893
:103F4800FEF710FD84ED0F8A2564A063BDEC028B9B
:103F5800BDE8F0819FED078AD9E7F7DD002EF5DD92
:103F68000848FEF7FDFC84ED078A2562A061EDE7AD
:103F7800400200206F12033C6F12833B0AD7233C98
:103F88006F12033BB803002013B5104B104A0360AF
:103F980000234261C361036283614262C3620363B7
:103FA80083624263C363036483634264C36400221D
:103FB80003658364074B0261436011460092052341
:103FC8000446FFF785FF204602B010BD2C4B0008C1
:103FD8001C4B00083333333F07B5002241600261B0
:103FE800009205231146FFF773FF03B05DF804FB49
:103FF80038B5846806480D46FEF776FB201A002877
:10400800B8BF40428542D4BF0020012038BD00BF60
:104018004002002038B5C46806480D46FEF770FB1C
:10402800201A0028B8BF40428542D4BF0020012092
:1040380038BD00BF4002002038B504460D46FFF7E2
:10404800D7FF28B129462046BDE83840FFF7E2BF30
:1040580038BDD0ED017A07EE101AF4EEC77AF1EE0A
:1040680010FA07D590ED027A77EE277AC0ED017A3B
:1040780040687047FCDD90ED037A77EEC77AF5E784
:1040880038B585682DED028B04462848FEF72CFBD1
:10409800854225DD616804F11400FFF7DAFF94ED2D
:1040A800068A2248E568FEF72BFB85422BDD61680E
:1040B80004F13400FFF7CDFFD4ED0E7A1C4817EE5B
:1040C800901AFEF74BFC18EE101A1948FEF744FC3C
:1040D800BDEC028B21692046BDE83840FFF7ACBF34
:1040E8001248A568FEF700FB854209DA616804F109
:1040F8002400FFF7AEFF94ED0A8AB1EE488AD0E7B4
:104108009FED0C8ACDE70948E568FEF7F9FA854284
:1041180009DA616804F14400FFF79BFFD4ED127AD5
:10412800F1EE677ACAE7DFED037AC7E740020020BD
:10413800B80300200000000038B52DED048B9FED7A
:104148002A9A2A4D0446F0EE499A2846FEF708FCBA
:1041580007EE900AF5EEC07AF1EE10FA48BFF1EEDC
:10416800677AF4EEC97AF1EE10FA20DD002104F145
:104178004400FFF76EFFD4ED128A002104F12400F9
:10418800FFF767FF94ED0A8AF1EE688A18EE901A35
:104198002846B1EE488AFEF7E1FB18EE101A2846C9
:1041A800FEF7DAFB04211248FEF790FECDE7284619
:1041B800FEF7D8FB07EE900AF5EEC07AF1EE10FA9A
:1041C80048BFF1EE677AF4EEE97AF1EE10FACDDC49
:1041D80000210648FEF7C2FBBDEC048B0021034812
:1041E800BDE83840FEF7B8BB0AD7233CB803002027
:1041F8005004002038B50446064B44F8043B0546F5
:104208002046FFF7C1FE20460349FFF7E5FE284692
:1042180038BD00BF3C4B00083333333F37B500236C
:10422800041D009320460523FFF752FE094D052182
:104238002046FFF701FF38B92046FFF721FF042188
:104248002846FEF743FEF2E7204603B0BDE83040BB
:10425800FFF772BF5004002010B5044B044640F825
:10426800043BFFF725FE204610BD00BF3C4B00086D
:1042780010B50446FFF7F0FF20465821FDF70CF96A
:10428800204610BD2DE9F0412DED048B8EB04FF086
:104298007E53009300231A4605460C4603A8194688
:1042A800FDF786F9444E454B00930022444B45499F
:1042B80003A8FDF765F9F16803A8FDF7C5F96FF0E4
:1042C800150211462846FFF7A9FF012C5ED1582296
:1042D80000212846FFF7A2FFDFED3B8ADFF8D880F0
:1042E800DFED3A9A3A4F4046FEF752FD0028FAD0E1
:1042F800012C50D1D6ED037A9FED368A38EE678AC5
:1043080018EE101A03A8FDF7A7F99FED337AF4EE1B
:10431800C78AF1EE10FA4ABF9FED307AF0EE478A6D
:1043280078EE878A07EE900A9FED2D7AF4EEC77A29
:10433800F1EE10FA38D49FED2B7AF4EE477AF1EECD
:1043480010FAC8BFF0EE477A38EEE79A78EEA77A07
:10435800384617EE901AFEF701FB19EE101A384688
:10436800FEF7FAFA204B93F8C030002BBBD0012C93
:104378001DD14F2200212846FFF750FF03A8FDF763
:10438800F7F80EB0BDEC048BBDE8F081621CA3D138
:10439800002258219DE7631C02BF96ED018A39EE81
:1043A800C88AB1EE488AABE7F0EE477ACCE7013429
:1043B800E4D100224F21DEE758010020000020410F
:1043C8009A99993E9A99193F000000000AD7633FCD
:1043D800B80300201F856B3F0000803E0AD7233CAE
:1043E8009A9999BE9A99993EC0020020000000004F
:1043F8000000000093040008A30400080000000067
:104408000000000091040008950400080000000066
:1044180000000000290800086908000800000000E2
:104428000000000091080008930800087F080008B1
:104438008108000883080008890800088D0800081A
:104448000000000000000000490900085D0900089C
:104458007109000800000000000000005D0A000863
:10446800710A0008390A0008000000000000000076
:10447800610F0008750F0008890F00080000000090
:1044880000000000391000084D1000081511000840
:10449800000000000000000099110008BD1100088C
:1044A80071110008E312000800000000000000007D
:1044B8009D130008A11300089F13000800000000C6
:1044C80000000000D1130008E5130008F9130008E4
:1044D8000000000000000000BB140008BD14000824
:1044E8000000000000000000791500087B15000896
:1044F8000000000000000000A9160008AB16000824
:104508000000000000000000591700086D1700089F
:104518000000000000000000DD180008DF18000897
:104528000000000000000000A11B0008A31B0008F9
:10453800B11B0008020304010203040C0106000079
:104548000000005000000050000000500001005022
:10455800000100500001005000010050000400500C
:10456800000400500000005000000000000000009F
:10457800D91C0008DB1C0008000000000000000037
:10458800C51E0008C71E0008ED2100080000000035
:1045980000000000FD220008FF2200089524000802
:1045A8000000000000000000A9250008AB25000855
:1045B8000000000000000000712900089929000887
:1045C800C92700080000000000000000AD2900080D
:1045D800AF29000800000000000000008D2A000834
:1045E8008F2A00080000000000000000A92D000824
:1045F800D12D00080D2B000800000000000000006D
:10460800852F0008992F000803350008BD340008DD
:10461800D5320008F3350008493500080965737478
:104628005F696D755F73656E736F720A00203A205B
:10463800000A746573745F64697374616E63655F9F
:1046480073656E736F720A000A0A0A2323232323F1
:104658000A0A0A007465726D696E616C20696E6978
:104668007420646F6E650A006D656D20696E6974EB
:1046780020646F6E652C20686561702073746172A8
:1046880074206174200074696D657220696E6974A4
:1046980020646F6E650A0064656C61792032303081
:1046A800206D73200069326320696E697420646F1D
:1046B8006E650A00696D7520696E697420646F6E95
:1046C8006520776974682000656570726F6D206970
:1046D8006E697420646F6E65207769746820006164
:1046E800646320696E697420646F6E650A006C6982
:1046F8006E652073656E736F7220696E69742064CD
:104708006F6E650A0064697374616E636520736512
:104718006E736F7220696E697420646F6E650A002B
:10472800656E636F6465722073656E736F7220695E
:104738006E697420646F6E650A006D6F746F722005
:10474800636F6E74726F6C6C20696E697420646F2D
:104758006E650A006B657920696E697420646F6EF6
:10476800650A0073797374656D20696E69742064D5
:104778006F6E650A00747275650066616C7365001A
:104788000000000000000000752F0008772F0008C7
:10479800000000000000000089390008A139000865
:1047A8000000000000000000B5390008B739000813
:1047B800F47FF6D90048D97F7F4E7E3C587F11227E
:1047C80030277F46262101F8EBE7B4C87DEDF217C4
:1047D8001D04EA41DEE1100002ED100BAD555CF25C
:1047E8000EE502EFD6FBFAFCF700F7000200000026
:1047F8000000000000EF02FFFE0FFE0D0608F8FAA9
:104808000CF9FCEDF4F101FA0F0BD011F7050117C3
:1048180009F1973E2609E012181AFF360AEE20F829
:1048280015E4150CB7B63201F40A0C16FE18C500CB
:1048380004FE23000AFC2DD5781005000017FF0799
:1048480024B4DF04F2FE01F8122C6B1204F0EA0320
:104858001430F3C81BFCF5F8FD14D0D9C70A0E06AE
:10486800FD150E1316C413EF0EE3ED17CF3481FFB9
:104878000F1806201700FF00FE0002FE0000E835B2
:1048880012DA08F5FFFCEFE201F30DE000FB0EFA87
:10489800E010E8DC1300060DFF0000FB06FEFF0039
:1048A8000005DD18E80B00FC000200F5FC07020318
:1048B80005F801FEF9F3D00609000500F50000002F
:1048C800010000020000FE23CFED0EE6F8FAEB0728
:1048D800E00F00F205FC000D00C31CFBE903110208
:1048E800F5EF03100100000302FBE30F1100FF00C6
:1048F8000107FCF9D8FF0107000503FFE8F80010DD
:1049080004FB0500FD00000000000000000013F893
:10491800D305EC04F4F800ECD50CF3DCFCF2FBF561
:10492800E21418F10005F80000000C01FD00000079
:10493800FDFD1C0AE0000307010000E4FBF404008D
:10494800FD02F50020F801FE0316F402070000FF3F
:10495800000000FF0000E71ECC0A07FE09F3FA007A
:1049680027810800FC060307DA90090C01031213DB
:10497800030000020001F9070000D90DFC0900013D
:10498800FD060BE5000100F902F6FDF6D9EBEDF79F
:104998000AF707FB0040D318F4E0CDEDEFCBE5F5BF
:1049A800F53407FBE0FCFEFF001600090000F600E6
:1049B800F23002160701FE00FFFDFCFFFD1C010995
:1049C80004E2F0FBF69840F311DCD3EED72EE8FBB7
:1049D800F4B7FAEDEE0B050702E606F2020901FD4F
:1049E80001020F050F00FF00FF08FD0300170C026E
:1049F8000424F203FA5EEAF7032A472F1B34211F27
:104A08001318FDC9EC0204F9F6FBFB06F6E606FEF0
:104A180000EB0FF4F20000000000FE00FEE7FFF8D4
:104A2800FE01020606E031FCF40ADE00FBD628FA95
:104A38000C00047FDEFC00040105F201010CF805FE
:104A480000FB0000FF00000000FF040000F4FCFF72
:104A580006F50CFF03E5D101080D3FF627F6E8FC43
:104A6800FB0200D05F010805F9030C0006030D00E6
:104A78000FE6E2EFF100020000FF07FF06EEF60185
:104A8800F20911FC070000000800000008000000FF
:104A980001000000080000000800000004000000F9
:104AA80004000000040000000400000004000000EE
:104AB80004000000080000000400000004000000DA
:104AC8000C000000030000000300000004000000C8
:104AD80002000000020000000100000002000000C7
:104AE800020000000C0000000100000001000000AE
:104AF800050000000000000000000000DD3A00088A
:104B0800153B000871110008E312000800000000BE
:104B180000000000BB3E0008BD3E00080000000089
:104B280000000000B93E0008CB3E0008000000006D
:0C4B380000000000614200087942000803
:044B440089360008A6
:040000050800019D51
:00000001FF
