:020000040800F2
:10000000008000209D01000889010008930100087C
:10001000890100088901000889010008000000002A
:10002000000000000000000000000000890100083E
:10003000890100080000000089010008890100080A
:100040008901000889010008890100088901000868
:100050008901000889010008890100088901000858
:100060008901000889010008890100088901000848
:100070008901000889010008890100088901000838
:100080008901000889010008890100088901000828
:10009000890100088901000889010008A1280008D9
:1000A0008901000889010008890100088901000808
:1000B000A5300008890100088901000889010008AD
:1000C00089010008890100088901000889010008E8
:1000D00089010008890100088901000889010008D8
:1000E000D128000889010008890100088901000859
:1000F00089010008890100088901000889010008B8
:10010000000000000000000000000000890100085D
:100110008901000889010008890100088901000897
:100120008901000889010008890100088901000887
:10013000890100088901000800000000000000009B
:1001400089010008890100088901000800000000F9
:10015000000000000000000000000000000000009F
:10016000000000000000000089010008890100086B
:1001700089010008000000000000000000000000ED
:080180000000000089010008E5
:10018800684620F007018D46FEE7684620F0070123
:100198008D46FEE71549164A1648521A9210002352
:1001A8009A4217D1144A154ED2F88830144C43F4A9
:1001B8007003C2F88830D2F83432A41B43F04043AD
:1001C800C2F83432A4100025A54209D100F01AF86B
:1001D80001F0F4BA50F8234041F823400133DFE737
:1001E80056F8253098470135EEE700BF000000209B
:1001F800000000206842000800ED00E068420008A6
:1002080070420008394AD2F8883043F47003C2F8C3
:100218008830374B1A6842F001021A605968354A2B
:100228000A405A601A6822F0847222F480321A60F6
:100238001A6822F480221A605A6822F4FE025A6070
:10024800DA6A22F00F02DA62196B2B4A82B00A408E
:100258001A6300229A60009201921A6842F480326E
:100268001A601A6802F400320192009A0132009270
:10027800019A1AB9009AB2F5A06FF2D11A6812F46D
:10028800003218BF01220192019A012A05D0174BAA
:100298004FF000629A6002B07047184A122111604C
:1002A8005A685A605A685A605A6842F480625A60BA
:1002B8005A6822F47C125A605A6842F4E8125A606A
:1002C8001A6842F080721A601A689201FCD55A685E
:1002D80022F003025A605A6842F002025A605A68D1
:1002E80002F00C02082AFAD1D1E700BF00ED00E0C5
:1002F800001002400CC07FF8CCFC00FF0020024038
:100308000E4BDB68DB4310B5C3F30224C4F10403CE
:10031800DBB299400F2323411340094A0B431B01C9
:10032800111803F0F00381F800334109012300F0AC
:100338001F0003FA00F042F8210010BD00ED00E0B4
:1003480000E100E030B50588ACB2244DA8420ED0DB
:1003580005F50065A8420AD0B0F1804F07D0A5F591
:100368009835A84203D005F58065A84203D124F04A
:1003780070040C43A4B21A49884208D001F5806180
:1003880088421FBF24F44074A4B21443A4B204806A
:10039800C362BDF80C300385104B98420FD003F5AB
:1003A800006398420BD003F54063984207D003F5E9
:1003B8008063984203D003F58063984201D10023FB
:1003C80003860123436103889BB243F00103038042
:1003D800C36843F00103C36030BD00BF002C014077
:1003E8000010004020F01F02012300F01F0003FA54
:1003F80000F0014BD05070471404014001F0030392
:1004080001F0FC0101F1804101F5803110B58A68E5
:100418009B000F249C4022EA04028A608A68984064
:100428001043886010BD20F01F0303F1804303F5DB
:100438008233012200F01F0030B502FA00F01C6878
:10044800C24314401C605D6815405D601D6805432B
:100458001D609D6815409D60DD6803F140442A4099
:100468001029A4F58234DA6006D19A6802439A60AA
:10047800DA681043D86030BD01F1804101F582315E
:100488000B591843085130BD034B93F8C100B0FA1B
:1004980080F04009704700BFC802002070477047CD
:1004A800704710B50C21044600F0C4FA204610BD70
:1004B80010B52421044600F0BDFA204610BD10B541
:1004C8000421044600F0B6FA204610BD2DE9F04F8D
:1004D8000746394B47F8043B8DB0044600264FF0D9
:1004E8007E5332463146009304F1300B334638468A
:1004F80000F03EFF04F1E00A584601F047F8504684
:1005080000F092FF04F5987003F07AFA04F5B270DF
:1005180003F040FB04F5E479284BC4F8BC3104F53A
:100528000078C4F8C061C4F8C461484601F074F9A1
:10053800404601F0B3F904F5DB5300251D7041F680
:1005480061333246E5541E4B009338461D4B4FF03D
:100558007A5100F0F5FE1C4BC4F8C4315946504698
:10056800C4F8C06100F074FF184B0393012304938F
:10057800C8224FF0FF3303A948460593069507950F
:10058800089509950A950B9501F05EF941F65433E3
:100598004046E55041F65C33E55001F0B5F941F6C7
:1005A80058334FF4FA62E25041F662332046E5547C
:1005B8000DB0BDE8F08F00BF2C3C0008083C0008D7
:1005C800000020413333B33F4260653BF83B0008ED
:1005D80070B504462DED028B494802F03BF90A2319
:1005E8000246484904F1E00000F042FFD4F82831FF
:1005F800022B76D0032B01D0012B6FD19FED428ABD
:10060800DFED428A41F66135635D2BB341F658331D
:100618003B48E65802F01EF9864265DA384802F08F
:1006280019F904F500750146284601F047F9064610
:10063800334802F00FF900F16401284601F03EF951
:1006480036F0040358D0DFED327A9FED328A30F06D
:10065800040318BFB0EE678A2F4BDFED2E7A93F8AC
:10066800C02094ED707A032A2C4A127C08BFB0EEA1
:10067800678A002A18BFB0EE678AB4EEC78AF1EE1F
:1006880010FAC8BFD4ED717AD3F8C820D4BF84ED6E
:10069800708A77EE877A04F10400C8BFC4ED707AD7
:1006A80007EE902A78EEE77A94ED708A17EE901AA2
:1006B80000F06AFE07EE900A78EE678A77EE887A8D
:1006C800174817EE901A02F0E5F918EE901ABDECEB
:1006D800028B1348BDE8704002F0DEB99FED0D8A29
:1006E8008EE79FED0B8A8BE7002363550D4BC4ED16
:1006F800708AC4F8C431AFE79FED068AACE700BF43
:1007080044020020D80200206666263F0000000050
:100718000000803F9A99993EC80200205C010020A1
:10072800A00300204260653B10B500211148124C1F
:1007380002F0B0F900210F4802F0AEF90E4801F0BE
:10074800E3FC0028FAD000210A4802F0A5F90B4979
:10075800084802F09FF9D4F8C430032BEED80021E2
:10076800044802F097F900210248BDE8104002F061
:1007780093B900BFA0030020C80200209A99993EAF
:10078800BFB5414D414F04464FF000083E4801F0C7
:10079800BBFC0028FAD095F8C1308BB995F8C03069
:1007A800032B204609D1FFF7BFFFC4F8C081D5F855
:1007B800C810201D00F028FEE8E7FFF709FFE5E76D
:1007C800012B1BD1384602F069F98146384602F000
:1007D80067F92F4B039304F5987602932D4B0590F8
:1007E800019300933046CDF810904FF48C7300229B
:1007F800294903F019F9304603F0BCF995F8C130DE
:10080800032B1DD1384602F04BF9DFED247A204B3B
:10081800039307EE100A67EE277A04F59876029399
:100828001F4B019300933046CDED057ACDF810802B
:10083800FA230022184903F0F7F8304603F09AF932
:1008480095F8C130022BA1D1384602F027F9DFED27
:10085800137A0F4B039307EE100A67EE277A04F515
:10086800987602930E4B019300933046CDF814808E
:10087800CDED047A0023FA22074903F0D5F8304673
:1008880003F078F982E700BFC8020020A003002027
:100898000AD7A33BCDCC4C3F000000200000003F0E
:1008A8009A99193F00F5DB50012303707047000047
:1008B80041F661330122C2540023C0F8C031024B13
:1008C800C0F8C431704700BF0AD7A33B0348044BA4
:1008D800044A0549036000F0B8B800BF00000020D2
:1008E800183C000808000020A9040008104B10B5A7
:1008F8000446036000F5007000F0B6FF04F5E470EC
:1009080000F082FF04F5B27003F058F904F598700E
:1009180003F06EF804F1E00000F07EFD04F1300011
:1009280000F00EFE201D00F003FD204610BD00BFA4
:100938002C3C000810B50446FFF7D8FF204641F6C6
:10094800643100F077F8204610BD704770471423D3
:10095800436070470020704700207047704710B50B
:100968000821044600F066F8204610BD014B0360DC
:10097800704700BF3C3C00082DE9F0411D46036864
:1009880004469B6816460F469847236839465B69B4
:1009980020469847236831465B6920469847236874
:1009A80029465A692046904723682046DB68BDE8F7
:1009B800F0411847036870B504469B6816460D4613
:1009C8009847236829465B6920469847236831463B
:1009D8005B6920469847236820469B6898472368A8
:1009E80045F001015B6920469847236800219B690F
:1009F8002046984723680546DB68204698472846DE
:100A080070BD42680023934202D000BF0133FAE769
:100A180070470000014B024818607047040000202E
:100A28003C040020024A13681844106018467047B6
:100A38000400002070470000024A13681844106040
:100A48001846704704000020704700207047F0B532
:100A5800002305460C461646032E05F1040504F14D
:100A6800040419D915F9047C14F804EC17FB0E33A7
:100A780014F803EC15F9037C17FB0E3715F9023C43
:100A880014F802EC13FB0E7715F901EC14F8013C8D
:100A9800043E1EFB0373DFE702F0030422F00302A7
:100AA80010440A443CB110F9015B12F8011B013CE7
:100AB80015FB0133F6E71846F0BDD0F88C30D0F8B6
:100AC800882030B55A43D0F890305A4300239342D7
:100AD80005D0D0F8A840CD5CE5540133F7E730BD28
:100AE800074B10B504460360D0F8A00008B1FFF723
:100AF800ABFFD4F8A40008B1FFF7A6FF204610BD4D
:100B0800603C000810B50446FFF7EAFF2046B02114
:100B1800FFF790FF204610BD0E4B03600023C0F87E
:100B28008830C0F88C30C0F89030C0F89430C0F8E5
:100B38009830C0F89C3000F1080200F1880142F8B2
:100B4800043B8A42FBD14360C0F8A030C0F8A4300F
:100B5800704700BF603C0008F8B50025044600F166
:100B680008062F4663689D421FD2002330684269F9
:100B78000169514382694A43934204D2D4F8AC20B4
:100B8800D7540133F2E70368D4F8A8209B68D4F857
:100B9800AC109847D4F8A830D4F8AC20C4F8A820F2
:100BA800C4F8AC3001350436DCE7D4F8A830D4F802
:100BB800AC20C4F8A820C4F8AC30F8BD30B5D0F8E3
:100BC8009820D0F89430D0F8AC405343D0F89C200B
:100BD80021785A4300231846934206D0E55CA9427F
:100BE800BCBF184629460133F6E730BD70B54468E6
:100BF800023400F1080500EB84040020A54212D05D
:100C080055F8043B9A6859681E695143DA684A43A3
:100C180059699B6971434B439A4238BF1A469042BF
:100C280038BF1046EAE770BDD0F8A03070B5054669
:100C380003BBD0F8A440ECB9FFF7D8FF0646FFF78E
:100C4800FBFEC5F8A0003046FFF7F6FED5F8A03049
:100C5800C5F8A830C5F8A400C5F8AC00234622465C
:100C68009E4207D0D5F8A010CA54D5F8A410CA548B
:100C78000133F5E770BD2DE9F04F8BB0169C099153
:100C8800179908908D1E6143029119991898039538
:100C98005918A51E00EBC00006916100049501904B
:100CA80000920591A44606998B4277D00199009A43
:100CB8000931114400250791A8460399884565D252
:100CC800089905EB0C0E8E44002704998F4259D2DF
:100CD80009997819084400990026079A0931914220
:100CE8003CD090F800B011F909AC11F9079C059AAD
:100CF8001AFB0B6690F801B011F908AC1AFB0B66E9
:100D080090F802B019FB0B6B11F9069C065D19FBF4
:100D180006B600EB040911F905BC99F801A01BFB04
:100D28000A6699F802B011F904AC11F9039C1AFB90
:100D38000B6A10F8146011F902BC19FB06A600EB47
:100D48000209029A99F801A01BFB0A6611F901AC85
:100D580099F802B010441AFB0B66BEE7149A93F98F
:100D680000105643802296FBF2F6159A02FB0161A9
:100D78004FF4806291FBF2F181F308010EF8011F34
:100D88000137A2E708F10108254496E7029A94443E
:100D98009DE8060011440133009184E70BB0BDE8DB
:100DA800F08F2DE9F04F8DB01AAC94E81041B8F1EE
:100DB800010F089009911746189DDDF864B01D9E33
:100DC8004FD1BEF1010F5DD10BFB05F299190792C6
:100DD8000697C7F1000E0A914FF0000C0A998B4252
:100DE80050D000208046C34532D0089F0CEB00014C
:100DF800791800260B91B54226D00999DDF818908C
:100E080037180F44002109EB0E0A544508D919F97F
:100E1800012B97F800A012FB0A11079A1744F2E772
:100E2800169A93F900705143802291FBF2F1179AB8
:100E380002FB07174FF4806297FBF2F70B9A87F3D0
:100E4800080797550136D6E708F101082844CAE78C
:100E5800079A9444069A224401330692AEEB040E94
:100E6800BCE7B8F1030F0DD1BEF1030F0DD1049407
:100E7800179C0194169C0596CDF80CB00295009429
:100E8800FFF7F9FE0DB0BDE8F08FBEF1010FF9D103
:100E9800991904EB44040691691E0791E11CDDF8D9
:100EA80020E008914FF0800C4FF4806806998B423F
:100EB800E8D00899012701EB020907998F422CD045
:100EC8000999781E08441646002103364E4513D06A
:100ED80090F800A016F903BC1BFB0A1190F801A0BA
:100EE80016F902BC1BFB0A1190F802A016F901BC06
:100EF80028441BFB0A11E8E71698179E414393F90B
:100F0800000091FBFCF106FB001090FBF8F080F369
:100F180008000EF807000137CFE70133AE4422443A
:100F2800C4E77047704710B528210446FFF782FDD3
:100F3800204610BD064A0260002242608260C260FC
:100F4800026142618261C26102624262704700BF0F
:100F5800783C000810B5034B03600446FFF7E1FF37
:100F6800204610BD8C3C000810B50446FFF7F2FF80
:100F780020462821FFF75EFD204610BD82B02DE9EE
:100F8800F04F87B05700019110A981E80C00119B20
:100F98000093129B0293009B5B007B430393009B8F
:100FA800002553430493AE46029B9E4536D08446A3
:100FB8002E464FF00009009B994528D0019B07EB6E
:100FC80006089C19434400210593914204F1020448
:100FD80017D0A31B434414F801BC13F801AC14F850
:100FE800023C5B45B8BF5B469A45B8BF9A46059B2D
:100FF80013F811B0DA45B8BFDA460CF801A0013190
:10100800E3E709F1010907EB08069444D3E7039BDA
:101018001D44049B0EF1010E1844C5E707B0BDE856
:10102800F04F02B0704782B0F0B5DDF81CE005ACB7
:1010380084E80C0057000024744511D00023934223
:101048000AD001EB430511F813606D78AE42CCBFAE
:10105800C654C5540133F2E7013410443944EBE770
:10106800BDE8F04002B07047034607B50846114690
:10107800DA69022A08D11A6A022A08D19A69009202
:1010880010330CCBFFF77AFF03B05DF804FB012A9D
:10109800FAD19A69009210330CCBFFF7C4FFF3E73B
:1010A80030B585B0054601AC84E80E00FFF742FF75
:1010B8002B460A4A43F81C2B94E8070083E80700EC
:1010C80008AA07CA2B1D83E807000BAA07CA05F15F
:1010D800100383E80700284605B030BD8C3C0008A3
:1010E80010B5034B03600446FFF71BFF204610BDF5
:1010F800A03C000810B50446FFF7F2FF204638214F
:10110800FFF798FC204610BD70B5164600F11C028A
:1011180004460D4607CA88B005AB83E80700221DC0
:1011280007CA02AB83E80700636B0193236B009344
:10113800A26AE36A31462846FFF733FE08B070BD5D
:1011480030B585B0044601AD85E80E00FFF7F2FE24
:1011580023460E4A43F81C2B95E8070083E807004E
:1011680008AA07CA231D83E807000BAA07CA04F1C7
:10117800100383E807000E9BA3620F9BE362109B9A
:101188002363119B6363204605B030BDA03C000873
:1011980010B5034B03600446FFF7C3FE204610BD9D
:1011A800B43C000810B50446FFF7F2FF2046402182
:1011B800FFF740FC204610BD2DE9F04704460E46D7
:1011C80091460D464FF080084FF48067A36BA5EB5E
:1011D800060A534517D9E26BA06A49460AFB020082
:1011E800FFF735FC236B626B5843E36A90FBF8F01A
:1011F80013F90A3002FB030393FBF7F383F30803A5
:1012080005F8013BE2E7BDE8F087000030B585B09E
:10121800044601AD85E80E00FFF78CFE2346144A0C
:1012280043F81C2B95E8070083E8070008AA07CABB
:10123800231D83E807000BAA07CA04F1100383E8FB
:1012480007000E9BA3620F9BE362109B2363119B15
:1012580063636268A3685A43E3685343E36363695B
:1012680002465A43A36920465343A36305B030BDE1
:10127800B43C0008704710B530210446FFF7DAFB8C
:10128800204610BDC360009B0361019B41608260E2
:101298004361704700238361C361036243628362D1
:1012A800C362704708B5054B036000234360836041
:1012B800C36003614361FFF7EDFF08BDC83C000848
:1012C800D0ED097AD0ED044A90ED035A90ED0A6A00
:1012D800C0ED0A7A05EE901A67EEA47A45EE857A93
:1012E8004162D0ED055AD0ED066A80ED0B6A46EEF4
:1012F800257A90ED016A90ED077AC0ED076A46EE0F
:10130800867AD0ED026A80ED087A47EE267AC0ED3B
:10131800067A17EE900A7047D0ED067AF5EEC07A95
:10132800F1EE10FA48BFF1EE677A17EE900A7047AF
:10133800704710B52C210446FFF77CFB204610BDF2
:1013480007EE901A07EE102A37EE877A0021F1EEA1
:10135800677A0362009B41608160C16001614161FD
:10136800816280ED067AC0ED077A4362704700001B
:1013780037B5044D0560069D0095FFF7E1FF03B002
:1013880030BD00BFD83C0008D0ED036AD0ED017A2B
:1013980090ED046AD0ED074AC0ED046A07EE102A02
:1013A80076EEA66A90ED065AC0ED027A05EE901A1E
:1013B80067EEA47A37EE667A45EE857A4160C260B8
:1013C80037EE067AD0ED086A80ED056A47EE667A50
:1013D80090ED0A7A77EE877A90ED097AC0ED0A7A6D
:1013E800F4EEC77AF1EE10FAC8BF80ED0A7AD0EDB4
:1013F8000A7AB1EE477AF4EEC77AF1EE10FA48BFEE
:1014080080ED0A7A806A7047002343608360C16078
:101418000161416183627047704710B550210446ED
:10142800FFF708FB204610BD0346074A43F8042B84
:1014380000F14401002203F8012B8B42FBD1034B3E
:101448008264C36442647047E83C0008003665C49F
:1014580010B5031D00F14404002203F8012BA34238
:10146800FBD1024B8264C364416410BD003665C47D
:1014780070B50446C06C101A0028B8BF40428342B9
:101488004EDCE26404F138020023A2F10800C5181A
:101498002E79D5180133082B2E71F8D184420246D3
:1014A800F2D10D1D224B234A2431284650F8046BF3
:1014B800B242B8BF3246B342A8BF33468842F5D1DC
:1014C80093422FDAD31A07EE903A9FED1B7AF8EE83
:1014D800E77AC7EE276A07EE902AF8EEE77A07EE72
:1014E800E67AF0EE477A231D1946B5EC017AB8EE94
:1014F800C77AB0EE676A07EE266A8542BCEEC67AFE
:1015080017EE102A03F8012BEFD1606C03689B6873
:101518009847606CFFF720FB606CFFF74FFBA064F7
:10152800002070BDDFED057AF0EE676ADBE700BFEB
:1015380040420F00C0BDF0FF00007F4300000000E4
:10154800F8B504460B4B44F8083B002605463746D9
:101558006B689E4209D254F8040B10B103685B68AB
:10156800984744F8047C0136F2E72846FFF7B8FAB2
:101578002846F8BD5C3F000810B50446FFF7E0FFB9
:101588002046B021FFF756FA204610BD2DE9F04756
:10159800074694B0FFF7C0FA724B3B600823C7F8C0
:1015A8008830C7F88C300123C7F89030C7F89430DA
:1015B800C7F898306C4B93E807006C4B0BAC84E889
:1015C800070093E807006A4B0EAD85E8070093E82B
:1015D800070011AE4FF0050986E80700C7F89C9090
:1015E8003820FFF71FFAD923099340F2BF23089345
:1015F800604B0793604B0693824696E807000DF10F
:101608000C0888E8070095E807008DE807005046B1
:1016180094E80E00FFF794FD584BC7F808A093E82C
:101628000700574B84E8070093E80700554B85E807
:10163800070093E8070086E807002820FFF7F2F97B
:10164800824696E8070088E8070095E807008DE8D5
:101658000700504694E80E00FFF722FD4A4BC7F8F2
:101668000CA093E80700494B84E8070093E80700BB
:10167800474B85E8070093E8070086E8070038200D
:10168800FFF7D0F9962309934FF465730893414BFC
:101698000793414B0693824696E8070088E80700BF
:1016A80095E807008DE80700504694E80E00FFF71C
:1016B80047FD3A4BC7F810A093E80700384B84E879
:1016C800070093E80700374B85E8070093E8070011
:1016D80086E807002820FFF7A5F9824696E8070064
:1016E80088E8070095E807008DE80700504694E869
:1016F8000E00FFF7D5FC2C4BC7F814A093E80700A1
:101708002A4B84E8070093E80700294B85E807007F
:1017180093E8070086E807004020FFF783F940F2C6
:101728001F13099340F2DF430893224B0793224B80
:101738000693824696E8070088E8070095E80700C0
:101748008DE80700504694E80E00FFF75FFD384625
:10175800C7F818A0C7F80490FFF766FA384614B01F
:10176800BDE8F0875C3F0008043D0008183F00080A
:10177800243F0008F03C0008343D00081C3D0008E8
:10178800243F0008303F0008103D0008303F0008A3
:101798003C3F0008F43C0008583D00081C3D000888
:1017A8003C3F0008283D0008283D0008283D000867
:1017B800483F0008FC3C0008783E000810B5ADF52D
:1017C800DB5D82B00E4801F003FE0E4800F0D0FA4F
:1017D800044601A8FEF77AFE012C01A80CD1FFF7F8
:1017E80061F801A8FEF7CCFF01A8FFF77FF80020F9
:1017F8000DF5DB5D02B010BDFFF75AF8F1E700BF49
:1018080030020020B0020020704710B5382104468D
:10181800FFF710F9204610BD094B0360094B4360E0
:1018280000F1280200F10803012143F8041B934248
:10183800FBD100238362C36203634363704700BF25
:10184800743F0008F83B000830B50B1D00F1080490
:10185800243153F8045B44F8045B8B42F9D100232C
:101868008262C362036330BD70477047704710B52A
:1018780044210446FFF7DEF8204610BD10B541F6B6
:1018880004110446FFF7D6F8204610BD10B541F6FE
:1018980054110446FFF7CEF8204610BD044A0260F2
:1018A800044AC260044A02650022426082607047AE
:1018B800A43F0008843F0008943F000890F85500B2
:1018C800704700002DE9F8430024DFF838900646F9
:1018D80000F11008274614F01F0505D13946424685
:1018E800484601F0ADF9403706EB450506EB4403E1
:1018F80001342A8AA3F85420B4F5486FEBD1BDE827
:10190800F88300BF3802002010B4034600F14004F9
:1019180002460021117451740232A242FAD100F534
:10192800C851002283F8542083F8552002338B4293
:10193800F8D1426082605DF8044BFFF7C3BF000036
:1019480010B5034B0360044601F0CAF8204610BDE9
:10195800B43F000810B50446FFF7F2FF2046042103
:10196800FFF768F8204610BD10B5044601F0C0F82E
:10197800014B2360204610BDB43F000838B505462A
:101988004C1E14F8011F19B1284601F00DF9F8E7AB
:1019980038BDFFF7F3BF30B585B000230A228DF8B4
:1019A8000F301546B1FBF5F405FB141304A91144D7
:1019B800303301F80C3C531EDBB221462CB901AB85
:1019C8009918FFF7DBFF05B030BD1A46EAE7704704
:1019D80010B518210446FFF72DF8204610BD000069
:1019E8004D494E4B03604B6943F4FC0330B54B61E2
:1019F8004B4B43609A6822F440729A609A6842F4AA
:101A080040729A609A8822F010021204120C9A808E
:101A18009A8892B29A801A6822F440721A601A68F8
:101A280042F480721A604A6942F4FC024A619A6878
:101A3800836022F440629A609A6842F440629A6035
:101A48009A8822F020021204120C9A809A8892B284
:101A58009A801A6822F440621A601A6842F4806216
:101A68001A604A6942F4FC024A614FF09042C2602F
:101A7800956825F040459560956845F04045956026
:101A88009588C5F30E0595809588ADB29580156843
:101A980025F040451560156845F0804515604A6990
:101AA80042F4FC024A619A68036122F040629A603B
:101AB8009A6842F040629A609A8822F400521204AE
:101AC800120C9A809A8892B29A801A6822F0406220
:101AD8001A601A6842F080621A604A6942F4FC028D
:101AE8004A6143619A6822F040529A609A6842F0CB
:101AF80040529A609A8822F480421204120C9A800A
:101B08009A8892B29A801A6822F040521A601A682B
:101B180042F080521A6030BD00100240C43F0008F5
:101B2800000400480029C26814DA138D6FEA4343A1
:101B38006FEA53439BB213854942FF290B46A8BF5E
:101B4800FF2341F2BE215943FF23B1FBF3F1044BBC
:101B580099637047936943F400439361EDE700BFCD
:101B6800002C014082680029ABBF138D93699BB29A
:101B780043F02003B5BF494243F020039361138526
:101B8800FF290B46A8BFFF2341F2BE215943FF237B
:101B9800B1FBF3F1014B5963704700BF002C0140C2
:101BA8000269936823F040639360936843F040634D
:101BB8009360136823F040631360136843F0006375
:101BC80013604369996821F040519960996841F020
:101BD80040519960196821F040511960196841F025
:101BE80000511960516A21F470015162516A41F43F
:101BF800C00151625A6A22F070625A625A6A42F00F
:101C0800C0625A62104A936943F4006393610F4BB0
:101C1800002241F2BF211A80D96201211A851A8651
:101C280059615A639A634FF480725A6047F270029E
:101C38009A6177221A621A8892B20A431A805A6CF9
:101C480042F400425A64704700100240002C0140E0
:101C5800416842690B8D9BB243F010030B85816884
:101C68000B8D9BB243F020030B85C1680B8D6FEA87
:101C780043436FEA53439BB20B8501690B8D9BB2BB
:101C880043F400530B85138D9BB243F480431385B3
:101C9800FFF786BF704710B518210446FEF7CAFE45
:101CA800204610BD037B826833B100230373936918
:101CB80043F400439361704701230373138D6FEA64
:101CC80043436FEA53439BB2138570471C4A1D4B2D
:101CD8000360536943F4FC0310B553611A4B436026
:101CE8009C6824F040749C609C6844F040749C603C
:101CF8001C6824F040741C601C681C60DC6844F09C
:101D08008074DC60546944F4FC0454619A6883600C
:101D180022F040429A609A6842F040429A609A885B
:101D2800C2F30E029A809A8892B29A801A6822F0B8
:101D380040421A601A6842F080421A6010BD00BF23
:101D480000100240D43F0008000400484FF0FF3361
:101D580010B5436100230446037301464FF4FA7239
:101D6800024801F049F9206110BD00BF3804002085
:101D7800436870B504461A8AD20401D500BFFAE751
:101D8800012363616422217C0F480F4D01F05CF947
:101D98000D4801F065F900F5FA6663681B8ADB04F3
:101DA8000FD4094801F05CF9B042F6D96369012BF8
:101DB800F3D13222217C284601F046F902236361DF
:101DC800EBE7606970BD00BF38040020704710B5AC
:101DD80004210446FEF72EFE204610BD014B036089
:101DE800704700BF1C4000080B0F064BDA6A14BF8F
:101DF80022F4785222F4F872DA62DA6A1143D9626C
:101E0800704700BF0010024030B5042B9DF80C400D
:101E18001CDC03EB4303086B5B001F259D4020EA95
:101E2800050002FA03F303430B63092A39DD0A3A72
:101E38008B698B6902EB42020720904023EA00037A
:101E48008B618B6994401C438C6130BD092B0CDC81
:101E58000620053B43434D6B1F20984025EA0000B0
:101E680002FA03F303434B63DFE70E2B4FF0060040
:101E78000BDC0A3B43438D6B1F20984025EA00008A
:101E880002FA03F303438B63CFE70F3B4343CD6B66
:101E98001F20984025EA000002FA03F30343CB63AE
:101EA800C3E7013A4B694B6902EB42023820904084
:101EB80023EA00034B614B69033204FA02F21A4326
:101EC8004A6130BD13B5013909299DBF0D4B53F83F
:101ED80021400D4B4FF0A04498BF5A5C4FF00103CE
:101EE800009388BF01222146FFF78EFFA36843F0C5
:101EF8000403A36023685B0701D400BFFAE7206CE2
:101F080002B010BDEC3F0008E03F00082DE9F743A0
:101F1800254C264F264E4FF488710546FFF764FF7F
:101F28006369244943F080536361FFF75DFF636988
:101F38004FF0A04843F0005363614FF002090024BA
:101F48000123C8F80C401A46FC604146F460CDF8FD
:101F58000090FFF759FF01231A4639462846CDF865
:101F68000090FFF751FF0123CDF800900C22314675
:101F78002846FFF749FFD8F8083043F00103C8F8AE
:101F88000830BB6843F00103BB60B36843F001034A
:101F9800B360214628460134FFF794FF0B2CF8D193
:101FA80003B0BDE8F08300BF0010024000010050FC
:101FB8000004005000220010704710B5D8210446D4
:101FC800FEF738FD204610BD4C4A4D4B036053695F
:101FD80043F4FC0310B553614FF0904343609C6891
:101FE80024F440349C609C6844F440349C609C8891
:101FF80024F480742404240C9C809C88A4B29C80C3
:102008001C6824F440341C601C6844F480341C6050
:102018003C4C046144638465C467546944F4FC041B
:1020280054611C68C0F8A03024F003041C601C68CC
:1020380044F003041C60546944F4FC0454611C68B3
:10204800C0F8A43024F00C041C601C6844F00C0494
:102058001C60546944F4FC0454611C68C0F8A8303E
:1020680024F030041C601C6844F030041C6054697F
:1020780044F4FC0454611C68C0F8AC3024F0C0047B
:102088001C601C6844F0C0041C60546944F4FC04DF
:1020980054611C68C0F8B03024F440741C601C689B
:1020A80044F440741C60546944F4FC0454611C6892
:1020B800C0F8B43024F440641C601C6844F44064E4
:1020C8001C60546944F4FC045461C0F8B8301C68BE
:1020D80024F440541C601C6844F440541C60546947
:1020E80044F4FC0454611A68C0F8BC3022F440423D
:1020F8001A601A6842F440421A6010BD001002408B
:102108002C400008F83B0008037B72B60BB1002294
:10211800027362B6184670474268936943F4807345
:10212800936170474268138D9BB243F480731385A3
:10213800704700002DE9F0410446FFF7F3FF6421E2
:102148003048DFF8C48000F097FF04F15C0637469A
:10215800002529464046FFF7B5FE0135082D47F80A
:10216800040BF6D12046FFF7D7FF64212548264FF8
:1021780000F082FF002529463846FFF7A3FE56F8EF
:10218800043B0135C01A082D3062F4D104F1140261
:1021980004F13401002342F8043B9142FBD16FF073
:1021A800FF02A2636FF0BF02E2636FF07F02226456
:1021B8006FF03F0262644022A2648022E264C0227F
:1021C80022654FF4807262654FF49672A260012214
:1021D80084F8C020002284F8C130C4F8C430C4F8A0
:1021E800C820C4F8CC20C4F8D020C4F8D420237365
:1021F800042200232146034800F0FEFE0020BDE82B
:10220800F08100BF380400205801002081F3030149
:1022180000EB810030B5826B456902FB05F471B1B2
:102228000369426B072902FB03422B440AD08169E8
:10223800C06B0B4400FB012292FBF3F030BD62003F
:102248006B00F4E722442B44F6E70000F8B500F1F0
:102258001402012380F8C130044600F13401002340
:10226800104650F8045B81422B44FAD1DB0807EE94
:10227800903AF8EEE77A0021C4ED357A16460D4615
:1022880004EB850756F804EB7F69BE45C8BF0D46C9
:1022980001310829F4D1A168002652F8047B8F4245
:1022A800C8BF01368242F8D1B3F5FA7F08D90323B3
:1022B80084F8C030C4F8C460002384F8C130F8BD85
:1022C80004EB85035B69994229DA012384F8C0305D
:1022D80029462046FFF79AFF07EE900A9FED1A7AE3
:1022E800F8EEE77A691C67EE877A2046C4ED327A01
:1022F800FFF78CFF07EE900AF8EEE77A691E67EEA3
:10230800877A2046C4ED337AFFF780FF07EE900AFC
:10231800F8EEE77A67EE877AC4ED347ACAE7D4ED47
:10232800327A9FED0A7AF4EEC77AF1EE10FA01D507
:102338000223C2E79FED067AF4EEC77AF1EE10FAAF
:10234800BDDD0323B9E700BF0000803BCDCC4CBF07
:10235800CDCC4C3F2DE9F8430025DFF84880104FDD
:10236800064600F11404A94629464046FFF7AAFD8F
:10237800A36CC01A7843E36E90FBF3F0013510F5B7
:102388007A7054BF2060C4F80090082D04F104044A
:10239800EAD13046FFF75AFF01233373BDE8F883CB
:1023A80018FCFFFF58010020704710B5482104466B
:1023B800FEF740FB204610BD014B0360704700BF8D
:1023C800404000082DE9F0410446406C03689B68D2
:1023D8000F469847606C0368D4215B699847606C26
:1023E800036819215B699847606C03689B68984784
:1023F800606C0368D5215B699847606C03680121AC
:102408009B69984700020FFA80F8606C0368012105
:102418009B69984748EA0008606C036801219B693A
:102428009847000205B2606C036801219B699847D0
:102438000543606C036801219B6998470602606C3C
:10244800036800219B69984736B20643606C0823ED
:102458000FFA88F82DB298FBF3F895FBF3F536B22E
:1024680096FBF3F603684FEAC808ED00F600DB6850
:102478000FFA88F82DB236B2984747B1A36A434499
:10248800A362E36A2B44E362236B33442363E26A67
:10249800A36A606CAD1A226B6561A8EB0303B61AD8
:1024A8002361192293FBF2F8E36995FBF2F503EB3C
:1024B8004803E361236AA66103EB4505636A96FB5B
:1024C800F2F603EB46060368256266629B68984746
:1024D800606C0368D4215B699847606C03682921A4
:1024E8005B699847606C03689B689847606C0368F1
:1024F800D5215B699847606C036801219B699847FF
:10250800000205B2606C036801219B699847284363
:1025180007B2606C036801219B699847000206B204
:10252800606C036801219B6998470643606C0368E7
:1025380001219B699847000205B2606C036800217D
:102548009B6998470543606C0368DB689847174B9D
:102558006760D4ED107ADFED166A93ED017A67EEC5
:10256800A67AB8EEC77ADFED136A47EE267A36B256
:102578002DB29FED117AA660F4EEC77AF1EE10FA4B
:10258800E560C4ED107A06DC9FED0C7AF4EEC77AAC
:10259800F1EE10FA07D5012384F83D30012384F8C1
:1025A8003C30BDE8F0810023F6E700BF6802002058
:1025B800CDCC4C3FCCCC4C3E00803B4500803BC54D
:1025C8000021FFF7FFBE406B003018BF01207047A5
:1025D80011F1FF3101D300BFFAE7704738B504465F
:1025E800102208466164A823D421FEF7C5F9002308
:1025F80023616361A361A362E3622363E3612362EE
:10260800636242F210712046FFF7E2FF0F22636314
:10261800D421606CFEF7CEF9682804BF01236363F8
:102628001022A823D421606CFEF7A6F938231E22B5
:10263800D421606CFEF7A0F900232E22D421606C0F
:10264800FEF79AF900231222D421606CFEF794F960
:1026580060232022D421606CFEF78EF938231F22D4
:10266800D421606CFEF788F942F210712046FFF71A
:10267800AFFF00212046FFF7A5FE0023002284F8C3
:102688003D302264A3634FF47A7501212046FFF799
:1026980099FE64212046FFF79BFF013DF5D14FF4D9
:1026A8007A72A36AE56193FBF2F32562A36265621D
:1026B800E36A656093FBF2F3A560E362E560236B70
:1026C800054893FBF2F3214623630A222B4600F0C8
:1026D80093FC84F83C5038BD38040020704710B58E
:1026E80014210446FEF7A6F9204610BD304A314BA6
:1026F8000360536943F4FC0310B553612E4B4360E8
:102708009C6824F440549C609C6844F440549C6049
:102718001C6824F440541C601C681C60DC6844F489
:102728008054DC60546944F4FC0454619C68836000
:1027380024F440449C609C6844F440449C601C68B9
:1027480024F440441C601C681C60DC6844F4804429
:10275800DC60546944F4FC0454619C68C36024F050
:1027680040749C609C6844F040749C601C6824F031
:1027780040741C601C681C60DC6844F08074DC6079
:10278800546944F4FC0454619A68036122F44002D9
:102798009A609A6842F440029A601A6822F44002E9
:1027A8001A601A681A60DA6842F48002DA6010BDAA
:1027B800001002405440000800080048164B174A11
:1027C80010B500241C60164B1C60936943F001038C
:1027D800936106210220FDF711FE0C210220FDF76E
:1027E8000DFE10210620FDF71EFE10210C20FDF71E
:1027F8001AFE224621461720FDF782FD2246214671
:102808002820FDF77DFD0620FDF7ECFD0C20BDE836
:102818001040FDF7E7BD00BF0C000020001002408B
:102828001000002072B6044B186862B65823434360
:10283800B42093FBF0F070470C00002072B6044BF4
:10284800186862B658234343B42093FBF0F07047EE
:102858001000002008B50146FFF7E4FF02460846CD
:10286800FFF7ECFF0223104490FBF3F008BD0000D3
:10287800034B186858234343B42093FBF0F0704788
:102888000C000020034B186858234343B42093FBE3
:10289800F0F0704710000020094B1B8A13F0C003AA
:1028A8000BD0C02B0CBF01234FF0FF33054A116832
:1028B80006200B441360FDF795BD0123F6E700BF22
:1028C800000800480C0000200A4B1B8A13F4C05370
:1028D8000CD0B3F5C05F0CBF4FF0FF330123064A9D
:1028E80011680C200B441360FDF77CBD4FF0FF33DB
:1028F800F5E700BF000800481000002038B5C3689D
:10290800364D2DED048B43600369836004462846E9
:10291800FFF7AEFFE0602846FFF7B4FF6268E368A0
:102928009FED2F5AD4ED056ADFED2E5A9FED2E6AE2
:1029380020619B1A07EE103AB8EEC77AA3689FED9C
:102948002B9A27EE057A66EEA56A47EE066AC31A41
:1029580004F13C0007EE903AF8EEE77AC4ED056A18
:10296800B0EE667AD4ED066A67EE857A66EEA56AF9
:1029780047EE866AD4ED077AC4ED066A77EEC77A21
:1029880017EE102A17EE901AFEF7FEFCA269D4ED96
:10299800087A07EE102A77EEC77A08EE900A17EE43
:1029A800901A04F16800FEF7EFFC68EE898A243477
:1029B800FDEEE87A08EE100A17EE901A2046FFF7A7
:1029C800B1F828EE098A2046FDEEC87ABDEC048BE2
:1029D80017EE901ABDE83840FFF7C4B8440200204B
:1029E800CDCCCC3D6666663F0000003E00007F43CC
:1029F80073B50E4B002504464FF07E5640F8243B35
:102A0800FEF7EEFF2B462A462946009604F13C00C5
:102A1800FEF7AEFC00962B462A46294604F16800CC
:102A2800FEF7A6FC204602B070BD00BF6440000857
:102A3800F7B5154F154E04464FF07E552430FFF775
:102A480007F900952B463A46314604F13C00FEF75B
:102A580077FC00952B463A46314604F16800FEF7AC
:102A68006FFC002500236361A361E3612362656055
:102A7800A560E56025612B4604222146044800F044
:102A8800BBFA284603B0F0BDEC51B83DCDCC8C3F25
:102A980038040020C161704701627047406970477F
:102AA8008069704710B5084B044640F8683BFEF74C
:102AB8003FFC04F13C00FEF73BFC04F12400FEF768
:102AC80086FF204610BD00BF6440000810B50446CC
:102AD800FFF7E8FF20469421FDF7ACFF204610BD24
:102AE800704710B504210446FDF7A4FF204610BD29
:102AF800014B0360704700BF78400008274A5369BC
:102B080043F4FC0353614FF09043986820F440204D
:102B18009860986840F440209860186820F4402035
:102B28001860186840F400201860506940F4FC00F0
:102B38005061986820F440109860986840F44010FC
:102B48009860186820F440101860186840F4001065
:102B58001860586A20F0F0005862586A40F0700017
:102B68005862586A20F470605862586A40F4E0600D
:102B78005862936943F480439361094B00220C2007
:102B88005A6018609A60074AB2FBF1F189B29981DC
:102B98001A6842F001021A60704700BF0010024034
:102BA8000038014000A24A04044BDA69120601D435
:102BB80000BFFAE789B21985704700BF00380140A5
:102BC800704710B50C210446FDF734FF204610BDB0
:102BD800024A026000220272704700BF8840000863
:102BE800F8B5012304464160037272B60B680846C3
:102BF8009B68984760680368A0215B699847074607
:102C08006068036800215B69984706466068036846
:102C180000215B699847054660680368DB68984748
:102C280062B6012F1CBF00232372012E1CBF002394
:102C38002372012D1CBF00232372F8BD007A704750
:102C4800F8B501F14003B3F5004F04460E461546AA
:102C580035D872B6406803689B689847606803680F
:102C6800A0215B69984760680368C6F307215B6920
:102C7800984760680368F1B25B69984760680368C1
:102C88009B68984760680368A1215B6998476E1E36
:102C980005F13E076068036801219B69984706F8BB
:102CA800010FBE42F6D16068036800219B6998470E
:102CB80085F83F0060680368DB68984762B6F8BD2E
:102CC800F8B5082104462DED048B4148FFF7FAF8C2
:102CD800092108EE100A3E48FFF7F4F80A2109EE28
:102CE800100A3B48FFF7EEF8F8EEC87A9FED398AEC
:102CF80067EE887A04F1440717EE901A08EE900AF6
:102D08003846FEF7DDFAB8EEC99A04F1740669EEA2
:102D1800087A304617EE901AFEF7D2FAF8EEE88AEB
:102D280004F1A40568EE887A284617EE901AFEF793
:102D3800C7FA3846FEF7F0FA9FED278A07EE900AA1
:102D480078EE677A3046C4ED027AFEF7E5FA07EEC8
:102D5800900A78EE677A2846C4ED017AFEF7DCFA25
:102D680007EE900A9FED1D7A38EE678AD4ED027A55
:102D780084ED038AF4EEC77A9FED197AF1EE10FA22
:102D88004CBF01230023F4EEC77AF1EE10FA237446
:102D98004FF0010348BF63742375A36A5CBF002228
:102DA800627413F003020AD1A1690A8D92B242F447
:102DB80000520A85BDEC048B0133A362F8BD022AD8
:102DC80001BFA1698A6942F400528A61F2E700BF33
:102DD80058010020000080390000803F3333333F22
:102DE8006666263F2F49304B10B503604B6943F4A4
:102DF800FC034B612D4B83619A6822F040629A6014
:102E08009A6842F040629A609A8822F4005212044A
:102E1800120C9A809A8892B29A801A6822F04062BC
:102E28001A601A6842F080621A604A6942F4FC0229
:102E38004A611F4AC2610446106820F0030010600E
:102E4800106840F003001060486940F4FC004861D5
:102E58001068226220F00C001060106840F00C002E
:102E680010604A6942F4FC024A611A68636222F0FF
:102E780003021A601A6842F003021A6004F144005F
:102E8800FEF710FA04F17400FEF70CFA04F1A4003E
:102E9800FEF708FAA269138D9BB243F40053138519
:102EA800204610BD00100240984000080008004865
:102EB800000400482DE9F7438269214F138DDFF89C
:102EC80088909BB2002543F4005385620026138541
:102ED8004FF07B584FF07E530446C5620563456347
:102EE8008563C563056443608360C3600574457486
:102EF80043463A463146CDF8049000964430FEF7F2
:102F0800C1F943463A46314604F17400CDF80490BD
:102F18000096FEF7B7F943463A46314604F1A40055
:102F2800CDF804900096FEF7ADF92B460522214610
:102F3800044800F061F82846257503B0BDE8F08321
:102F4800000080BE380400200000C0BE10B5084B49
:102F5800044640F8A43BFEF78DF904F17400FEF72F
:102F680089F904F14400FEF785F9204610BD00BF39
:102F78009840000810B50446FFF7E8FF2046D42122
:102F8800FDF758FD204610BD70470000F7B5002238
:102F9800154D142713464FF47A7607FB02F42919C6
:102FA8000132102A2B514B608E60CB600B744B742E
:102FB800F3D10E4A13600E4A0360D36943F001034C
:102FC800D361002264230093114640F2CF234FF0CF
:102FD8008040FDF7B7F9012200211C20FDF790F988
:102FE80062B603B0F0BD00BF180000201400002036
:102FF8000010024070470000F0B572B6114D002471
:103008004FF0FF304FF0140E2F460EFB04F605EB81
:10301800060CAE5926B9DCF80460002E08BF20461D
:103028000134102CF1D1441C0AD0C4B214256543D4
:103038007C1900267E516160A260E2602674637488
:1030480062B6F0BD180000200448142303FB0101F8
:103058000023CA608A600B74704700BF1800002004
:1030680082B072B6034B1B68019362B6019802B036
:10307800704700BF1400002007B50246FFF7F0FFB5
:10308800014401911046FFF7EBFF019B984201D2E2
:1030980000BFF7E703B05DF804FB0000F8B54FF098
:1030A80080431A69D20714D5194F4FF6FE721A6178
:1030B800002414263D4606FB0473DA6852B1DA6828
:1030C800013ADA600134102CF5D1124A1368013341
:1030D8001360F8BD9A68DA601A7CFF2A1FBF1A7C51
:1030E8000132D2B21A7406FB04F3EA18527C002AA1
:1030F800E8D1EA580AB1EB58984706FB04535A68D6
:10310800002ADFD0586803689B689847DAE700BF51
:103118001800002014000020704710B5082104464C
:10312800FDF788FC204610BD10B5034B036004462C
:10313800FDF714FC204610BDAC40000810B504464D
:10314800FFF7F2FF20461021FDF774FC204610BD62
:1031580010B5044621B10349FEF71BFC204610BDFB
:103168000149F9E70A4200080F4200081049114BCB
:1031780003604B6943F4FC034B610F4B43609A684F
:1031880022F040429A609A6842F040429A609A88D7
:10319800C2F30E029A809A8892B29A801A6822F034
:1031A80040421A601A6842F080421A60704700BFB5
:1031B800001002402042000800040048026821B1C3
:1031C800936943F4004393617047138D6FEA434357
:1031D8006FEA53439BB213857047D1B903689A6865
:1031E80022F440429A609A6842F440429A609A886F
:1031F80022F080021204120C9A809A8892B29A8065
:103208001A6822F440421A601A6842F480421A602E
:10321800704701290ED103689A6822F440429A60E7
:103228009A6842F440429A601A6822F440421A604E
:103238001A68ECE7022913D103689A6822F440421D
:103248009A609A6842F440429A601A6822F44042AE
:103258001A601A681A60DA6842F48042DA607047C5
:10326800052910D103689A6822F440429A609A6846
:1032780042F440429A601A6822F440421A601A687E
:1032880042F40042C3E70429C2D103681A6822F451
:1032980040421A601A6842F44042B8E7054A08B545
:1032A800536943F4FC035361034B03600121FFF7A7
:1032B80094FF08BD0010024000040048D1B903681B
:1032C8009A6822F440529A609A6842F440529A608E
:1032D8009A8822F040021204120C9A809A8892B2BC
:1032E8009A801A6822F440521A601A6842F480528E
:1032F8001A60704701290ED103689A6822F4405277
:103308009A609A6842F440529A601A6822F44052CD
:103318001A601A68ECE7022913D103689A6822F444
:1033280040529A609A6842F440529A601A6822F4AD
:1033380040521A601A681A60DA6842F48052DA60F9
:103348007047052910D103689A6822F440529A60A0
:103358009A6842F440529A601A6822F440521A60FD
:103368001A6842F40052C3E70429C2D103681A68F4
:1033780022F440521A601A6842F44052B8E700003A
:10338800054A08B5536943F4FC035361034B0360D2
:103398000121FFF793FF08BD001002400004004818
:1033A8000A2310B5436004460830FFF777FF04F19D
:1033B8000C00FFF7E5FFA268138D9BB243F0800372
:1033C8001385E268138D9BB243F04003138510BD4B
:1033D8002DE9F0414F4C504EDFF8A481071D3846C7
:1033E8000121FFF7EBFE20464FF4E131FFF786FBA2
:1033F80020464A49FEF7CDFA49492046FEF7C9FA60
:10340800FDF708FB474905462046FEF7C2FA29465C
:10341800454D2046FEF7BFFA29462046FEF7B9FA81
:103428003046FFF7B3FD20464049FEF7B2FA204682
:103438003F49FEF7AEFA3046C8213E4EFFF71CFE64
:103448003D492046FEF7A5FA3046FFF7A9FF20467A
:103458003A49FEF79EFA31464046FFF7BFF8384929
:103468002046FEF796FA4046FFF7ADF8DFF81481DC
:1034780001462046FFF76CFE2946FEF78AFA3146D8
:103488004046FFF7ADFB2F492046FEF782FA40463B
:10349800FFF7D4FB01462046FFF75AFE2946FEF700
:1034A80078FA2948FEF732FD28492046FEF771FAD6
:1034B8002748FEF73FFE27492046FEF76AFA2648C6
:1034C800FFF7F8FC25492046FEF763FA2448FFF782
:1034D80075F924492046FEF75CFA2348FFF7A8FA55
:1034E80020462249FEF755FA00213846FFF766FEC6
:1034F8001F48FEF72BFC20461E49FEF74AFA2046D5
:103508001D49FEF746FA20461C49FEF742FA0020FC
:10351800BDE8F0813404002038040020DD400008B4
:10352800E9400008FD400008E74000081B4100088A
:103538002C41000858020020434100083A41000885
:10354800494100085D410008580100207441000805
:10355800C8020020834100085C0100209A4100084D
:1035680044020020B5410008A0030020CF41000814
:10357800B0020020E9410008E6400008F8410008D0
:10358800680200203802002070B5044600F10C06DD
:1035980004F1080530460021FFF790FE2846002177
:1035A800FFF71BFE30460121FFF788FE2846002161
:1035B800FFF713FE30460121FFF780FE2846012160
:1035C800FFF70BFE2046BDE87040FDF71ABA70B54C
:1035D800044600F10C0604F1080530460121FFF706
:1035E8006DFE28460121FFF7F8FD30460121FFF75F
:1035F80065FE28460021FFF7F0FD30460021FFF761
:103608005DFE28460121FFF7E8FD2046BDE8704031
:10361800FDF7F7B92DE9F843044600F108073846E5
:10362800894604F10C060121FFF7D7FD0021304639
:10363800FFF744FE2046FDF7E4F94FF0090800259E
:10364800B8F1010817D001213046FFF737FE2046B0
:10365800FDF7D7F9A3681B8A6D001B063046EDB24B
:103668004FF0000148BF45F00105FFF727FE20464F
:10367800FDF7C7F9E4E7B9F1000F1ED04146384617
:10368800FFF7ABFD2046FDF7BCF901213046FFF7F7
:1036980015FE2046FDF7B5F900213046FFF70EFE6E
:1036A8002046FDF7AEF901213846FFF796FD204682
:1036B800FDF7A7F92846BDE8F8830121DFE72DE9E2
:1036C800F04104460D46092700F10C0600F10808F0
:1036D800013F1AD000213046FFF7F0FD2046FDF7E4
:1036E80090F92B064CBF012100214046FFF775FDDC
:1036F8002046FDF786F901213046FFF7DFFD6D0012
:103708002046FDF77EF9EDB2E2E739463046FFF78D
:10371800D5FD2046FDF775F901214046FFF75DFD0F
:103728002046FDF76EF901213046FFF7C7FD204618
:10373800FDF767F9A3681D8A39463046FFF7BEFDD5
:10374800ADB22046FDF75DF985F08000C0F3C010EA
:10375800BDE8F08138B53C4D3C4C2846FFF706FDE6
:1037680028463B4D3B492246FDF76FF92846FEF7B0
:10377800FBF82846384D39492246FDF766F92846B0
:10378800FFF702FC2846364D36492246FDF75DF91B
:103798002846FDF7EBF82846334B40F8083BFFF77F
:1037A8007DFD05F10C00FFF7EBFD28462F4D304954
:1037B8002246FDF74AF92846FEF7FEFD28462D4D1C
:1037C8002D492246FDF741F92846FFF701FA284618
:1037D8002A4D2B492246FDF738F92846FEF7FEFA0E
:1037E8002846284D28492246FDF72FF92846FEF796
:1037F800EBFB2846254D26492246FDF726F92846A3
:10380800FFF7F0FA2846234D23492246FDF71DF914
:103818002846FEF76BFF2846204D21492246FDF732
:1038280014F92846FFF7E4F828461E4D1E4922469B
:10383800FDF70BF92846FEF749FA224628461B49A8
:10384800BDE83840FDF701B930020020080000202B
:1038580034040020213100083804002049190008E8
:1038680058020020FD2F0008AC4000086802002024
:103878003131000838020020B12300085801002027
:10388800C92B0008C8020020D51D00085C010020D3
:10389800C11F000844020020552F0008A003002083
:1038A800E5260008B0020020AD2A00089D1C00088B
:1038B8007047704710B510210446FDF7BBF8204645
:1038C80010BD10B554210446FDF7B4F8204610BDCC
:1038D8002DE9F0412DED028B044625489DF8208006
:1038E8000E4617461D46FEF79DFF3044A06020484F
:1038F800FEF7A4FF002E3844E06025612ADDDFEDE5
:103908001D7A9FED1D8A002FD8BFB0EE678A1B4D28
:103918001B4A84ED078A00232562A361E2622563BE
:10392800A36284ED0F8A2564A363E2642565A3641A
:10393800B8F1000F0AD0BE420FDA002F06DD114899
:10394800FFF7AEF884ED0F8A2564A063BDEC028B07
:10395800BDE8F0819FED078AD9E7F7DD002EF5DD98
:103968000848FFF79BF884ED078A2562A061EDE718
:10397800440200206F12033C6F12833B0AD7233C9A
:103988006F12033BA003002013B5104B104A0360CD
:1039980000234261C361036283614262C3620363BD
:1039A80083624263C363036483634264C364002223
:1039B80003658364074B0261436011460092052347
:1039C8000446FFF785FF204602B010BD40420008BC
:1039D800304200083333333F07B5002241600261AB
:1039E800009205231146FFF773FF03B05DF804FB4F
:1039F800704710B534210446FDF71CF8204610BD69
:103A0800084A0260002100224160816042618261AF
:103A1800C26102624262826280F82C1080F82D1026
:103A2800016370475042000838B58360049B836186
:103A3800059B4361069B0362079BC361089B8362E6
:103A4800094D099B4362002304460163426080F8E4
:103A58002C3080F82D302846FEF7E4FEE06028463A
:103A6800FEF7ECFE206138BD4402002070B5C36843
:103A7800466804463D481E44FEF7D4FEA568361A3B
:103A8800206905443948FEF7D9FE94F82C30281AE5
:103A98003BB9D4ED0A7A94ED087A77EE877AC4EDCB
:103AA8000A7A94F82D303BB9D4ED097A94ED077A67
:103AB80077EE877AC4ED097AD4ED0A7A94ED067A1E
:103AC800D4ED096AF4EEC77AF1EE10FAD4ED057A6E
:103AD800C8BF84ED0A7AF4EEE76AD4ED0A6AB1EE5B
:103AE800477AF1EE10FAF4EEC76AC8BFC4ED097A56
:103AF800F1EE10FA48BF84ED0A7A94ED097AF1EEF6
:103B0800677AB4EEE77AF1EE10FA48BFC4ED097AA5
:103B1800002EB8BF7642042EDFBF0023A362012324
:103B280084F82C300028B8BF40420428DFBF0023A7
:103B38006362012384F82D30616A0D48FEF7ACFFFB
:103B4800A16A0B48FEF7A6FF94F82C3013B194F83D
:103B58002D303BB9206B18B103689B68984718B99A
:103B6800002070BD012070BD022070BD44020020FD
:103B7800A003002038B5064C05462846FFF776FF17
:103B880020B904212046FFF777FAF6E738BD00BFD1
:103B98003804002038B50446064B44F8043B054673
:103BA8002046FFF7F1FE20460349FFF715FF284698
:103BB80038BD00BF604200083333333F10B5044BB3
:103BC800044640F8043BFFF773FE204610BD00BFD3
:103BD8006042000810B50446FFF7F0FF2046582160
:103BE800FCF728FF204610BD000000000000000080
:103BF800A7040008B9040008000000000000000045
:103C0800A5040008AB040008000000000000000044
:103C1800A9040008C7040008910400080000000077
:103C280000000000F50800083D0900080000000039
:103C3800000000006509000867090008530900082A
:103C480055090008570900085D09000861090008BE
:103C58000000000000000000E90A00080D0B000841
:103C6800C30A0008310C0008000000000000000032
:103C78002B0F00082F0F00082D0F00080000000070
:103C8800000000005D0F0008710F000871100008A7
:103C98000000000000000000E9100008FD10000806
:103CA8001111000800000000000000009911000830
:103CB800AD110008C111000800000000000000005C
:103CC8007D1200087F1200080000000000000000BC
:103CD800391300083B130008000000000000000032
:103CE800211400082314000810CEC67F1F784C7FCB
:103CF800650068E8507F504B560000000300000044
:103D0800030000000400000003000000030000009E
:103D1800080000000200000002000000000000008F
:103D28000200000002000000080000007F0BB01332
:103D3800F5F9EE011EE313460D10F214FAEB103EEE
:103D4800211305160CFDD891D676FB000B2E0AE53B
:103D5800E911C001FDFAFD050110FD25FDDBFDFFA0
:103D6800E6FEEBF83CE7EF170B0C0DEE2100EE0238
:103D7800021300053C1F00F9F6F5EF03141AE8F0EA
:103D880018E90109EE092DE4DE0B00E2FA13F485C7
:103D98001AE711EFF7FD11FA03EF46ED01080300EA
:103DA800F5E5F0ECFCFD0D10E40FFD1301FC04F645
:103DB800EF030AF92996F4FFEEFAF600C72018F87F
:103DC8000B05FFF6031D2CF00AFE00EBF2FFF817B7
:103DD800F7E40A0FFAF30155D7B3F30201F9FE0429
:103DE800CCFCF7F90FE302FDFE24FE46FBF21AF9BC
:103DF80013F1FCF031F6FFF5030BE30D1524E6F2A1
:103E0800F6000807FA0BEF06EAF7FDFAE907F8E704
:103E1800E6F405F307ED0F0AF715FFF7FEF5EAE6F6
:103E28000FF70414E7F1E5E90B0506FBFEED0202C6
:103E38000E0FCFFD0306020E04FCF6FEE812FAF19F
:103E48000F15FDBA311AF30CE5020503FEFD5B05FB
:103E5800FB08190103DB05E4130310F6D318C30E9E
:103E680016F012F904EA04ED1D81FF10F813E1F0D1
:103E7800FAF001F67F0214FD02000002E6F0FDFCF4
:103E8800E8ECFFFEF705060819000A02F9F6F9FE44
:103E9800F0DFF2EFC629050BD0F3FFFF43F80D0161
:103EA8000AF8FBF303E7E9F8D612FF07E2EF03FA93
:103EB8000AF7F8F7E6EAFD0160F11601F10C0000D7
:103EC800F3E4020014F30F00000000FE41E30800D1
:103ED8000AE31102F0FEFA00DB56F8FEF725FC02B1
:103EE800FDF20000FAE7EBE502E5F900E652FDF61F
:103EF8000059021BE6ECEFF7F6CAF601F1E8FA0002
:103F080020480516F3F1F2EB0F0B00F7FEE5FC1362
:103F18000800000008000000010000000800000080
:103F28000800000004000000040000000400000075
:103F38000400000004000000040000000800000065
:103F48000100000001000000050000000000000062
:103F5800000000004915000881150008C30A000880
:103F6800310C0008000000000000000011180008D3
:103F78001318000800000000000000007318000873
:103F880077180008000000000000000075180008FD
:103F980085180008000000000000000071180008E3
:103FA80095180008000000000000000049190008EA
:103FB8005D1900080000000000000000D719000883
:103FC800D919000800000000000000009D1C00082E
:103FD8009F1C0008AD1C0008020304010203040C26
:103FE80001060000000000500000005000000050D2
:103FF8000001005000010050000100500001005075
:1040080000040050000400500000005000000000B0
:1040180000000000D51D0008D71D000800000000A2
:1040280000000000C11F0008C31F00085D2300082E
:104038000000000000000000B1230008B3230008BE
:10404800C92500080000000000000000E52600085F
:10405800E72600080000000000000000AD2A000864
:10406800D52A00080529000800000000000000000B
:10407800E92A0008EB2A0008000000000000000000
:10408800C92B0008CB2B000800000000000000002E
:10409800552F00087D2F0008C92C000800000000DB
:1040A800000000003131000845310008D73500080C
:1040B80091350008A9330008C73600081D360008E6
:1040C800096573745F696D755F73656E736F720AE6
:1040D80000203A20000A0A0A23232323230A0A0A73
:1040E800007465726D696E616C20696E6974206414
:1040F8006F6E650A006D656D20696E697420646F66
:104108006E652C206865617020737461727420611B
:1041180074200074696D657220696E697420646F1B
:104128006E650A0064656C617920323030206D73E9
:10413800200069326320696E697420646F6E650AB5
:1041480000696D7520696E697420646F6E652077EB
:104158006974682000656570726F6D20696E697496
:1041680020646F6E6520776974682000616463203D
:10417800696E697420646F6E650A006C696E6520EB
:1041880073656E736F7220696E697420646F6E65F3
:104198000A0064697374616E63652073656E736F7A
:1041A8007220696E697420646F6E650A00656E63BB
:1041B8006F6465722073656E736F7220696E6974BF
:1041C80020646F6E650A006D6F746F7220636F6E86
:1041D80074726F6C6C20696E697420646F6E650A06
:1041E800006B657920696E697420646F6E650A00DA
:1041F80073797374656D20696E697420646F6E6578
:104208000A00747275650066616C736500000000D1
:1042180000000000000000002131000823310008E0
:104228000000000000000000BB380008BD3800088E
:104238000000000000000000B9380008CB38000872
:104248000000000000000000F9390008FB390008F0
:104258000000000000000000C53B0008DD3B00082E
:08426800D50800085D370008CD
:040000050800019D51
:00000001FF
