:020000040800F2
:1000000000800020C9020008B90200089D02000813
:10001000B9020008B9020008B90200080000000097
:10002000000000000000000000000000B90200080D
:10003000B902000800000000B9020008B902000877
:10004000B9020008B9020008B9020008B9020008A4
:10005000B9020008B9020008B9020008B902000894
:10006000B9020008B9020008B9020008B902000884
:10007000B9020008B9020008B9020008B902000874
:10008000B9020008B9020008B9020008B902000864
:10009000B9020008B9020008B9020008990E000868
:1000A000B9020008B9020008B9020008B902000844
:1000B000890B0008B9020008B9020008B90200085B
:1000C000B9020008B9020008B9020008B902000824
:1000D000B9020008B9020008B9020008B902000814
:1000E000C90E0008B9020008B9020008B9020008E8
:1000F000B9020008B9020008B9020008B9020008F4
:10010000000000000000000000000000B90200082C
:10011000B9020008B9020008B9020008B9020008D3
:10012000B9020008B9020008B9020008B9020008C3
:10013000B9020008B9020008000000000000000039
:10014000B9020008B9020008B90200080000000066
:10015000000000000000000000000000000000009F
:100160000000000000000000B9020008B902000809
:10017000B9020008000000000000000000000000BC
:0801800000000000B9020008B4
:0C018800400200081D0A0008BD0A000823
:100194001C309FE51C009FE5003043E0060053E35C
:1001A4001EFF2F9110309FE5000053E31EFF2F0127
:1001B40013FF2FE1070000200400002000000000CE
:1001C40024109FE524009FE5001041E04111A0E1C7
:1001D400A11F81E0C110B0E11EFF2F0110309FE587
:1001E400000053E31EFF2F0113FF2FE10400002042
:1001F400040000200000000010402DE92C409FE581
:100204000030D4E5000053E30600001ADFFFFFEBE3
:100214001C309FE5000053E318009F150000A01157
:100224000130A0E30030C4E51040BDE81EFF2FE11B
:1002340004000020000000008801000840309FE511
:10024400000053E310402DE938109F1538009F1526
:100254000000A01134009FE5003090E5000053E356
:100264000100001A1040BDE8D4FFFFEA20309FE5EA
:10027400000053E3FAFFFF0A0FE0A0E113FF2FE1B0
:10028400F7FFFFEA000000000800002088010008D2
:100294000400002000000000684620F00701044A22
:1002A4008D4600BF138D9BB243F400431385F8E7DA
:1002B40000040048684620F007018D4608B5FFF7A2
:1002C400EBFF00000E490F4A0F48521A9210002308
:1002D4009A420ED10D4AD2F8883043F47003C2F822
:1002E400883002F50C72536843F04043536000F0C9
:1002F4008DB850F8234041F823400133E8E700BFAC
:1003040000000020040000205012000800ED00E06E
:10031400394AD2F8883043F47003C2F88830374B36
:100324001A6842F001021A605968354A0A405A6054
:100334001A6822F0847222F480321A601A6822F455
:1003440080221A605A6822F4FE025A60DA6A22F0A5
:100354000F02DA62196B2B4A82B00A401A63002238
:100364009A60009201921A6842F480321A601A6804
:1003740002F400320192009A01320092019A1AB9F1
:10038400009AB2F5A04FF2D11A6812F4003218BFE5
:1003940001220192019A012A05D0174B4FF0006205
:1003A4009A6002B07047184A122111605A685A6064
:1003B4005A685A605A6842F480625A605A6822F451
:1003C4007C125A605A6842F4E8125A601A6842F081
:1003D40080721A601A689201FCD55A6822F00302EE
:1003E4005A605A6842F002025A605A6802F00C02DB
:1003F400082AFAD1D1E700BF00ED00E00010024066
:100404000CC07FF8CCFC00FF0020024008B500F0CF
:10041400FBF8FEE72DE9F0411D46036804461B681E
:1004240016460F46984723683946DB6820469847A6
:1004340023683146DB682046984723682946DA68F2
:1004440020469047236820465B68BDE8F041184782
:100454004268138D9BB243F0800313858268138D29
:100464009BB243F04003138570472DE9F0411D46CC
:10047400036804461B6816460F46984723683946A6
:10048400DB682046984723683146DB682046984756
:100494002368C5F30721DB68204698472368E9B23F
:1004A400DB6820469847236820465B68BDE8F04136
:1004B40018472DE9F0411D460368069E1B68044653
:1004C40017468846984723684146DB682046984784
:1004D40023683946DB68204698472E44B542236892
:1004E40005D0DB6815F8011B20469847F6E720463F
:1004F4005B68BDE8F0411847036870B504461B68A3
:1005040016460D46984723682946DB6820469847D7
:1005140023683146DB6820469847236820461B68D9
:100524009847236845F00101DB6820469847236813
:1005340000211B6920469847236805465B682046CE
:100544009847284670BD036870B504461B68164674
:100554000D46984723682946DB6820469847236858
:100564003146DB6820469847236820461B68984735
:10057400236845F00101DB68204698472368012180
:100584001B69204698472368002105021B69204601
:100594009847236805435B6820469847284670BD02
:1005A4002DE9F0411D460368069E1B6804469046EB
:1005B4000F46984723683946DB68204698472368E6
:1005C4004146DB6820469847236820461B689847C5
:1005D400236847F00101DB68204698472E44B54262
:1005E400236806D01B6901212046984705F8010BB2
:1005F400F5E720465B68BDE8F04118470B23013B53
:1006040001D000BFFBE770472F4A304C304D08B58E
:10061400536943F47F035361A36823F04043A36009
:10062400A36843F04043A360A388C3F30E03A380ED
:10063400A3889BB2A380236823F0404323602368EC
:1006440043F080432360A36943F40043A361FFF7AD
:100654005FFE204800F0C8FB1F491E4800F0E7FA7F
:100664001B4800F03BFA1D491A4800F0E0FA1C4907
:10067400184800F0DCFA4FF47A71154800F070FA6B
:100684001849144800F0D3FA1748FFF7E1FE174958
:10069400104800F0CCFA0323022201211248FFF78C
:1006A400B9FEA36943F40043A3612846642100F022
:1006B40057FA238D9BB243F4004323854FF46171B1
:1006C400284600F04DFAECE7001002400004004810
:1006D400700000206C0000200412000808120008BA
:1006E4001912000831120008200000202812000806
:1006F400D1B903689A6822F440429A609A6842F435
:1007040040429A609A8822F080021204120C9A8065
:100714009A8892B29A801A6822F440421A601A683F
:1007240042F480421A60704701290ED103689A6826
:1007340022F440429A609A6842F440429A601A68ED
:1007440022F440421A601A68ECE7022913D10368C4
:100754009A6822F440429A609A6842F440429A604D
:100764001A6822F440421A601A681A60DA6842F47D
:100774008042DA607047032910D103689A6822F432
:1007840040429A609A6842F440429A601A6822F49D
:1007940040421A601A6842F40042C3E70429C2D1F5
:1007A40003681A6822F440421A601A6842F440420C
:1007B400B8E7D1B903689A6822F440529A609A68FB
:1007C40042F440529A609A8822F040021204120CB9
:1007D4009A809A8892B29A801A6822F440521A60D7
:1007E4001A6842F480521A60704701290ED10368D6
:1007F4009A6822F440529A609A6842F440529A608D
:100804001A6822F440521A601A68ECE7022913D1DC
:1008140003689A6822F440529A609A6842F44052FB
:100824009A601A6822F440521A601A681A60DA68E8
:1008340042F48052DA607047032910D103689A6841
:1008440022F440529A609A6842F440529A601A68BC
:1008540022F440521A601A6842F40052C3E7042991
:10086400C2D103681A6822F440521A601A6842F42A
:100874004052B8E738B500F1080504460434284668
:100884000121FFF796FF20460121FFF731FF28469B
:100894000121FFF78EFF20460021FFF729FF28469C
:1008A4000021FFF786FF20460121FFF721FFBDE865
:1008B4003840FFF7A3BE38B500F1080504460434F8
:1008C40028460021FFF775FF20460021FFF710FF9F
:1008D40028460121FFF76DFF20460021FFF708FF9E
:1008E40028460121FFF765FF20460121FFF700FF9D
:1008F400BDE83840FFF782BE2DE9F04107460C46BB
:10090400092600F1080500F10408013E17D0002172
:100914002846FFF74EFFFFF771FE23064CBF012167
:1009240000214046FFF7E4FE6400FFF767FE012163
:100934002846FFF73EFFE4B2FFF760FEE5E73146E5
:100944002846FFF736FFFFF759FE40460121FFF71F
:10095400CFFEFFF753FE28460121FFF72AFFFFF7DA
:100964004DFE7B681C8A28463146A4B2FFF721FF5E
:10097400FFF744FE84F08000C0F3C010BDE8F081AE
:100984002DE9F8438046061D3046894608F10805DE
:100994000121FFF7ADFE00212846FFF70AFFFFF70C
:1009A4002DFE09270024013F16D028460121FFF718
:1009B40000FFFFF723FED8F804301B8A64001B06EF
:1009C400E4B24FF00001284648BF44F00104FFF7A9
:1009D400F0FEFFF713FEE6E7B9F1000F1AD039462F
:1009E4003046FFF785FEFFF709FE28460121FFF791
:1009F400E0FEFFF703FE28460021FFF7DAFEFFF7CB
:100A0400FDFD30460121FFF773FEFFF7F7FD204699
:100A1400BDE8F8830121E3E7F8B51B4C1B4E1C4DE0
:100A24001C4F204600F0ECF820461B4C1B49324674
:100A340000F0FAFA204600F04FF8324618492046F2
:100A4400184C00F0F1FA184B23606B69204643F40C
:100A54007F036B61012140F8047FFFF749FE6B6956
:100A6400204643F47F03114C6B61012140F8087F59
:100A7400FFF79FFE204600F0E5F8324620460C4979
:100A8400BDE8F84000F0D0BA6C000020000000205F
:100A9400001002400004004870000020110C0008FF
:100AA400490B000820000020D81100082C00002069
:100AB400370C0008704770470348044B044A054943
:100AC400036000F0B1BA00BF740000209C04002051
:100AD40000000020B90A000870470000F7B50022A2
:100AE400154D142713464FF47A7607FB02F429199F
:100AF4000132202A2B514B608E60CB600B744B74F7
:100B0400F3D10E4A13600E4A0360D36943F0010324
:100B1400D36100224FF434730093114663234FF0E2
:100B2400804000F00BFA012200211C2000F0E4F9BF
:100B340062B603B0F0BD00BF7C0000207800002046
:100B4400001002407047000082B072B6034B1B686D
:100B5400019362B6019802B0704700BF780000208C
:100B640007B50246FFF7F0FF014401911046FFF775
:100B7400EBFF019B984201D200BFF7E703B05DF899
:100B840004FB0000F8B54FF080431A69D20714D56E
:100B9400194F4FF6FE721A61002414263D4606FBD7
:100BA4000473DA6852B1DA68013ADA600134202C4D
:100BB400F5D1124A136801331360F8BD9A68DA60FC
:100BC4001A7CFF2A1FBF1A7C0132D2B21A7406FBA8
:100BD40004F3EA18527C002AE8D1EA580AB1EB5827
:100BE400984706FB04535A68002ADFD05868036804
:100BF4009B689847DAE700BF7C000020780000205B
:100C040010B5044600F0EFF8204610BD10B50446B8
:100C140000F032F9204610BD38B505464C1E14F8D4
:100C2400011F19B1284600F029F9F8E738BDFFF78C
:100C3400F3BF704710B54021044600F003FA204684
:100C440010BD0000014B0360704700BF4012000854
:100C54002DE9F0410446C06B03680F221B6A0F465E
:100C6400D42198476828E06B0CBF012300236363F9
:100C740003681B689847E06B0368D421DB689847D6
:100C8400E06B03681921DB689847E06B03681B6815
:100C94009847E06B0368D521DB689847E06B0368ED
:100CA40001211B69984700020FFA80F8E06B036882
:100CB40001211B69984748EA0008E06B0368012199
:100CC4001B699847000206B2E06B036801211B69A7
:100CD40098470643E06B036801211B6998470002AB
:100CE40005B2E06B036800211B6998470543E06B7C
:100CF40003685B680FFA88F836B22DB2984747B19B
:100D0400A36A4344A362E36A3344E362236B2B4440
:100D14002363A36AE169226BE06AA8EB0303AD1ABB
:100D24002361192293FBF2F301EB4303E361236A8A
:100D3400A561301A606190FBF2F003EB4000206281
:100D4400636AE06B95FBF2F503EB450503686562A6
:100D54001B689847E06B0368D421DB689847E06B15
:100D640003682921DB689847E06B03681B68984790
:100D7400E06B0368D521DB689847E06B03680121C9
:100D84001B699847000207B2E06B036801211B69E5
:100D940098470743E06B036801211B6998470002E9
:100DA40006B2E06B036801211B6998470643E06BB8
:100DB400036801211B699847000205B2E06B0368D0
:100DC40000211B6998470543E06B03683FB236B2C4
:100DD4002DB25B6898476760A660E560BDE8F08166
:100DE4000021FFF735BF7047214A2248536943F475
:100DF4007F0353614FF09043996821F44021996037
:100E0400996841F440219960196821F440211960DE
:100E1400196841F400211960516941F47F0151615D
:100E2400996821F440119960996841F440119960DE
:100E3400196821F440111960196841F4001119600E
:100E4400596A21F0F0015962596A41F070015962FE
:100E5400596A21F470615962596A41F4E061596236
:100E6400936943F4804393614FF4E13100F0BEB8D9
:100E7400001002400038014070470000044BDA695A
:100E8400120601D400BFFAE789B21985704700BF82
:100E940000380140094B1B8A13F0C0030BD0C02B50
:100EA4000CBF01234FF0FF33054A116806200B44A1
:100EB400136000F0ADB80123F6E700BF0008004856
:100EC400FC0200200A4B1B8A13F4C0530CD0B3F568
:100ED400C05F0CBF4FF0FF330123064A11680C209A
:100EE4000B44136000F094B84FF0FF33F5E700BFF4
:100EF40000080048000300200E4BDB68DB4310B5FC
:100F0400C3F30224C4F10403DBB299400F23234149
:100F14001340094A0B431B01111803F0F00381F835
:100F240000334109012300F01F0003FA00F042F8E6
:100F3400210010BD00ED00E000E100E030B50588BF
:100F4400ACB2284DA84212D005F50065A8420ED0D7
:100F5400B0F1804F0BD0A5F59835A84207D005F520
:100F64008065A84203D005F5A435A84203D124F036
:100F740070040C43A4B21C49884208D001F5806176
:100F840088421FBF24F44074A4B21443A4B2048062
:100F9400C362BDF80C300385124B984213D003F59D
:100FA400006398420FD003F5406398420BD003F5D9
:100FB4008063984207D003F58063984203D003F519
:100FC4000063984201D1002303860123436103880F
:100FD4009BB243F001030380C36843F00103C36081
:100FE40030BD00BF002C01400010004000230C2243
:100FF400436002608360054BB3FBF1F189B28181E8
:10100400036843F001030360704700BFC0687804BD
:1010140020F01F02012300F01F0003FA00F0014B2F
:10102400D0507047140401400130A0E110402DE974
:101034000010A0E10300A0E1050000EB1040BDE8B2
:101044001EFF2FE110402DE999FEFFFB1040BDE883
:101054001EFF2FE12CC09FE500005CE30700000A9F
:1010640010402DE90230A0E10120A0E10010A0E130
:101074000200A0E3040000EB1040BDE81EFF2FE1D6
:101084000C00A0E11EFF2FE190100008F0472DE9AD
:1010940024519FE5004095E5000054E30060A0E181
:1010A4000170A0E10290A0E10380A0E12B00000AFE
:1010B40004C094E51F005CE3100000DAFC309FE5F7
:1010C400000053E33A00000A8C00A0E30000A0E112
:1010D400004050E23600000A0030A0E3002095E50D
:1010E400030056E10C0084E8883084E5004085E57F
:1010F4002400001A06C0A0E10130A0E3110000EAB8
:10110400000056E30E00000A880094E5000050E356
:101114001900000A003190E501E0A0E31EECA0E113
:1011240003308EE10C2180E00C9180E7003180E5F2
:10113400808082E5020056E3043190050EE08301CD
:1011440004E1800501308CE20000A0E302C08CE2DF
:10115400043084E50C7184E7F047BDE81EFF2FE1FD
:101164005C309FE5000053E358409FE50030931541
:10117400004085E588308415CCFFFFEA3C309FE5CC
:10118400000053E30A00000A420FA0E30000A0E1BC
:10119400000050E30600000A0020A0E304C094E528
:1011A400002180E5042180E50230A0E1880084E587
:1011B400D8FFFFEA0000E0E3E6FFFFEA980400201E
:1011C400000000004C1200080C0400200000000085
:1011D4000000000079080008BB0800085504000856
:1011E400FD08000885090008190400086F040008B8
:1011F400B7040008FD0400084B050008A505000815
:101204000A0A0A0074696D657220696E6974206443
:101214006F6E650A0064656C61792031303030206E
:101224006D73200069326320696E697420646F6E87
:10123400650A00000000000000000000370C0008F0
:0C124400390C0008E50D00080403002030
:0C1250000DC0A0E1F8DF2DE904B04CE275
:0C125C000DC0A0E1F8DF2DE904B04CE269
:041268000000000082
:04000005080002C924
:00000001FF
