:020000040800F2
:10000000008000209D01000889010008930100087C
:10001000890100088901000889010008000000002A
:10002000000000000000000000000000890100083E
:10003000890100080000000089010008890100080A
:100040008901000889010008890100088901000868
:100050008901000889010008890100088901000858
:100060008901000889010008890100088901000848
:100070008901000889010008890100088901000838
:100080008901000889010008890100088901000828
:10009000890100088901000889010008E524000899
:1000A0008901000889010008890100088901000808
:1000B000152B000889010008890100088901000842
:1000C00089010008890100088901000889010008E8
:1000D00089010008890100088901000889010008D8
:1000E0001525000889010008890100088901000818
:1000F00089010008890100088901000889010008B8
:10010000000000000000000000000000890100085D
:100110008901000889010008890100088901000897
:100120008901000889010008890100088901000887
:10013000890100088901000800000000000000009B
:1001400089010008890100088901000800000000F9
:10015000000000000000000000000000000000009F
:10016000000000000000000089010008890100086B
:1001700089010008000000000000000000000000ED
:080180000000000089010008E5
:10018800684620F007018D46FEE7684620F0070123
:100198008D46FEE71549164A1648521A9210002352
:1001A8009A4217D1144A154ED2F88830144C43F4A9
:1001B8007003C2F88830D2F83432A41B43F04043AD
:1001C800C2F83432A4100025A54209D100F01AF86B
:1001D80001F082B950F8234041F823400133DFE7AA
:1001E80056F8253098470135EEE700BF000000209B
:1001F800000000206044000800ED00E060440008B2
:1002080064440008394AD2F8883043F47003C2F8CD
:100218008830374B1A6842F001021A605968354A2B
:100228000A405A601A6822F0847222F480321A60F6
:100238001A6822F480221A605A6822F4FE025A6070
:10024800DA6A22F00F02DA62196B2B4A82B00A408E
:100258001A6300229A60009201921A6842F480326E
:100268001A601A6802F400320192009A0132009270
:10027800019A1AB9009AB2F5A06FF2D11A6812F46D
:10028800003218BF01220192019A012A05D0174BAA
:100298004FF000629A6002B07047184A122111604C
:1002A8005A685A605A685A605A6842F480625A60BA
:1002B8005A6822F47C125A605A6842F4E8125A606A
:1002C8001A6842F080721A601A689201FCD55A685E
:1002D80022F003025A605A6842F002025A605A68D1
:1002E80002F00C02082AFAD1D1E700BF00ED00E0C5
:1002F800001002400CC07FF8CCFC00FF0020024038
:100308000E4BDB68DB4310B5C3F30224C4F10403CE
:10031800DBB299400F2323411340094A0B431B01C9
:10032800111803F0F00381F800334109012300F0AC
:100338001F0003FA00F042F8210010BD00ED00E0B4
:1003480000E100E030B50588ACB2244DA8420ED0DB
:1003580005F50065A8420AD0B0F1804F07D0A5F591
:100368009835A84203D005F58065A84203D124F04A
:1003780070040C43A4B21A49884208D001F5806180
:1003880088421FBF24F44074A4B21443A4B204806A
:10039800C362BDF80C300385104B98420FD003F5AB
:1003A800006398420BD003F54063984207D003F5E9
:1003B8008063984203D003F58063984201D10023FB
:1003C80003860123436103889BB243F00103038042
:1003D800C36843F00103C36030BD00BF002C014077
:1003E8000010004020F01F02012300F01F0003FA54
:1003F80000F0014BD05070471404014001F0030392
:1004080001F0FC0101F1804101F5803110B58A68E5
:100418009B000F249C4022EA04028A608A68984064
:100428001043886010BD20F01F0303F1804303F5DB
:100438008233012200F01F0030B502FA00F01C6878
:10044800C24314401C605D6815405D601D6805432B
:100458001D609D6815409D60DD6803F140442A4099
:100468001029A4F58234DA6006D19A6802439A60AA
:10047800DA681043D86030BD01F1804101F582315E
:100488000B591843085130BD7047704710B50C21FF
:10049800044600F0A1FF204610BD10B50C2104460B
:1004A80000F09AFF204610BD2DE9F04306462D4B7B
:1004B80046F8043B87B0044600254FF07E532A4691
:1004C8002946009304F130092B46304600F0B0FF6E
:1004D80004F1E008484603F043FA404602F0ECFF16
:1004E80004F5987002F0F8FE04F5C87003F000FCFB
:1004F80004F5FA771C4BC4F8E831C4F8EC51C4F899
:10050800F051384601F00CF8184B00932A46304653
:10051800174B184900F075FF174BC4F8F0314946DE
:100528004046C4F8EC5102F0DBFF0022134B039362
:100538008DF8102001238DF813203846C82203A90E
:100548008DF811308DF812308DF814308DF8153083
:100558008DF816308DF8173000F0F8FF204607B0F8
:10056800BDE8F083743D0008643D000800002041A8
:100578006666E63FCDCCCC3E6F12033B543D000887
:1005880010B504462DED048B304801F085FF304945
:1005980002460A2304F1E00002F0B2FFD4F8283141
:1005A8009FED2C7ADFED2C7A2C48022B2B4B93F8FD
:1005B800C120D3ED328A18BFF0EE477A032A284AC1
:1005C800127C08BFF0EE477A002A18BFF0EE477A8F
:1005D80094ED7B7AF4EEC77AF1EE10FAC4BFD4ED4D
:1005E8007C7A77EE877AF8EEE88AC4ED7B7A94ED28
:1005F8007B9A01F04FFC07EE900AF8EEE77A201D8F
:1006080088EEA78ADFED177A77EEC87A18EE102AF7
:1006180017EE901A00F018FF07EE900A79EE678A35
:1006280077EE897A104817EE901A02F055F818EE0E
:10063800901A0D4802F052F818EE101ABDEC048B0F
:1006480004F59870BDE8104002F05CBEA4010020DB
:10065800A0020020CDCCCC3ECDCC4C3F24020020C3
:1006680058010020000000001C03002010B50E4CAB
:100678000D4801F007FC0028FAD000210B4802F0D1
:100688002DF80B49094802F027F8D4F8D030032B8D
:10069800EED80021054802F01FF800210348BDE804
:1006A800104002F01BB800BF240200201C030020E9
:1006B800CDCCCC3E2DE9F0412DED028BDFF89C80AE
:1006C800234D04460026404602F08EF928B1214900
:1006D80004F5FA7000F04AFFE0B9284601F0D2FBB1
:1006E8000028F0D095F8C03063B195F8C130032BDD
:1006F800204604D1FFF7BAFFC4F8EC61E3E7FFF73F
:100708003FFFE0E704F59877384602F0FDFD3846EC
:1007180002F032FE0021104801F0DEFF00210E48F1
:1007280001F0DCFFD5ED327AC4F8EC612846B8EE6A
:10073800E78A01F0AFFB07EE900AF8EEE77A201D92
:1007480088EE277A17EE101A00F0BEFEBBE700BF4E
:10075800240200205C0100201C0300205801002016
:100768000E4B10B50446036000F5FA7000F0D0FE99
:1007780004F5C87003F0D0FA04F5987002F07EFE14
:1007880004F1E00002F090FE04F1300003F0C2F83A
:10079800201D00F02EFE204610BD00BF743D00084D
:1007A80010B50446FFF7DCFF20464FF4047100F053
:1007B80013FE204610BD70477047142343607047EE
:1007C8000020704700207047704710B50821044684
:1007D80000F002FE204610BD014B0360704700BFC9
:1007E800843D00082DE9F0411D46036804469B68D6
:1007F80016460F469847236839465B69204698474E
:10080800236831465B6920469847236829465A6918
:100818002046904723682046DB68BDE8F04118472A
:10082800036870B504469B6816460D4698472368CA
:1008380029465B6920469847236831465B6920460C
:100848009847236820469B689847236845F001012C
:100858005B6920469847236800219B692046984792
:1008680023680546DB6820469847284670BD4268DD
:100878000023934202D000BF0133FAE7704700001B
:1008880010B5034B0360044600F024FD204610BD5C
:10089800A83D000810B50446FFF7F2FF20464021A6
:1008A80000F09AFD204610BD2DE9F84F04460E468B
:1008B80092460D464FF080094FF480686FF07E072E
:1008C800A36BA5EB060B5B451BD9E26BA06A5146EF
:1008D8000BFB020000F0C8FC236B626B5843E36A11
:1008E80090FBF9F013F90B3002FB030090FBF8F0D2
:1008F800B842B8BF38467F28A8BF7F2005F8010B4B
:10090800DEE7BDE8F88F000030B585B0044601ADDC
:1009180085E80E0000F0E8FC2346144A43F81C2B37
:1009280095E8070083E8070008AA07CA231D83E89B
:1009380007000BAA07CA04F1100383E807000E9BFF
:10094800A3620F9BE362109B2363119B636362683E
:10095800A3685A43E3685343E363636902465A430F
:10096800A36920465343A36305B030BDA83D0008E2
:1009780070B5013A0B460025866A5C1AA64207D96B
:1009880012F9014F002CB4BF1D701C700133F3E73E
:1009980070BD000010B5034B0360044600F09AFCDC
:1009A800204610BDBC3D000810B50446FFF7F2FF15
:1009B80020462C2100F010FD204610BD30B585B032
:1009C800044601AD85E80E0000F08EFC23460D4A72
:1009D80043F81C2B95E8070083E8070008AA07CA14
:1009E800231D83E807000BAA07CA04F1100383E854
:1009F8000700A36862685A43E36820465343A3622A
:100A080005B030BDBC3D00082DE9F04F8DB0189CF5
:100A18000A91199909908D1E614303911B991A989F
:100A28000595591800EBC000079161000491014633
:100A3800A51E0931069502900192A4460B910799CB
:100A48008B427BD00B99019A002511440891A84646
:100A5800099905EB0C0E8E4400270A997819084469
:100A680001990026089A093191423CD090F900B0CA
:100A780011F909AC11F9079C049A1AFB0B6690F955
:100A880001B011F908AC1AFB0B6690F902B019FB1A
:100A98000B6B11F9069C065719FB06B600EB040907
:100AA80011F905BC99F901A01BFB0A6699F902B076
:100AB80011F904AC11F9039C1AFB0B6A10F91460C4
:100AC80011F902BC19FB06A600EB0209039A99F971
:100AD80001A01BFB0A6611F901AC99F902B0104498
:100AE8001AFB0B66BEE7169A93F90010564380224C
:100AF80096FBF2F6179A02FB01614FF4806291FBB4
:100B0800F2F16FF07E029142B8BF1146069A7F2932
:100B180007F10107A8BF7F21BA420EF8011F9CD236
:100B2800059A08F101084245254491D2029A019993
:100B38001144039A01910133944480E70DB0BDE854
:100B4800F08F2DE9F04F93B019251F9C0F90201FAF
:100B580009901E980092219A04389A180A902098B1
:100B68000D921E9A6843059092001E980B92059A62
:100B780044432A4440000890049011920D9A9342ED
:100B880000F00581119A009802440E924FF0000976
:100B9800089A0292CDF80C900B9A02984A440C924B
:100BA8001E9A4A4406921E9A02440792049A4A449C
:100BB80000251092069A009805EB020C029A05EBA4
:100BC800020E079AAF180C9A05EB0908AE18002216
:100BD80088448C448E440F440E4401920E9A193076
:100BE800904200F09E8098F900A010F919BC019A73
:100BF8001BFB0A2298F901A010F918BC1BFB0A225A
:100C080098F902A010F917BC1BFB0A2298F903A057
:100C180010F916BC1BFB0A2298F904A010F915BCA0
:100C28001BFB0A229CF900A010F914BC1BFB0A222A
:100C38009CF901A010F913BC1BFB0A229CF902A025
:100C480010F912BC1BFB0A229CF903A010F911BC75
:100C58001BFB0A229CF904A010F910BC1BFB0A22FA
:100C68009EF900A010F90FBC1BFB0A229EF901A0F7
:100C780010F90EBC1BFB0A229EF902A010F90DBC4C
:100C88001BFB0A229EF903A010F90CBC1BFB0A22CD
:100C980010F90BBC9EF904A01BFB0A2210F90ABC30
:100CA80097F900A01BFB0A2297F901A010F909BCCB
:100CB8001BFB0A2297F902A010F908BC1BFB0A22A9
:100CC80097F903A010F907BC1BFB0A2297F904A0A7
:100CD80010F906BC1BFB0A2296F900A010F905BC06
:100CE8001BFB0A2296F901A010F904BC1BFB0A227F
:100CF80096F902A010F903BC1BFB0A2296F903A07F
:100D080010F902BC1BFB0A2296F904A010F901BCD9
:100D18001BFB0A220192A044A444A644274426446B
:100D28005CE701981C9A8026424393F9000092FBE5
:100D3800F6F21D9E06FB00224FF4806092FBF0F253
:100D48006FF07E008242B8BF024610980F9E28447A
:100D58007F2A3044A8BF7F2282700A9A0135AA42AE
:100D6800BFF428AF039ADDF8189001320392079A6E
:100D780002920398099A8242BFF40EAF049A05982A
:100D880022440492009A024401330092F6E613B01A
:100D9800BDE8F08F2DE9F04F8DB01746DDF86CC037
:100DA8000990BCF1030F0A91189CDDF864E01A9DC4
:100DB8001D9E56D0BCF1050F61D0BCF1010F5BD16F
:100DC8000EFB04F2991907920697C7F1000C0891D7
:100DD8004FF0000B08998B424ED000208046099FA7
:100DE8000BEB0001791800260B910A99DDF8189091
:100DF80087190F4400210CEB090A554508D919F940
:100E0800012B97F900A012FB0A11079A1744F2E781
:100E1800169A93F900705143802291FBF2F1179AC8
:100E280002FB07174FF4806297FBF2F76FF07E0220
:100E38009742B8BF17467F2F0B9AA8BF7F279755B1
:100E48000136B442D1D208F10108C6452044C6D2C1
:100E5800079A9344069A2A4401330692ACEB050C90
:100E6800B8E70294179C0194169C05960495CDF852
:100E78000CE00094FFF7C8FD0DB0BDE8F08F0294B8
:100E8800179C0194169C05960495CDF80CE00094E7
:100E9800FFF757FEF0E7000010B5034B0360044668
:100EA80000F018FA204610BDD03D000810B50446E1
:100EB800FFF7F2FF2046382100F08EFA204610BDD9
:100EC80070B5154600F11C0204460E4607CA88B0E4
:100ED80005AB83E80700221D07CA02AB83E80700B9
:100EE800636B0193236B00932946E36AA26A304639
:100EF800FFF750FF6368A1685943636A03FB016108
:100F08002B46A26860685043E2684243581B8242FD
:100F180004D913F9012B01F8012BF2E708B070BDD1
:100F280030B585B0044601AD85E80E0000F0DCF967
:100F380023460E4A43F81C2B95E8070083E8070070
:100F480008AA07CA231D83E807000BAA07CA04F1E9
:100F5800100383E807000E9BA3620F9BE362109BBC
:100F68002363119B6363204605B030BDD03D000864
:100F780010B5034B0360044600F0ACF9204610BDE1
:100F8800E43D000810B50446FFF7F2FF204628218B
:100F980000F022FA204610BD82B02DE9F04F87B04C
:100FA8004FEA420E009110A981E80C00DDF844C018
:100FB800129B01934FEA4C030EFB03F302930025A7
:100FC8000CFB02F303932F46019B9F4239D08046C6
:100FD8002E464FF0000AE2452DD00099009B0EEBFB
:100FE800060949449C1905910023934204F102041F
:100FF8001BD014F902BC14F9011C8B45B8BF8B46F1
:10100800A11B49442BEAEB7B11F9011C5945B8BFD8
:1010180059460491059911F913B004995945B8BF77
:10102800594608F803100133DFE70AF1010A0EEB0D
:1010380009069044CFE7029B1D44039B01371844DF
:10104800C2E707B0BDE8F04F02B0704707B50346E6
:10105800084611469A69009210330CCBFFF79CFFA3
:1010680003B05DF804FB000030B585B0054601AC5F
:1010780084E80E0000F038F92B460A4A43F81C2B86
:1010880094E8070083E8070008AA07CA2B1D83E82D
:1010980007000BAA07CA05F1100383E807002846D2
:1010A80005B030BDE43D0008D0F88C30D0F8882079
:1010B80030B55A43D0F890305A430023934205D0B4
:1010C800D0F8A840CD56E5540133F7E730BD00000D
:1010D800074B10B504460360D0F8A00008B100F033
:1010E80085F9D4F8A40008B100F080F9204610BDB5
:1010F800F83D000810B50446FFF7EAFF2046B02186
:1011080000F06AF9204610BD0E4B03600023C0F8BA
:101118008830C0F88C30C0F89030C0F89430C0F8EF
:101128009830C0F89C3000F1080200F1880142F8BC
:10113800043B8A42FBD14360C0F8A030C0F8A43019
:10114800704700BFF83D0008F8B50025044600F1D7
:1011580008062F4663689D421FD200233068426903
:101168000169514382694A43934204D2D4F8AC20BE
:10117800D7540133F2E70368D4F8A8209B68D4F861
:10118800AC109847D4F8A830D4F8AC20C4F8A820FC
:10119800C4F8AC3001350436DCE7D4F8A830D4F80C
:1011A800AC20C4F8A820C4F8AC30F8BD30B5D0F8ED
:1011B8009820D0F89430D0F8AC405343D0F89C2015
:1011C80094F900105A4300231846934206D0E55676
:1011D800A942BCBF184629460133F6E730BD70B5B1
:1011E8004468023400F1080500EB84040020A5429D
:1011F80012D055F8043B9A6859681E695143DA6859
:101208004A4359699B6971434B439A4238BF1A460E
:10121800904238BF1046EAE770BDD0F8A03070B5EC
:10122800054603BBD0F8A440ECB9FFF7D8FF064643
:1012380000F0D4F8C5F8A000304600F0CFF8D5F893
:10124800A030C5F8A830C5F8A400C5F8AC002346FE
:1012580022469E4207D0D5F8A010CA54D5F8A4104B
:10126800CA540133F5E770BDF0B5002305460C46B6
:101278001646032E05F1040504F1040419D915F9DD
:10128800047C14F904EC17FB0E3314F903EC15F97C
:10129800037C17FB0E3715F9023C14F902EC13FB1B
:1012A8000E7715F901EC14F9013C043E1EFB03739B
:1012B800DFE702F0030422F0030210440A443CB1C1
:1012C80010F9015B12F9011B013C15FB0133F6E72C
:1012D8001846F0BD7047704710B52821044600F045
:1012E8007BF8204610BD0000064A026000224260DA
:1012F8008260C260026142618261C26102624262CE
:10130800704700BF103E000810B5034B0360044649
:10131800FFF7E0FF204610BD243E000810B5044644
:10132800FFF7F2FF2046382100F056F8204610BD9E
:1013380070B5164600F11C0204460D4607CA88B06F
:1013480005AB83E80700221D07CA02AB83E8070044
:10135800636B0193236B0093A26AE36A31462846C4
:10136800FFF718FD08B070BD30B585B0044601AD73
:1013780085E80E00FFF7B8FF23460E4A43F81C2BFA
:1013880095E8070083E8070008AA07CA231D83E831
:1013980007000BAA07CA04F1100383E807000E9B95
:1013A800A3620F9BE362109B2363119B6363204638
:1013B80005B030BD243E0008014B02481860704754
:1013C80000000020B8030020024A13681844106087
:1013D800184670470000002070470000024A136852
:1013E800184410601846704700000020704700201D
:1013F8007047704710B52C210446FFF7EDFF2046D3
:1014080010BD07EE901A07EE102A37EE877A0021F2
:10141800F1EE677A0362009B41608160C1600161FF
:101428004161816280ED067AC0ED077A43627047B8
:1014380037B5044D0560069D0095FFF7E2FF03B040
:1014480030BD00BF383E0008D0ED036AD0ED017A08
:1014580090ED046AD0ED074AC0ED046A07EE102A41
:1014680076EEA66A90ED065AC0ED027A05EE901A5D
:1014780067EEA47A37EE667A45EE857A4160C260F7
:1014880037EE067AD0ED086A80ED056A47EE667A8F
:1014980090ED0A7A77EE877A90ED097AC0ED0A7AAC
:1014A800F4EEC77AF1EE10FAC8BF80ED0A7AD0EDF3
:1014B8000A7AB1EE477AF4EEC77AF1EE10FA48BF2D
:1014C80080ED0A7A806A7047002343608360C160B8
:1014D800016141618362704700B50B48ADF5057D38
:1014E80001F0AEFC094800F07DFA6846FEF7DCFF23
:1014F8006846FFF7DFF86846FFF732F900200DF578
:10150800057D5DF804FB00BF9C0100200C02002053
:10151800704710B51C210446FFF75EFF204610BD3A
:10152800084B0360084B436000F1100200F1080308
:10153800012103F8011B9342FBD10023036143619E
:1015480083617047483E0008543D000830B50B1DC4
:1015580000F108040C3113F8015B04F8015B8B42BD
:10156800F9D1002302614361836130BD0F4B5B7C7D
:1015780010B504460BB9002010BD0D4800F08CFFD3
:101588006369C01A00282369B8BF40428342F2D277
:10159800074800F081FFA3696061E218062B98BF35
:1015A8000133107A98BFA36110BD00BF5801002015
:1015B800A401002010B5034B0360044601F0B2F803
:1015C800204610BD583E000810B50446FFF7F2FF4C
:1015D80020460421FFF700FF204610BD10B5044641
:1015E80001F0A8F8014B2360204610BD583E0008C2
:1015F80038B505464C1E14F8011F19B1284601F0EC
:10160800F5F8F8E738BDFFF7F3BF30B585B000232C
:101618000A228DF80F301546B1FBF5F405FB1413BB
:1016280004A91144303301F80C3C531EDBB22146A7
:101638002CB901AB9918FFF7DBFF05B030BD1A468E
:10164800EAE7704710B518210446FFF7C5FE2046A3
:1016580010BD00004D494E4B03604B6943F4FC0339
:1016680030B54B614B4B43609A6822F440729A60E4
:101678009A6842F440729A609A8822F01002120422
:10168800120C9A809A8892B29A801A6822F4407250
:101698001A601A6842F480721A604A6942F4FC02BD
:1016A8004A619A68836022F440629A609A6842F4B8
:1016B80040629A609A8822F020021204120C9A80E2
:1016C8009A8892B29A801A6822F440621A601A685C
:1016D80042F480621A604A6942F4FC024A614FF09F
:1016E8009042C260956825F040459560956845F040
:1016F800404595609588C5F30E0595809588ADB2EF
:101708009580156825F040451560156845F08045B9
:1017180015604A6942F4FC024A619A68036122F042
:1017280040629A609A6842F040629A609A8822F40D
:1017380000521204120C9A809A8892B29A801A68FF
:1017480022F040621A601A6842F080621A604A69A0
:1017580042F4FC024A6143619A6822F040529A605E
:101768009A6842F040529A609A8822F480421204A1
:10177800120C9A809A8892B29A801A6822F0405283
:101788001A601A6842F080521A6030BD0010024098
:10179800683E0008000400480029C26814DA138D66
:1017A8006FEA43436FEA53439BB213854942FF29CB
:1017B8000B46A8BFFF2341F2BE215943FF23B1FBCB
:1017C800F3F1044B99637047936943F400439361C1
:1017D800EDE700BF002C014082680029ABBF138DE4
:1017E80093699BB243F02003B5BF494243F02003FD
:1017F80093611385FF290B46A8BFFF2341F2BE2141
:101808005943FF23B1FBF3F1014B5963704700BF04
:10181800002C01400269936823F040639360936849
:1018280043F040639360136823F0406313601368C8
:1018380043F0006313604369996821F0405199604F
:10184800996841F040519960196821F04051196038
:10185800196841F000511960516A21F47001516210
:10186800516A41F4C00151625A6A22F070625A62A8
:101878005A6A42F0C0625A62104A936943F400639C
:1018880093610F4B002241F2BF211A80D9620121D6
:101898001A851A8659615A639A634FF480725A609E
:1018A80047F270029A6177221A621A8892B20A4342
:1018B8001A805A6C42F400425A6470470010024081
:1018C800002C0140416842690B8D9BB243F0100324
:1018D8000B8581680B8D9BB243F020030B85C16893
:1018E8000B8D6FEA43436FEA53439BB20B85016943
:1018F8000B8D9BB243F400530B85138D9BB243F4BD
:1019080080431385FFF786BF704710B5182104463A
:10191800FFF762FD204610BD037B826833B10023C8
:101928000373936943F4004393617047012303737E
:10193800138D6FEA43436FEA53439BB21385704795
:101948001C4A1D4B0360536943F4FC0310B55361F3
:101958001A4B43609C6824F040749C609C6844F077
:1019680040749C601C6824F040741C601C681C60F7
:10197800DC6844F08074DC60546944F4FC0454610D
:101988009A68836022F040429A609A6842F0404226
:101998009A609A88C2F30E029A809A8892B29A80C4
:1019A8001A6822F040421A601A6842F080421A60AF
:1019B80010BD00BF00100240783E00080004004837
:1019C8004FF0FF3310B5436100230446037301460B
:1019D8004FF4FA72024801F047F8206110BD00BFC9
:1019E800B4030020436870B504461A8AD20401D5AE
:1019F80000BFFAE7012363616422217C0F480F4D81
:101A080001F05AF80D4801F063F800F5FA666368CA
:101A18001B8ADB040FD4094801F05AF8B042F6D902
:101A28006369012BF3D13222217C284601F044F866
:101A380002236361EBE7606970BD00BFB403002057
:101A4800704710B504210446FFF7C6FC204610BDB8
:101A5800014B0360704700BFC03E00080B0F064BE8
:101A6800DA6A14BF22F4785222F4F872DA62DA6A77
:101A78001143D962704700BF0010024030B5042BF3
:101A88009DF80C401CDC03EB4303086B5B001F252F
:101A98009D4020EA050002FA03F303430B63092A79
:101AA80039DD0A3A8B698B6902EB420207209040C4
:101AB80023EA00038B618B6994401C438C6130BD21
:101AC800092B0CDC0620053B43434D6B1F20984037
:101AD80025EA000002FA03F303434B63DFE70E2B0A
:101AE8004FF006000BDC0A3B43438D6B1F209840E8
:101AF80025EA000002FA03F303438B63CFE70F3BA9
:101B08004343CD6B1F20984025EA000002FA03F3F7
:101B18000343CB63C3E7013A4B694B6902EB4202CB
:101B28003820904023EA00034B614B69033204FAE2
:101B380002F21A434A6130BD13B5013909299DBF24
:101B48000D4B53F821400D4B4FF0A04498BF5A5C01
:101B58004FF00103009388BF01222146FFF78EFF53
:101B6800A36843F00403A36023685B0701D400BFA4
:101B7800FAE7206C02B010BD903E0008843E0008D1
:101B88002DE9F743254C264F264E4FF4887105461C
:101B9800FFF764FF6369244943F080536361FFF7EB
:101BA8005DFF63694FF0A04843F0005363614FF055
:101BB800020900240123C8F80C401A46FC6041467B
:101BC800F460CDF80090FFF759FF01231A46394613
:101BD8002846CDF80090FFF751FF0123CDF800907B
:101BE8000C2231462846FFF749FFD8F8083043F061
:101BF8000103C8F80830BB6843F00103BB60B36851
:101C080043F00103B360214628460134FFF794FFEF
:101C18000B2CF8D103B0BDE8F08300BF00100240E0
:101C28000001005000040050002200107047704767
:101C380010B524210446FFF7CFFB204610BD10B590
:101C4800F8210446FFF7C8FB204610BD4C4A4D4B0F
:101C58000360536943F4FC0310B553614FF090439C
:101C680043609C6824F440349C609C6844F440348D
:101C78009C609C8824F480742404240C9C809C8898
:101C8800A4B29C801C6824F440341C601C6844F492
:101C980080341C603C4C046144638465C4675469A7
:101CA80044F4FC0454611C68C0F8A03024F0030418
:101CB8001C601C6844F003041C60546944F4FC0470
:101CC80054611C68C0F8A43024F00C041C601C6823
:101CD80044F00C041C60546944F4FC0454611C680E
:101CE800C0F8A83024F030041C601C6844F03004AC
:101CF8001C60546944F4FC0454611C68C0F8AC309E
:101D080024F0C0041C601C6844F0C0041C605469C2
:101D180044F4FC0454611C68C0F8B03024F44074E6
:101D28001C601C6844F440741C60546944F4FC044E
:101D380054611C68C0F8B43024F440641C601C680A
:101D480044F440641C60546944F4FC045461C0F8D1
:101D5800B8301C6824F440541C601C6844F4405497
:101D68001C60546944F4FC0454611A68C0F8BC301F
:101D780022F440421A601A6842F440421A6010BDC8
:101D880000100240E03E0008D03E00084268138D73
:101D98009BB243F480732DE9F04164210446138516
:101DA8003648DFF8DC8000F09FFE04F1380637463D
:101DB800002529464046FFF7BFFE0135082D47F8A4
:101DC800040BF6D162682D4893692D4F43F4807354
:101DD8009361642100F088FE002529463846FFF704
:101DE800ABFE56F8043B0135C01A082D3062F4D119
:101DF80004F1800304F1A002002543F8045B9A4231
:101E0800FBD16FF0FF0363616FF0BF03A3616FF055
:101E18007F03E3616FF03F03236240236362802303
:101E2800A362C023E3624FF4807323634FF4C87343
:101E3800A360012384F8C05084F8C130C4F8D0509E
:101E4800C4F8D450C4F8D850C4F8C450C4F8C85022
:101E5800C4F8CC5004F1C0070FCF04F1DC060FC65C
:101E680097E80700002386E8070025730422214627
:101E7800024800F0F9FD0020BDE8F081B40300201D
:101E880054010020037B72B60BB10022027362B6C4
:101E9800184670474FF48070704700EB810030B5EA
:101EA8004269D0F8805002FB05F479B1C36F02692A
:101EB800062902FB03422B440BD8D0F88410806912
:101EC8000B4400FB012292FBF3F030BD62006B0073
:101ED800F3E722442B44F6E7826800F180030020F0
:101EE80053F8041B8A4204DB01300828F8D14FF06C
:101EF800FF30704700F1800270B5A03050F8985C50
:101F08001346002153F8044BAC42C8BF0121984244
:101F1800F8D111B3002452F8041B8D42B8BF013424
:101F28009A42F8D10E4901224FF0FF3000250B6884
:101F380051F8046FC3EB46034E689B1B002BB8BFD8
:101F48005B42AB4201DD10461D460132072AEED145
:101F5800062C98BF4FF0FF3070BD4FF0FF3070BDBA
:101F6800A40200202DE9F8430025DFF804813F4F43
:101F7800044600F13806A94629464046FFF7DCFD2D
:101F880056F8043BC01A7843336A90FBF3F00135E6
:101F980010F57A7054BF7064C6F84490082DEBD1E0
:101FA800002304F18001A268C4F8EC3004F1A00514
:101FB8000B4653F8040B9042C2BFD4F8EC00013032
:101FC800C4F8EC00AB42F4D100230720C4F8F03089
:101FD800C4F8F40051F8040B824230DAC4F8F03047
:101FE80004F19C01072351F8040982422BDAC4F852
:101FF800F430002384F8DC302046FFF77BFF0546E9
:102008002046FFF769FF6A1C01461FD0032304EB33
:10201800850584F8DD306B69C4F8E830012384F85D
:10202800DC3004F1DC060FCE04F1C0050FC596E8DC
:102038000700012385E807002373BDE8F88301330F
:10204800082BC7D1CCE7013BCDD1D2E7431CE8D060
:10205800012584F8DD502046FFF71FFF84F8DC5087
:10206800C4F8E000C4F8E400DBE700BF18FCFFFF99
:1020780054010020704710B544210446FFF7ACF91D
:10208800204610BD014B0360704700BFF43E0008B6
:102098002DE9F0410446006C03689B688846984720
:1020A800206C0368D4215B699847206C0368192168
:1020B8005B699847206C03689B689847206C0368A5
:1020C800D5215B699847206C036801219B69984773
:1020D800000207B2206C036801219B6998470743F7
:1020E800206C036801219B699847000206B2206CA6
:1020F800036801219B6998470643206C0368012106
:102108009B699847000205B2206C036800219B690F
:1021180098470543206C0368DB683FB236B22DB29E
:102128009847B8F1000F08D0A36A3B44A362E36A5A
:102138003344E362236B2B442363A36AE169226B74
:10214800E06AFB1AAD1A2361192293FBF2F301EB43
:102158004303E361236AA561301A606190FBF2F0E2
:1021680003EB40002062636A206C95FBF2F503EBF9
:102178004505036865629B689847206C0368D4210D
:102188005B699847206C036829215B699847206C34
:1021980003689B689847206C0368D5215B6998475A
:1021A800206C036801219B699847000207B2206CE4
:1021B800036801219B6998470743206C0368012144
:1021C8009B699847000206B2206C036801219B694D
:1021D80098470643206C036801219B6998470002D1
:1021E80005B2206C036800219B6998470543206C61
:1021F8000368DB6898473FB236B22DB201236760A7
:10220800A660E56084F83C30BDE8F0810021FFF766
:102218003FBF406B003018BF0120704711F1FF31FC
:1022280001D300BFFAE7704738B5044610220846C4
:102238002164A823D421FEF7D5FA00232361636122
:10224800A361A362E3622363E3612362636242F2F0
:1022580010712046FFF7E2FF0F226363D421206C40
:10226800FEF7DEFA682804BF012363631022A8235F
:10227800D421206CFEF7B6FA38231E22D421206C14
:10228800FEF7B0FA00232E22D421206CFEF7AAFA1A
:1022980000231222D421206CFEF7A4FA6023202206
:1022A800D421206CFEF79EFA38231F22D421206CFB
:1022B800FEF798FA42F210712046FFF7AFFF0021AF
:1022C8002046FFF7E5FE0023A3634FF47A7501214A
:1022D8002046FFF7DDFE64212046FFF79FFF013D02
:1022E800F5D14FF47A72A36AE56193FBF2F32562A4
:1022F800A3626562E36A656093FBF2F3A560E3623B
:10230800E560236B054893FBF2F3214623630A2219
:102318002B4600F0A9FB84F83C5038BDB4030020DC
:10232800704710B514210446FFF756F8204610BD33
:10233800304A314B0360536943F4FC0310B55361D1
:102348002E4B43609C6824F440549C609C6844F481
:1023580040549C601C6824F440541C601C681C6039
:10236800DC6844F48054DC60546944F4FC0454612F
:102378009C68836024F440449C609C6844F4404416
:102388009C601C6824F440441C601C681C60DC6869
:1023980044F48044DC60546944F4FC0454619C684F
:1023A800C36024F040749C609C6844F040749C6056
:1023B8001C6824F040741C601C681C60DC6844F0D5
:1023C8008074DC60546944F4FC0454619A680361C5
:1023D80022F440029A609A6842F440029A601A68AD
:1023E80022F440021A601A681A60DA6842F480021D
:1023F800DA6010BD00100240083F000800080048DD
:10240800164B174A10B500241C60164B1C609369C4
:1024180043F00103936106210220FDF7EFFF0C2131
:102428000220FDF7EBFF10210620FDF7FCFF10212D
:102438000C20FDF7F8FF224621461720FDF760FF24
:10244800224621462820FDF75BFF0620FDF7CAFF3C
:102458000C20BDE81040FDF7C5BF00BF08000020F4
:10246800001002400C00002072B6044B186862B6D7
:1024780058234343B42093FBF0F070470800002032
:1024880072B6044B186862B658234343B42093FBD2
:10249800F0F070470C00002008B50146FFF7E4FF94
:1024A80002460846FFF7ECFF0223104490FBF3F0C6
:1024B80008BD0000034B186858234343B42093FB1E
:1024C800F0F0704708000020034B18685823434376
:1024D800B42093FBF0F070470C000020094B1B8AD6
:1024E80013F0C0030BD0C02B0CBF01234FF0FF33F8
:1024F800054A116806200B441360FDF773BF0123DA
:10250800F6E700BF00080048080000200A4B1B8AB5
:1025180013F4C0530CD0B3F5C05F0CBF4FF0FF33BA
:102528000123064A11680C200B441360FDF75ABFBB
:102538004FF0FF33F5E700BF000800480C0000200B
:1025480038B5C368364D2DED048B4360036983604D
:1025580004462846FFF7AEFFE0602846FFF7B4FFC1
:102568006268E3689FED2F5AD4ED056ADFED2E5AB5
:102578009FED2E6A20619B1A07EE103AB8EEC77AD3
:10258800A3689FED2B9A27EE057A66EEA56A47EEBB
:10259800066AC31A04F13C0007EE903AF8EEE77AAF
:1025A800C4ED056AB0EE667AD4ED066A67EE857A00
:1025B80066EEA56A47EE866AD4ED077AC4ED066A28
:1025C80077EEC77A17EE102A17EE901AFEF73CFF3F
:1025D800A269D4ED087A07EE102A77EEC77A08EEDA
:1025E800900A17EE901A04F16800FEF72DFF68EEC6
:1025F800898A2434FDEEE87A08EE100A17EE901A5C
:102608002046FFF7C9F828EE098A2046FDEEC87A69
:10261800BDEC048B17EE901ABDE83840FFF7DCB824
:10262800A4010020CDCCCC3D6666663F0000003E8C
:1026380000007F4373B50E4B002504464FF07E56CD
:1026480040F8243BFFF706F82B462A462946009611
:1026580004F13C00FEF7ECFE00962B462A4629467C
:1026680004F16800FEF7E4FE204602B070BD00BF2A
:10267800183F0008F7B5154F154E04464FF07E5524
:102688002430FFF71FF900952B463A46314604F1EE
:102698003C00FEF7B6FE00952B463A46314604F15B
:1026A8006800FEF7AEFE002500236361A361E361C5
:1026B80023626560A560E56025612B4604222146FA
:1026C800044800F0D1F9284603B0F0BDEC51B83DFC
:1026D800CDCC4C3FB4030020C16170470162704704
:1026E800406970478069704710B5084B044640F848
:1026F800683BFEF77EFE04F13C00FEF77AFE04F12B
:102708002400FEF79EFF204610BD00BF183F0008BA
:1027180010B50446FFF7E8FF20469421FEF75CFE5B
:10272800204610BD704710B504210446FEF754FE3C
:10273800204610BD014B0360704700BF2C3F0008C6
:10274800274A536943F4FC0353614FF09043986858
:1027580020F440209860986840F4402098601868F9
:1027680020F440201860186840F400201860506970
:1027780040F4FC005061986820F440109860986814
:1027880040F440109860186820F4401018601868E9
:1027980040F400101860586A20F0F0005862586A37
:1027A80040F070005862586A20F470605862586AA5
:1027B80040F4E0605862936943F480439361094BA5
:1027C80000220C205A6018609A60074AB2FBF1F1A7
:1027D80089B299811A6842F001021A60704700BFF5
:1027E800001002400038014000A24A04044BDA6994
:1027F800120601D400BFFAE789B21985704700BFF5
:1028080000380140704710B544210446FEF7E4FD46
:10281800204610BD2849294B03604B6943F4FC034B
:1028280030B54B61264B83619A6822F040629A600A
:102838009A6842F040629A609A8822F40052120420
:10284800120C9A809A8892B29A801A6822F0406292
:102858001A601A6842F080621A604A6942F4FC02FF
:102868004A61184AC261156825F0030515601568A4
:1028780045F0030515604D6945F4FC054D61156883
:10288800026225F00C051560156845F00C05156009
:102898004A6942F4FC024A611A68436222F0030260
:1028A8001A601A6842F003021A601A8D92B242F452
:1028B80000521A8530BD00BF001002403C3F00089E
:1028C8000008004800040048826938B5138D9BB29F
:1028D800002543F400538562044613854FF4807342
:1028E800C562056345638563C563056443608360AA
:1028F800C3600574457401462B461422024800F053
:10290800B3F82575284638BDB403002000EB8202D1
:10291800936BD26A9B1A23EAE3731022C3F58053A0
:1029280093FBF2F30A6802EB42021344042293FB7E
:10293800F2F30B607047000038B5856A044615B19C
:10294800012D17D038BD08212648FFF7F5F80921D1
:10295800A0632448FFF7F0F80A21E0632148FFF755
:10296800EBF8A2692064936943F40053936101234F
:10297800A36238BD08211B48FFF7DEF80921E06291
:102988001848FFF7D9F80A2120631648FFF7D4F84A
:10299800A2696063138D9BB243F40053138504F15D
:1029A800080100222046FFF7B1FF2A46211D2046D4
:1029B800FFF7ACFF022204F10C012046FFF7A6FF47
:1029C800A268BD2A4FF0000304DCB32A257403DD96
:1029D800637402E02374FBE765740023A362012398
:1029E800237538BD54010020037D72B60BB1002257
:1029F800027562B61846704770470000F7B50022A6
:102A0800154D142713464FF47A7607FB02F429195B
:102A18000132102A2B514B608E60CB600B744B74C3
:102A2800F3D10E4A13600E4A0360D36943F00103E1
:102A3800D361002264230093114640F2CF234FF064
:102A48008040FDF77FFC012200211C20FDF758FC87
:102A580062B603B0F0BD00BF1400002010000020D3
:102A68000010024070470000F0B572B6114D002406
:102A78004FF0FF304FF0140E2F460EFB04F605EB17
:102A8800060CAE5926B9DCF80460002E08BF2046B3
:102A98000134102CF1D1441C0AD0C4B2142565436A
:102AA8007C1900267E516160A260E260267463741E
:102AB80062B6F0BD140000200448142303FB010192
:102AC8000023CA608A600B74704700BF140000209E
:102AD80082B072B6034B1B68019362B6019802B0CC
:102AE800704700BF1000002007B50246FFF7F0FF4F
:102AF800014401911046FFF7EBFF019B984201D278
:102B080000BFF7E703B05DF804FB0000F8B54FF02D
:102B180080431A69D20714D5194F4FF6FE721A610D
:102B2800002414263D4606FB0473DA6852B1DA68BD
:102B3800013ADA600134102CF5D1124A13680133D6
:102B48001360F8BD9A68DA601A7CFF2A1FBF1A7CE6
:102B58000132D2B21A7406FB04F3EA18527C002A36
:102B6800E8D1EA580AB1EB58984706FB04535A686B
:102B7800002ADFD0586803689B689847DAE700BFE7
:102B88001400002010000020704710B508210446EA
:102B9800FEF722FC204610BD10B5034B0360044627
:102BA800FDF712FE204610BD503F000810B5044640
:102BB800FFF7F2FF20461021FEF70EFC204610BD5D
:102BC80010B5044621B10349FEF71DFD204610BD8E
:102BD8000149F9E7974000089C4000081049114B4B
:102BE80003604B6943F4FC034B610F4B43609A68E5
:102BF80022F040429A609A6842F040429A609A886D
:102C0800C2F30E029A809A8892B29A801A6822F0C9
:102C180040421A601A6842F080421A60704700BF4A
:102C280000100240AC40000800040048026821B1CE
:102C3800936943F4004393617047138D6FEA4343EC
:102C48006FEA53439BB213857047D1B903689A68FA
:102C580022F440429A609A6842F440429A609A8804
:102C680022F080021204120C9A809A8892B29A80FA
:102C78001A6822F440421A601A6842F480421A60C4
:102C8800704701290ED103689A6822F440429A607D
:102C98009A6842F440429A601A6822F440421A60E4
:102CA8001A68ECE7022913D103689A6822F44042B3
:102CB8009A609A6842F440429A601A6822F4404244
:102CC8001A601A681A60DA6842F48042DA6070475B
:102CD800052910D103689A6822F440429A609A68DC
:102CE80042F440429A601A6822F440421A601A6814
:102CF80042F40042C3E70429C2D103681A6822F4E7
:102D080040421A601A6842F44042B8E7054A08B5DA
:102D1800536943F4FC035361034B03600121FFF73C
:102D280094FF08BD0010024000040048D1B90368B0
:102D38009A6822F440529A609A6842F440529A6023
:102D48009A8822F040021204120C9A809A8892B251
:102D58009A801A6822F440521A601A6842F4805223
:102D68001A60704701290ED103689A6822F440520C
:102D78009A609A6842F440529A601A6822F4405263
:102D88001A601A68ECE7022913D103689A6822F4DA
:102D980040529A609A6842F440529A601A6822F443
:102DA80040521A601A681A60DA6842F48052DA608F
:102DB8007047052910D103689A6822F440529A6036
:102DC8009A6842F440529A601A6822F440521A6093
:102DD8001A6842F40052C3E70429C2D103681A688A
:102DE80022F440521A601A6842F44052B8E70000D0
:102DF800054A08B5536943F4FC035361034B036068
:102E08000121FFF793FF08BD0010024000040048AD
:102E18000A2310B5436004460830FFF777FF04F132
:102E28000C00FFF7E5FFA268138D9BB243F0800307
:102E38001385E268138D9BB243F04003138510BDE0
:102E48002DE9F041454C464FDFF87881051D2846AD
:102E58000121FFF7EBFE20464FF4E131FFF770FC4C
:102E680020464049FEF7CFFB3F492046FEF7CBFB03
:102E7800FEF7A2FA3D4906462046FEF7C4FB314656
:102E88003B4E2046FEF7C1FB31462046FEF7BBFB12
:102E98003846FFF7B3FD20463649FEF7B4FB204617
:102EA8003549FEF7B0FB3846C821FFF71DFE334908
:102EB800334F2046FEF7A7FB4046FFF7A9FF204601
:102EC8003049FEF7A0FB41463846FFF7ADF92E49D9
:102ED8002046FEF798FB3846FFF79BF90146204647
:102EE800FFF76EFE3146FEF78EFB2848FEF748FED8
:102EF80027492046FEF787FB2648FEF747FF264965
:102F08002046FEF780FB2548FFF7DEFC24492046D3
:102F1800FEF779FB2348FFF773FA23492046FEF7AB
:102F280072FB2248FFF7A6FB20462149FEF76BFB00
:102F380000212846FFF77AFE1E48FEF741FD20468D
:102F48001D49FEF760FB20461C49FEF75CFB204646
:102F58001B49FEF758FB0020BDE8F081B0030020B4
:102F6800B4030020813F00088D3F0008A13F0008FE
:102F78008B3F0008BF3F0008D03F0008E73F00082C
:102F8800C8010020DE3F0008ED3F00085401002082
:102F980001400008240200201040000858010020C9
:102FA80027400008A4010020424000081C0300201C
:102FB8005C4000080C020020764000088A3F0008A8
:102FC80085400008B801002070B5044600F10C06E1
:102FD80004F1080530460021FFF7A8FE2846002125
:102FE800FFF733FE30460121FFF7A0FE28460021F7
:102FF800FFF72BFE30460121FFF798FE28460121F6
:10300800FFF723FE2046BDE87040FDF730BC70B5E1
:10301800044600F10C0604F1080530460121FFF7CB
:1030280085FE28460121FFF710FE30460121FFF7F3
:103038007DFE28460021FFF708FE30460021FFF7F5
:1030480075FE28460121FFF700FE2046BDE87040C6
:10305800FDF70DBC2DE9F843044600F10807384692
:10306800894604F10C060121FFF7EFFD00213046E7
:10307800FFF75CFE2046FDF7FAFB4FF00908002534
:10308800B8F1010817D001213046FFF74FFE20465E
:10309800FDF7EDFBA3681B8A6D001B063046EDB2F9
:1030A8004FF0000148BF45F00105FFF73FFE2046FD
:1030B800FDF7DDFBE4E7B9F1000F1ED041463846C5
:1030C800FFF7C3FD2046FDF7D2FB01213046FFF78D
:1030D8002DFE2046FDF7CBFB00213046FFF726FEEC
:1030E8002046FDF7C4FB01213846FFF7AEFD204618
:1030F800FDF7BDFB2846BDE8F8830121DFE72DE990
:10310800F04104460D46092700F10C0600F10808B5
:10311800013F1AD000213046FFF708FE2046FDF790
:10312800A6FB2B064CBF012100214046FFF78DFD71
:103138002046FDF79CFB01213046FFF7F7FD6D00A7
:103148002046FDF794FBEDB2E2E739463046FFF73B
:10315800EDFD2046FDF78BFB01214046FFF775FD8D
:103168002046FDF784FB01213046FFF7DFFD2046AE
:10317800FDF77DFBA3681D8A39463046FFF7D6FD6B
:10318800ADB22046FDF773FB85F08000C0F3C01098
:10319800BDE8F08138B5384D384C2846FFF71EFD9C
:1031A8002846374D37492246FEF721F92846FEF7CB
:1031B80015FA2846344D35492246FEF718F92846AF
:1031C800FFF71AFC2846324D32492246FEF70FF91E
:1031D8002846FDF701FB28462F4B40F8083BFFF730
:1031E80095FD05F10C00FFF703FE28462B4D2C49F1
:1031F8002246FEF7FCF82846FEF744FF2846294DEC
:1032080029492246FEF7F3F82846FEF721FC28460E
:10321800264D27492246FEF7EAF82846FEF716FD0E
:103228002846244D24492246FEF7E1F82846FFF7B0
:10323800F1FA2846214D22492246FEF7D8F82846B9
:10324800FFF776F828461F4D1F492246FEF7CFF8AC
:103258002846FFF7EFF928461C4D1D492246FEF780
:10326800C6F82846FEF76CFB224628461949BDE8F1
:103278003840FEF7BCB800BF9C01002004000020C5
:10328800B0030020912B0008B4030020BD150008EE
:10329800B80100206D2A0008503F0008C80100202E
:1032A800A12B0008540100207D20000824020020E2
:1032B800491A000858010020351C0008A401002004
:1032C8000D2800081C030020292300080C020020F8
:1032D800F12600081119000838B50446074B44F8D0
:1032E800083B0546204600F0DFF92046044900F077
:1032F80003FA002385F85C30284638BDBC40000836
:103308003333333F41607047012380F85C307047A6
:103318002DE9F84381461648DFF85880144E0D46CB
:10332800FFF7D6FB054409F108070521384600F0E8
:1033380013FA0446A0B94046FEF7A4FD0028F4D0CD
:103348003046FFF7C5FB854202D298F8C0305BB91A
:10335800384600F025FA04213046FFF7C5FBE2E7BE
:103368004FF0FF30BDE8F8832046BDE8F88300BF82
:10337800B40300202402002073B5D0ED017A90F840
:103388005C300093F5EEC07AF1EE10FA054600F1D4
:1033980008044BBFAA2100210022AA2220460026A9
:1033A800052300F025F985F85C6031462846FFF7CB
:1033B800AFFF00285DD0D5ED017A0096F5EEC07A12
:1033C800F1EE10FA4BBF32466FF0A9026FF0A90177
:1033D80031460523204600F00BF927492846FFF718
:1033E80097FF204600F038FAD5ED017AF5EEC07A5D
:1033F800F1EE10FA4FF0000158BF0A4600914CBF99
:10340800AA22AA212046052300F0F2F89621284690
:10341800FFF77EFF68B3D5ED017AF5EEC07AF1EEDD
:1034280010FA4FF0000154BF0A466FF0A90200914C
:103438004FF0050358BF6FF0A901204600F0D8F8F7
:103448000D492846FFF764FF204600F005FA55228B
:103458000023114600932046052300F0C9F8962161
:103468002846FFF755FF204602B0BDE8704000F03F
:10347800F3B902B070BD00BF40420F0010B5044B55
:10348800044640F8083B00F0A3F8204610BD00BFF2
:10349800BC40000810B50446FFF7F0FF2046602145
:1034A800FDF79AFF204610BD704710B5502104461D
:1034B800FDF792FF204610BD0346074A43F8042B48
:1034C80000F14401002203F8012B8B42FBD1034B8E
:1034D8008264C36442647047CC400008003665C407
:1034E80010B5031D00F14404002203F8012BA34288
:1034F800FBD1024B8264C364416410BD003665C4CD
:1035080070B50446C06C101A0028B8BF4042834208
:103518004FDCE26404F138020023A2F10800C51868
:1035280095F90460D5180133082B2E71F7D1844220
:103538000246F1D10D1D224B224A2431284650F86B
:10354800046BB242B8BF3246B342A8BF3346884282
:10355800F5D193422FDAD31A07EE903A9FED1A7AF3
:10356800F8EEE77AC7EE276A07EE902AF8EEE77AD0
:1035780007EEE67AF0EE477A231D1946B5EC017A94
:10358800B8EEC77AB0EE676A07EE266A8542BDEEE6
:10359800C67A17EE102A03F8012BEFD1606C036886
:1035A8009B689847606CFDF7CFFD606CFDF7FEFDEA
:1035B800A064002070BDDFED057AF0EE676ADBE7F6
:1035C80040420F00C0BDF0FF0000FE4200000000B6
:1035D8007047704710B510210446FDF7FDFE2046E0
:1035E80010BD10B554210446FDF7F6FE204610BD67
:1035F8002DE9F0412DED028B044625489DF82080E9
:103608000E4617461D46FEF72FFF3044A06020489F
:10361800FEF736FF002E3844E06025612ADDDFED35
:103628001D7A9FED1D8A002FD8BFB0EE678A1B4D0B
:103638001B4A84ED078A00232562A361E2622563A1
:10364800A36284ED0F8A2564A363E2642565A364FD
:10365800B8F1000F0AD0BE420FDA002F06DD11487C
:10366800FFF740F884ED0F8A2564A063BDEC028B58
:10367800BDE8F0819FED078AD9E7F7DD002EF5DD7B
:103688000848FFF72DF884ED078A2562A061EDE769
:10369800A40100206F12033C6F12833B0AD7233C1E
:1036A8006F12033B1C03002013B5104B104A036034
:1036B80000234261C361036283614262C3620363A0
:1036C80083624263C363036483634264C364002206
:1036D80003658364074B026143601146009205232A
:1036E8000446FFF785FF204602B010BDEC400008F5
:1036F800DC4000083333333F07B5002241600261E4
:10370800009205231146FFF773FF03B05DF804FB31
:1037180038B5846806480D46FEF7A6FE201A00282C
:10372800B8BF40428542D4BF0020012038BD00BF49
:10373800A401002038B5C46806480D46FEF7A0FE6F
:10374800201A0028B8BF40428542D4BF002001207B
:1037580038BD00BFA401002038B504460D46FFF768
:10376800D7FF28B129462046BDE83840FFF7E2BF19
:1037780038BDD0ED017A07EE101AF4EEC77AF1EEF3
:1037880010FA07D590ED027A77EE277AC0ED017A24
:1037980040687047FCDD90ED037A77EEC77AF5E76D
:1037A80038B585682DED028B04462848FEF75CFE87
:1037B800854225DD616804F11400FFF7DAFF94ED16
:1037C800068A2248E568FEF75BFE85422BDD6168C4
:1037D80004F13400FFF7CDFFD4ED0E7A1C4817EE44
:1037E800901AFEF77BFF18EE101A1948FEF774FFBF
:1037F800BDEC028B21692046BDE83840FFF7ACBF1D
:103808001248A568FEF730FE854209DA616804F1BE
:103818002400FFF7AEFF94ED0A8AB1EE488AD0E79C
:103828009FED0C8ACDE70948E568FEF729FE854239
:1038380009DA616804F14400FFF79BFFD4ED127ABE
:10384800F1EE677ACAE7DFED037AC7E7A401002043
:103858001C0300200000000038B52DED048B9FEDFF
:103868002A9A2A4D0446F0EE499A2846FEF738FF70
:1038780007EE900AF5EEC07AF1EE10FA48BFF1EEC5
:10388800677AF4EEC97AF1EE10FA20DD002104F12E
:103898004400FFF76EFFD4ED128A002104F12400E2
:1038A800FFF767FF94ED0A8AF1EE688A18EE901A1E
:1038B8002846B1EE488AFEF711FF18EE101A28467E
:1038C800FEF70AFF04211248FFF70EF9CDE7284654
:1038D800FEF708FF07EE900AF5EEC07AF1EE10FA4F
:1038E80048BFF1EE677AF4EEE97AF1EE10FACDDC32
:1038F80000210648FEF7F2FEBDEC048B00210348C8
:10390800BDE83840FEF7E8BE0AD7233C1C03002078
:10391800B4030020F8B504460B4B44F8083B0026D6
:10392800054637466B689E4209D254F8040B10B11D
:1039380003685B68984744F8047C0136F2E7284638
:10394800FDF7C6FB2846F8BD4044000810B50446FC
:10395800FFF7E0FF2046B021FDF73EFD204610BDF1
:103968002DE9F043804695B0FDF7CEFBBC4BC8F877
:1039780000300823C8F88830C8F88C300123C8F80C
:103988009030C8F89430C8F898300523C8F89C30AF
:10399800B44B93E80700B44B0BAC84E8070093E8FA
:1039A8000700B24B0EAD85E8070093E8070011AE9B
:1039B80086E807003820FDF707FD40F25F130993FA
:1039C8004FF41B730893AA4B0793AA4B069381469F
:1039D80096E8070003AF87E8070095E807008DE839
:1039E8000700484694E80E00FDF7BEFCA24BC8F855
:1039F800089093E80700A14B84E8070093E80700C4
:103A08009F4B85E8070093E8070086E807002C200D
:103A1800FDF7DAFC814696E8070087E8070095E895
:103A280007008DE80700484694E80E00FCF7C6FF3B
:103A3800944BC8F80C9093E80700934B84E8070070
:103A480093E80700914B85E8070093E8070086E8AC
:103A580007002820FDF7B8FC814696E8070087E8AC
:103A6800070095E807008DE80700484694E80E002F
:103A7800FDF7FAFA864BC8F8109093E80700854BD3
:103A880084E8070093E80700834B85E8070093E87C
:103A9800070086E807003820FDF796FC40F253132C
:103AA800099340F2D62308937C4B07937C4B0693EB
:103AB800814696E8070087E8070095E807008DE843
:103AC8000700484694E80E00FDF72AFA754BC8F837
:103AD800149093E80700744B84E8070093E8070004
:103AE800724B85E8070093E8070086E807002C205A
:103AF800FDF76AFC814696E8070087E8070095E825
:103B080007008DE80700484694E80E00FCF756FFCA
:103B1800674BC8F8189093E80700664B84E80700DD
:103B280093E80700644B85E8070093E8070086E8F8
:103B380007003820FDF748FC40F21513099340F2BE
:103B4800975308935D4B07935D4B0693814696E820
:103B5800070087E8070095E807008DE80700484652
:103B680094E80E00FDF7DCF9564BC8F81C9093E872
:103B78000700554B84E8070093E80700534B85E896
:103B8800070093E8070086E807002C20FDF71CFCD7
:103B9800814696E8070087E8070095E807008DE862
:103BA8000700484694E80E00FCF708FF484BC8F8A1
:103BB800209093E80700474B84E8070093E8070044
:103BC800454B85E8070093E8070086E807002820AA
:103BD800FDF7FAFB814696E8070087E8070095E8B5
:103BE80007008DE80700484694E80E00FDF73CFA08
:103BF8003A4BC8F8249093E80700394B84E807004B
:103C080093E80700374B85E8070093E8070086E844
:103C180007004020FDF7D8FB4FF4CB7309934FF40E
:103C280074730893304B0793304B0693814696E89C
:103C3800070087E8070095E807008DE80700484671
:103C480094E80E00FCF760FE09234046C8F8289067
:103C5800C8F80430FDF7E1FA404615B0BDE8F08336
:103C68004044000808440008CC430008D843000832
:103C7800F440000805410008D8430008D84300086C
:103C8800D843000814440008D8430008E443000857
:103C980008440008E4430008F0430008F84000081E
:103CA80029410008F0430008F0430008F0430008E9
:103CB80008440008F0430008FC430008FC400008E2
:103CC800B9410008FC430008FC430008FC43000815
:103CD80014440008FC43000820440008204400085D
:103CE800204400082C44000800410008D94200087C
:103CF80038B50446064B44F8043B05462046FFF712
:103D0800D3FC20460349FFF7F7FC284638BD00BF1F
:103D1800584400083333333F10B5044B044640F889
:103D2800043BFFF755FC204610BD00BF584400086F
:103D380010B50446FFF7F0FF20465821FDF74CFB6D
:103D4800204610BD00000000000000009304000899
:103D5800A30400080000000000000000910400080F
:103D68009504000800000000000000006907000832
:103D7800A90700080000000000000000D1070008A3
:103D8800D3070008BF070008C1070008C3070008D9
:103D9800C9070008CD070008000000000000000067
:103DA800890800089D080008B10800080000000004
:103DB800000000009D090008B10900087909000801
:103DC8000000000000000000A10E0008B50E000869
:103DD800C90E00080000000000000000790F00086C
:103DE8008D0F0008551000080000000000000000BA
:103DF800D9100008FD100008B110000823120008AF
:103E08000000000000000000DD120008E1120008B8
:103E1800DF12000800000000000000001113000875
:103E280025130008391300080000000000000000F6
:103E3800FB130008FD13000800000000000000004C
:103E4800191500081B1500080000000000000000FC
:103E5800BD150008D1150008000000000000000092
:103E68004B1600084D160008000000000000000076
:103E78001119000813190008211900080203040188
:103E88000203040C0106000000000050000000506E
:103E980000000050000100500001005000010050D7
:103EA80000010050000400500004005000000050C1
:103EB8000000000000000000491A00084B1A000822
:103EC8000000000000000000371C0008391C000832
:103ED8000000000000000000351C0008471C000816
:103EE8006D1F000800000000000000007D20000891
:103EF8007F200008152200080000000000000000D4
:103F0800292300082B2300080000000000000000FF
:103F1800F1260008192700084925000800000000BC
:103F2800000000002D2700082F27000800000000CF
:103F3800000000000D2800080F280008412900088B
:103F48000000000000000000A12B0008B52B0008AD
:103F580017300008D12F0008192E00080731000873
:103F68005D300008096573745F696D755F73656E10
:103F7800736F720A00203A20000A0A0A23232323B7
:103F8800230A0A0A007465726D696E616C20696E95
:103F9800697420646F6E650A006D656D20696E69CD
:103FA8007420646F6E652C2068656170207374617D
:103FB8007274206174200074696D657220696E697D
:103FC8007420646F6E650A0064656C617920323014
:103FD80030206D73200069326320696E6974206433
:103FE8006F6E650A00696D7520696E697420646F6B
:103FF8006E652077697468200061646320696E6962
:104008007420646F6E650A006C696E652073656E56
:10401800736F7220696E697420646F6E650A00643C
:10402800697374616E63652073656E736F7220695E
:104038006E697420646F6E650A00656E636F6465EF
:10404800722073656E736F7220696E697420646F75
:104058006E650A006D6F746F7220636F6E74726F95
:104068006C6C20696E697420646F6E650A006B65FC
:104078007920696E697420646F6E650A00737973BC
:1040880074656D20696E697420646F6E650A0074CA
:104098007275650066616C736500000000000000C1
:1040A80000000000912B0008932B0008000000007E
:1040B80000000000853400089D340008000000005E
:1040C80000000000B1340008B3340008000000000C
:1040D80000000000DB350008DD35000800000000A6
:1040E80000000000D9350008EB350008F47FF6D948
:1040F8000048D97F7F4E7E3C587F112230277F466B
:10410800262101F8EBE7B4C87DEDF2171D04EA415A
:10411800DEE1100002ED100BAD555CF20EE502EF8A
:10412800D6FBFAFCF700F7000200000000000000D0
:1041380000EF02FFFE0FFE0D0608F8FA0CF9FCED81
:10414800F4F101FA0F0BD011F705011709F1973EA9
:104158002609E012181AFF360AEE20F815E4150CA5
:10416800B7B63201F40A0C16FE18C50004FE230087
:104178000AFC2DD5781005000017FF0724B4DF04CA
:10418800F2FE01F8122C6B1204F0EA031430F3C8A3
:104198001BFCF5F8FD14D0D9C70A0E06FD150E1341
:1041A80016C413EF0EE3ED17CF3481FF0F18062066
:1041B8001700FF00FE0002FE0000E83512DA08F5DD
:1041C800FFFCEFE201F30DE000FB0EFAE010E8DC83
:1041D8001300060DFF0000FB06FEFF000005DD18BA
:1041E800E80B00FC000200F5FC07020305F801FEDD
:1041F800F9F3D00609000500F500000001000002EF
:104208000000FE23CFED0EE6F8FAEB07E00F00F210
:1042180005FC000D00C31CFBE9031102F5EF0310B8
:104228000100000302FBE30F1100FF000107FCF986
:10423800D8FF0107000503FFE8F8001004FB05009C
:10424800FD00000000000000000013F8D305EC0496
:10425800F4F800ECD50CF3DCFCF2FBF5E21418F1F1
:104268000005F80000000C01FD000000FDFD1C0A1F
:10427800E0000307010000E4FBF40400FD02F50080
:1042880020F801FE0316F402070000FF000000FFFB
:104298000000E71ECC0A07FE09F3FA002781080090
:1042A800FC060307DA90090C01031213030000024D
:1042B8000001F9070000D90DFC090001FD060BE516
:1042C800000100F902F6FDF6D9EBEDF70AF707FB56
:1042D8000040D318F4E0CDEDEFCBE5F5F53407FB5E
:1042E800E0FCFEFF001600090000F600F23002169E
:1042F8000701FE00FFFDFCFFFD1C010904E2F0FBC5
:10430800F69840F311DCD3EED72EE8FBF4B7FAEDBC
:10431800EE0B050702E606F2020901FD01020F0590
:104328000F00FF00FF08FD0300170C020424F2032E
:10433800FA5EEAF7032A472F1B34211F1318FDC919
:10434800EC0204F9F6FBFB06F6E606FE00EB0FF4BA
:10435800F20000000000FE00FEE7FFF8FE01020682
:1043680006E031FCF40ADE00FBD628FA0C00047FD4
:10437800DEFC00040105F201010CF80500FB000059
:10438800FF00000000FF040000F4FCFF06F50CFF2E
:1043980003E5D101080D3FF627F6E8FCFB0200D043
:1043A8005F010805F9030C0006030D000FE6E2EFB4
:1043B800F100020000FF07FF06EEF601F20911FC0A
:1043C80007000000080000000800000001000000CD
:1043D80008000000080000000400000004000000BD
:1043E80004000000040000000400000004000000B5
:1043F8000800000004000000040000000C00000099
:104408000300000003000000040000000200000098
:10441800020000000100000002000000020000008D
:104428000C00000001000000010000000500000071
:1044380000000000000000001D3900085539000880
:10444800B11000082312000800000000000000005E
:08445800213D0008393D000878
:044460009D31000882
:040000050800019D51
:00000001FF
